:100000000C944A000C9469000C9469000C946900EB
:100010000C9469000C9469000C9469000C946900BC
:100020000C9469000C9469000C9469000C946900AC
:100030000C9415060C9469000C9469000C946900EA
:100040000C9469000C9469000C9414030C946900DE
:100050000C9469000C9469000C9469000C9469007C
:100060000C9469000C9469000C9469000C9469006C
:100070000C9469000C9469000C9469000C9469005C
:100080000C9469000C9469000C9469000C9469004C
:100090000C94690011241FBECFEFD0E1DEBFCDBFAD
:1000A00011E0A0E0B1E0E0E9F1E100E00BBF02C047
:1000B00007900D92A235B107D9F711E0A2E5B1E0A2
:1000C00001C01D92AD3EB107E1F70E94FE030C9402
:1000D000C6080C94000017980895179A0895DF93A6
:1000E000CF93CDB7DEB72F970FB6F894DEBF0FBE14
:1000F000CDBF809154019091550101969093550187
:100100008093540164E670E00E943008892BD9F492
:1001100080E090EDAFEFB0E089839A83AB83BC833E
:1001200081E08D8382E08E8385E08F838091BF01A3
:1001300089878091C0018A870E94BC05BE016F5FDC
:100140007F4F0E9463042F960FB6F894DEBF0FBE58
:10015000CDBFCF91DF910895DF92EF92FF920F9381
:100160001F93DF93CF93CDB7DEB72F970FB6F894D9
:10017000DEBF0FBECDBF8C01FC01D5808081918197
:10018000A281B381F1E0DF1611F0DD243EC2892F98
:100190009A2FAB2FBB272FEF853E9207A1F0EFEFF1
:1001A000843F9E07E1F0845E9F4F09F02EC280914C
:1001B000BF01882321F4D092BF01729A26C2109207
:1001C000BF01729822C28091C001882321F4D0928D
:1001D000C001769A1AC21092C001769816C2F80130
:1001E000708560E02781620F711D80E090E024E659
:1001F00030E040E050E00E9411086093C10170932C
:10020000C2018093C3019093C401F801928580E0FC
:100210002185820F911DA0E0B0E08093C5019093ED
:10022000C601A093C701B093C801748560E023851F
:10023000620F711D80E090E020E13EE040E050E080
:100240000E9411086093C9017093CA018093CB0189
:100250009093CC01F801768560E02585620F711DD1
:1002600080E090E020E13EE040E050E00E94110894
:100270006093CD017093CE018093CF019093D00114
:100280006091C9017091CA018091CB019091CC011C
:1002900025E130E040E050E00E944408C901DA0165
:1002A0008093C9019093CA01A093CB01B093CC0174
:1002B0006091CD017091CE018091CF019091D001DC
:1002C00025E130E040E050E00E944408C901DA0135
:1002D0008093CD019093CE01A093CF01B093D00134
:1002E0008091C5019091C601A091C701B091C8014C
:1002F0008093E3019093E401A093E501B093E601BC
:100300002091C9013091CA014091CB015091CC019B
:100310008091CD019091CE01A091CF01B091D001FB
:10032000820F931FA41FB51FB695A7959795879524
:100330008093DF019093E001A093E101B093E2018B
:100340008091E3019091E401A091E501B091E60173
:100350000097A105B10589F16091DF017091E0017D
:100360008091E1019091E2012091E3013091E4015B
:100370004091E5015091E601E090E301F090E40145
:100380000091E5011091E601621B730B840B950B44
:1003900028EE33E040E050E00E941108A8019701E8
:1003A0000E944408C901DA018093D3019093D401DB
:1003B000A093D501B093D6011AC06091DF0170916E
:1003C000E0018091E1019091E20128EE33E040E00C
:1003D00050E00E941108685E734080409040609336
:1003E000D3017093D4018093D5019093D60180916D
:1003F000D3019091D401A091D501B091D601893C4F
:100400009105A105B10548F41092D7011092D801C9
:100410001092D9011092DA0114C08091D301909109
:10042000D401A091D501B091D601885C9040A04044
:10043000B0408093D7019093D801A093D901B09395
:10044000DA018091C001813091F58091C1019091D4
:10045000C201A091C301B091C4010097A105B105EB
:1004600031F58091C5019091C601A091C701B0916D
:10047000C8010097A105B105D1F48091C9019091FF
:10048000CA01A091CB01B091CC010097A105B105A3
:1004900071F48091CD019091CE01A091CF01B091E6
:1004A000D0010097A105B10511F4179A01C0179862
:1004B0008091BF01813009F0A8C08091D70190914F
:1004C000D801A091D901B091DA010097A105B10539
:1004D00049F41092DB011092DC011092DD011092C0
:1004E000DE011EC06091D7017091D8018091D901C1
:1004F0009091DA012FEF3FE040E050E00E941108B8
:1005000020EA3FE040E050E00E944408C901DA01DF
:100510008093DB019093DC01A093DD01B093DE01B9
:100520000091DB011091DC012091DD013091DE01B1
:1005300080EC60E040E098010E94C9050091DB0179
:100540001091DC012091DD013091DE0182EC60E050
:1005500040E098010E94C90580E091EDAFEFB0E066
:1005600089839A83AB83BC8381E08D8382E08E8311
:1005700088E08F838091D7019091D801A091D90113
:10058000B091DA01892F9A2FAB2FBB2788878091F2
:10059000D7019091D801A091D901B091DA01898752
:1005A0008091DB019091DC01A091DD01B091DE0131
:1005B000892F9A2FAB2FBB278A878091DB019091DF
:1005C000DC01A091DD01B091DE018B878091D30128
:1005D0009091D401A091D501B091D601892F9A2F85
:1005E000AB2FBB278C878091D3019091D401A09130
:1005F000D501B091D6018D871E861F860E94BC054D
:10060000BE016F5F7F4F0E9463048D2D2F960FB642
:10061000F894DEBF0FBECDBFCF91DF911F910F9138
:10062000FF90EF90DF9008951F920F920FB60F92F8
:100630000BB60F9211249F92AF92BF92CF92DF928E
:10064000EF92FF920F931F932F933F934F935F93DC
:100650006F937F938F939F93AF93BF93EF93FF938A
:10066000DF93CF93CDB7DEB72F97DEBFCDBF5F9AB5
:100670009090EC00892D807F8093ED00892D8295EC
:100680008F70A82FB0E0FD01E055FE4FE081E23011
:10069000B1F41092EE001092EF001092F30010925D
:1006A000F2001092F1001092F00080E01092FA0037
:1006B0008F5F8830D9F7A055BE4F1C9279C08091CA
:1006C000EF0084FF3BC081E08D832091F300809197
:1006D000F200E090F100A090F00090E0A0E0B0E027
:1006E0000DE0880F991FAA1FBB1F0A95D1F730E0B4
:1006F00040E050E015E1220F331F441F551F1A95AB
:10070000D1F7822B932BA42BB52BFF2400E010E014
:10071000F5E0EE0CFF1C001F111FFA95D1F78E2992
:100720009F29A02BB12BA694A694A694BB24CC24DD
:10073000DD248A299B29AC29BD2915C01D82209161
:10074000F2008091F30090E073E0880F991F7A9592
:10075000E1F722952695277030E0822B932BAA276C
:1007600097FDA095BA2F89839A83AB83BC83409170
:10077000EF004F70DE011896242F30E0295F3F4FC5
:10078000BE016F5F7F4F260F371F03C08091FA00B5
:100790008D93A217B307D1F74F83EE83CB010E944D
:1007A000AC001092EE008091EF0080798093EF0012
:1007B00080EF982A9092ED005F982F96DEBFCDBF14
:1007C000CF91DF91FF91EF91BF91AF919F918F9169
:1007D0007F916F915F914F913F912F911F910F9159
:1007E000FF90EF90DF90CF90BF90AF909F900F90D1
:1007F0000BBE0F900FBE0F901F901895CF92EF92E7
:100800000F931F930F9A82B1807882B98DB184645F
:100810008DB9579A8BE391E09093E8018093E701BB
:100820009093EA018093E90182E08093C80088E90F
:100830008093C90086E08093CA0080E190E09093A5
:10084000CD008093CC0080E091E00E9491080E944E
:100850000006882329F48AE191E00E949108FFCFE5
:100860000E94990580E040E054EE6FEF70E000E0F8
:100870001FEF2FEF30E0EE24E394CC24C3940E94CA
:100880000A0581E040E055EE6FEF70E000E01FEFF9
:100890002FEF30E00E940A0582E040E054EF6FEF56
:1008A00070E000E01FEF2FEF30E00E940A05109289
:1008B000ED0080E00E9456061798789481E291E05E
:1008C0000E949108FFCFCF93DF93E82FEB01829531
:1008D000807F8093ED008091EF00807C21F08091FB
:1008E000EE0086FF93C04E2F50E0FA01E055FE4F18
:1008F0008081882309F08AC01092EE001092EF00E8
:100900008C818823D9F488819981AA81BB8173E085
:10091000B695A795979587957A95D1F78093F3002B
:1009200088819981AA81BB818295880F807E80937E
:10093000F2001092F1001092F00035C08881998188
:10094000AA81BB8165E1B695A795979587956A952C
:10095000D1F78093F30088819981AA81BB813DE022
:10096000B695A795979587953A95D1F78093F2001C
:1009700088819981AA81BB8125E0B695A795979535
:1009800087952A95D1F78093F10088819981AA8172
:10099000BB81880F880F880F8093F0008091EF0053
:1009A00080618093EF0020E030E008C0FE01E20F9C
:1009B000F31F87818093FA002F5F3F4F8E8190E075
:1009C0002817390798F39091EF008E81892B809337
:1009D000EF00FA01E055FE4F82E0808321E030E035
:1009E00002C0220F331F4A95E2F78091DE00822B6E
:1009F0008093DE008091DF00832B8093DF00809165
:100A0000EF0080648093EF0081E001C080E0DF911F
:100A1000CF910895CF92EF920F931F93CF93DF93CF
:100A2000E82F9E2D8F3008F07CC08295807F8093C8
:100A3000ED008091EF00807C09F073C0CE2FD0E0F4
:100A4000FE01E055FE4FC0821092EE001092EF00C2
:100A50001092EC00913009F051C0DB01CA01F5E1C0
:100A6000B695A79597958795FA95D1F78093F3005A
:100A7000DB01CA01EDE0B695A79597958795EA95B4
:100A8000D1F78093F200DB01CA0155E0B695A79536
:100A9000979587955A95D1F78093F100842F880F09
:100AA000880F880F8093F000D901C80145E1B69501
:100AB000A795979587954A95D1F78093F700D90127
:100AC000C801FDE0B695A79597958795FA95D1F75A
:100AD0008093F600D901C801E5E0B695A7959795F2
:100AE0008795EA95D1F78093F500802F880F880FBE
:100AF000880F8093F40080E98093EF0081E090E01C
:100B000002C0880F991FCA95E2F72091DE00282BBA
:100B10002093DE002091DF00292B2093DF0081E06D
:100B200001C080E0DF91CF911F910F91EF90CF90A6
:100B3000089586E08093E2008CE08093E30087E3F1
:100B40008093E40090E0892F8295807F8093ED0070
:100B50001092EE001092EF009F5F9F30A1F78091FE
:100B6000D80082608093D80080EB8093DB00809176
:100B7000D90082FFFCCF0895E0EBF1E090E08081A6
:100B8000882329F09F5F31969F30C9F79FEF892F07
:100B900008950F931F93CF93DF93062F142FE9012E
:100BA0000E948C06882311F080E025C0003C11F0E3
:100BB000003499F4812F802B0E94E806CE0124E0B6
:100BC000969587952A95E1F70E94E8069E01229561
:100BD000207F822F0E94E8060DC0110F110F110F08
:100BE000102B812F8D2B0E94E8068C2F0E94E80687
:100BF0000E94E00681E0DF91CF911F910F9108954F
:100C00000E94860680EC60E040E020E030E00E9438
:100C1000C905882349F082EC60E040E020E030E044
:100C20000E94C905811181E008951F920F920FB6AD
:100C30000F920BB60F9211242F933F934F935F9314
:100C40006F937F938F939F93AF93BF93EF93FF9394
:100C500084EC99E0909389008093880080915601FC
:100C600090915701A0915801B09159010A96A11D88
:100C7000B11D8093560190935701A0935801B093F2
:100C800059010E946F00FF91EF91BF91AF919F9129
:100C90008F917F916F915F914F913F912F910F9025
:100CA0000BBE0F900FBE0F901F901895282F10921B
:100CB000850010928400882329F08AEF289FC001C4
:100CC000112402C084EC99E09093890080938800FD
:100CD00082E080936F008BE0809381002223A9F44F
:100CE0008091560190915701A0915801B0915901FE
:100CF0000A96A11DB11D8093560190935701A093B0
:100D00005801B09359010E946F0008951092B900E4
:100D100088E48093B8000895982F84EA8093BC00FB
:100D20008091BC0087FFFCCF8091B900887F88301C
:100D300011F08031A1F49093BB0084E88093BC0053
:100D40008091BC0087FFFCCF8091B900887F8831FB
:100D500051F0803441F0803221F0883411F081E08C
:100D6000089582E0089580E00895982F44EA34E8D9
:100D700024E94093BC008091BC0087FFFCCF8091A8
:100D8000B900887F883011F0803199F79093BB00CB
:100D90003093BC008091BC0087FFFCCF8091B900EC
:100DA000887F803211F0883539F42093BC0080911F
:100DB000BC0084FDFCCFDDCF08950E948C06089511
:100DC00084E98093BC008091BC0084FDFCCF089531
:100DD0008093BB0084E88093BC008091BC0087FFB7
:100DE000FCCF8091B90090E0887F883209F091E0D3
:100DF000892F089584EC8093BC008091BC0087FF0C
:100E0000FCCF8091BB00089584E88093BC00809162
:100E1000BC0087FFFCCF8091BB0008951092C800F2
:100E200088E18093C90086E08093CA008FE290E059
:100E30009093CD008093CC000895982F8091C800A6
:100E400085FFFCCF9093CE0008958091C80087FF66
:100E5000FCCF8091CE0008951F93182F873049F45E
:100E60006091EB017091EC0189E491E00E946608C9
:100E70000BC08A3019F48DE00E942C078091C800C5
:100E800085FFFCCF1093CE0080E090E01F91089585
:100E9000EF92FF920F931F93CF93DF937C0180918A
:100EA0005A0190915B01892B09F09FC00CE511E07C
:100EB0008091C80087FFFCCF8091C80084FF03C0E9
:100EC0002EEF3FEFA6C08091C00083FDA0C090919F
:100ED000CE009D3011F09A3069F48AE0F8018083E9
:100EE000B7010E942C078CE591E090935B01809301
:100EF0005A017BC0993009F490E2892F80528F35D6
:100F000010F0903A70F0F1E00B3A1F0711F487E00F
:100F100004C0F80191938F01892FB7010E942C071B
:100F2000C7CF923139F1933138F4933009F46FC05F
:100F3000983009F0BDCF09C0973109F44BC09F37F5
:100F400021F0953109F0B4CF32C0F1E00C351F0724
:100F500009F008F4ADCF88E0B7010E942C0780E2C9
:100F6000B7010E942C0788E0B7010E942C070150AE
:100F700010409ECF8DE0B7010E942C07CCE5D1E058
:100F800004C08991B7010E942C07C017D107C8F38C
:100F90008FCF88E0B7010E942C0780E2B7010E9442
:100FA0002C0788E0B7010E942C070150104081E017
:100FB0000C35180709F068F77BCF88E0B7010E946D
:100FC0002C0780E2B7010E942C0788E0B7010E943D
:100FD0002C078E01E1E00C351E0709F008F468CFFC
:100FE000E8018A91803249F763CFE0915A01F0918C
:100FF0005B018191F0935B01E0935A018A3021F407
:1010000010925B0110925A01282F30E002C02FEF9E
:101010003FEFC901DF91CF911F910F91FF90EF90AA
:101020000895629FD001739FF001829FE00DF11D32
:10103000649FE00DF11D929FF00D839FF00D749F52
:10104000F00D659FF00D9927729FB00DE11DF91FFE
:10105000639FB00DE11DF91FBD01CF01112408955B
:10106000AA1BBB1B51E107C0AA1FBB1FA617B707CE
:1010700010F0A61BB70B881F991F5A95A9F78095EA
:101080009095BC01CD010895A1E21A2EAA1BBB1BAD
:10109000FD010DC0AA1FBB1FEE1FFF1FA217B30744
:1010A000E407F50720F0A21BB30BE40BF50B661F5A
:1010B000771F881F991F1A9469F76095709580951E
:1010C00090959B01AC01BD01CF010895EF92FF9275
:1010D0000F931F93CF93DF937C018B01DB0113965A
:1010E0008C9181FD03C0CFEFDFEF13C0C0E0D0E0F3
:1010F0000BC0D8011896ED91FC911997B80109958C
:10110000892B11F0CFEFDFEFF70181917F01882369
:1011100081F7CE01DF91CF911F910F91FF90EF905A
:1011200008950F931F93CF93DF938C01E091E90112
:10113000F091EA01838181FF21C0C0E0D0E00DC0C1
:10114000E091E901F091EA0120853185BF01F901C3
:101150000995892B11F0CFEFDFEFF80181918F0115
:10116000882371F7E091E901F091EA01208531854A
:101170008AE0BF01F9010995892B11F0CFEFDFEF6C
:10118000CE01DF91CF911F910F910895F894FFCF79
:101190000A3E2D2D2D2D2D2D7C20535441525420AF
:1011A0007C2D2D2D2D2D2D3C0A004661696C65642A
:1011B000000A0A3E2D2D2D2D2D2D7C20444F4E450D
:1011C000207C2D2D2D2D2D2D3C0A0000000003002C
:1011D0000000002C07480700002A72696E672A0A7F
:0211E00000000D
:00000001FF
