:100000000C9471000C9490000C9490000C9490004F
:100010000C9490000C9490000C9490000C94900020
:100020000C9490000C94B60E0C9490000C949000DC
:100030000C944B0B0C9490000C9490000C9490003A
:100040000C9490000C9490000C9413070C94900066
:100050000C9490000C9490000C9490000C949000E0
:100060000C9490000C9490000C9490000C949000D0
:100070000C9490000C9490000C9490000C949000C0
:100080000C9490000C9490000C9490000C949000B0
:100090000C949000AE04C104E6040B0530054F0536
:1000A0006B058705AC05B205DB05000625064A068B
:1000B0005A06B306EC0602070207090709070907F3
:1000C00009070907090709070907090709070907B0
:1000D00009070907B603EB0307042C04510476044F
:1000E000920411241FBECFEFD0E1DEBFCDBF11E0DF
:1000F000A0E0B1E0EEE8F7E200E00BBF02C007903D
:100100000D92A834B107D9F713E0A8E4B1E001C01B
:100110001D92A33AB107E1F70E94D7000C94C513D2
:100120000C94000008959B01AC01203A8FE0380741
:1001300080E0480780E05807B8F1283883E13807A5
:1001400080E0480780E05807F8F0203787E138075B
:1001500080E0480780E0580728F464EC74E080E011
:1001600090E016C020348FE1380780E0480780E037
:10017000580728F46FE575E080E090E009C0285446
:10018000344F4F4F5F4F10C066E574E080E090E061
:100190000E94491028EE33E040E050E00E948F10AA
:1001A000C901DA019C01AD01B901CA0108952F927C
:1001B0003F924F925F926F927F928F929F92AF92F7
:1001C000BF92CF92DF92EF92FF920F931F93DF9334
:1001D000CF93CDB7DEB7AD970FB6F894DEBF0FBEA5
:1001E000CDBF3C9A44988AB180698AB9759A0E94B9
:1001F000660F0E943D0980E00E94DF0B2D9A8091DE
:10020000DF0280E040E050E060E070E000E010E0FD
:1002100020E030E0EE24E394CC24C3940E94AE08A6
:1002200081E040E050E060E070E000E010E020E0BD
:1002300030E00E94AE0882E040E050E060E070E014
:1002400000E010E020E030E00E94AE0883E040E0F3
:1002500050E060E070E000E010E020E030E00E945C
:10026000AE0884E040E050E060E070E000E010E0C4
:1002700020E030E00E94AE0885E040E050E060E021
:1002800070E000E010E020E030E00E94AE0886E080
:1002900040E050E060E070E000E010E020E030E09E
:1002A0000E94AE0887E040E050E060E070E000E0CF
:1002B00010E020E030E00E94AE08789410924801EF
:1002C00088EE93E020E931E0F9013197F1F70197E9
:1002D000D9F78E01005F1F4F88E1D8011D928A95E2
:1002E000E9F78FE00E94DF0B80E093EEAFEFB0E024
:1002F00089839A83AB83BC8381E08D8382E08E8384
:100300008F8388872D9A1092DF02CC24B1E0BAA7A0
:10031000B9A718A6AA24BB24882499240BA7D12EF8
:10032000FE01B896FDA7ECA73E010894611C711C64
:10033000212C84EE382E8FEF482E80E1582EFAA51E
:10034000F13021F0F23009F079C14DC089A581303A
:10035000F9F480E061E070E00E947B0A84E060E0F4
:1003600070E00E947B0A85E060E070E00E947B0AFA
:1003700086E060E070E00E947B0A87E060E070E069
:100380000E947B0A91E098A7AA24BB248824992480
:1003900080915302909154026AE070E00E947C10B8
:1003A0007B016A157B0529F084E00E947B0AA1E0AD
:1003B000A8A780915102909152026AE070E00E94D9
:1003C0007C108B016815790521F085E00E947B0A7D
:1003D00005C0B8A5B13011F057012AC10E94350AF5
:1003E0005701480129C1E9A5E13009F04EC080E07C
:1003F00062E070E00E947B0A84E060E070E00E94AE
:100400007B0A85E060E070E00E947B0A86E060E0A5
:1004100070E00E947B0A87E060E070E00E947B0A47
:1004200088E060E070E00E947B0A89E060E070E0B4
:100430000E947B0A8AE060E070E00E947B0A8BE009
:1004400060E070E00E947B0A8CE060E070E00E9457
:100450007B0A8DE060E070E00E947B0A8EE060E045
:1004600070E00E947B0A8FE060E070E00E947B0AEF
:100470008BA59D2DFC01119211928CA59DA5E817CD
:10048000F907C9F791E098A703C0CC2009F0CDC0C7
:1004900000919E0210919F02888999890817190777
:1004A00041F084E0B8010E947B0A198B088BA1E01F
:1004B000A8A700919C0210919D028A899B89081728
:1004C000190741F085E0B8010E947B0A1B8B0A8B5B
:1004D000B1E0B8A700919A0210919B028C899D8986
:1004E0000817190741F086E0B8010E947B0A1D8BAE
:1004F0000C8BE1E0E8A70091A4021091A5028E897F
:100500009F890817190741F087E0B8010E947B0A0C
:100510001F8B0E8BF1E0F8A70091A2021091A302AD
:10052000888D998D0817190741F088E0B8010E945D
:100530007B0A198F088F81E088A70091A002109193
:10054000A1028A8D9B8D0817190741F089E0B80137
:100550000E947B0A1B8F0A8F91E098A70091AA0244
:100560001091AB028C8D9D8D0817190741F08AE020
:10057000B8010E947B0A1D8F0C8FA1E0A8A70091F3
:10058000A8021091A9028E8D9F8D0817190741F0BE
:100590008BE0B8010E947B0A1F8F0E8FB1E0B8A7D5
:1005A0000091A6021091A70288A199A10817190726
:1005B00041F08CE0B8010E947B0A19A308A3E1E096
:1005C000E8A70091B0021091B1028AA19BA108177F
:1005D000190741F08DE0B8010E947B0A1BA30AA312
:1005E000F1E0F8A70091AE021091AF028CA19DA19D
:1005F0000817190741F08EE0B8010E947B0A1DA37D
:100600000CA381E088A70091AC021091AD028EA1ED
:100610009FA10817190741F08FE0B8010E947B0ADB
:100620001FA30EA3CC2406C0CC2498A5913011F0B2
:1006300019A604C00E94350A19A618A68091B20115
:10064000882309F47CCE8091B2011092B2018830E7
:1006500039F4AAA5A23009F472CEB2E0BAA7C7CE87
:10066000873039F4EAA5E13009F469CEF1E0FAA760
:1006700070CE813029F480E093EEAFEFB0E112C08C
:10068000823051F429823A824B825C820E94600956
:10069000B3010E94070853CE833049F480E095EE01
:1006A000AFEFB0E189839A83AB83BC83EFCF843013
:1006B00059F491E0C91611F4CC2441CECC2009F0B4
:1006C0003ECECC24C3943BCE893009F038CE809105
:1006D000DF02813019F41092DF0231CEA1E0A09345
:1006E000DF022DCEDF92EF92FF920F931F93CF93F5
:1006F000DF93EC01DD80E880F9800A811B8100D066
:1007000000D000D0EDB7FEB7319680E091E0ADB7F4
:10071000BEB712969C938E931197C801AA27BB2748
:1007200093838283F582E4820E94DC108DB79EB7AA
:1007300006960FB6F8949EBF0FBE8DBF91E0D916F6
:1007400009F067C3D0924801BB27A12F902F8F2DAE
:10075000FC01F096E732F10508F05BC3E65BFF4F62
:10076000EE0FFF1F0590F491E02D0994988580E02D
:100770002F81820F911D90932A02809329029A85DE
:1007800080E02985820F911D90932C0280932B028B
:100790009C8580E02B85820F911D90932E02809383
:1007A0002D029E8580E02D85820F911D9093300251
:1007B00080932F026091290270912A0280E090E0DC
:1007C0000E9493006093D7027093D8028093D9025D
:1007D0009093DA021FC3988580E02F81820F911DCC
:1007E00090933202809331029A8580E02985820FAE
:1007F000911D90933402809333029C8580E02B8579
:10080000820F911D909336028093350203C3988521
:1008100080E02F81820F911D9093380280933702E0
:100820009A8580E02985820F911D90933A028093EA
:1008300039029C8580E02B85820F911D90933C02AC
:1008400080933B029E8580E02D85820F911D9093C1
:100850003E0280933D02DEC2988580E02F81820FA8
:10086000911D9093400280933F029A8580E02985F4
:10087000820F911D90934202809341029C8580E0FB
:100880002B85820F911D90934402809343029E8595
:1008900080E02D85820F911D909346028093450242
:1008A000B9C2988580E02F81820F911D90934802F4
:1008B000809347029A8580E02985820F911D90934D
:1008C0004A02809349029C8580E02B85820F911D0E
:1008D00090934C0280934B029E8580E02D85820F81
:1008E000911D90934E0280934D0294C2988580E0B2
:1008F0002F81820F911D9093500280934F029A8511
:1009000080E02985820F911D9093520280935102BD
:100910009C8580E02B85820F911D909354028093DB
:10092000530278C2988580E02F81820F911D9093A9
:100930005602809355029A8580E02985820F911D89
:1009400090935802809357028B85809359028C852F
:1009500080935A028D8580935B025CC28F81809365
:100960005C02888580935D02898580935E029A850A
:1009700080E02B85820F911D9093600280935F022F
:1009800049C29F8180E02885820F911D9093620269
:1009900080936102998580E02A85820F911D909352
:1009A0006402809363029B8580E02C85820F911DF9
:1009B00090936602809365029D8580E02E85820F6C
:1009C000911D909368028093670224C29F8180E00A
:1009D0002885820F911D90936A0280936902998500
:1009E00080E02A85820F911D90936C0280936B02A8
:1009F0009B8580E02C85820F911D90936E028093E1
:100A00006D029D8580E02E85820F911D909370026E
:100A100080936F02FFC18F8190E090937202809368
:100A20007102888590E090937402809373028985A7
:100A300090E090937602809375028A8590E090937F
:100A40007802809377028B8590E090937A0280936E
:100A500079028C8590E090937C0280937B02DAC1CE
:100A60008F8180937D02988580E02985820F911D7A
:100A700090937F0280937E029A8580E02B85820F7F
:100A8000911D90938102809380029C8580E02D854A
:100A9000820F911D9093830280938202BBC19F813C
:100AA00080E02885820F911D9093850280938402B7
:100AB000998580E02A85820F911D9093870280930B
:100AC00086029B8580E02C85820F911D9093890280
:100AD000809388029FC19F8180E02885820F911DAD
:100AE00090938B0280938A02998580E02A85820FF9
:100AF000911D90938D0280938C029B8580E02C85C4
:100B0000820F911D90938F0280938E0283C19F81EB
:100B100080E02885820F911D90939102809390022E
:100B2000998580E02A85820F911D9093930280938E
:100B300092029B8580E02C85820F911D90939502F7
:100B4000809394029D8580E02E85820F911D909365
:100B50009702809396025EC19F8180E02885820F74
:100B6000911D52C19F8180E02885820F911D937055
:100B70009093B3028093B202998580E02A85820F18
:100B8000911D93709093B5028093B4029B8580E091
:100B90002C85820F911D93709093B7028093B602BB
:100BA0009D8580E02E85820F911D93709093B902F0
:100BB0008093B8022FC19F8180E02885820F911D0C
:100BC00090939B0280939A02998580E02A85820FF8
:100BD000911D9093A1028093A0029B8580E02C85BB
:100BE000820F911D9093A7028093A6029D8580E0BD
:100BF0002E85820F911D9093AD028093AC020AC1A5
:100C00009F8180E02885820F911D90939D028093A3
:100C10009C02998580E02A85820F911D9093A30202
:100C20008093A2029B8580E02C85820F911D90937A
:100C3000A9028093A8029D8580E02E85820F911DD8
:100C40009093AF028093AE02E5C09F8180E028853B
:100C5000820F911D90939F0280939E02998580E060
:100C60002A85820F911D9093A5028093A4029B85F3
:100C700080E02C85820F911D9093AB028093AA0295
:100C80009D8580E02E85820F911D9093B102809307
:100C9000B002C0C08F818093BA0288858093BB0266
:100CA00089858093BC028A858093BD028C85809360
:100CB000BE02B0C02F8130E040E050E0522F442708
:100CC00033272227888590E0A0E0B0E0DC01992757
:100CD0008827280F391F4A1F5B1F8A85280F311D5F
:100CE000411D511D898590E0A0E0B0E0BA2FA92FE9
:100CF000982F8827280F391F4A1F5B1F2093BF0298
:100D00003093C0024093C1025093C2022B8530E061
:100D100040E050E0522F4427332722278C8590E073
:100D2000A0E0B0E0DC0199278827280F391F4A1F6F
:100D30005B1F8E85280F311D411D511D8D8590E053
:100D4000A0E0B0E0BA2FA92F982F8827280F391FCD
:100D50004A1F5B1F2093C3023093C4024093C50215
:100D60005093C60257C09F8180E02885820F911D55
:100D70009093C8028093C70289858093C9022A850F
:100D800030E040E050E0522F4427332722278B8564
:100D900090E0A0E0B0E0DC0199278827280F391FF8
:100DA0004A1F5B1F8D85280F311D411D511D8C85EC
:100DB00090E0A0E0B0E0BA2FA92F982F8827280F45
:100DC000391F4A1F5B1F2093CA023093CB02409306
:100DD000CC025093CD021EC08F818093CE02DE01E3
:100DE00020E030E018968C911897F901E153FD4FFF
:100DF00080832F5F3F4F11962730310599F710926E
:100E0000D60208C08F8190E0909399028093980257
:100E100001C0DD248D2DDF91CF911F910F91FF90A7
:100E2000EF90DF9008951F920F920FB60F920BB6BE
:100E30000F9211249F92AF92BF92CF92DF92EF92C6
:100E4000FF920F931F932F933F934F935F936F9353
:100E50007F938F939F93AF93BF93EF93FF93DF9312
:100E6000CF93CDB7DEB72F97DEBFCDBF87E061E070
:100E700041E050E00E941B0D9090EC00892D807F96
:100E80008093ED00892D82958F70A82FB0E0FD0131
:100E9000E354FE4F80818E838230B1F41092EE00D5
:100EA0001092EF001092F3001092F2001092F100F5
:100EB0001092F00080E01092FA008F5F8830D9F72E
:100EC000A354BE4F1C9278C08091EF0084FF3BC0BA
:100ED00081E08D832091F3008091F200E090F10099
:100EE000A090F00090E0A0E0B0E07DE0880F991FB6
:100EF000AA1FBB1F7A95D1F730E040E050E065E1D2
:100F0000220F331F441F551F6A95D1F7822B932B55
:100F1000A42BB52BFF2400E010E025E0EE0CFF1C15
:100F2000001F111F2A95D1F78E299F29A02BB12BC5
:100F3000A694A694A694BB24CC24DD248A299B29BC
:100F4000AC29BD2915C01D822091F2008091F300CB
:100F500090E0B3E0880F991FBA95E1F722952695A6
:100F6000277030E0822B932BAA2797FDA095BA2FEC
:100F700089839A83AB83BC834091EF004F70FE015D
:100F80003896242F30E0295F3F4FBE016F5F7F4FBF
:100F9000260F371F03C08091FA008193E217F307F1
:100FA000D1F74F83CB010E9472031092EE00809123
:100FB000EF0080798093EF0080EF982A9092ED0007
:100FC00087E060E041E050E00E941B0D2F96DEBFFD
:100FD000CDBFCF91DF91FF91EF91BF91AF919F91E5
:100FE0008F917F916F915F914F913F912F911F91C1
:100FF0000F91FF90EF90DF90CF90BF90AF909F90B8
:101000000F900BBE0F900FBE0F901F901895CF93AF
:10101000DF93E82FEB018295807F8093ED00809134
:10102000EF00807C21F08091EE0086FF93C04E2F70
:1010300050E0FA01E354FE4F8081882309F08AC012
:101040001092EE001092EF008C818823D9F48881F1
:101050009981AA81BB8173E0B695A79597958795ED
:101060007A95D1F78093F30088819981AA81BB8119
:101070008295880F807E8093F2001092F10010928A
:10108000F00035C088819981AA81BB8165E1B69560
:10109000A795979587956A95D1F78093F3008881F6
:1010A0009981AA81BB813DE0B695A79597958795D3
:1010B0003A95D1F78093F20088819981AA81BB810A
:1010C00025E0B695A795979587952A95D1F78093B2
:1010D000F10088819981AA81BB81880F880F880FD0
:1010E0008093F0008091EF0080618093EF0020E01A
:1010F00030E008C0FE01E20FF31F87818093FA0001
:101100002F5F3F4F8E8190E02817390798F3909119
:10111000EF008E81892B8093EF00FA01E354FE4F9C
:1011200082E0808321E030E002C0220F331F4A9525
:10113000E2F78091DE00822B8093DE008091DF0059
:10114000832B8093DF008091EF0080648093EF0019
:1011500081E001C080E0DF91CF910895CF92EF92BE
:101160000F931F93CF93DF93E82F9E2D8F3008F0BE
:101170007CC08295807F8093ED008091EF00807C21
:1011800009F073C0CE2FD0E0FE01E354FE4FC082C1
:101190001092EE001092EF001092EC00913009F0E6
:1011A00051C0DB01CA01F5E1B695A79597958795E2
:1011B000FA95D1F78093F300DB01CA01EDE0B69513
:1011C000A79597958795EA95D1F78093F200DB0173
:1011D000CA0155E0B695A795979587955A95D1F789
:1011E0008093F100842F880F880F880F8093F00080
:1011F000D901C80145E1B695A795979587954A9578
:10120000D1F78093F700D901C801FDE0B695A79505
:1012100097958795FA95D1F78093F600D901C80183
:10122000E5E0B695A79597958795EA95D1F78093D0
:10123000F500802F880F880F880F8093F40080E9D5
:101240008093EF0081E090E002C0880F991FCA955B
:10125000E2F72091DE00282B2093DE002091DF00B2
:10126000292B2093DF0081E001C080E0DF91CF9146
:101270001F910F91EF90CF90089586E08093E20048
:101280008CE08093E30087E38093E40090E0892F73
:101290008295807F8093ED001092EE001092EF0017
:1012A0009F5F9F30A1F78091D80082608093D80023
:1012B00080EB8093DB008091D90082FFFCCF089502
:1012C000EDEBF1E090E08081882329F09F5F31967B
:1012D0009F30C9F79FEF892F08959B01AC018EB114
:1012E00083608EB9699A82E08093C00088E1809320
:1012F000C10086E08093C20083E0220F331F441FA9
:10130000551F8A95D1F760E074E284EF90E00E9467
:101310008F10215030403093C5002093C4000895B1
:10132000982F5C9A8091C00085FFFCCF9093C600F7
:101330005C9808951F93CF93DF93EC0110E003C0F6
:101340000E9490091F5FFE01E10FF11D808188233B
:10135000B9F7DF91CF911F910895FC018091C000F2
:1013600087FF06C05F9A8091C600808381E0089560
:101370005F9880E00895E6ECF0E080819081382F5E
:1013800020E0290F311DC901089572986A9A80E9F9
:1013900091E0FC013197F1F76A980197F1F7089510
:1013A0000E94C50980E395E720E931E0F901319712
:1013B000F1F70197D9F760E072EC81E090E00E94CC
:1013C0006D0908958F929F92AF92BF92CF92DF9254
:1013D000EF92FF920F931F93DF93CF930F92CDB7AE
:1013E000DEB77B018C016A011982FA011082BB24ED
:1013F0004E010894811C911C95E0A92E21C0C401C6
:101400000E94AD098823A1F0AB2DB0E0F601EA0FF0
:10141000FB1F898180838A3011F08D3041F4AC0D3F
:10142000BD1D11961C925F98F601808110C0B39487
:101430008A2D8A95F1F70894E108F108010911094C
:10144000E114F10401051105D1F65F9880E00F90D9
:10145000CF91DF911F910F91FF90EF90DF90CF9090
:10146000BF90AF909F908F9008950F931F93DF933D
:10147000CF9300D000D00F92CDB7DEB78FE295E5C5
:10148000AAE0B0E089839A83AB83BC831D828091FC
:10149000C6008091C6008E010F5F1F4FC8010E94D9
:1014A0009A0960E17BEE89E090E0A8010E94E209E0
:1014B0008823B9F0893559F488EE93E020E931E0CA
:1014C000F9013197F1F70197D9F781E00AC088EE69
:1014D00093E020E931E0F9013197F1F70197D9F76D
:1014E0008FEF0F900F900F900F900F90CF91DF9193
:1014F0001F910F9108950F931F93DF93CF93CDB753
:10150000DEB76E970FB6F894DEBF0FBECDBF9091D9
:10151000C6009091C6002DB73EB7285030400FB698
:10152000F8943EBF0FBE2DBFEDB7FEB731968E01CA
:101530000F5F1F4FADB7BEB712961C930E93119756
:1015400022E131E0338322838483158277836683AB
:101550000E94EE102DB73EB7285F3F4F0FB6F894AC
:101560003EBF0FBE2DBFC8010E949A0960E17BEE0D
:1015700089E090E0A8010E94E209882329F08935DA
:1015800011F08FEF01C081E06E960FB6F894DEBFC8
:101590000FBECDBFCF91DF911F910F9108958EBDEA
:1015A0000DB407FEFDCF8EB5089528988F708EBDBF
:1015B0000DB407FEFDCF8EB56EBD0DB407FEFDCF99
:1015C0008EB5289A08951F93CF93DF93EC0116E010
:1015D000CE016AE070E00E946810482FCE016AE0F8
:1015E00070E00E946810EB01442331F4611571052D
:1015F00019F4812F6FE002C0812F642F0E94D50A59
:10160000115031F7DF91CF911F91089581E06FE084
:101610000E94D50A82E06FE00E94D50A83E06FE065
:101620000E94D50A84E06FE00E94D50A85E06FE051
:101630000E94D50A86E06FE00E94D50A87E060E04C
:101640000E94D50A88E060E00E94D50A0895289A91
:10165000209A84B1866084B980E58CBD8FE060E01B
:101660000E94D50A8CE061E00E94D50A89E06FE310
:101670000E94D50A8BE067E00E94D50A8AE06FE0FD
:101680000E94D50A0E94060B0895462B8F5F642F97
:101690000E94D50A08951F920F920FB60F920BB6B3
:1016A0000F9211242F933F934F935F936F937F93E8
:1016B0008F939F93AF93BF93EF93FF9384EC99E045
:1016C00090938900809388008091490190914A010C
:1016D000A0914B01B0914C010A96A11DB11D8093C0
:1016E000490190934A01A0934B01B0934C010E9491
:1016F0009200FF91EF91BF91AF919F918F917F9158
:101700006F915F914F913F912F910F900BBE0F9072
:101710000FBE0F901F901895282F109285001092E1
:101720008400882329F08AEF289FC001112402C079
:1017300084EC99E0909389008093880082E0809304
:101740006F008BE0809381002223A9F480914901EE
:1017500090914A01A0914B01B0914C010A96A11DB4
:10176000B11D8093490190934A01A0934B01B0931E
:101770004C010E9492000895AC0110929C0365B147
:1017800081B38A7F81BB2D9A20E030E0CA01022E0E
:1017900002C0969587950A94E2F780FD8A9A889A06
:1017A0008A9888982C9A2C982F5F3F4F20313105CA
:1017B00069F765FF2D9881E080939C030895382F89
:1017C00080E090E020E004C09695879590682F5FB8
:1017D0002317D0F30E94BC0B089584B1806384B9B1
:1017E00080B3856080BB81E080939C03089585E28F
:1017F00091E090939E0380939D039093A003809328
:101800009F0382E08093C80088E98093C90086E046
:101810008093CA0080E190E09093CD008093CC004B
:101820000895982F8091C80085FFFCCF9093CE003B
:1018300008958091C80087FFFCCF8091CE00089565
:101840001F93182F873049F46091A1037091A20370
:101850008DE191E00E94B1100BC08A3019F48DE047
:101860000E94200C8091C80085FFFCCF1093CE0011
:1018700080E090E01F910895EF92FF920F931F93E5
:10188000CF93DF937C0180914D0190914E01892B84
:1018900009F09FC00FE411E08091C80087FFFCCFE2
:1018A0008091C80084FF03C02EEF3FEFA6C0809157
:1018B000C80083FDA0C09091CE009D3011F09A30F9
:1018C00069F48AE0F8018083B7010E94200C8FE45C
:1018D00091E090934E0180934D017BC0993009F4C3
:1018E00090E2892F80528F3510F0903A70F0F1E03D
:1018F0000E391F0711F487E004C0F80191938F019E
:10190000892FB7010E94200CC7CF923139F1933152
:1019100038F4933009F46FC0983009F0BDCF09C096
:10192000973109F44BC09F3721F0953109F0B4CFBE
:1019300032C0F1E00F341F0709F008F4ADCF88E0A2
:10194000B7010E94200C80E2B7010E94200C88E0C1
:10195000B7010E94200C015010409ECF8DE0B701CE
:101960000E94200CCFE4D1E004C08991B7010E940D
:10197000200CC017D107C8F38FCF88E0B7010E94B1
:10198000200C80E2B7010E94200C88E0B7010E9481
:10199000200C0150104081E00F34180709F068F75F
:1019A0007BCF88E0B7010E94200C80E2B7010E9443
:1019B000200C88E0B7010E94200C8E01E1E00F347A
:1019C0001E0709F008F468CFE8018A91803249F7D0
:1019D00063CFE0914D01F0914E018191F0934E0162
:1019E000E0934D018A3021F410924E0110924D0186
:1019F000282F30E002C02FEF3FEFC901DF91CF91D8
:101A00001F910F91FF90EF9008950F9390E0FC01CC
:101A100033E0EE0FFF1F3A95E1F7E81BF90BEE51AB
:101A2000FE4F718360834283138224830583168271
:101A30000F9108950895A82FB0E0FD01EE0FFF1F4C
:101A4000E453FE4F8FEF9FEF96838583613029F13A
:101A5000613030F06230E9F1633009F06DC053C09D
:101A60008091CE0121E030E00A2E02C0220F331F08
:101A70000A94E2F7922F909589238093CE0180916A
:101A8000D00189238093D0018091CF019823909336
:101A9000CF0188B1282B28B94FC02091CE0181E019
:101AA00090E00A2E02C0880F991F0A94E2F7282BB3
:101AB0002093CE012091D001809528232093D0013E
:101AC0002091CF0128232093CF0128B1822388B908
:101AD00033C02091CE0181E090E00A2E02C0880F31
:101AE000991F0A94E2F7382F309523232093CE01D3
:101AF0002091D001822B8093D0018091CF01382397
:101B00003093CF0119C03091CE0181E090E00A2ED0
:101B100002C0880F991F0A94E2F7282F20953223DC
:101B20003093CE013091D00123232093D001209116
:101B3000CF01822B8093CF01AA0FBB1FA453BE4FAE
:101B400016965C934E9315970895482F50E0DA014E
:101B500083E0AA0FBB1F8A95E1F7A41BB50BAE511A
:101B6000BE4F13968C9113978130E9F0813038F095
:101B7000823009F445C0833009F06EC05CC0ED913D
:101B8000FC911197808112962C91129790E002C0DF
:101B9000959587952A95E2F780FD5EC016961C9272
:101BA000169781E045C016968C911697843620F0E2
:101BB00082E013968C9316C0ED91FC911197808171
:101BC00012962C91129790E002C0959587952A95D0
:101BD000E2F780FF07C014968C9114978093B201AE
:101BE00013961C92FA01A3E0EE0FFF1FAA95E1F7EE
:101BF000E41BF50BEE51FE4F86818F5F86830895BF
:101C000015968C9115978093B201ED91FC911197E7
:101C1000808112962C91129790E002C0959587953D
:101C20002A95E2F780FF03C013961C92089583E083
:101C300013968C930895ED91FC91119780811296E3
:101C40002C91129790E002C0959587952A95E2F71E
:101C500080FF02C013961C92089589B190E096957A
:101C60008795382F317029B121708091B7013817CD
:101C700029F48091B801281709F44FC08091B3016D
:101C80009091B401A091B501B091B601BA2FA92FDE
:101C9000982F88278093B3019093B401A093B50146
:101CA000B093B6019091B7018091B801E22FF0E0B6
:101CB000EE0FFF1FE30FF11DEE0FFF1FE80FF11DE9
:101CC000EE0FFF1FE90FF11DEC5CFE4F808180934A
:101CD000B3013093B7012093B8018091B3018230F2
:101CE000E1F02091B3018091B4018230B1F0909184
:101CF000B4018091B501823081F08091B501290F46
:101D0000280F8091B601823041F08091B601909108
:101D1000BA01280F290F2093BA010895CF93DF93BA
:101D20008091DF02882329F4C0912902D0912A02F0
:101D300009C08091D7029091D802A091D902B091A8
:101D4000DA02EC0188E3C53AD80728F02D988FE035
:101D50000E94DF0B01C02D9ACE010E94E30AD093AE
:101D6000A301C093A201DF91CF9108951F920F921A
:101D70000FB60F920BB60F9211241F932F933F9320
:101D80004F935F936F937F938F939F93AF93BF9383
:101D9000EF93FF938091A0019091A1010196909300
:101DA000A1018093A0018091A0019091A1010E94C6
:101DB0002D0E10E0133019F0812F0E94A50D1F5F2A
:101DC0001A30C1F70E948E0E209184023091850254
:101DD0008091A6019091A7012817390721F520913C
:101DE0008602309187028091A8019091A90128175D
:101DF0003907C9F420918802309189028091AA01A3
:101E00009091AB012817390771F48091AD018436A8
:101E100030F48091AD018F5F8093AD0108C081E007
:101E20008093AC0104C01092AD011092AC0180917E
:101E30008402909185029093A7018093A6018091DE
:101E40008602909187029093A9018093A8018091C6
:101E50008802909189029093AB018093AA018091AE
:101E6000DF02813011F4439801C0439A8091BA0295
:101E7000813011F4409801C0409A659902C046989B
:101E800001C0469A8091AC01813019F4449845987C
:101E900002C0449A459A80915E02813011F44298C2
:101EA00001C0429AFF91EF91BF91AF919F918F91A5
:101EB0007F916F915F914F913F912F911F910F9063
:101EC0000BBE0F900FBE0F901F9018950E94D00967
:101ED00020E230E03093E3012093E2011092E4012C
:101EE0001092E50191E09093E60181E18093E70192
:101EF0001092E8013093EA012093E9019093EB01FD
:101F00001092EC0152E05093ED0182E18093EE01DA
:101F10001092EF013093F1012093F0015093F20100
:101F20001092F30183E08093F40183E18093F50143
:101F30001092F6013093FF012093FE0184E080931C
:101F400000021092010295E09093020285E18093D5
:101F5000030210920402309306022093050290932C
:101F600007021092080246E04093090286E180933E
:101F70000A0210920B0230930D0220930C02409340
:101F80000E0210920F0297E09093100287E1809367
:101F900011021092120230931402209313029093B4
:101FA00015021092160288E08093170288E1809350
:101FB00018021092190223E230E030931B022093A2
:101FC0001A0290931C0210921D0289E080931E0257
:101FD00089E180931F021092200230932202209305
:101FE000210240932302109224028AE0809325026A
:101FF0008AE180932602109227029FEF92B985B161
:10200000806C85B9599A589A1092B7011092B8010C
:102010005093B6015093B5015093B4015093B3015E
:102020001092BA011092BC011092B20198B997B9FE
:102030001092CC011092CE011092CF011092D001DB
:1020400080E090E02FEF3FEFFC01EE0FFF1FE45325
:10205000FE4F36832583019688309105A9F70E94AB
:10206000ED0B2D9A80E00E94DF0B0E94270B80E48D
:102070009CE90197F1F71092A1011092A0018CE95F
:102080008093B30082E0809370008FE08093B00073
:102090000895629FD001739FF001829FE00DF11DB2
:1020A000649FE00DF11D929FF00D839FF00D749FD2
:1020B000F00D659FF00D9927729FB00DE11DF91F7E
:1020C000639FB00DE11DF91FBD01CF0111240895DB
:1020D000AA1BBB1B51E107C0AA1FBB1FA617B7074E
:1020E00010F0A61BB70B881F991F5A95A9F780956A
:1020F0009095BC01CD01089597FB092E07260AD0C3
:1021000077FD04D0E5DF06D000201AF470956195C4
:102110007F4F0895F6F7909581959F4F0895A1E21E
:102120001A2EAA1BBB1BFD010DC0AA1FBB1FEE1F51
:10213000FF1FA217B307E407F50720F0A21BB30B9C
:10214000E40BF50B661F771F881F991F1A9469F718
:1021500060957095809590959B01AC01BD01CF0174
:102160000895EF92FF920F931F93CF93DF937C011B
:102170008B01DB0113968C9181FD03C0CFEFDFEF64
:1021800013C0C0E0D0E00BC0D8011896ED91FC91CF
:102190001997B8010995892B11F0CFEFDFEFF701FF
:1021A00081917F01882381F7CE01DF91CF911F912B
:1021B0000F91FF90EF900895DF93CF93CDB7DEB7E7
:1021C000FE0135966191719180919F039091A003DA
:1021D000AF010E941F11CF91DF9108950F931F93BC
:1021E000DF93CF93CDB7DEB72E970FB6F894DEBF4F
:1021F0000FBECDBF0D891E8986E08C831A830983AB
:102200008FEF9FE79E838D839E01275E3F4FCE0118
:1022100001966F89788DA9010E941F112F81388541
:10222000020F131FF80110822E960FB6F894DEBF2E
:102230000FBECDBFCF91DF911F910F9108952F92C7
:102240003F924F925F926F927F928F929F92AF9246
:10225000BF92CF92DF92EF92FF920F931F93DF9383
:10226000CF93CDB7DEB72B970FB6F894DEBF0FBE76
:10227000CDBF3C012B015A01FC01178216828381DC
:1022800081FD03C06FEF7FEFC6C19AE0892E1E016A
:102290000894211C311CF3012381F20123FD859157
:1022A00023FF81912F01882309F4B2C1853239F4CB
:1022B00023FD859123FF81912F01853229F490E040
:1022C000B3010E943B13E7CF982FFF24EE249924FB
:1022D000FFE1FF15D0F09B3269F09C3228F4903278
:1022E00059F0933291F40EC09D3249F0903369F465
:1022F00041E024C052E0F52A84E0F82A28C098E0A2
:10230000F92A25C0E0E1FE2A22C0F7FC29C0892F66
:1023100080538A3070F4F6FE05C0989C902C1124EE
:10232000980E15C0E89CE02C1124E80EF0E2FF2A7C
:102330000EC09E3229F4F6FC6BC140E4F42A07C0BB
:102340009C3619F450E8F52A02C0983649F4F20197
:1023500023FD959123FF91912F01992309F0B8CF87
:10236000892F8554833018F08052833038F444E04C
:1023700050E0A40EB51E5FE359830FC0933631F0D1
:10238000933779F0933509F056C020C0F50180816C
:10239000898342E050E0A40EB51E610101E010E027
:1023A00012C0F501C080D180F6FC03C06FEF7FEF53
:1023B00002C0692D70E042E050E0A40EB51EC601D7
:1023C0000E9430138C015FE7F52214C0F501C08034
:1023D000D180F6FC03C06FEF7FEF02C0692D70E083
:1023E00042E050E0A40EB51EC6010E9425138C01E8
:1023F00050E8F52AF3FE07C01AC080E290E0B3016E
:102400000E943B13EA948E2D90E008171907A8F359
:102410000EC0F601F7FC8591F7FE81916F0190E007
:10242000B3010E943B13E110EA94015010400115E2
:10243000110579F7EAC0943611F0993669F5F7FE7F
:1024400008C0F501208131814281538184E090E010
:102450000AC0F501808191819C01442737FD409598
:10246000542F82E090E0A80EB91E9FE6F92257FF94
:1024700009C050954095309521953F4F4F4F5F4F84
:10248000E0E8FE2ACA01B901A1012AE030E00E9479
:102490006713D82ED21840C0953729F41F2D1F7E00
:1024A0002AE030E01DC01F2D197F9F3661F0903764
:1024B00020F4983509F0ACC00FC0903739F0983748
:1024C00009F0A6C004C028E030E00AC0106114FD85
:1024D000146020E130E004C014FD166020E132E019
:1024E00017FF08C0F501608171818281938144E00A
:1024F00050E008C0F50180819181BC0180E090E04E
:1025000042E050E0A40EB51EA1010E946713D82E30
:10251000D2188FE7F82EF122F6FE0BC05EEFF522FF
:10252000D91438F4F4FE07C0F2FC05C08FEEF8228F
:1025300002C01D2D01C0192DF4FE0DC0FE01ED0DD0
:10254000F11D8081803319F499EEF92208C01F5FD4
:10255000F2FE05C003C08F2D867809F01F5F0F2D96
:10256000F3FC14C0F0FE0FC01E1510F09D2C0BC024
:102570009D2C9E0C911A1E2D06C080E290E0B301A6
:102580000E943B131F5F1E15C0F304C01E1510F4FC
:10259000E11A01C0EE2404FF0FC080E390E0B30114
:1025A0000E943B1302FF1DC001FD03C088E790E0BD
:1025B0000EC088E590E00BC0802F867891F001FF77
:1025C00002C08BE201C080E2F7FC8DE290E0B30133
:1025D0000E943B1306C080E390E0B3010E943B13CE
:1025E0009A94D914C0F3DA94F101ED0DF11D8081B4
:1025F00090E0B3010E943B13DD20A9F706C080E202
:1026000090E0B3010E943B13EA94EE20C1F743CE61
:10261000F30166817781CB012B960FB6F894DEBF6C
:102620000FBECDBFCF91DF911F910F91FF90EF9023
:10263000DF90CF90BF90AF909F908F907F906F90E2
:102640005F904F903F902F900895FC01059061504E
:1026500070400110D8F7809590958E0F9F1F0895B8
:10266000FC016150704001900110D8F78095909561
:102670008E0F9F1F08950F931F93CF93DF938C01AD
:10268000EB018B8181FF1BC082FF0DC02E813F813A
:102690008C819D812817390764F4E881F9810193C1
:1026A000F983E88306C0E885F985802F0995892B91
:1026B00031F48E819F8101969F838E8302C00FEF3C
:1026C0001FEFC801DF91CF911F910F910895FA017B
:1026D000AA27283051F1203181F1E8946F936E7F61
:1026E0006E5F7F4F8F4F9F4FAF4FB1E03ED0B4E052
:1026F0003CD0670F781F891F9A1FA11D680F791F93
:102700008A1F911DA11D6A0F711D811D911DA11DA3
:1027100020D009F468943F912AE0269F11243019B3
:10272000305D3193DEF6CF010895462F4770405D4E
:102730004193B3E00FD0C9F7F6CF462F4F70405DFD
:102740004A3318F0495D31FD4052419302D0A9F758
:10275000EACFB4E0A6959795879577956795BA9552
:10276000C9F700976105710508959B01AC010A2E18
:1027700006945795479537952795BA95C9F7620FEF
:0E278000731F841F951FA01D0895F894FFCFAE
:10278E0043414E2049443A202530345825303458A0
:10279E000A002F53253032753025690A002A7269D6
:1027AE006E672A0A000000000300000000200C3CA7
:1027BE000C00000100FF0102010002FFFF020001F8
:0827CE000201FF0000010203FB
:00000001FF
