:040000000C946005F7
:14008C00050A050A2D0A2D0A2D0A2D0A2D0A6F092D0A2D0A49
:1400A0008D092D0AA109B509BF09DD09D309E709FB092D0A62
:1400B4002D0AF1092D0A650997098309AB09C9092D0A7909F7
:1400C8002D0A2D0A2D0A0F0A2D0A230A2D0A2D0A2D0A6F09E5
:1400DC002D0A2D0A8D092D0AA109B509BF09DD09D309E709F3
:1400F000FB092D0A2D0AF1092D0A650997098309AB09C90939
:140104002D0A79092D0A2D0A2D0A0F0A2D0A230A200190005B
:140118007B019000380290007B019000FA0190007B0190005A
:14012C003E019000380290007B019000EE00900038029000D2
:14014000D40090007B019000FA019000EE0090007B01900026
:14015400FA0190007B019000380290007B019000FA0190009F
:140168003E019000380290007B019000EE0090007B01900054
:14017C00D40090007B019000FA019000EE0090007B019000EA
:14019000FA0190007B019000380290007B019000FA01900063
:1401A4007B0190003E014002380200009B01CD00CB02CD007D
:1401B8000000330159026700CB02670000006700CB02CD0008
:1401CC003004CD00CB02CD002303CD00CB02CD0000003301C3
:1401E000DD016700CB02670000006700CB02CD00C201CD0001
:1401F400BB03CD005902CD00CB02CD00DD01CD00CB026700CB
:14020800CB02670023036700000067002303CD00BB03CD003C
:14021C007D026702CB02D1040000CD00CB02CD0000003301A9
:1402300059026700CB02670000006700CB02CD003004CD00C2
:14024400CB02CD002303CD00CB02CD0000003301DD01670006
:14025800CB02670000006700CB02CD00C201CD00BB03CD0042
:14026C005902CD00CB02CD00DD01CD00CB026700CB026700A9
:1402800023036700000067002303CD00BB03CD007D02670210
:14029400CB02CD00000000002001520030045200300452003D
:1402A8003004520030045200300452003004520030045200A4
:1402BC0030045200A9015200A9015200A9015200A9015200B8
:1402D0009101520091015200910152009101520065015200D2
:1402E40065015200650152006501520065015200650152006E
:1402F800650152003004520038025200380252003802520010
:14030C003802520051015200510152005101520051015200C1
:14032000650152006501520065015200650152006501520031
:1403340065015200650152006501520065015200650152001D
:14034800650152006501520065015200650152006501520009
:14035C00650152005101520051015200510152005101520045
:14037000650152006501520051015200510152006501520009
:14038400650152006501520065015200910152009101520075
:14039800910152009101520065015200650152006501520061
:1403AC0065015200910152009101520065015200650120017E
:1403C00091019000A9019000F4030000DC025C00DD015C0062
:1403D40065015C00DD015C006501DC02DD016E0159026E01BE
:1403E8003004DC02CB026E0100005C00DD015C0065015C005B
:1403FC00DD015C006501DC02DD016E0159026E013004DC0246
:1404100091016E0100005C00DD015C0000005C009101DC0275
:140424006501B7002C015C000000B7003E015C0000005C0070
:1404380065015C000000DC0291016E0100005C00DD015C0079
:14044C0065015C00DD015C006501DC02DD016E013004DC02FD
:14046000CB020000AE00AE007B015700000057006501570078
:140474003E0157000000B802EE0057000000AE00A901570030
:14048800000057007B01B8026501AE000000AE003E0157007B
:14049C000000570038025700FA0157000000B802B20057004F
:1404B0000000AE003802570000005700FA015C01EE005C01FF
:1404C400D4005C01BD00AE007B0157000000570065015700A1
:1404D8003E0157000000B802EE00AE000000AE00D40057004B
:1404EC0000005700BD00B802B20057000000AE003E015700E1
:140500000000AE003E015C01BD005C01D40057000000AE00AA
:140514003E0157000000AE00B200570000005C01D400B8029B
:14052800EE000000000180015902800023038000000080004E
:14053C00230380000000800023030001300400010000000227
:14055000000080013004800023038000000080002303800096
:140564000000800023030001590200010000000200008001FD
:14057800590280002303800000008000230380000000800048
:14058C002303000130040001000000020000800130048000C8
:1405A000230380000000800023038000000080002303800055
:1405B40059028000DD0180000000800023030001CB02000185
:1405C8002303800159028000230380000000800023038000D1
:1405DC000000800023030001300400010000000200008001AC
:1405F0003004800023038000000080002303800000008000F7
:14060400230300015902000100000002000080015902800001
:1406180023038000000080002303800000008000230300015B
:14062C003004000100000002000080013004800023038000A8
:1406400000008000230380000000800023038000590280007F
:14065400DD0180000000800023030001CB0200012303800019
:14066800590200000D20202020202020202020202020202036
:14067C0020202020202020200D0020202D20536F6E673A20DF
:14069000436F636120436F6C61202E2E2E0020202D20536F48
:1406A4006E673A20496E6469616E61204A6F6E6573202E2EC4
:1406B8002E000D2020202020202020202020202020202020D3
:1406CC0020202020202020202020202020202020202020209A
:1406E000202020202020200D0020202D20536F6E673A205447
:1406F400686520476F6F642C207468652042616420616E6475
:14070800207468652055676C79202E2E2E000D202020202064
:14071C00202020202020202020202020202020202020202049
:14073000200D0020202D20536F6E673A2050756C702046699A
:140744006374696F6E202E2E2E000D202020202020202020AD
:14075800202020202020202020202020200D0020202D205300
:14076C006F6E673A2045786F7263697374202E2E2E000D20B3
:140780002020202020202020202020202020202020202020E5
:140794002020202020200D0020202D20536F6E673A2042655F
:1407A8007665726C792048696C6C73202E2E2E002020272DB1
:1407BC002D2D2D272D2D2D2D272D2D2D2D272D2D2D2D272DBD
:1407D0002D2D2D272D2D2D2D272D2D2D2D272D2D2D2D272DA9
:1407E4002D2D2D272D2D2D2D272D2D2D2D270D0A0020207CCA
:1407F800204C41207C205349207C20444F207C205245207CAA
:14080C00204D49207C204641207C534F4C207C204C41207C70
:14082000205349207C20444F207C205245207C0D0A00202073
:140834007C202020207C202020207C202020207C20202020C0
:140848007C202E2E207C202020207C202020207C2020202090
:14085C007C202020207C202020207C202020207C0D0A0020E1
:14087000207C206120207C207320207C206420207C20662066
:14088400207C206720207C206820207C206A20207C206B204C
:14089800207C206C20207C203B20207C202720207C0D0A0037
:1408AC00272D2E2D2D272D2E2D2D272D2E2D2D272D2E2D2DC8
:1408C000272D2E2D2D272D2E2D2D272D2E2D2D272D2E2D2DB4
:1408D400272D2E2D2D272D2E2D2D272D2E2D2D272D2E2D2DA0
:1408E800270D0A007C207120207C207720207C202020207CA6
:1408FC00207220207C207420207C202020207C207520207CFD
:14091000206920207C206F20207C202020207C205B20207C10
:14092400205D20207C0D0A007C3A3A3A3A7C3A3A3A3A7C200B
:140938002020207C3A3A3A3A7C3A3A3A3A7C202020207C3AD1
:14094C003A3A3A7C3A3A3A3A7C3A3A3A3A7C202020207C3A6F
:140960003A3A3A7C3A3A3A3A7C0D0A007C534F4C237C204C69
:1409740041237C202020207C20444F237C205245237C2020AB
:1409880020207C204641237C534F4C237C204C41237C202040
:14099C0020207C20444F237C205245237C0D0A002E2D2D2D17
:1409B0002D2E2D2D2D2D2E202020202E2D2D2D2D2E2D2D2DDF
:1409C4002D2E202020202E2D2D2D2D2E2D2D2D2D2E2D2D2DCB
:1409D8002D2E202020202E2D2D2D2D2E2D2D2D2D2E0D0A0027
:1409EC0020202020202020206F7220706C6179205049414EF8
:140A00004F206F6E20515745525459205043206B6579626F9D
:140A14006172643A0D0A0A0020202D20205072657373206FF3
:140A28006E65206F662074686520626F617264206B6579738D
:140A3C002028636F6D706173732063617264290D0A002A2A1A
:140A50002A2A2A2A2A2A2A2A2A2A2A2A2A2A2A2A2A2A2A2A4A
:140A64002A2A2A2A2A2A2A2A2A2A2A2A2A2A2A2A2A2A2A2A36
:140A78002A2A2A2A2A2A2A2A2A2A0D0A000D0D0D0A204E6FA1
:140A8C00762E20323030342024204154393043414E313238FD
:140AA00020242052696E6720546F6E65732026205069616E37
:0B0AB4006F20506C617965720D0A0024
:140AC000CFEFD0E1CDBFDEBFC052D0400AEA08830024E3E5FD
:140AD400F5E015E0ED35F10711F00192FBCF0083ECE6F6E0A1
:140AE800A0E0B1E01AE0EF3BF10721F0C89531960D92F9CF31
:140AFC000E94D506FFCF0E94DC0B5801609740E350E360E329
:140B100070E3FE01448755876687778740E050E060E070E00D
:140B2400FE01408351836283738340E050E060E070E0FE016D
:140B3800448355836683778340E050E060E070E0FE01408781
:140B4C0051876287738715C041E050E060E070E0FE01208085
:140B6000318042805380240E351E461E571EFE012082318289
:140B740042825382C5010A975C0189E090E08A159B0530F3D5
:140B880024C041E050E060E070E0FE0124803580468057809F
:140B9C00240E351E461E571EFE0124823582468257824AE0C0
:140BB00050E060E070E0FE012080318042805380241A350A0F
:140BC400460A570AFE01208231824282538249E050E060E0E6
:140BD80070E0FE012080318042805380421553056405750542
:140BEC0008F4CDCF24C041E050E060E070E0FE012084318440
:140C000042845384240E351E461E571EFE01208631864286C1
:140C140053864AE050E060E070E0FE01248035804680578014
:140C2800241A350A460A570AFE01248235824682578249E064
:140C3C0050E060E070E0FE0124803580468057804215530540
:140C50006405750508F4CDCF88E190E0FE012084318442841E
:140C640053848A93810192010E94F70BFE01248435844684A5
:140C78005784202A312A422A532AFE012486358646865786F2
:140C8C00FE012480358046805780210122243324FE016484B9
:140CA0007584868497846228732884289528FE0164867586B0
:140CB4008686978688E090E0FE0120803180428053808A9329
:140CC800810192010E94F70BFE012484358446845784202A10
:140CDC00312A422A532AFE0124863586468657861501442435
:140CF0005524FE0164847584868497846228732884289528E4
:140D0400FE016486758686869786FE01048515852685378545
:140D180060960E94D50B08950E94DE0BA801662722242092F9
:140D2C00B00088E08093B6008091B6008F7E8093B600809124
:140D4000B00083608093B0004030E1E05E0730F08091B000D2
:140D540084608093B00061E04030E0E25E0710F040E050E2BA
:140D68008091B00088608093B00085E0869F90018A010E94C3
:140D7C00090CC80101978093B30083B5826083BD8091B0000C
:140D900080618093B000B99BFECF83E087BB22242092B0003D
:140DA4000E94D20B0895EF97EF97EF97EF97EF97EF97EF9775
:140DB800EF97EF97EF97EF97EF97EF97EF97EF97EF97EF97EB
:140DCC00EF97EF97EF97EF97AD974427552784E191E0FE01FB
:140DE0000CE910E0FA93EA939A938A930E94100C80EB91E02C
:140DF400FE01E456FF4F0CEE10E0FA93EA939A938A930E9484
:140E0800100C8CE992E0FE01E857FE4F00E311E0FA93EA936A
:140E1C009A938A930E94100C8CEC93E0FE01E854FD4F08E957
:140E300010E0FA93EA939A938A930E94100C84E694E0FE01CF
:140E4400E05BFC4F08EC10E0FA93EA939A938A930E94100C1E
:140E58008CE295E0FE01E85EFB4F00E411E0FA93EA939A9308
:140E6C008A930E94100C80E8809361002224209261000E94C0
:140E80004A0A09E115E00E946C0A02EE14E00E946C0A00EB2C
:140E940014E00E946C0A00E814E00E946C0A00E414E00E94D0
:140EA8006C0A00E014E00E946C0A00EC13E00E946C0A00E8F5
:140EBC0013E00E946C0A00E413E00E946C0A03E013E00E94B0
:140ED0006C0A06EC12E00E946C0A09E812E00E946C0A0CE4B1
:140EE40012E00E946C0A0E948D0B0FE00E94920B0E94D70A05
:140EF80083E08AB922242BB86627B0C20E94EE0A602F0023CC
:140F0C0019F40E945C0A602FA62EBB24C5018032E0E09E079D
:140F200009F4D0C18232E0E09E0709F482C282E28A159B0532
:140F340004F1C5018130E0E09E0709F43FC08230E0E09E07C5
:140F480009F47BC08330E0E09E0709F4B3C08430E0E09E07BC
:140F5C0009F4EFC08530E0E09E0709F42BC18B30E0E09E07B2
:140F700009F467C172C2C5018732E0E09E0709F458C2873260
:140F8400E0E09E070CF467C2C5018A33E0E09E070CF461C2C0
:140F98008DE790E08A159B050CF45BC202E010E095010E94FB
:140FAC00C20BF80188E190E0E80FF91F05901490F0010994BC
:140FC00001E00E94920B00E312E00E946C0A41E050E00E941D
:140FD4008A0A1CC04F5F5F4F02E010E09A010E94C20BF80168
:140FE800CE0184569F4FE80FF91F008111810E94BA0A86014F
:140FFC0091DE002711270E94BA0A02E010E08ADE4F5F5F4F17
:1410100002E010E09A010E94C20BF801CE0184569F4FE80F69
:14102400F91F208031806101CC20A1F6DD2091F60E94C20A78
:1410380002E112E00E946C0A11C202E00E94920B0BEF11E0D8
:14104C000E946C0A41E050E00E948A0A1AC04F5F5F4F02E0D9
:1410600010E09A010E94C20BF801CE01E80FF91F0081118198
:141074000E94BA0A860152DE002711270E94BA0A02E010E0B4
:141088004BDE4F5F5F4F02E010E09A010E94C20BF801CE012B
:14109C00E80FF91F208031806101CC20C1F6DD20B1F60E9495
:1410B000C20A02EE11E00E946C0AD4C104E00E94920B07ECBC
:1410C40011E00E946C0A41E050E00E948A0A1CC04F5F5F4F50
:1410D80002E010E09A010E94C20BF801CE0188579E4FE80F9D
:1410EC00F91F008111810E94BA0A860113DE002711270E94E6
:14110000BA0A02E010E00CDE4F5F5F4F02E010E09A010E94F0
:14111400C20BF801CE0188579E4FE80FF91F208031806101A4
:14112800CC20A1F6DD2091F60E94C20A0AEA11E00E946C0A41
:14113C0093C108E00E94920B0DE711E00E946C0A41E050E0D6
:141150000E948A0A1CC04F5F5F4F02E010E09A010E94C20B41
:14116400F801CE0188549D4FE80FF91F008111810E94BA0A5F
:141178008601D2DD002711270E94BA0A02E010E0CBDD4F5F40
:14118C005F4F02E010E09A010E94C20BF801CE0188549D4F35
:1411A000E80FF91F208031806101CC20A1F6DD2091F60E94D0
:1411B400C20A0EE411E00E946C0A52C100E10E94920B02E348
:1411C80011E00E946C0A41E050E00E948A0A1CC04F5F5F4F4B
:1411DC0002E010E09A010E94C20BF801CE01805B9C4FE80F9E
:1411F000F91F008111810E94BA0A860191DD002711270E9464
:14120400BA0A02E010E08ADD4F5F5F4F02E010E09A010E946E
:14121800C20BF801CE01805B9C4FE80FF91F208031806101A5
:14122C00CC20A1F6DD2091F60E94C20A02E112E00E946C0A4C
:1412400011C108E00E94920B0AE111E00E946C0A41E050E05C
:141254000E948A0A1CC04F5F5F4F02E010E09A010E94C20B3C
:14126800F801CE01885E9B4FE80FF91F008111810E94BA0A52
:14127C00860150DD002711270E94BA0A02E010E049DD4F5F3F
:141290005F4F02E010E09A010E94C20BF801CE01885E9B4F28
:1412A400E80FF91F208031806101CC20A1F6DD2091F60E94CB
:1412B800C20A00E011E00E946C0AD0C00E94C20ACDC00E9440
:1412CC008A0A03EB14E00E94BA0A06E910E022DDC3C00E942F
:1412E0008A0A00E714E00E94BA0A06E910E018DDB9C00E9436
:1412F4008A0A00E314E00E94BA0A06E910E00EDDAFC00E943A
:141308008A0A04EF13E00E94BA0A06E910E004DDA5C00E942A
:14131C008A0A0BEB13E00E94BA0A06E910E0FADC9BC00E9428
:141330008A0A05E813E00E94BA0A06E910E0F0DC91C00E9431
:141344008A0A03E513E00E94BA0A06E910E0E6DC87C00E9436
:141358008A0A03E213E00E94BA0A06E910E0DCDC7DC00E9439
:14136C008A0A06EF12E00E94BA0A06E910E0D2DC73C00E942A
:141380008A0A0BEC12E00E94BA0A06E910E0C8DC69C00E9428
:141394008A0A03EA12E00E94BA0A06E910E0BEDC5FC00E9432
:1413A8008A0A0DE712E00E94BA0A06E910E0B4DC55C00E942B
:1413BC008A0A09E512E00E94BA0A06E910E0AADC4BC00E9431
:1413D0008A0A08E312E00E94BA0A06E910E0A0DC41C00E9434
:1413E4008A0A08E112E00E94BA0A06E910E096DC37C00E9436
:1413F8008A0A0AEF11E00E94BA0A06E910E08CDC2DC00E9427
:14140C008A0A0DED11E00E94BA0A06E910E082DC23C00E9425
:141420008A0A02EC11E00E94BA0A06E910E078DC19C00E9431
:141434008A0A09EA11E00E94BA0A06E910E06EDC0FC00E942C
:141448008A0A01E911E00E94BA0A06E910E064DC05C00E9435
:14145C00C20A00270E94920B4FCDEF96EF96EF96EF96EF9695
:14147000EF96EF96EF96EF96EF96EF96EF96EF96EF96EF9636
:14148400EF96EF96EF96EF96EF96EF96AD960895222420925E
:14149800C1002092C50083E38093C40080E28093C0008EE028
:1414AC008093C20088E18093C10008952090C00027FC02C028
:1414C000002702C00091C60008952090C00025FEFCCF00934A
:1414D400C60008950E94E00BA80104C0FA010191AF01F1DF9A
:1414E800FA0120802220C1F70E94E30B08950E94E00BA801F8
:1414FC0004C0FA010191AF01E2DFFA0120802220C1F70E94E3
:14151000E30B0895222424BC81E087BD84B58F7C84BD84B5B3
:14152400886084BD84B5816084BD2F9A209281002092800001
:14153800209282002092890020928800209287002092860085
:14154C0080918000846080938000809180008D7F8093800053
:1415600088E18093810080918100826080938100279A089514
:141574001801232C33242092870000938600089522242092BD
:141588008000209287002092860024BC27982F98089501302A
:14159C0021F484B5806184BD03C084B58F7C84BD08956C98E2
:1415B0006F986E986D986A98749A779A769A759A729A08952C
:1415C4002CB020940CB1009502212CB020940221047F22278F
:1415D800022B08952CB020940CB1009502212CB0209402217D
:1415EC00047F2227202E222A022D222D33272434E0E03E0750
:1416000009F487C084E490E0821793070CF436C02032E0E07F
:141614003E0709F468C080E290E082179307B4F02031E0E09E
:141628003E0709F458C080E190E08217930734F02430E0E018
:14163C003E0709F456C06AC02431E0E03E0709F45EC064C07F
:141650002033E0E03E0709F450C080E390E08217930734F0F7
:141664002432E0E03E0709F454C054C02034E0E03E0709F49C
:1416780036C04EC02438E0E03E0709F444C084E890E0821783
:14168C009307A4F02036E0E03E0709F436C080E690E082175F
:1416A00093072CF02035E0E03E0719F135C02038E0E03E07CA
:1416B400B1F030C0203AE0E03E07F9F080EA90E0821793073C
:1416C8002CF02039E0E03E07C1F022C0203CE0E03E0769F047
:1416DC001DC001E01BC002E019C003E017C004E015C005E04E
:1416F00013C006E011C007E00FC008E00DC009E00BC00AE053
:1417040009C00BE007C00CE005C00DE003C00EE001C00FE057
:1417180008958FEF81B9222422B8089502B9089580B182950B
:14172C008F7090B19F709295982B92B908958FEF80B9089534
:141740000E94DC0BA22E602F44276830B8F4AA2051F441E0CE
:1417540001E0162F0E94030C202E209432B0322032B88A2DD3
:14176800813041F441E001E0162F0E94030C22B0202A22B899
:14177C00042F0E94D50B08950A921A928A939A93029FC00113
:14179000129F900D039F900D8C019991899119900990089508
:1417A400E2E00C94E40BE4E00C94E40BFA92EA92DA92CA92BD
:1417B800BA92AA927A936A935A934A930895E1E0499159919F
:1417CC00E0FD089569917991E1FD0895A990B990E2FD089512
:1417E000C990D990E3FD0895E990F99008950F9209900020BD
:1417F40031F0000F111F221F331F0A94F8CF0F900895112319
:1418080019F0000F1A95FBCF0895222321F0169507952A9542
:14181C00FACF0895AA93BA93EA93FA930A92AF81B885ED8147
:14183000FE810030010731F0C8950D92319601501040F7CFA2
:0E1844000990F991E991B991A991249608951E
:00000001FF
