:100000000C944A000C9469000C9469000C946900EB
:100010000C9469000C9469000C9469000C946900BC
:100020000C9469000C9469000C9469000C946900AC
:100030000C9469000C9469000C9469000C9469009C
:100040000C9469000C9469000C946B000C9469008A
:100050000C9469000C9469000C9469000C9469007C
:100060000C9469000C9469000C9469000C9469006C
:100070000C9469000C9469000C9469000C9469005C
:100080000C9469000C9469000C9469000C9469004C
:100090000C94690011241FBECFEFD0E1DEBFCDBFAD
:1000A00012E0A0E0B1E0E6E2F0E100E00BBF02C048
:1000B00007900D92A630B107D9F712E0A6E0B2E0A2
:1000C00001C01D92A337B107E1F70E94D9000C943B
:1000D00011080C9400001F920F920FB60F920BB6EE
:1000E0000F9211242F933F938F939F93AF93BF93BE
:1000F000EF93FF935F9A2091EC00822F807F809393
:10010000ED00822F82958F70A82FB0E0FD01E25A9A
:10011000FD4F80818230B1F41092EE001092EF001A
:100120001092F3001092F2001092F1001092F00081
:1001300080E01092FA008F5F8830D9F7A25ABD4F45
:100140001C9222C08091EF0084FF09C08091F300CF
:100150008091F2008091F1008091F00004C08091C4
:10016000F2008091F3009091EF009F7080E003C057
:100170003091FA008F5F8917D8F31092EE008091CA
:10018000EF0080798093EF00206F2093ED005F985F
:10019000FF91EF91BF91AF919F918F913F912F91DF
:1001A0000F900BBE0F900FBE0F901F90189580E020
:1001B00008958F929F92AF92BF92CF92DF92EF926B
:1001C000FF920F931F93DF93CF93CDB7DEB7AD9719
:1001D0000FB6F894DEBF0FBECDBF579A6E9A83EE6E
:1001E00091E090936E0280936D02909370028093E1
:1001F0006F0260E072EC81E090E00E94420660EAEB
:1002000076E881E090E00E9486050E94CE040E947C
:10021000B802882321F080E091E00E94DC0788E2A8
:100220000E94FE04882321F089E191E00E94DC070E
:1002300080EA9FE00197F1F784E10E94FE048823A1
:1002400021F089E291E00E94DC0780EA9FE00197BB
:10025000F1F78AE20E94FE04882321F08AE391E00C
:100260000E94DC0780EA9FE00197F1F788E10E9495
:10027000FE04882321F08BE491E00E94DC0780EAF1
:100280009FE00197F1F78CE20E94FE04882321F0A1
:100290008CE591E00E94DC0780EA9FE00197F1F78E
:1002A00086E10E94FE04882321F08DE691E00E9401
:1002B000DC0780EA9FE00197F1F78CE30E94FE04DF
:1002C000882321F08EE791E00E94DC0780EA9FE01E
:1002D0000197F1F784E50E94FE04882321F08FE85E
:1002E00091E00E94DC0780EA9FE00197F1F78EE33E
:1002F0000E94FE04882321F080EA91E00E94DC073E
:1003000080EA9FE00197F1F780E50E94FE048823D0
:1003100021F081EB91E00E94DC0780EA9FE00197E9
:10032000F1F782E50E94FE04882321F082EC91E03F
:100330000E94DC0780EA9FE00197F1F780E40E94C9
:10034000FE04882321F083ED91E00E94DC0780EA1F
:100350009FE00197F1F781E08D8380E09AEDAFEFA8
:10036000B0E089839A83AB83BC8388E08F83FE01EE
:100370003896CE0140961192E817F907E1F781E02F
:100380008C8B80E09BEDAFEFB0E0888B998BAA8BD4
:10039000BB8B88E08E8BFE017796CE014F96119233
:1003A000E817F907E1F781E08BA380E09CEDAFEF60
:1003B000B0E08F8F98A3A9A3BAA388E08DA382E0B1
:1003C0008CA3FE01B696CE018E961192E817F9071E
:1003D000E1F7789400EA1FE04E010894811C911C1B
:1003E00020E1A22EB12CAC0EBD1E9FE1C92ED12C56
:1003F000CC0EDD1E80E9E82E81E0F82E769AC80149
:100400000197F1F788E260E00E940D05C8010197AD
:10041000F1F784E161E00E940D05C8010197F1F751
:100420008AE262E00E940D05C8010197F1F788E1B8
:1004300063E00E940D05C8010197F1F78CE264E0CA
:100440000E940D05C8010197F1F786E165E00E9461
:100450000D05C8010197F1F78CE366E00E940D05D8
:10046000C8010197F1F784E567E00E940D05C80116
:100470000197F1F78EE368E00E940D05C80101972E
:10048000F1F780E569E00E940D05C8010197F1F7D9
:1004900082E56AE00E940D05C8010197F1F780E44A
:1004A0006BE00E940D05C8010197F1F776988091E5
:1004B000F10189878091F4018B878091F7018D8705
:1004C0008091FA018F878091F201888F8091F501E8
:1004D0008A8F8091F8018C8F8091FB018E8F8091A3
:1004E000F3018FA38091F60189A78091F9018BA771
:1004F0008091FC018DA70E94F1048F3018F4B401A3
:100500000E9492030E94F1048F3018F4B5010E94FA
:1005100092030E94F1048F3018F4B6010E949203F6
:1005200084EF91E0F7013197F1F70197D9F784EF64
:1005300091E0F7013197F1F70197D9F75FCF0F936A
:100540001F93182F062F86EA0E94C005882321F0EA
:100550000E94140681E009C0812F0E941C06802F92
:100560000E941C060E94140680E01F910F910895BE
:100570008CE26CE00E949F02882311F081E00895D4
:1005800081E360E00E949F02882311F082E00895D9
:100590008DE268E00E949F02811183E00895AF928E
:1005A000BF92CF92DF92EF92FF920F931F9386EA52
:1005B0000E94C005882321F00E94140681E087C0B4
:1005C00082E30E941C0687EA0E941106882321F01C
:1005D0000E94140682E07BC00E942E06082F0E9413
:1005E0002E06182F0E942E06C82E0E942E06D82EE8
:1005F0000E942E06A82E0E943806B82E0E941406CD
:10060000712F60E0600F711D660F771F660F771FF7
:10061000882777FD8095982F21EB33E040E050E06C
:100620000E9455076E5C794A8040904028EE33E086
:1006300040E050E00E94960779017D2D60E06C0D4E
:10064000711D660F771F660F771F882777FD8095CE
:10065000982F29EB33E040E050E00E9455076E5A96
:100660007F468040904028EE33E040E050E00E941A
:10067000960789017B2D60E06A0D711D660F771F5B
:10068000660F771F882777FD8095982F24ED33E03C
:1006900040E050E00E9455076C5B784480409040F9
:1006A00028EE33E040E050E00E949607C9012FB7E2
:1006B000F894F0920702E092060210930902009368
:1006C000080290930B0280930A022FBF80E01F91D3
:1006D0000F91FF90EF90DF90CF90BF90AF90089573
:1006E0001F93CF93DF93182FEB0186EA0E94C0057A
:1006F000882321F00E94140681E010C0812F0E94FF
:100700001C0687EA0E941106882321F00E94140625
:1007100082E004C00E943806888380E0DF91CF9198
:100720001F910895CF93DF93E82FEB018295807F8F
:100730008093ED008091EF00807C21F08091EE00AD
:1007400086FF88C06E2F70E0FB01E25AFD4F80816A
:10075000882309F07FC01092EE001092EF008C8188
:10076000288139814A815B818823E1F4DA01C9015A
:1007700033E0B695A795979587953A95D1F78093ED
:10078000F300822F8295880F807E8093F200109272
:10079000F1001092F0009E81492F50E0FE0120E010
:1007A00030E032C0DA01C901F5E1B695A795979519
:1007B0008795FA95D1F78093F300DA01C901EDE04E
:1007C000B695A79597958795EA95D1F78093F2000E
:1007D000DA01C90135E0B695A795979587953A95C1
:1007E000D1F78093F100822F880F880F880F8093B4
:1007F000F0008091EF0080618093EF00CCCF868184
:100800008093FA002F5F3F4F319624173507B8F3D6
:100810008091EF00982B9093EF00FB01E25AFD4F7F
:1008200082E0808321E030E002C0220F331F6A950E
:10083000E2F78091DE00822B8093DE008091DF0062
:10084000832B8093DF008091EF0080648093EF0022
:1008500081E001C080E0DF91CF910895CF92EF92C7
:100860000F931F93CF93DF93E82F9E2D8F3008F0C7
:100870008DC08295807F8093ED008091EF00807C19
:1008800009F084C0CE2FD0E0FE01E25AFD4FC082B5
:100890001092EE001092EF001092EC00913009F0EF
:1008A00062C0DB01CA01F5E1B695A79597958795DA
:1008B000FA95D1F78093F000DB01CA01EDE0B6951F
:1008C000A79597958795EA95D1F78093F100DB017D
:1008D000CA0175E0B695A795979587957A95D1F752
:1008E0008093F200842F880F880F880F8093F30085
:1008F000D901C80165E1B695A795979587956A9541
:10090000D1F78093F400D901C8015DE0B695A795B1
:10091000979587955A95D1F78093F500D901C8012D
:1009200045E0B695A795979587954A95D1F7809319
:10093000F600802F880F880F880F8093F700809132
:10094000F4009091F500A091F600B091F70081605D
:100950008093F4009093F500A093F600B093F70015
:1009600080E98093EF0081E090E002C0880F991F3A
:10097000CA95E2F72091DE00282B2093DE0020911B
:10098000DF00292B2093DF0081E001C080E0DF91B0
:10099000CF911F910F91EF90CF90089586E08093B3
:1009A000E2008CE08093E30087E38093E40090E032
:1009B000892F8295807F8093ED001092EE00109237
:1009C000EF009F5F9F30A1F78091D80082608093F5
:1009D000D80080EB8093DB008091D90082FFFCCFB0
:1009E0000895EEE5F2E090E08081882329F09F5F92
:1009F00031969F30C9F79FEF892F0895882339F0EA
:100A00008F5F0E94C005882321F00E94140681E0B8
:100A100008950E94140680E00895FF920F931F939B
:100A2000182FF62E882331F00E94C005882321F06C
:100A30000E94140681E066C087E00E941C06812F98
:100A40008F5F0E941106882321F00E94140682E025
:100A500059C00E942E06082F0E942E06182F0E94B1
:100A60002E060E94140617FF02C083E04BC0612FC0
:100A700070E06F777070762F6627600F711D882782
:100A800077FD8095982F22E330E040E050E00E940F
:100A90009607CA01B901E3E0660F771F881F991F07
:100AA000EA95D1F7620F731F841F951F695979402A
:100AB0008040904025E030E040E050E00E94960702
:100AC000C901DA019C01AD01205E3F4F4F4F5F4FDE
:100AD00057FF05C020E030E040E050E00AC02F3F63
:100AE00031054105510529F024F02FEF30E040E0B9
:100AF00050E08FB7F894EF2DF0E0EF50FE4F2083D9
:100B00008FBF80E01F910F91FF900895EF92FF92A9
:100B10000F931F937B018C0160E074E284EF90E0FF
:100B2000A80197010E947407205130404040504076
:100B300056954795379527952A503040404050406C
:100B4000263F310541055105D8F781E08093B90072
:100B500060E079E08DE390E0A80197010E947407BE
:100B60002051304040405040569547953795279545
:100B70002093B80084E01F910F91FF90EF900895AB
:100B8000982F84EA8093BC008091BC0087FFFCCF43
:100B90008091B900887F883011F08031A1F4909362
:100BA000BB0084E88093BC008091BC0087FFFCCF31
:100BB0008091B900887F883151F0803441F08032D3
:100BC00021F0883411F081E0089582E0089580E0FA
:100BD0000895982F44EA34E824E94093BC008091BA
:100BE000BC0087FFFCCF8091B900887F883011F06E
:100BF000803199F79093BB003093BC008091BC008A
:100C000087FFFCCF8091B900887F803211F0883552
:100C100039F42093BC008091BC0084FDFCCFDDCF73
:100C200008950E94C005089584E98093BC008091D6
:100C3000BC0084FDFCCF08958093BB0084E88093C2
:100C4000BC008091BC0087FFFCCF8091B90090E090
:100C5000887F883209F091E0892F089584EC809391
:100C6000BC008091BC0087FFFCCF8091BB00089541
:100C700084E88093BC008091BC0087FFFCCF80910A
:100C8000BB0008959B01AC0182E08093C80088E915
:100C90008093C90086E08093CA0083E0220F331F4F
:100CA000441F551F8A95D1F760E074E284EF90E00D
:100CB0000E947407215030403093CD002093CC0027
:100CC0000895982F8091C80085FFFCCF9093CE00A7
:100CD00008958091C80087FFFCCF8091CE000895D1
:100CE0001F93182F873049F460917102709172023E
:100CF0008DEF91E00E94B1070BC08A3019F48DE0AE
:100D00000E9470068091C80085FFFCCF1093CE0032
:100D100080E090E01F910895EF92FF920F931F9350
:100D2000CF93DF937C0180910C0290910D02892B6F
:100D300009F09FC00EE012E08091C80087FFFCCF51
:100D40008091C80084FF03C02EEF3FEFA6C08091C2
:100D5000C80083FDA0C09091CE009D3011F09A3064
:100D600069F48AE0F8018083B7010E9470068EE082
:100D700092E090930D0280930C027BC0993009F4AD
:100D800090E2892F80528F3510F0903A70F0F2E0A7
:100D90000D351F0711F487E004C0F80191938F010E
:100DA000892FB7010E947006C7CF923139F1933174
:100DB00038F4933009F46FC0983009F0BDCF09C002
:100DC000973109F44BC09F3721F0953109F0B4CF2A
:100DD00032C0F2E00E301F0709F008F4ADCF88E012
:100DE000B7010E94700680E2B7010E94700688E099
:100DF000B7010E947006015010409ECF8DE0B701F0
:100E00000E947006CEE0D2E004C08991B7010E9432
:100E10007006C017D107C8F38FCF88E0B7010E94D2
:100E2000700680E2B7010E94700688E0B7010E9458
:100E300070060150104082E00E30180709F068F784
:100E40007BCF88E0B7010E94700680E2B7010E9464
:100E5000700688E0B7010E9470068E01E2E00E3055
:100E60001E0709F008F468CFE8018A91803249F73B
:100E700063CFE0910C02F0910D028191F0930D028D
:100E8000E0930C028A3021F410920D0210920C02B1
:100E9000282F30E002C02FEF3FEFC901DF91CF9143
:100EA0001F910F91FF90EF900895629FD001739F63
:100EB000F001829FE00DF11D649FE00DF11D929FF6
:100EC000F00D839FF00D749FF00D659FF00D992735
:100ED000729FB00DE11DF91F639FB00DE11DF91F59
:100EE000BD01CF0111240895A1E21A2EAA1BBB1B3C
:100EF000FD010DC0AA1FBB1FEE1FFF1FA217B307E6
:100F0000E407F50720F0A21BB30BE40BF50B661FFB
:100F1000771F881F991F1A9469F7609570958095BF
:100F200090959B01AC01BD01CF01089597FB092E5F
:100F300005260ED057FD04D0D7DF0AD0001C38F4A8
:100F400050954095309521953F4F4F4F5F4F0895F5
:100F5000F6F790958095709561957F4F8F4F9F4FD5
:100F60000895EF92FF920F931F93CF93DF937C012D
:100F70008B01DB0113968C9181FD03C0CFEFDFEF76
:100F800013C0C0E0D0E00BC0D8011896ED91FC91E1
:100F90001997B8010995892B11F0CFEFDFEFF70111
:100FA00081917F01882381F7CE01DF91CF911F913D
:100FB0000F91FF90EF9008950F931F93CF93DF93BE
:100FC0008C01E0916F02F0917002838181FF21C05A
:100FD000C0E0D0E00DC0E0916F02F091700220857A
:100FE0003185BF01F9010995892B11F0CFEFDFEFB2
:100FF000F80181918F01882371F7E0916F02F091E0
:101000007002208531858AE0BF01F9010995892B9D
:1010100011F0CFEFDFEFCE01DF91CF911F910F9154
:061020000895F894FFCFD3
:1010260041434C20696E697469616C697A617469BF
:101036006F6E206572726F7200464C4920696E6948
:101046007469616C697A656400464C4D2020696E4E
:10105600697469616C697A656400464C4F20206941
:101066006E697469616C697A65640046524920202C
:10107600696E697469616C697A65640046524D20CF
:1010860020696E697469616C697A65640046524FBD
:101096002020696E697469616C697A656400524CD6
:1010A600492020696E697469616C697A65640052C9
:1010B6004C4D2020696E697469616C697A656400BB
:1010C600524C4F2020696E697469616C697A656457
:1010D600005252492020696E697469616C697A65AB
:1010E600640052524D2020696E697469616C697A98
:1010F60065640052524F20696E697469616C697A41
:10110600656400000000030000000070068C060005
:1011160000FFFFFFFFFFFFFFFFFFFFFFFF2A7269D0
:061126006E672A0A0000BA
:00000001FF
