:100000000C944A000C9469000C9469000C946900EB
:100010000C9469000C9469000C9469000C946900BC
:100020000C9469000C9469000C9469000C946900AC
:100030000C9469000C9469000C9469000C9469009C
:100040000C9469000C9469000C9469000C9469008C
:100050000C9469000C942D020C94ED010C94690031
:100060000C9469000C9469000C9469000C9469006C
:100070000C9469000C9469000C9469000C9469005C
:100080000C9451030C9411030C9469000C946900B6
:100090000C94690011241FBECFEFD0E1DEBFCDBFAD
:1000A00015E0A0E0B1E0EEEEFCE100E00BBF02C025
:1000B00007900D92A239B107D9F716E0A2E9B5E091
:1000C00001C01D92AF3DB107E1F70E946B000C9497
:1000D000760E0C940000CF93DF93CDB7DEB7E79791
:1000E0000FB6F894DEBF0FBECDBFCE0102969FA71C
:1000F0008EA7E2EAF3E0F9ABE8ABF6E1FAABE8A9E8
:10010000F9A9008088A999A9019699AB88ABEEA5B9
:10011000FFA500828EA59FA501969FA78EA79AA9ED
:1001200091509AABEAA9EE2351F7CE0148969CABC9
:100130008BABE2EAF3E0FEABEDABF6E1FFABEDA992
:10014000FEA900808DA99EA901969EAB8DABEBA95F
:10015000FCA900828BA99CA901969CAB8BAB9FA9A3
:1001600091509FABEFA9EE2351F71092B40540E0F8
:1001700050E060E070E083E00E94160788EB93E0B7
:100180000E945F0880E091E09F938F930E94950802
:100190000F900F9085E08983898199279F938F9392
:1001A00080E391E09F938F930E9495080F900F90AA
:1001B0000F900F9089818F5F8983898199279F9301
:1001C0008F9385E691E09F938F930E9495080F90FF
:1001D0000F900F900F9089818F5F89838981992774
:1001E0009F938F9389E991E09F938F930E94950845
:1001F0000F900F900F900F9089818F5F8983898175
:1002000099279F938F938FEC91E09F938F930E94F8
:1002100095080F900F900F900F9089818F5F8983C1
:10022000898199279F938F9386E092E09F938F9384
:100230000E9495080F900F900F900F908BE392E023
:100240009F938F930E9495080F900F9081E0809369
:10025000B40540E050E060E070E083E00E941607E3
:1002600088EB93E00E945F088EE392E09F938F9368
:100270000E9495080F900F9085E1898389819927C5
:100280009F938F938EE692E09F938F930E949508A1
:100290000F900F900F900F9089818F5F89838981D4
:1002A00099279F938F9386EA92E09F938F930E9462
:1002B00095080F900F900F900F9089818F5F898321
:1002C000898199279F938F9384EE92E09F938F93D8
:1002D0000E9495080F900F900F900F9089818F5F6B
:1002E0008983898199279F938F9384E293E09F93D9
:1002F0008F930E9495080F900F900F900F90898117
:100300008F5F8983898199279F938F938DE593E0F0
:100310009F938F930E9495080F900F900F900F90CE
:100320008BE392E09F938F930E9495080F900F901C
:1003300000C01092B4050E94170889838981882320
:1003400009F1CE01029605966DE00E94B60CCE0131
:10035000029605969F938F9386E993E09F938F93E0
:100360000E9495080F900F900F900F90CE0102966B
:100370000E945F088BE392E09F938F930E94950801
:100380000F900F9081E08093B4050E941708898335
:100390008981882371F2CE01489605966DE00E940E
:1003A000B60CCE01489605969F938F9386E993E00D
:1003B0009F938F930E9495080F900F900F900F902E
:1003C000CE0148960E945F088BE392E09F938F9343
:1003D0000E9495080F900F90ACCF1F920F920FB60E
:1003E0000F9211248F939F93AF93BF93EF93FF933B
:1003F000CF93DF93CDB7DEB79091DE068091B9053C
:10040000981721F48091B505813099F4A6ECB0E0FD
:100410008091B9059927FC01E554FA4F80818C93AE
:100420008091B9058F5F8F718093B9051092B505E2
:1004300007C0A1ECB0E0E1ECF0E080818F7D8C930F
:10044000DF91CF91FF91EF91BF91AF919F918F91EC
:100450000F900FBE0F901F9018951F920F920FB61E
:100460000F9211248F939F93EF93FF93CF93DF937A
:10047000CDB7DEB72297DEBFCDBFE0ECF0E08081E4
:100480008C718983E6ECF0E080818A839091DD06AF
:100490008091B605981759F48091B3059927807219
:1004A0009070009721F080E68093B3051AC0809188
:1004B000DD069927FC01E45AF94F8A8180838091F7
:1004C000DD068F5F8F778093DD069091DD0680914A
:1004D000B605981719F48981806289838981809390
:1004E000B3052296F894DEBFCDBFDF91CF91FF9187
:1004F000EF919F918F910F900FBE0F901F901895C5
:10050000CF93DF93CDB7DEB724970FB6F894DEBF55
:100510000FBECDBFF8949091DD068091B605981777
:1005200069F48091B305992780729070009731F437
:10053000789480E090E89C838B8330C08091B605EE
:100540009927FC01E45AF94F808199279A8389837E
:100550008091B6058F5F8F778093B6059091DD0609
:100560008091B605981729F48091B3058160809336
:10057000B3058091B3059927382F222789819A8165
:10058000820F931F9A8389838091B3058F7980931B
:10059000B305789489819A819C838B838B819C811C
:1005A00024960FB6F894DEBF0FBECDBFDF91CF917A
:1005B0000895CF93DF93CDB7DEB721970FB6F894A8
:1005C000DEBF0FBECDBF89838091B5058823E1F7DB
:1005D000F8948091DE069927FC01E554FA4F898151
:1005E00080838091DE068F5F8F718093DE0690910D
:1005F000DE068091B905981719F481E08093B5055E
:10060000A1ECB0E0E1ECF0E0808180628C93789422
:1006100021960FB6F894DEBF0FBECDBFDF91CF910C
:1006200008951F920F920FB60F9211248F939F93EC
:10063000AF93BF93EF93FF93CF93DF93CDB7DEB725
:100640009091B8058091DB05981721F48091BA0547
:10065000813099F4AEECB0E08091DB059927FC0184
:10066000EE56FA4F80818C938091DB058F5F8F71FE
:100670008093DB051092BA0507C0A9ECB0E0E9EC65
:10068000F0E080818F7D8C93DF91CF91FF91EF918E
:10069000BF91AF919F918F910F900FBE0F901F90C0
:1006A00018951F920F920FB60F9211248F939F935C
:1006B000EF93FF93CF93DF93CDB7DEB72297DEBFE3
:1006C000CDBFE8ECF0E080818C718983EEECF0E046
:1006D00080818A839091B2058091B705981759F46B
:1006E0008091DC06992780729070009721F080E657
:1006F0008093DC061AC08091B2059927FC01E45270
:10070000FA4F8A8180838091B2058F5F8F778093C3
:10071000B2059091B2058091B705981719F48981B7
:100720008062898389818093DC062296F894DEBFFB
:10073000CDBFDF91CF91FF91EF919F918F910F905E
:100740000FBE0F901F901895CF93DF93CDB7DEB7F4
:1007500024970FB6F894DEBF0FBECDBFF8949091EA
:10076000B2058091B705981769F48091DC06992746
:1007700080729070009731F4789480E090E89C83C8
:100780008B8330C08091B7059927FC01E452FA4F62
:10079000808199279A8389838091B7058F5F8F77AE
:1007A0008093B7059091B2058091B705981729F409
:1007B0008091DC0681608093DC068091DC069927BD
:1007C000382F222789819A81820F931F9A838983E8
:1007D0008091DC068F798093DC06789489819A81F8
:1007E0009C838B838B819C8124960FB6F894DEBF0B
:1007F0000FBECDBFDF91CF910895CF93DF93CDB7DB
:10080000DEB721970FB6F894DEBF0FBECDBF898348
:100810008091BA058823E1F7F8948091B80599276B
:10082000FC01EE56FA4F898180838091B8058F5F75
:100830008F718093B8059091B8058091DB0598176A
:1008400019F481E08093BA05A9ECB0E0E9ECF0E09E
:10085000808180628C93789421960FB6F894DEBFE5
:100860000FBECDBFDF91CF910895CF93DF93CDB76A
:10087000DEB764970FB6F894DEBF0FBECDBF6F87AB
:10088000788B898B9A8B8F859889A989BA890097EB
:10089000A105B10539F18F859889A989BA89880F91
:1008A000991FAA1FBB1F880F991FAA1FBB1F880F64
:1008B000991FAA1FBB1F9C01AD0180E094E2A4EF29
:1008C000B0E0BC01CD010E94390EDA01C9010196E8
:1008D000A11DB11DB695A7959795879501979E8304
:1008E0008D83FDC18091B405882381F4ADE2B0E031
:1008F000EDE2F0E080818E7F8C93AEE2B0E0EEE23C
:10090000F0E0808181608C938C910FC0AAE2B0E00E
:10091000EAE2F0E080818B7F8C93ABE2B0E0EBE227
:10092000F0E0808184608C938C918091B405882361
:1009300081F4ADE2B0E0EDE2F0E080818D7F8C9358
:10094000AEE2B0E0EEE2F0E0808182608C938C91C8
:100950000FC0AAE2B0E0EAE2F0E08081877F8C93EA
:10096000ABE2B0E0EBE2F0E0808188608C938C91A8
:10097000E1E8F0E01082E0E8F0E01082E2E8F0E088
:100980001082E5E8F0E01082E4E8F0E01082E9E8A7
:10099000F0E01082E8E8F0E01082EBE8F0E010828E
:1009A000EAE8F0E01082EDE8F0E01082ECE8F0E038
:1009B0001082E7E8F0E01082E6E8F0E010820E94A2
:1009C000AA068823E1F30E94E8068823E1F7A1E85C
:1009D000B0E0E1E8F0E08081887F81608C930E9444
:1009E000AA068823E1F30E94E8068823E1F7E4E8F9
:1009F000F0E0808199279E878D87E5E8F0E080818F
:100A00009927382F22278D859E85822B932B9E87B1
:100A10008D870E94AA068823E1F30E94E8068823B6
:100A2000E1F7E4E8F0E0808199279C878B87E5E88F
:100A3000F0E080819927382F22278B859C85822B97
:100A4000932B9C878B870E94AA068823E1F30E9440
:100A5000E8068823E1F7E4E8F0E0808199279A87A7
:100A60008987E5E8F0E080819927382F222789855A
:100A70009A85822B932B9A8789870E94AA068823BE
:100A8000E1F30E94E8068823E1F7E4E8F0E08081E2
:100A9000992798878F83E5E8F0E080819927382FA0
:100AA00022278F819885822B932B98878F830E9492
:100AB000E8068823E1F3E4E8F0E0808199279E834B
:100AC0008D83E5E8F0E080819927382F22278D81FA
:100AD0009E81822B932B9E838D83A1E8B0E0E1E879
:100AE000F0E08081887F8C938091B405882381F425
:100AF000ADE2B0E0EDE2F0E080818E7F8C93AEE27B
:100B0000B0E0EEE2F0E080818E7F8C938C910FC09C
:100B1000AAE2B0E0EAE2F0E080818B7F8C93ABE266
:100B2000B0E0EBE2F0E080818B7F8C938C91809140
:100B3000B405882381F4ADE2B0E0EDE2F0E080811D
:100B40008D7F8C93AEE2B0E0EEE2F0E080818D7FAD
:100B50008C938C910FC0AAE2B0E0EAE2F0E08081D1
:100B6000877F8C93ABE2B0E0EBE2F0E08081877F9F
:100B70008C938C912D813E818F819885A901481B92
:100B8000590BCA019E838D832F81388589859A856B
:100B9000A901481B590BCA0198878F8329853A857B
:100BA0008B859C85A901481B590BCA019A878987A7
:100BB0002B853C858D859E85A901481B590BCA0153
:100BC0009C878B878D819E819C01220F331F8D8195
:100BD0009E819695879596958795A901481B590BF7
:100BE000CA019C838B838D819E819C01220F331FC0
:100BF0008D819E819695879596958795280F391FAB
:100C00008D819E81969587959695879596958795E2
:100C1000820F931F9A8389832D853E8589819A81CE
:100C20008217930738F02D853E858B819C8128178C
:100C3000390718F41C8A1B8A82C02B853C85898160
:100C40009A818217930738F02B853C858B819C8194
:100C50002817390718F41C8A1B8A71C029853A8520
:100C600089819A818217930738F029853A858B818B
:100C70009C812817390718F41C8A1B8A60C02F81B1
:100C8000388589819A818217930738F02F813885BA
:100C90008B819C812817390718F41C8A1B8A4FC046
:100CA0002D853E858B859C85280F391F89859A85E2
:100CB000280F391F8F819885820F931F880F991FE6
:100CC0000024880F991F001C880F991F001C892F72
:100CD000902D01969695879501979E838D8380919F
:100CE000B405882391F4E5ECF0E08D819E81892F95
:100CF00099278083E4ECF0E08D818083A0ECB0E064
:100D0000E0ECF0E0808182608C938091B4058130CA
:100D100091F4EDECF0E08D819E81892F99278083FD
:100D2000ECECF0E08D818083A8ECB0E0E8ECF0E042
:100D3000808182608C9381E090E09C8B8B8B8B898F
:100D40009C8964960FB6F894DEBF0FBECDBFDF91CD
:100D5000CF910895CF93DF93CDB7DEB721970FB62C
:100D6000F894DEBF0FBECDBF19828091B4058823F1
:100D700069F4ECE2F0E09081ECE2F0E0808198230D
:100D8000ECE2F0E080818923817089838091B40551
:100D9000813099F4E9E2F0E09081E9E2F0E08081CD
:100DA0009823E9E2F0E0808189239927847090708C
:100DB000959587959595879589838981992721961A
:100DC0000FB6F894DEBF0FBECDBFDF91CF9108956F
:100DD000CF93DF93CDB7DEB721970FB6F894DEBF80
:100DE0000FBECDBF19828091B405882329F4ECE2AF
:100DF000F0E08081817089838091B405813059F45D
:100E0000E9E2F0E08081992784709070959587954C
:100E10009595879589838981992721960FB6F894AE
:100E2000DEBF0FBECDBFDF91CF910895CF93DF938B
:100E3000CDB7DEB727970FB6F894DEBF0FBECDBF94
:100E400089834A835B836C837D838091B405882387
:100E500069F41092DE061092B9051092DD06109228
:100E6000B6051092B5051092B3050CC01092B805E6
:100E70001092DB051092B2051092B7051092BA05D8
:100E80001092DC068091B4058823C1F4E1ECF0E017
:100E90001082A2ECB0E0E6ECF0E080818C93E0EC14
:100EA000F0E080E48083E2ECF0E086E08083E5EC33
:100EB000F0E01082E4ECF0E0108217C0E9ECF0E022
:100EC0001082AAECB0E0EEECF0E080818C93E8ECCC
:100ED000F0E080E48083EAECF0E086E08083EDECF3
:100EE000F0E01082ECECF0E0108260E070E080E076
:100EF00090E00E943504882319F41F821E828CC062
:100F00008091B405882369F5A0ECB0E0E0ECF0E056
:100F1000808180628C93A1ECB0E0E1ECF0E0808114
:100F20008B7F8C93A1ECB0E0E1ECF0E08081982F16
:100F300089818470892B8C93E2ECF0E0898188733D
:100F40008083A2ECB0E0E2ECF0E08081282F898180
:100F5000992783709070880F991F822B8C938C91A6
:100F60002CC0A8ECB0E0E8ECF0E0808180628C93CB
:100F7000A9ECB0E0E9ECF0E080818B7F8C93A9ECE8
:100F8000B0E0E9ECF0E08081982F89818470892BB2
:100F90008C93EAECF0E0898188738083AAECB0E05E
:100FA000EAECF0E08081282F898199278370907086
:100FB000880F991F822B8C938C918091B405882384
:100FC00049F4A1ECB0E0E1ECF0E0808180688C9322
:100FD0008C9108C0A9ECB0E0E9ECF0E08081806879
:100FE0008C938C918091B405882349F4A1ECB0E0F6
:100FF000E1ECF0E0808188618C938C9108C0A9ECD1
:10100000B0E0E9ECF0E0808188618C938C91789479
:1010100081E090E09F838E838E819F8127960FB61B
:10102000F894DEBF0FBECDBFDF91CF910895CF936F
:10103000DF93CDB7DEB721970FB6F894DEBF0FBEB2
:10104000CDBFF8948091B4058823B9F48091B3059D
:10105000992780729070009719F080E8898323C0E7
:101060009091DD068091B605292F281B822F982F9D
:1010700090588FE78923898316C08091DC069927D1
:1010800080729070009719F080E889830CC090916D
:10109000B2058091B705292F281B822F982F9058D1
:1010A0008FE78923898378948981992721960FB6C0
:1010B000F894DEBF0FBECDBFDF91CF910895CF93DF
:1010C000DF93CDB7DEB722970FB6F894DEBF0FBE21
:1010D000CDBF9A8389831BC08091B405882361F4B6
:1010E000E981FA81208189819A8101969A83898395
:1010F000822F0E94D9020BC0E981FA812081898167
:101100009A8101969A838983822F0E94FD03E98147
:10111000FA818081882301F722960FB6F894DEBF0A
:101120000FBECDBFDF91CF9108950F931F93CF9343
:10113000DF93CDB7DEB7AF970FB6F894DEBF0FBE23
:10114000CDBF1F861E868BE0888BCE01C896998FF7
:10115000888F8EA99FA99F8B8E8BF5C3EE89FF89FF
:101160008081853221F08E85813009F048C08E89DA
:101170009F8901969F8B8E8BEE89FF898081282F16
:1011800033273FA72EA78EA59FA58436910509F486
:10119000DBC02EA53FA52536310594F48EA59FA56D
:1011A0008835910509F44BC22EA53FA5233631059C
:1011B000C1F18EA59FA58033910509F40AC39DC393
:1011C0002EA53FA52337310509F45FC08EA59FA545
:1011D000843791053CF42EA53FA52C36310509F442
:1011E00098C08BC38EA59FA58537910509F483C14F
:1011F0002EA53FA52837310509F421C27EC3809171
:10120000B405882331F4EE89FF8980810E94D902D8
:1012100005C0EE89FF8980810E94FD031E861F861E
:101220008DC38F858130B9F48091B405882321F472
:101230008CE60E94D90203C08CE60E94FD038091D7
:10124000B405882321F483E60E94D90219C083E6FD
:101250000E94FD0315C0288D398DC9010296998F12
:10126000888FF901808191818D878091B4058823D1
:1012700021F48D850E94D90203C08D850E94FD0353
:101280008BE0888B1E861F8659C38F858130B9F409
:101290008091B405882321F48CE60E94D90203C012
:1012A0008CE60E94FD038091B405882321F483E736
:1012B0000E94D90229C083E70E94FD0325C0288D22
:1012C000398DC9010296998F888FF90180819181AA
:1012D0009D8B8C8B14C08091B405882331F4EC89EC
:1012E000FD8980810E94D90205C0EC89FD89808139
:1012F0000E94FD038C899D8901969D8B8C8BEC89C6
:10130000FD898081882339F78BE0888B1E861F86B4
:1013100015C38F85813071F48091B405882321F441
:101320008CE60E94D90203C08CE60E94FD031E8653
:101330001F8604C081E08E8781E08F878E899F8918
:1013400001979F8B8E8BFAC21A8A198A0DC08989E0
:10135000282F3327CE014A96FC01E20FF31F80E3CA
:10136000808389898F5F898B89898B3080F31DA267
:101370008AE0898B8F85882309F45DC0288D398D9B
:10138000C9010496998F888FF90180819181A2818A
:10139000B3818F839887A987BA878F819885A9851C
:1013A000BA85BB238CF481E08A8B8F819885A985CF
:1013B000BA85B095A095909581959F4FAF4FBF4F3F
:1013C0008F839887A987BA878989082F11278F81EA
:1013D0009885A985BA852AE030E040E050E0BC015C
:1013E000CD010E945B0EDC01CB01282F205DCE01D8
:1013F0004A96FC01E00FF11F20838F819885A98513
:10140000BA852AE030E040E050E0BC01CD010E9406
:101410005B0EDA01C9018F839887A987BA8789890A
:101420008150898B8F819885A985BA850097A10500
:10143000B105E1F1C9CF288D398DC9010296998F87
:10144000888FF901808191819C878B878B859C8512
:1014500099234CF481E08A8B8B859C8590958195AE
:101460009F4F9C878B878989E82FFF278B859C85D9
:101470002AE030E0B9010E94260E282F205DCE011F
:101480004A96E80FF91F20838B859C852AE030E07F
:10149000B9010E94260ECB019C878B8789898150D8
:1014A000898B8B859C85009709F0DDCF8A898823FD
:1014B00059F08091B405882321F48DE20E94D9026D
:1014C00003C08DE20E94FD0389898F5F898B988913
:1014D0008989981710F48889898B898999279C01B3
:1014E000CE014A96820F931F0E945F088BE0888B83
:1014F0001E861F8623C2198A0DC08989282F33278B
:10150000CE014A96FC01E20FF31F80E380838989B4
:101510008F5F898B89898B3080F31DA28AE0898B4C
:101520008F85882309F446C0288D398DC90104961A
:10153000998F888FF90180819181A281B3818983FC
:101540009A83AB83BC838989082F112789819A816B
:10155000AB81BC812AE030E040E050E0BC01CD012D
:101560000E94390EDC01CB01282F205DCE014A9666
:10157000FC01E00FF11F208389819A81AB81BC813E
:101580002AE030E040E050E0BC01CD010E94390E7D
:10159000DA01C90189839A83AB83BC83898981502D
:1015A000898B89819A81AB81BC810097A105B105A6
:1015B00079F1C9CF288D398DC9010296998F888F0D
:1015C000F901808191819E838D838989E82FFF278E
:1015D0008D819E812AE030E0B9010E94120E282FF1
:1015E000205DCE014A96E80FF91F2083898981503A
:1015F000898B8D819E812AE030E0B9010E94120E14
:10160000CB019E838D838D819E81009709F0DDCF74
:1016100089898F5F898B98898989981710F48889BF
:10162000898B898999279C01CE014A96820F931F45
:101630000E945F088BE0888B1E861F867FC1198AF7
:101640000DC08989282F3327CE014A96FC01E20F6D
:10165000F31F80E3808389898F5F898B89898B3031
:1016600080F31DA28AE0898B8F85882309F455C0F9
:10167000288D398DC9010496998F888FF901808151
:101680009181A281B38189839A83AB83BC833BC060
:1016900089818F708B8B8989282F33273DA72CA7B1
:1016A0008B898A3028F48B89382F305D3BA710C096
:1016B000EE89FF898081883719F481E68AA702C004
:1016C00091E49AA78B892AA5820F382F3A503BA71D
:1016D000CE014A96ECA5FDA5E80FF91F8BA58083E6
:1016E00089819A81AB81BC81689413F8B695A795DE
:1016F000979587951694D1F789839A83AB83BC839A
:1017000089898150898B89819A81AB81BC810097BD
:10171000A105B10509F0BCCF45C0288D398DC9019F
:101720000296998F888FF901808191819E838D83A4
:1017300035C08D818F708B8B8989282F332739A7EE
:1017400028A78B898A3028F48B89382F305D3FA3F6
:1017500010C0EE89FF898081883719F481E68EA355
:1017600002C091E49EA38B892EA1820F382F3A509C
:101770003FA3CE014A96E8A5F9A5E80FF91F8FA16E
:1017800080838D819E81929582958F7089279F702D
:1017900089279E838D8389898150898B8D819E8144
:1017A000009739F689898F5F898B9889898998177D
:1017B00010F48889898B898999279C01CE014A96E2
:1017C000820F931F0E945F088BE0888B1E861F8606
:1017D000B5C08BE0888B8F858130C9F48091B405CA
:1017E000882321F48CE60E94D90203C08CE60E9473
:1017F000FD038091B405882321F480E30E94D9027F
:1018000003C080E30E94FD031E861F8697C08E8959
:101810009F8901969F8B8E8BEE89FF8980818B8BB0
:101820008B89803308F44CC08B898A3308F048C018
:101830008B898F70888B8E899F8901969F8B8E8B69
:10184000EE89FF8980818B8B8B89803390F08B8927
:101850008A3378F488898295807F888B8B89982F4A
:101860009F708889892B888B8E899F8901969F8B91
:101870008E8B8889482F4F70888982958F70992721
:101880009C01220F331FC901880F991F880F991FD0
:10189000820F931F840F888B88898C3010F08BE027
:1018A000888B9BE08889292F281B822F888B8E8923
:1018B0009F8902979F8B8E8B81E08E871F863EC00B
:1018C0008091B405882321F480E30E94D90203C0EB
:1018D00080E30E94FD038091B405882331F4EE89F2
:1018E000FF8980810E94D90205C0EE89FF8980812D
:1018F0000E94FD031E861F8621C08F85813059F40A
:101900008091B405882321F48CE60E94D90203C09B
:101910008CE60E94FD038091B405882331F4EE89A2
:10192000FF8980810E94D90205C0EE89FF898081EC
:101930000E94FD038BE0888B1E861F868E899F89FF
:1019400001969F8B8E8BEE89FF898081882309F019
:1019500005CC80E090E0AF960FB6F894DEBF0FBEE6
:10196000CDBFDF91CF911F910F910895CF93DF935A
:10197000CDB7DEB72D970FB6F894DEBF0FBECDBF43
:1019800098878F8369871A8281E089838985882374
:1019900009F41982EF81F885108237C18A81282FD6
:1019A00033278985992701972817390769F48A8190
:1019B00099279C018F819885F901E80FF91F108202
:1019C0008A818F5F8A8325C18091B405882329F499
:1019D0000E9480029D878C8704C00E94A4039D877B
:1019E0008C872C853D853E832D838D819E8130E8BB
:1019F0008030930749F38D818B838B81282F332788
:101A00003B872A878A859B858A30910511F12A8533
:101A10003B852B30310564F48A859B8588309105A0
:101A200009F43FC02A853B852930310509F1D5C02D
:101A30008A859B858A31910509F494C02A853B8566
:101A40002F37310571F18A859B858D30910509F01D
:101A5000C4C08A8199279C018F819885F901E80F7C
:101A6000F91F1082808189838A818F5F8A83CDC02C
:101A70008091B405882321F480E20E94D90203C03A
:101A800080E20E94FD038A8199279C018F819885BD
:101A9000F901E80FF91F80E280838A818F5F8A83D2
:101AA000B4C08A81882361F48091B405882321F42D
:101AB00087E00E94D902A9C087E00E94FD03A5C06B
:101AC0008091B405882321F48DE00E94D90203C0DF
:101AD0008DE00E94FD031C820EC08091B405882316
:101AE00021F480E20E94D90203C080E20E94FD033B
:101AF0008C818F5F8C839C818A81981770F3809191
:101B0000B405882321F48DE00E94D90203C08DE042
:101B10000E94FD038A8181508A831C821EC08091AD
:101B2000B405882361F48C8199279C018F81988565
:101B3000F901E80FF91F80810E94D9020BC08C8146
:101B400099279C018F819885F901E80FF91F808101
:101B50000E94FD038C818F5F8C839C818A81981702
:101B6000F0F253C08A81882361F48091B405882300
:101B700021F487E00E94D90248C087E00E94FD035B
:101B800044C08091B405882321F48DE00E94D902DD
:101B900003C08DE00E94FD031C820EC08091B4053D
:101BA000882321F480E20E94D90203C080E20E94CF
:101BB000FD038C818F5F8C839C818A81981770F3E1
:101BC0008091B405882321F48DE00E94D90203C0DE
:101BD0008DE00E94FD031A8218C08091B40588230D
:101BE00021F48B810E94D90203C08B810E94FD03E6
:101BF0008A8199279C018F819885F901E80FF91F47
:101C00008B8180838A818F5F8A838981882309F011
:101C1000C5CE2D960FB6F894DEBF0FBECDBFDF91B7
:101C2000CF910895AA1BBB1B51E107C0AA1FBB1F80
:101C3000A617B70710F0A61BB70B881F991F5A9558
:101C4000A9F780959095BC01CD01089597FB092EC9
:101C500007260AD077FD04D0E5DF06D000201AF46D
:101C6000709561957F4F0895F6F7909581959F4FF8
:101C70000895A1E21A2EAA1BBB1BFD010DC0AA1FCD
:101C8000BB1FEE1FFF1FA217B307E407F50720F0E5
:101C9000A21BB30BE40BF50B661F771F881F991F60
:101CA0001A9469F760957095809590959B01AC01A9
:101CB000BD01CF01089597FB092E05260ED057FDD3
:101CC00004D0D7DF0AD0001C38F4509540953095E9
:101CD00021953F4F4F4F5F4F0895F6F790958095B0
:0E1CE000709561957F4F8F4F9F4F0895FFCFF6
:101CEE002E2E2E207072696E74665F6765746C6935
:101CFE006E655F69745F6578616D706C65202E2E00
:101D0E002E20554152545F30202E2E2E0D0A0A00E1
:101D1E0048656C6C6F20776F726C642C20746865EC
:101D2E00206D61676963206E756D626572206973DF
:101D3E00203D2030782558202E2E2E20666976657F
:101D4E0020210D0A0048656C6C6F20776F726C64F1
:101D5E002C20746865206D61676963206E756D62F5
:101D6E006572206973203D2030782558202E2E2E46
:101D7E002073697820210D0A0048656C6C6F2077FE
:101D8E006F726C642C20746865206D6167696320C6
:101D9E006E756D626572206973203D20307825580E
:101DAE00202E2E2E20736576656E20210D0A00489A
:101DBE00656C6C6F20776F726C642C207468652074
:101DCE006D61676963206E756D626572206973203F
:101DDE003D2030782558202E2E2E206865696768A4
:101DEE007420210D0A0048656C6C6F20776F726C41
:101DFE00642C20746865206D61676963206E756D53
:101E0E00626572206973203D2030782558202E2E71
:101E1E002E206E696E6520210D0A000D0A002E2EF1
:101E2E002E207072696E74665F6765746C696E657C
:101E3E005F69745F6578616D706C65202E2E2E2043
:101E4E00554152545F31202E2E2E0D0A0A00486540
:101E5E006C6C6F20776F726C642C20746865206DCB
:101E6E0061676963206E756D626572206973203DCE
:101E7E002030782558202E2E2E20666966746565D2
:101E8E006E20210D0A0048656C6C6F20776F726CA6
:101E9E00642C20746865206D61676963206E756DB2
:101EAE00626572206973203D2030782558202E2ED1
:101EBE002E2066696674792D7369787465656E2057
:101ECE00210D0A0048656C6C6F20776F726C642C64
:101EDE0020746865206D61676963206E756D62653B
:101EEE0072206973203D2030782558202E2E2E200A
:101EFE0066696674792D736576656E7465656E2098
:101F0E00210D0A0048656C6C6F20776F726C642C23
:101F1E0020746865206D61676963206E756D6265FA
:101F2E0072206973203D2030782558202E2E2E20C9
:101F3E00656967687465656E20210D0A0048656CD9
:101F4E006C6F20776F726C642C20746865206D61E5
:101F5E00676963206E756D626572206973203D201E
:101F6E0030782558202E2E2E206E696E657465658C
:101F7E006E20210D0A000D0A476F743A2025730D4D
:101F8E000A002E2E2E2E2E20202020202020202033
:101F9E0020202020202020000D0A2020202020207C
:101FAE0020205F5F5F5F5F5F5F5F5F5F5F5F5F5FB1
:101FBE005F5F5F5F5F5F5F5F5F5F5F5F5F5F5F0D75
:101FCE000A2020202020202F5F5F5F2020205F5FCF
:101FDE005F5F5F5F5F5F5F5F5F5F5F5F5F5F5F5F03
:101FEE005F5F5F5F5F5F7C0D0A20202020205F5FB8
:101FFE005F20207C207C20205F5F5F5F5F5F5F5FE4
:10200E00202020205F5F5F5F2020205F0D0A2020B0
:10201E0020202F2020207C207C207C207C20205FF4
:10202E002020205F205C20207C20205F5F7C207C95
:10203E00207C0D0A2020202F202F7C207C207C202D
:10204E007C207C207C207C207C207C207C207C20A2
:10205E007C5F5F20207C207C0D0A20202F202F20EB
:10206E007C207C207C207C207C207C207C207C2082
:10207E007C207C207C20205F5F7C207C207C0D0AD5
:10208E00202F202F5F207C207C207C207C207C2019
:10209E007C207C207C207C207C207C207C5F5F2030
:1020AE00207C207C5F5F0D0A2F5F5F5F5F7C7C5F13
:1020BE007C207C5F7C207C5F7C207C5F7C207C5F36
:1020CE007C207C5F5F5F5F7C207C5F5F5F2F0D0AF3
:1020DE002C2D2D2D2D2D2D2D2D2D2D2D2D2D2D2D23
:1020EE002D2D2D2D2D2D2D2D2D2D2D2D2D2D2D2D12
:1020FE002D2D2D2D2C0D0A7C204154393043414E6F
:10210E007878204C696272617279205665727369B3
:10211E006F6E20332E33302020202F202852290D91
:10212E000A272D2D2D2D2D2D2D2D2D2D2D2D2D2DFA
:10213E002D2D2D2D2D2D2D2D2D2D2D2D2D2D2D2DC1
:10214E002D2D2D270D0A0A002D2D2D20415439300D
:10215E0043414E7878204C696272617279205665DF
:10216E007273696F6E20332E3330202D2D2D0D0A94
:02217E0000005F
:00000001FF
