:100000000C943E000C945B000C945B000C945B0021
:100010000C945B000C945B000C945B000C945B00F4
:100020000C945B000C945B000C945B000C945B00E4
:100030000C945B000C945B000C945B000C945B00D4
:100040000C945B000C945B000C945B000C945B00C4
:100050000C945B000C945B000C945B000C945B00B4
:100060000C945B000C945B000C945B000C945B00A4
:100070000C945B000C945B000C945B0011241FBE7D
:10008000CFEFD0E1DEBFCDBF12E0A0E0B1E0E0EB0A
:10009000FCE102C005900D92AE37B107D9F712E02E
:1000A000AEE7B2E001C01D92A63DB107E1F70E94A4
:1000B000DE000C94560E0C9400009F92AF92BF92FB
:1000C000CF92DF92EF92FF920F931F93DF93CF9324
:1000D00000D000D000D0CDB7DEB7BC0190E8A92E8B
:1000E000B12C9924939407E07E010894E11CF11C43
:1000F00087E0C82ED12CCC0EDD1E1FE255E040E07B
:1001000007C0473010F44F5F02C0515040E011501B
:10011000FB01E50FF11D808190E09501042E02C0E6
:10012000359527950A94E2F782239323892B11F4BE
:10013000552339F71E821D821C821B829A820983F5
:10014000512F585019C095E0292F30E0FE01E20FE1
:10015000F31F808187FD02C040E004C0892F911108
:1001600081E0482FF701E20FF31F8081880F840F91
:100170008083915048F75150552329F7DB01F7014F
:100180008C91919189278D93EC15FD05C9F7193054
:1001900008F0B3CFFB01808126960FB6F894DEBF3E
:1001A0000FBECDBFCF91DF911F910F91FF90EF90C8
:1001B000DF90CF90BF90AF909F9008952F923F9285
:1001C0004F925F926F927F928F929F92AF92BF9267
:1001D000CF92DF92EF92FF920F931F93DF93CF9313
:1001E00000D000D000D0CDB7DEB781B1836081B937
:1001F0005B9A83E591E09093D3028093D20290932F
:10020000D1028093D00260E071EE80E090E00E9425
:10021000A7030E941F0380E091E00E94A40B8AE2E2
:100220000E942A029C838B8384E10E942A029A8383
:10023000898388E20E942A029E838D8386E10E9440
:100240002A021C018CE20E942A022C0188E10E94F1
:100250002A023C018EE30E942A024C0184E50E949E
:100260002A025C018CE30E942A026C0180E40E9455
:100270002A027C0182E50E942A028C0180E50E940C
:100280002A022DB73EB72A5130400FB6F8943EBF30
:100290000FBE2DBFEDB7FEB7319622E131E0ADB70D
:1002A000BEB712963C932E931197AB81BC81B3835A
:1002B000A28329813A8135832483AD81BE81B783AE
:1002C000A683318620865386428675866486978605
:1002D0008686B18AA08AD38AC28AF58AE48A178B75
:1002E000068B918F808F0E948F0B88EE93E0EDB785
:1002F000FEB77A960FB6F894FEBF0FBEEDBFE8ECDE
:10030000F0E03197F1F70197D1F789CFCF92DF92E3
:10031000EF92FF920F931F93E82EC62E882331F0A1
:100320000E942503882321F00E94790381E064C0A4
:1003300087E00E9481038E2D8F5F0E9476038823C1
:1003400021F00E94790382E057C00E949303D82EC7
:100350000E949303E82E0E9493030E947903FF24D6
:100360008FE7E822FF24FE2CEE24ED0CF11C002781
:10037000F7FC0095102FC801B70122E330E040E000
:1003800050E00E94140BCA01B901E3E0660F771F29
:10039000881F991FEA95D1F7620F731F841F951F5D
:1003A000695979408040904025E030E040E050E0DD
:1003B0000E94140BC901DA019C01AD01205E3F4F80
:1003C0004F4F5F4F57FF05C020E030E040E050E066
:1003D0000AC02F3F31054105510529F024F02FEFC8
:1003E00030E040E050E08FB7F894EC2DF0E0EF59AA
:1003F000FE4F20838FBF80E01F910F91FF90EF9001
:10040000DF90CF9008950F931F93182F062F0E940F
:100410002503882329F00E94790320E030E016C0EC
:10042000802F0E948103812F8F5F0E9476030E949C
:100430009303082F0E949303182F0E9493030E9496
:100440007903912F80E09C01200F311DC9011F917C
:100450000F91089590E067E070E00E940302880F1A
:10046000991F64E670E00E94DE0ACB01089590E0D7
:1004700064E270E00E940302A0E0B0E0BC01CD01A4
:100480000E94700820E030E040E85FE30E946506CB
:1004900020E030E040E857E30E949206089580E0B3
:1004A00090E06EE270E00E940302282F30E0C90164
:1004B0000895882339F08F5F0E942503882321F057
:1004C0000E94790381E008950E9493030E949303A0
:1004D0000E9493030E94790380E00895AF92BF9237
:1004E000CF92DF92EF92FF920F931F93DF93CF9300
:1004F00000D000D000D0CDB7DEB7182F062FB42E15
:10050000A52E1E828D836C831B821A8219826E0136
:100510000894C11CD11CC6010E945D00F82E812FD9
:100520000E944E03802F0E94810380E00E9481037D
:1005300080E00E9481038F2D0E9481030E94790335
:10054000B0E2EB2EBEE4FB2EC7010197F1F71E824D
:100550001D830C83BB82AA821982C6010E945D00A2
:10056000D82E812F0E944E03802F0E9481038B2D55
:100570000E9481038A2D0E9481038D2D0E94810398
:100580000E947903C7010197F1F726960FB6F894F8
:10059000DEBF0FBECDBFCF91DF911F910F91FF90B6
:1005A000EF90DF90CF90BF90AF900895462F6EE20E
:1005B00050E00E946E020E944F020895DF92EF9277
:1005C000FF920F931F93D82E7A018B01CB01BA01B2
:1005D00020E030E040E050E00E94EC0787FD25C0BD
:1005E000C801B70120E030E040E85FE30E948C07DB
:1005F0001816DCF0C801B70120E030E040E857E40D
:100600000E94920620E030E040E85FE30E9434065A
:100610000E94BC049B01AC018D2D64E2A9010E94E3
:100620006E028D2D0E94370204C060E070E080E809
:100630009FEB1F910F91FF90EF90DF900895109224
:10064000B90088E48093B8000895982F84EA8093D5
:10065000BC008091BC0087FFFCCF8091B900887FEF
:10066000883011F08031A1F49093BB0084E880932E
:10067000BC008091BC0087FFFCCF8091B900887FCF
:10068000883151F0803441F0803221F0883411F00B
:1006900081E0089582E0089580E00895982F44EA6B
:1006A00034E824E94093BC008091BC0087FFFCCF74
:1006B0008091B900887F883011F0803199F790934C
:1006C000BB003093BC008091BC0087FFFCCF8091C1
:1006D000B900887F803211F0883539F42093BC004E
:1006E0008091BC0084FDFCCFDDCF08950E942503DE
:1006F000089584E98093BC008091BC0084FDFCCF08
:1007000008958093BB0084E88093BC008091BC0076
:1007100087FFFCCF8091B90090E0887F883209F094
:1007200091E0892F089584EC8093BC008091BC00F7
:1007300087FFFCCF8091BB00089584E88093BC00C4
:100740008091BC0087FFFCCF8091BB0008959B0186
:10075000AC0182E08093C80088E18093C90086E004
:100760008093CA0083E0220F331F441F551F8A95D0
:10077000D1F760E072E18AE790E00E94F20A21502E
:1007800030403093CD002093CC000895982F809175
:10079000C80085FFFCCF9093CE0008958091C800DB
:1007A00087FFFCCF8091CE0008951F93182F109AD9
:1007B000873049F46091D4027091D5028DE691E0C2
:1007C0000E94660B0CC08A3019F48DE00E94D5039C
:1007D0008091C80085FFFCCF1093CE00109880E078
:1007E00090E01F910895EF92FF920F931F93CF9384
:1007F000DF937C0180917E0290917F02892B09F02A
:100800009FC000E812E08091C80087FFFCCF809174
:10081000C80084FF03C02EEF3FEFA6C08091C80040
:1008200083FDA0C09091CE009D3011F09A3069F404
:100830008AE0F8018083B7010E94D50380E892E046
:1008400090937F0280937E027BC0993009F490E2FE
:10085000892F80528F3510F0903A70F0F2E00F3C03
:100860001F0711F487E004C0F80191938F01892FCD
:10087000B7010E94D503C7CF923139F1933138F4D3
:10088000933009F46FC0983009F0BDCF09C097319B
:1008900009F44BC09F3721F0953109F0B4CF32C035
:1008A000F2E000381F0709F008F4ADCF88E0B70187
:1008B0000E94D50380E2B7010E94D50388E0B7010A
:1008C0000E94D503015010409ECF8DE0B7010E94D9
:1008D000D503C0E8D2E004C08991B7010E94D503D6
:1008E000C017D107C8F38FCF88E0B7010E94D503A6
:1008F00080E2B7010E94D50388E0B7010E94D503CA
:100900000150104082E00038180709F068F77BCFEB
:1009100088E0B7010E94D50380E2B7010E94D503A9
:1009200088E0B7010E94D5038E01E2E000381E077F
:1009300009F008F468CFE8018A91803249F763CF63
:10094000E0917E02F0917F028191F0937F02E0932B
:100950007E028A3021F410927F0210927E02282FAC
:1009600030E002C02FEF3FEFC901DF91CF911F911F
:100970000F91FF90EF900895EF92FF920F931F93C6
:100980007B018C0120E030E040E05FE40E94BC0786
:1009900088238CF0C801B70120E030E040E05FE43C
:1009A0000E9434060E941C089B01AC01205030407C
:1009B0004040504806C0C801B7010E941C089B0176
:1009C000AC01B901CA011F910F91FF90EF900895FA
:1009D000A0E0B0E0EEEEF4E00C942F0BDC012B0174
:1009E000FA019C91923008F439C1EB018881823080
:1009F00008F433C1943069F4843009F02FC11196A2
:100A00009C9111978981981709F428C1A5E7B1E055
:100A100025C1843009F421C18230A9F4923009F053
:100A20001DC19A01AD0188E0EA010990AE01E9011A
:100A300009929E018150C1F7E201898111969C9132
:100A40008923818308C1923009F407C112962D9041
:100A50003C901397EB018A819B811496AD90BD90D9
:100A6000CD90DC901797EC80FD800E811F81910165
:100A7000281B390BB90137FF04C066277727621B93
:100A8000730B603271050CF061C0121613066CF521
:100A900037014801062E04C0969487947794679492
:100AA0000A94D2F721E030E040E050E004C0220F89
:100AB000331F441F551F6A95D2F7215030404040E4
:100AC00050402E213F21402351232115310541055E
:100AD000510521F021E030E040E050E079018A0149
:100AE000E628F728082919293CC0232BD1F1260E26
:100AF000371E35014601062E04C0969487947794DC
:100B000067940A94D2F721E030E040E050E004C05E
:100B1000220F331F441F551F6A95D2F721503040D2
:100B2000404050402A213B214C215D2121153105B7
:100B30004105510521F021E030E040E050E059014D
:100B40006A01A628B728C828D9280BC082159305A2
:100B50002CF01C01AA24BB24650103C0EE24FF2451
:100B6000870111969C91D20111968C91981709F4E6
:100B700045C0992339F0A80197012A193B094C096E
:100B80005D0906C0A60195012E193F09400B510BC6
:100B900057FD08C011823382228224833583468325
:100BA00057831DC081E08183338222828827992761
:100BB000DC01821B930BA40BB50B84839583A68366
:100BC000B7830DC0220F331F441F551F2483358365
:100BD0004683578382819381019793838283248103
:100BE000358146815781DA01C9010197A109B1090F
:100BF0008F5F9F4FAF4FBF4328F30BC0918333826A
:100C00002282EA0CFB1C0C1D1D1DE482F58206836A
:100C1000178383E08083248135814681578157FF84
:100C20001AC0C901AA2797FDA095BA2F81709070AC
:100C3000A070B0705695479537952795822B932BCA
:100C4000A42BB52B84839583A683B783828193815C
:100C5000019693838283DF0101C0D201CD01CDB71C
:100C6000DEB7E2E10C944B0BA0E2B0E0EAE3F6E081
:100C70000C943B0B69837A838B839C832D833E8307
:100C80004F835887E9E0EE2EF12CEC0EFD1ECE01CD
:100C90000196B7010E940D0A8E010F5E1F4FCE0113
:100CA0000596B8010E940D0A8A8991E089278A8BEE
:100CB000C701B801AE01475E5F4F0E94E8040E9481
:100CC0003809A096E6E00C94570BA0E2B0E0EBE602
:100CD000F6E00C943B0B69837A838B839C832D8392
:100CE0003E834F835887F9E0EF2EF12CEC0EFD1E6A
:100CF000CE010196B7010E940D0A8E010F5E1F4FB3
:100D0000CE010596B8010E940D0AC701B801AE01D7
:100D1000475E5F4F0E94E8040E943809A096E6E013
:100D20000C94570BA0E2B0E0E8E9F6E00C942F0B2E
:100D300069837A838B839C832D833E834F8358877B
:100D4000CE010196BE01675F7F4F0E940D0ACE0162
:100D50000596BE016F5E7F4F0E940D0A9985923005
:100D600088F089898230C8F0943019F4823051F4C7
:100D700004C0843029F4923081F485E791E0C6C044
:100D8000923049F420E09A858A89981321E02A87D5
:100D9000CE010996BBC0823049F420E09A858A8949
:100DA000981321E02A8BCE014196B0C02D843E8459
:100DB0004F8458886D887E888F88988CEE24FF2415
:100DC0008701AA24BB24650140E050E060E070E0A8
:100DD000E0E0F0E0C10181709070892BE9F0E60C51
:100DE000F71C081D191D9A01AB012A0D3B1D4C1D56
:100DF0005D1D80E090E0A0E0B0E0E614F704080597
:100E0000190520F481E090E0A0E0B0E0BA01A9016A
:100E1000480F591F6A1F7B1FAA0CBB1CCC1CDD1C72
:100E200097FE08C081E090E0A0E0B0E0A82AB92ACF
:100E3000CA2ADB2A3196E032F10549F0660C771CAC
:100E4000881C991C5694479437942794C3CFFA85ED
:100E5000EA892B893C898B859C85280F391F2E5F59
:100E60003F4F17C0CA0181709070892B61F01695B1
:100E70000795F794E79480E090E0A0E0B0E8E82AD6
:100E8000F92A0A2B1B2B76956795579547952F5F67
:100E90003F4F77FDE7CF0CC0440F551F661F771FEC
:100EA00017FD4160EE0CFF1C001F111F2150304048
:100EB000403090E0590790E0690790E4790760F3CB
:100EC0002B8F3C8FDB01CA018F779070A070B070C0
:100ED00080349105A105B10561F447FD0AC0E11414
:100EE000F1040105110529F0405C5F4F6F4F7F4F02
:100EF00040781A8EFE1711F081E08A8F4D8F5E8F39
:100F00006F8F78A383E0898FCE0149960E943809BC
:100F1000A096E2E10C944B0BA8E1B0E0E2E9F7E027
:100F20000C943B0B69837A838B839C832D833E8354
:100F30004F83588789E0E82EF12CEC0EFD1ECE0180
:100F40000196B7010E940D0A8E010F5E1F4FCE0160
:100F50000596B8010E940D0A8985823040F0898982
:100F6000823028F0C701B8010E94850A01C08FEFC6
:100F70006896E6E00C94570BA8E1B0E0E2ECF7E0ED
:100F80000C943B0B69837A838B839C832D833E83F4
:100F90004F83588789E0E82EF12CEC0EFD1ECE0120
:100FA0000196B7010E940D0A8E010F5E1F4FCE0100
:100FB0000596B8010E940D0A8985823040F0898922
:100FC000823028F0C701B8010E94850A01C08FEF66
:100FD0006896E6E00C94570BA8E1B0E0E2EFF7E08A
:100FE0000C943B0B69837A838B839C832D833E8394
:100FF0004F83588789E0E82EF12CEC0EFD1ECE01C0
:101000000196B7010E940D0A8E010F5E1F4FCE019F
:101010000596B8010E940D0A8985823040F08989C1
:10102000823028F0C701B8010E94850A01C081E022
:101030006896E6E00C94570BACE0B0E0E2E2F8E032
:101040000C943F0B69837A838B839C83CE0101963A
:10105000BE016B5F7F4F0E940D0A8D81823061F16E
:10106000823050F1843021F48E81882351F12EC0DA
:101070002F81388537FD20C06E812F3131051CF05E
:101080006623F9F023C08EE190E0821B930B298543
:101090003A854B855C8504C05695479537952795CD
:1010A0008A95D2F76623B1F05095409530952195F9
:1010B0003F4F4F4F5F4F0EC020E030E040E050E028
:1010C00009C02FEF3FEF4FEF5FE704C020E030E0B3
:1010D00040E050E8B901CA012C96E2E00C945B0BA9
:1010E000A8E0B0E0E6E7F8E00C94370B7B018C0158
:1010F000611571058105910519F482E0898360C04D
:1011000083E089838EE1C82ED12CDC82CB82ED82F4
:10111000FE820F831887C801B7010E94E908FC010D
:101120003197F7FF3BC0222733272E1B3F0B570178
:101130006801022E04C0D694C794B794A7940A9469
:10114000D2F740E050E060E070E081E090E0A0E0A5
:10115000B0E004C0880F991FAA1FBB1F2A95D2F7C1
:101160000197A109B1098E219F21A023B1230097E6
:10117000A105B10521F041E050E060E070E04A29AE
:101180005B296C297D294D835E836F8378878EE18F
:1011900090E08E1B9F0B9C838B8312C0309781F055
:1011A0000E2E04C0EE0CFF1C001F111F0A94D2F774
:1011B000ED82FE820F831887CE1ADF0ADC82CB8293
:1011C0001A82CE0101960E9438092896EAE00C9412
:1011D000530BEF92FF920F931F937B018C0180E0E2
:1011E000E81680E0F80681E0080780E0180788F438
:1011F0008FEFE816F1040105110531F028F088E0C1
:1012000090E0A0E0B0E017C080E090E0A0E0B0E0A7
:1012100012C080E0E81680E0F80680E0080781E070
:10122000180728F088E190E0A0E0B0E004C080E179
:1012300090E0A0E0B0E020E230E040E050E0281B89
:10124000390B4A0B5B0B04C016950795F794E7948E
:101250008A95D2F7F701E358FE4F8081281B3109A8
:1012600041095109C9011F910F91FF90EF90089515
:10127000DF92EF92FF920F931F93FC01E480F580C1
:1012800006811781D1808081823048F480E090E02F
:10129000A0E1B0E0E82AF92A0A2B1B2BA5C0843074
:1012A00009F49FC0823021F4EE24FF24870105C099
:1012B000E114F1040105110519F4E0E0F0E096C035
:1012C000628173819FEF623879070CF05BC022E87E
:1012D0003FEF261B370B2A3131052CF020E030E0A0
:1012E00040E050E02AC0B801A701022E04C0769564
:1012F0006795579547950A94D2F781E090E0A0E072
:10130000B0E004C0880F991FAA1FBB1F2A95D2F70F
:101310000197A109B1098E219F21A023B123009734
:10132000A105B10521F081E090E0A0E0B0E09A01D4
:10133000AB01282B392B4A2B5B2BDA01C9018F77A4
:101340009070A070B07080349105A105B10539F49A
:1013500027FF09C0205C3F4F4F4F5F4F04C0215C07
:101360003F4F4F4F5F4FE0E0F0E02030A0E03A0702
:10137000A0E04A07A0E45A0710F0E1E0F0E07901AC
:101380008A0127C06038710564F5FB01E158FF4F01
:10139000D801C7018F779070A070B070803491052C
:1013A000A105B10539F4E7FE0DC080E490E0A0E0AE
:1013B000B0E004C08FE390E0A0E0B0E0E80EF91EDA
:1013C0000A1F1B1F17FF05C016950795F794E79492
:1013D000319687E016950795F794E7948A95D1F7AB
:1013E00005C0EE24FF248701EFEFF0E06E2F679534
:1013F00066276795902F9F77D794DD24D7948E2FFB
:101400008695492F462B582F5D29B701CA011F9198
:101410000F91FF90EF90DF900895FC01DB01408178
:1014200051812281622F6F7770E0221F2227221FB5
:101430009381892F880F822B282F30E0991F9927BD
:10144000991F11969C93119721153105A9F5411506
:1014500051056105710511F482E037C082E89FEF04
:1014600013969C938E9312979A01AB0167E0220F1B
:10147000331F441F551F6A95D1F783E08C930DC02D
:10148000220F331F441F551F12968D919C91139765
:10149000019713969C938E931297203080E0380723
:1014A00080E0480780E4580758F314962D933D9345
:1014B0004D935C93179708952F3F310579F44115AB
:1014C00051056105710519F484E08C93089564FF5A
:1014D00003C081E08C9312C01C9210C02F57304083
:1014E00013963C932E93129783E08C9387E0440FDE
:1014F000551F661F771F8A95D1F7706414964D9318
:101500005D936D937C93179708951F93DC01FB0106
:101510009C91923008F447C08081823008F443C027
:10152000943051F411961C91843099F58181682F83
:1015300070E0611B71093FC0843021F0923031F4BA
:101540008230B9F18181882389F12DC011961C91D7
:1015500011978230F1F081811817D9F412962D91EC
:101560003C911397828193818217930794F02817F7
:101570003907BCF014968D919D910D90BC91A02DD2
:101580002481358146815781281739074A075B072F
:1015900018F4112341F00AC082179307A407B50776
:1015A00040F4112319F061E070E005C06FEF7FEFA8
:1015B00002C060E070E0CB011F910895AA1BBB1B25
:1015C00051E107C0AA1FBB1FA617B70710F0A61B43
:1015D000B70B881F991F5A95A9F780959095BC0164
:1015E000CD010895A1E21A2EAA1BBB1BFD010DC05F
:1015F000AA1FBB1FEE1FFF1FA217B307E407F507C3
:1016000020F0A21BB30BE40BF50B661F771F881F9E
:10161000991F1A9469F760957095809590959B0134
:10162000AC01BD01CF01089597FB092E05260ED010
:1016300057FD04D0D7DF0AD0001C38F450954095F0
:10164000309521953F4F4F4F5F4F0895F6F7909596
:101650008095709561957F4F8F4F9F4F08952F9282
:101660003F924F925F926F927F928F929F92AF9232
:10167000BF92CF92DF92EF92FF920F931F93CF937F
:10168000DF93CDB7DEB7CA1BDB0B0FB6F894DEBF16
:101690000FBECDBF09942A88398848885F846E843C
:1016A0007D848C849B84AA84B984C884DF80EE8086
:1016B000FD800C811B81AA81B981CE0FD11D0FB68F
:1016C000F894DEBF0FBECDBFED010895EF92FF92FB
:1016D0000F931F93CF93DF937C018B01DB01139654
:1016E0008C9181FD03C0CFEFDFEF13C0C0E0D0E0ED
:1016F0000BC0D8011896ED91FC911997B801099586
:10170000892B11F0CFEFDFEFF70181917F01882363
:1017100081F7CE01CDB7DEB7E6E00C94570BA0E021
:10172000B0E0E5E9FBE00C943F0BFE0135966191DA
:1017300071918091D2029091D302AF010E94D90B96
:101740002096E2E00C945B0B0F931F93CF93DF93F3
:101750008C01E091D202F091D302838181FF21C0FC
:10176000C0E0D0E00DC0E091D202F091D30220851C
:101770003185BF01F9010995892B11F0CFEFDFEF1A
:10178000F80181918F01882371F7E091D202F091E5
:10179000D302208531858AE0BF01F9010995892BA3
:1017A00011F0CFEFDFEFCE01DF91CF911F910F91BD
:1017B0000895ABE0B0E0EFEDFBE00C942F0B3C01A3
:1017C0002B015A01FC0117821682838181FD03C01F
:1017D0006FEF7FEFC6C19AE0892E1E010894211C8D
:1017E000311CF3012381F20123FD859123FF8191B7
:1017F0002F01882309F4B2C1853239F423FD859184
:1018000023FF81912F01853229F490E0B3010E94DA
:10181000CC0DE7CF982FFF24EE249924FFE1FF158C
:10182000D0F09B3269F09C3228F4903259F0933218
:1018300091F40EC09D3249F0903369F441E024C028
:1018400052E0F52A84E0F82A28C098E0F92A25C059
:10185000E0E1FE2A22C0F7FC29C0892F80538A309C
:1018600070F4F6FE05C0989C902C1124980E15C0BB
:10187000E89CE02C1124E80EF0E2FF2A0EC09E3214
:1018800029F4F6FC6BC140E4F42A07C09C3619F435
:1018900050E8F52A02C0983649F4F20123FD9591EB
:1018A00023FF91912F01992309F0B8CF892F8554F7
:1018B000833018F08052833038F444E050E0A40EB6
:1018C000B51E5FE359830FC0933631F0933779F03B
:1018D000933509F056C020C0F5018081898342E02C
:1018E00050E0A40EB51E610101E010E012C0F50148
:1018F000C080D180F6FC03C06FEF7FEF02C0692D7E
:1019000070E042E050E0A40EB51EC6010E94C10D79
:101910008C015FE7F52214C0F501C080D180F6FC90
:1019200003C06FEF7FEF02C0692D70E042E050E02E
:10193000A40EB51EC6010E94B60D8C0150E8F52A12
:10194000F3FE07C01AC080E290E0B3010E94CC0D04
:10195000EA948E2D90E008171907A8F30EC0F6013F
:10196000F7FC8591F7FE81916F0190E0B3010E9431
:10197000CC0DE110EA94015010400115110579F7E2
:10198000EAC0943611F0993669F5F7FE08C0F50102
:10199000208131814281538184E090E00AC0F501C9
:1019A000808191819C01442737FD4095542F82E02E
:1019B00090E0A80EB91E9FE6F92257FF09C0509586
:1019C0004095309521953F4F4F4F5F4FE0E8FE2AFD
:1019D000CA01B901A1012AE030E00E94F80DD82E19
:1019E000D21840C0953729F41F2D1F7E2AE030E021
:1019F0001DC01F2D197F9F3661F0903720F4983558
:101A000009F0ACC00FC0903739F0983709F0A6C084
:101A100004C028E030E00AC0106114FD146020E129
:101A200030E004C014FD166020E132E017FF08C06A
:101A3000F501608171818281938144E050E008C0AA
:101A4000F50180819181BC0180E090E042E050E0AE
:101A5000A40EB51EA1010E94F80DD82ED2188FE752
:101A6000F82EF122F6FE0BC05EEFF522D91438F401
:101A7000F4FE07C0F2FC05C08FEEF82202C01D2D57
:101A800001C0192DF4FE0DC0FE01ED0DF11D808188
:101A9000803319F499EEF92208C01F5FF2FE05C0E9
:101AA00003C08F2D867809F01F5F0F2DF3FC14C043
:101AB000F0FE0FC01E1510F09D2C0BC09D2C9E0C2F
:101AC000911A1E2D06C080E290E0B3010E94CC0D59
:101AD0001F5F1E15C0F304C01E1510F4E11A01C0EB
:101AE000EE2404FF0FC080E390E0B3010E94CC0D10
:101AF00002FF1DC001FD03C088E790E00EC088E52D
:101B000090E00BC0802F867891F001FF02C08BE23D
:101B100001C080E2F7FC8DE290E0B3010E94CC0DA1
:101B200006C080E390E0B3010E94CC0D9A94D914D2
:101B3000C0F3DA94F101ED0DF11D808190E0B30165
:101B40000E94CC0DDD20A9F706C080E290E0B30131
:101B50000E94CC0DEA94EE20C1F743CEF3016681DA
:101B60007781CB012B96E2E10C944B0BFC010590A5
:101B7000615070400110D8F7809590958E0F9F1F8F
:101B80000895FC016150704001900110D8F78095D4
:101B900090958E0F9F1F08950F931F93CF93DF9300
:101BA0008C01EB018B8181FF1BC082FF0DC02E8158
:101BB0003F818C819D812817390764F4E881F98180
:101BC0000193F983E88306C0E885F985802F09959C
:101BD000892B31F48E819F8101969F838E8302C071
:101BE0000FEF1FEFC801DF91CF911F910F91089563
:101BF000FA01AA27283051F1203181F1E8946F933E
:101C00006E7F6E5F7F4F8F4F9F4FAF4FB1E03ED0E3
:101C1000B4E03CD0670F781F891F9A1FA11D680F81
:101C2000791F8A1F911DA11D6A0F711D811D911DB4
:101C3000A11D20D009F468943F912AE0269F112429
:101C40003019305D3193DEF6CF010895462F47708D
:101C5000405D4193B3E00FD0C9F7F6CF462F4F70E8
:101C6000405D4A3318F0495D31FD4052419302D046
:101C7000A9F7EACFB4E0A6959795879577956795EC
:101C8000BA95C9F700976105710508959B01AC01EC
:101C90000A2E06945795479537952795BA95C9F713
:101CA000620F731F841F951FA01D0895F894FFCF26
:101CB0007C2D2D2D2D2D53746172742D2D2D2D2DD8
:101CC0007C00464C3A2575202F202575202F202595
:101CD000752046523A2575202F202575202F202566
:101CE0007520524C3A2575202F202575202F202550
:101CF000752052523A2575202F202575202F20253A
:101D0000750A000000000300000000D503F3030083
:101D100000FFFFFFFFFFFFFFFFFFFFFFFF2A7269CA
:101D20006E672A0A000000000000000000000102A7
:101D30000203030303040404040404040405050566
:101D40000505050505050505050505050506060640
:101D50000606060606060606060606060606060623
:101D60000606060606060606060606060607070710
:101D700007070707070707070707070707070707F3
:101D800007070707070707070707070707070707E3
:101D900007070707070707070707070707070707D3
:101DA00007070707070707070707070707080808C0
:101DB00008080808080808080808080808080808A3
:101DC0000808080808080808080808080808080893
:101DD0000808080808080808080808080808080883
:101DE0000808080808080808080808080808080873
:101DF0000808080808080808080808080808080863
:101E00000808080808080808080808080808080852
:101E10000808080808080808080808080808080842
:0E1E200008080808080808080808080808004C
:00000001FF
