:100000000C944A000C9467000C9467000C946700F1
:100010000C9467000C9467000C9467000C946700C4
:100020000C9467000C9467000C9467000C946700B4
:100030000C9467000C9467000C9467000C946700A4
:100040000C9467000C9467000C9467000C94670094
:100050000C9467000C9467000C9467000C94670084
:100060000C9467000C9467000C9467000C94670074
:100070000C9467000C9467000C9467000C94670064
:100080000C9467000C9467000C9467000C94670054
:100090000C94670011241FBECFEFD0E1DEBFCDBFAF
:1000A00011E0A0E0B1E0E8E6FCE000E00BBF02C038
:1000B00007900D92AA35B107D9F711E0AAE5B1E092
:1000C00001C01D92A23BB107E1F70C9469000C94AA
:1000D0000000CF93DF93CDB7DEB7A9970FB6F894A2
:1000E000DEBF0FBECDBF85E589830E94B90080E0E9
:1000F00091E09093B1018093B0018091B001909113
:10010000B1019093AD018093AC018091AC019091CD
:10011000AD019093AF018093AE01898199279F93A0
:100120008F938EE091E09F938F930E94DE020F9059
:100130000F900F900F9089818F5F898380E091E00D
:100140000E94E000CE0146969F938F9388E491E051
:100150009F938F9380E091E09F938F930E947F0203
:100160008DB79EB706960FB6F8949EBF0FBE8DBF93
:10017000FFCFCF93DF93CDB7DEB7E1ECF0E0108295
:10018000E5ECF0E01082E4ECF0E089E18083A0ECA3
:10019000B0E0E0ECF0E0808182608C93A0ECB0E015
:1001A000E0ECF0E0808180628C93E2ECF0E08EE0A5
:1001B0008083E1ECF0E088E18083DF91CF910895C6
:1001C000CF93DF93CDB7DEB72B970FB6F894DEBF92
:1001D0000FBECDBF9F838E8380915A0190915B01AA
:1001E000009709F026C18CE591E09C838B8300C0C9
:1001F000E0ECF0E080818823DCF7E0ECF0E0808147
:10020000992780719070009729F02EEF3FEF3B8780
:100210002A8727C1E0ECF0E08081992788709070F0
:10022000009729F08FEF9FEF9B878A871AC1E6EC32
:10023000F0E080818D838D818D3011F48AE08D8393
:100240008D818A3089F4EB81FC818D8180838E8160
:100250009F81BC018D810E943C028CE591E09093CE
:100260005B0180935A01E5C08D81893011F480E2F1
:100270008D838D81803218F08D818F3718F08D81BC
:10028000803AF0F02BEA31E08B819C818217930752
:1002900039F48E819F81BC0187E00E943C02A8CF87
:1002A000EB81FC818D8180838B819C8101969C8375
:1002B0008B838E819F81BC018D810E943C0298CFEF
:1002C0008D81282F33273987288788859985823122
:1002D000910509F447C028853985233131055CF43F
:1002E0008885998583309105C1F028853985283026
:1002F0003105C1F07DCF888599858731910509F455
:1003000088C0288539852F37310561F08885998522
:100310008531910509F45EC06BCF2FEF3FEF3B872E
:100320002A879FC08B819C8131E08C35930709F02F
:1003300008F45ECF8E819F81BC0188E00E943C0260
:100340008E819F81BC0180E20E943C028E819F8150
:10035000BC0188E00E943C028B819C8101979C83B8
:100360008B8346CF8E819F81BC018DE00E943C0231
:100370008CE591E09A8389830EC0E981FA8120811E
:100380008E819F81BC01822F0E943C0289819A81CB
:1003900001969A83898329813A818B819C812817D0
:1003A000390758F325CF8E819F81BC0188E00E94D8
:1003B0003C028E819F81BC0180E20E943C028E81C2
:1003C0009F81BC0188E00E943C028B819C81019747
:1003D0009C838B838B819C8121E08C35920709F073
:1003E00010F706CF8E819F81BC0188E00E943C02FD
:1003F0008E819F81BC0180E20E943C028E819F81A0
:10040000BC0188E00E943C028B819C8101979C8307
:100410008B838B819C8131E08C35930709F008F444
:10042000E7CE8B819C81FC01319780818032D1F6AF
:10043000DFCEE0915A01F0915B0180818D83CF0185
:10044000019690935B0180935A018D818A3021F44B
:1004500010925B0110925A018D81282F33273B8720
:100460002A878A859B852B960FB6F894DEBF0FBE30
:10047000CDBFDF91CF910895CF93DF93CDB7DEB796
:1004800025970FB6F894DEBF0FBECDBF89837B835F
:100490006A838981873089F48091B0019091B1019C
:1004A000E1E5F1E09C0147E050E061E070E0CF0160
:1004B0000E949D021D821C8217C089818A3031F4FE
:1004C0008A819B81BC018DE00E943C02E0ECF0E05F
:1004D00080819927807290700097C1F3E6ECF0E07C
:1004E000898180831D821C828C819D8125960FB617
:1004F000F894DEBF0FBECDBFDF91CF910895CF93AB
:10050000DF93CDB7DEB722970FB6F894DEBF0FBEEC
:10051000CDBFAE01455F5F4F5A83498369857A85B8
:100520008F8198850E94FE0222960FB6F894DEBF56
:100530000FBECDBFDF91CF9108958F929F92AF9262
:10054000BF92CF92DF92EF92FF920F931F93CF93C0
:10055000DF93FC014B015A017901E9018B8181FF95
:100560001DC08F01CC24DD2413C0F7012085318507
:10057000B701F8018081F9010995892B89F40F5F92
:100580001F4F2196C815D90581F70894C11CD11CAD
:10059000CA14DB0429F0C0E0D0E0F4CFCC24DD2481
:1005A000C601DF91CF911F910F91FF90EF90DF90E7
:1005B000CF90BF90AF909F908F900895CF93DF938F
:1005C000CDB7DEB722970FB6F894DEBF0FBECDBF12
:1005D000FE01379661917191FA83E983AF018091B1
:1005E000AE019091AF010E94FE0222960FB6F894E0
:1005F000DEBF0FBECDBFDF91CF9108952F923F9206
:100600004F925F926F927F928F929F92AF92BF9222
:10061000CF92DF92EF92FF920F931F93CF93DF93CE
:10062000CDB7DEB764970FB6F894DEBF0FBECDBF6F
:10063000CC24DD2476011C017C8B6B8B2A01FC0110
:1006400017821682838181FD03C08FEF9FEF85C2E1
:10065000AA24BB246FC2A0FE54C28A8980538A3068
:10066000E8F4FA89F03341F42D85222329F4A3FC20
:1006700003C080E091E06FC08AE0ED85E802C00130
:100680001124FA89F80FF053FD87F7FF02C02FE716
:100690002D87A3FC49C23D853E8746C2C5018870AF
:1006A0009070A3FE05C0ED85EE2311F4F1E0FD8707
:1006B0002A89283624F525360CF05BC0233509F449
:1006C00080C024358CF42B32C1F12C3234F420322A
:1006D000C1F1233209F00AC23CC03A893D32B1F17E
:1006E0003E3209F003C23AC08A89833609F449C010
:1006F00084360CF081C0883509F0F8C11BC0EA8946
:10070000E03709F4A3C0E13744F4EC3669F1EF3681
:1007100071F0E93609F0EAC16FC0FA89F53709F4DA
:100720009DC0F83739F0F33709F0E0C134C028E054
:10073000298B94C030E1398B91C080E190E0A82AE8
:10074000B92AE0E2F0E0AE2ABF2AEEC120E830E0AC
:100750000DC080E490E0A82AB92AE6C1E8E0F0E004
:10076000AE2ABF2A1D86E0C124E030E0A22AB32AC7
:10077000DBC13FE3C32E3E8531503E8783E68A8B43
:1007800041C1F201C080FE85F150FE8722E030E0D9
:10079000420E531E37C1F201C080D180892B49F02F
:1007A000FD856F2F772767FD7095C6010E94DA05DA
:1007B00019C0F60101900020E9F73197EC19E98B97
:1007C00012C0F201C080D180892B49F0FD856F2FC6
:1007D000772767FD7095C6010E94CF0503C0C6014B
:1007E0000E94C605898B22E030E0420E531E3E85F2
:1007F0008989381B3E8706C1A2FE08C0F2018081AC
:100800009181A281B38124E030E009C0F2018081AE
:100810009181AA2797FDA095BA2F22E030E0420EE1
:10082000531E6C017D01B7FF0CC082E090E0A82A46
:10083000B92AF094E094D094C094C11CD11CE11C5E
:10084000F11CEFEBFFEFAE22BF2221C020E430E02D
:10085000A22AB32A38E73A8B80E1898BA2FE08C02E
:10086000F20180819181A281B38124E030E007C050
:10087000F20180819181AA27BB2722E030E0420E5D
:10088000531E6C017D018FEC9FEFA822B9228701D6
:100890007601FE013196F88BEF87F9896F2E772468
:1008A00088249924C801B701A40193010E9412066B
:1008B0006A3024F02A89620F615201C0605DEF85C1
:1008C000F8896193F88BEF87C801B701A401930100
:1008D0000E94120679018A01211531054105510551
:1008E00009F7CC24DD247601CE010196CF84C81A05
:1008F000C50182739070892B19F0FE85F150FE8737
:10090000A6FE09C02989203111F482E001C081E0EE
:100910003E85381B3E8728E0822E912C8A209B2022
:10092000A3FE18C08D85282F332727FD30958C2DE9
:100930009927821793073CF0E7EFFFEFAE22BF2223
:100940008824992407C0FD85FC19FD872E852F1B5F
:100950002E8703C03E853C193E87C5018078917083
:10096000892B69F48E8506C0B10180E290E00E9477
:10097000E505812F182F11501816B4F31E87A1FE1C
:1009800004C0B1018DE290E00BC0A4FE04C0B1012F
:100990008BE290E005C0A5FE05C0B10180E290E0C9
:1009A0000E94E505A6FE10C0B10180E390E00E9420
:1009B000E5058989803141F4B101EA898E2F9927B3
:1009C00087FD90950E94E505B0FE0DC08E8506C09E
:1009D000B10180E390E00E94E505812F182F1150AE
:1009E0001816B4F31E87892869F02D8506C0B10159
:1009F00080E390E00E94E505212F122F115012167E
:100A0000B4F31D8790E8692E712C6A207B20A7FC27
:100A10000DC08E8506C0B10180E290E00E94E50520
:100A2000812F182F11501816B4F31E87FA89F33648
:100A300041F4B1018C2D992787FD90950E94E50521
:100A400045C02A892337B1F446015601198909C0E6
:100A5000F50181915F01B101992787FD90950E9471
:100A6000E5051150A8F76401F989CF0ED11C2FEFCD
:100A7000298B2CC03A89333519F00F8518891FC08E
:100A800046018601B98808C0F8018491B10199270F
:100A90000E94E5050F5F1F4FBA94FFEFBF16A1F745
:100AA00064012989C20ED11CF98B10C0F801829112
:100AB0008F01B101992787FD90950E94E505CE0130
:100AC00001960817190791F7188B0F876728B1F05F
:100AD0008E8506C0B10180E290E00E94E505812F7D
:100AE000182F11501816B4F31E8708C0B101FA89E7
:100AF0008F2F992787FD90950E94E505AA24BB2496
:100B000013C02A89253241F43AE0398B1E861D86AE
:100B100081E0A82EB12C08C0B101EA898E2F992757
:100B200087FD90950E94E5052B893C892F5F3F4FFB
:100B30003C8B2B8BF101838183FF04C0EB89FC8903
:100B4000F49103C0EB89FC89F081FA8B2A89222376
:100B500009F081CDF1018681978164960FB6F894F2
:100B6000DEBF0FBECDBFDF91CF911F910F91FF90E0
:100B7000EF90DF90CF90BF90AF909F908F907F903D
:100B80006F905F904F903F902F900895FC010590DB
:100B90000020E9F7809590958E0F9F1F0895FC0126
:100BA0000590615070400110D8F7809590958E0F98
:100BB0009F1F0895FC016150704001900110D8F70B
:100BC000809590958E0F9F1F08950F931F93CF933D
:100BD000DF938C01EB018B81992781FF1BC082FF82
:100BE0000DC02E813F818C819D812817390764F4C7
:100BF000E881F9810193F983E88306C0E885F985E6
:100C0000802F0995892B31F48E819F8101969F83D6
:100C10008E8302C00FEF1FEFC801DF91CF911F91AC
:100C20000F910895A1E21A2EAA1BBB1BFD010DC056
:100C3000AA1FBB1FEE1FFF1FA217B307E407F5078C
:100C400020F0A21BB30BE40BF50B661F771F881F68
:100C5000991F1A9469F760957095809590959B01FE
:080C6000AC01BD01CF010895B4
:100C680000000003000000003C02E00000004865AE
:100C78006C6C6F20776F726C642C20746865206DC3
:100C8800616769632076616C7565206973203D2012
:100C980030782558202E2E2E2066696674792D66A8
:100CA80069766520210D0A00476F743A2025730A7A
:0A0CB800002A72696E672A0A000024
:00000001FF
