:100000000C9498030C94B7030C94B7030C94B703A7
:100010000C94B7030C94B7030C94B7030C94B70378
:100020000C94B7030C94B7030C94B7030C94B70368
:100030000C94B7030C94B7030C94B7030C94B70358
:100040000C94B7030C94B7030C94B7030C94B70348
:100050000C94B7030C94B7030C94B7030C94B70338
:100060000C94B7030C94B7030C94B7030C94B70328
:100070000C94B7030C94B7030C94B7030C94B70318
:100080000C94B7030C94B7030C94B7030C94B70308
:100090000C94B703454550524F4D207772697465F3
:1000A0002064617461206661696C65642E2E004570
:1000B0004550524F4D2077726974652D322066612C
:1000C000696C65642E2E00454550524F4D20777265
:1000D0006974652D31206661696C65642E2E00455A
:1000E0004550524F4D2073656E6441646472657370
:1000F0007331206661696C65642E2E00693263205D
:100100007374617274206661696C65642E2E005789
:100110006169742E2E2E00454550524F4D20777246
:100120006974652064617461206661696C65642E20
:100130002E00454550524F4D2077726974652D321F
:10014000206661696C65642E2E00454550524F4D06
:100150002077726974652D31206661696C65642E43
:100160002E00454550524F4D2073656E64416464C6
:100170007265737331206661696C65642E2E006947
:100180003263207374617274206661696C65642ED9
:100190002E00454550524F4D207265636569766566
:1001A000206661696C65642E2E00454550524F4DA6
:1001B0002073656E64416464726573733220666196
:1001C000696C65642E2E006932632072657065610A
:1001D000742D7374617274206661696C65642E2E6F
:1001E00000454550524F4D2077726974652D32207D
:1001F0006661696C65642E2E00454550524F4D2056
:1002000077726974652D31206661696C65642E2E84
:1002100000454550524F4D2073656E6441646472D1
:1002200065737331206661696C65642E2E006932D6
:1002300063207374617274206661696C65642E2E2C
:10024000002046696E69736865642E2E002045455E
:1002500050524F4D206F7065726174696F6E2066E9
:1002600061696C65642E2E0020496E76616C69644C
:10027000206F7074696F6E210020456E7465722066
:10028000746578743A200020416464726573732049
:100290006F7574206F662072616E67652E2E200068
:1002A00020456E7465722050616765204E756D62E1
:1002B000657220283030302D353131293A20002028
:1002C000486F77206D616E792062797465733F287D
:1002D00030302D3634293A200020456E7465722066
:1002E000746578743A200020454550524F4D206582
:1002F0007261736564207375636365737366756C8F
:100300006C792E2E0020454550524F4D206572616C
:100310007365206661696C65642E2E003E2053650E
:100320006C656374204F7074696F6E2028302D38AF
:10033000293A20003E2038203A20557064617465C7
:10034000205254432054696D65003E2037203A20E6
:100350005570646174652052544320446174650093
:100360003E2036203A20446973706C6179205254E3
:10037000432054696D65003E2035203A204469735E
:10038000706C6179205254432044617465003E20B2
:1003900034203A205265616420454550524F4D202B
:1003A00050616765003E2033203A205772697465BA
:1003B00020454550524F4D2050616765003E203228
:1003C000203A205265616420454550524F4D003E11
:1003D0002031203A20577269746520454550524FAC
:1003E0004D003E2030203A2045726173652045451E
:1003F00050524F4D00507265737320616E79206BBF
:1004000065792E2E00456E61626C696E6720436CC3
:100410006F636B0A003E436F6D6D756E6963617447
:10042000696F6E20537461727465642E2E2E003EC7
:100430002D2D2D2D2D2D2D2D2D2D2D2D2D2D2D2DEC
:100440002D2D2D2D2D2D2D2D2D2D2D2D2D2D2D2DDC
:100450002D2D003E2D2D2D2D2D2D2D2D20427920A1
:10046000434320446861726D616E69202D2D2D2DEE
:100470002D2D2D2D2D003E2D20525443202620536E
:10048000455249414C20454550524F4D20546573CB
:1004900074696E67212D2D2D00496E76616C69643B
:1004A00020456E7472792E2E00446174652055705B
:1004B00064617465642073756365737366756C6CD1
:1004C000792E2E00456E7465722044617920285380
:1004D000756E6461793A302C204D6F6E6461793AA3
:1004E000312E2E2E292028302D36293A00456E74C3
:1004F00065722044617465202864642F6D6D2F79C6
:1005000079293A00496E76616C696420456E74728F
:10051000792E2E0054696D65205570646174656490
:100520002073756365737366756C6C792E2E004548
:100530006E7465722054696D6520696E203234686E
:1005400020666F726D61742868683A6D6D3A7373D6
:10055000293A0052544320777269746520646174AB
:1005600065206661696C65642E2E005254432077C5
:10057000726974652D31206661696C65642E2E0088
:100580005254432073656E644164647265737331C1
:10059000206661696C65642E2E005254432073748A
:1005A00061727431206661696C65642E2E0052544C
:1005B000432077726974652074696D65206661698E
:1005C0006C65642E2E005254432077726974652D39
:1005D00031206661696C65642E2E0052544320738D
:1005E000656E644164647265737331206661696C21
:1005F00065642E2E0052544320737461727431204E
:100600006661696C65642E2E00556E6B6E6F776E39
:10061000005361747572646179004672696461792E
:10062000005468757273646179005765646E657310
:100630006461790054756573646179004D6F6E640F
:1006400061790053756E6461790020202020446137
:10065000793A2000446174653A0054696D653A0046
:100660005254432072656365697665206661696CE2
:1006700065642E2E005254432073656E6441646499
:100680007265737332206661696C65642E2E005248
:1006900054432072657065617420737461727420B4
:1006A0006661696C65642E2E00525443207772692E
:1006B00074652D31206661696C65642E2E0052547C
:1006C000432073656E6441646472657373312066A0
:1006D00061696C65642E2E005254432073746172FC
:1006E0007431206661696C65642E2E00525443207B
:1006F00077726974652D32206661696C65642E2E8F
:10070000005254432073656E644164647265737370
:1007100031206661696C65642E2E0052544320734B
:100720007461727431206661696C65642E2E0000FC
:1007300011241FBECFEFD0E1DEBFCDBF11E0A0E09E
:10074000B1E0E4EEF5E100E00BBF02C007900D92CE
:10075000A030B107D9F711E0A0E0B1E001C01D92CF
:10076000AE31B107E1F70E9408050C94F00A0C9431
:100770000000CF93DF938DE00E945B0A8AE00E9425
:100780005B0A8DE00E945B0A8AE00E945B0A8FE0B0
:1007900091E00E94630A8DE00E945B0A8AE00E9459
:1007A0005B0A0E947D0A813019F48CEF90E007C04B
:1007B00080EA0E949D0A813041F48FED90E00E9412
:1007C000630A0E94EC0A81E021C080E00E94B80A1E
:1007D000813019F487EC90E0F2CF80E00E94B80AF3
:1007E000813019F0C0E0D0E00CC08FEA90E0E7CF94
:1007F0008FEF0E94B80A813019F484E990E0DFCFCE
:100800002196D7FFF5CF0E94EC0A80E0DF91CF91CF
:1008100008950F931F93182F062F0E947D0A813091
:1008200019F48FE791E007C080EA0E949D0A8130A9
:1008300041F482E691E00E94630A0E94EC0A81E0A2
:1008400023C0812F0E94B80A813019F48AE491E014
:10085000F2CF802F0E94B80A813071F482E391E0D8
:10086000EACF812F0E945B0A812F0E94B80A813053
:1008700019F487E191E0DFCF0E94520A182F8D30E2
:1008800081F70E94EC0A80E01F910F910895BC014E
:1008900086E0660F771F8A95E1F7872F0E9409048B
:1008A0000895DF92EF92FF920F931F93CF93DF9300
:1008B000182F062FD42E0E947D0A813019F48EE263
:1008C00092E007C080EA0E949D0A813041F481E1F4
:1008D00092E00E94630A0E94EC0A81E04FC0812FDF
:1008E0000E94B80A813019F489EF91E0F2CF802F8D
:1008F0000E94B80A813019F481EE91E0EACF0E949B
:100900008D0A813019F487EC91E0E3CF81EA0E94EF
:100910009D0A813039F000E0ED2CFF240894E108B5
:10092000F10821C08AEA91E0D4CFC02FD0E0CE15E3
:10093000DF0519F40E94DB0A02C00E94CA0A182FC0
:100940008E3719F482E991E0C4CFCF70D070CD2BEF
:1009500031F48DE00E945B0A8AE00E945B0A812FDD
:100960000E945B0A0F5F0D1500F38DE00E945B0A89
:100970008AE00E945B0A0E94EC0A80E0DF91CF913E
:100980001F910F91FF90EF90DF900895BC0196E0CA
:10099000660F771F9A95E1F7872F40E40E94510474
:1009A000089512B811B815B814B818B88FEF87B9F0
:1009B0001BB81AB81EB81DB811BA10BA14BA13BAB7
:1009C0000895ECEBF0E0108282E18093B80081E0C2
:1009D0008093B90084E480830895F89410927400A1
:1009E0000E94D1040E94420AECEBF0E0108282E106
:1009F0008093B80081E08093B90084E4808315BEC1
:100A00001092690010926A001DBA10927000089549
:100A1000CF92DF92EF92FF920F931F93CF93DF93CA
:100A20000E94ED048DE00E945B0A8AE00E945B0A4E
:100A30008DE00E945B0A8AE00E945B0A8DE00E94C2
:100A40005B0A8AE00E945B0A86E794E00E94630AE0
:100A50008DE00E945B0A8AE00E945B0A83E594E0D5
:100A60000E94630A8DE00E945B0A8AE00E945B0A92
:100A70008FE294E00E94630A8DE00E945B0A8AE0A4
:100A80000E945B0A85E194E00E94630A8DE00E9467
:100A90005B0A8AE00E945B0A85E094E00E94630A98
:100AA0000E947D0A80ED0E949D0A80E00E94B80AA3
:100AB00080E00E94B80A0E94EC0A64E6C62ED12C9F
:100AC0008DE00E945B0A8AE00E945B0A8DE00E9432
:100AD0005B0A8AE00E945B0A85EF93E00E94630A4A
:100AE0000E94520A8DE00E945B0A8AE00E945B0A23
:100AF00082EE93E00E94630A8DE00E945B0A8AE026
:100B00000E945B0A8FEC93E00E94630A8DE00E94D2
:100B10005B0A8AE00E945B0A8DEB93E00E94630A05
:100B20008DE00E945B0A8AE00E945B0A85EA93E0FE
:100B30000E94630A8DE00E945B0A8AE00E945B0AC1
:100B40008EE893E00E94630A8DE00E945B0A8AE0CF
:100B50000E945B0A87E793E00E94630A8DE00E948F
:100B60005B0A8AE00E945B0A80E693E00E94630AC7
:100B70008DE00E945B0A8AE00E945B0A8AE493E0AF
:100B80000E94630A8DE00E945B0A8AE00E945B0A71
:100B900084E393E00E94630A8DE00E945B0A8AE08E
:100BA0000E945B0A8DE00E945B0A8AE00E945B0A59
:100BB0008CE193E00E94630A0E94520AE82E0E9490
:100BC0005B0A84E38E1570F083E3E81608F06BC0CF
:100BD00081E3E81651F18E15B8F180E3E81609F0CB
:100BE000CEC010C086E3E81609F4C0C0E81608F4C9
:100BF000BAC087E3E81609F4BCC088E3E81609F038
:100C0000BEC0BAC00E94B903182F8DE00E945B0AD3
:100C10008AE00E945B0A113029F485E093E00E948B
:100C2000630AB8C087EE92E080C08DE00E945B0A44
:100C30008AE00E945B0A89ED92E00E94630A80E0EC
:100C400060E00E940904A4C08DE00E945B0A8AE073
:100C50000E945B0A8FEB92E00E94630A0E94520A94
:100C6000082F0E945B0A10E00F701070C80153E05B
:100C7000880F991F5A95E1F7000F111F080F0E9466
:100C8000520AF82E0E945B0A8DE00E945B0A8AE0FD
:100C90000E945B0A8FE0F8220F0D80E060E0402F99
:100CA0000E94510475C08DE00E945B0A8AE00E9498
:100CB0005B0A80EA92E00E94630A0E94520A082FAF
:100CC0000E945B0A10E00F7010700C9DE0010D9DFA
:100CD000D00D1C9DD00D11240E94520A082F0E9495
:100CE0005B0A0E94520AF82E0E945B0A10E00F7005
:100CF0001070C80133E0880F991F3A95E1F7000F93
:100D0000111F800F911FC80FD91F8FE0F822CF0D40
:100D1000D11D82E0C030D80758F08DE00E945B0AF8
:100D20008AE00E945B0A87E892E00E94630A3CC066
:100D30008DE00E945B0A8AE00E945B0A83E3E8166A
:100D400071F48DE00E945B0A8AE00E945B0A89E7E9
:100D500092E00E94630ACE010E94470419C0CE01AE
:100D60000E94C60415C00E94DE091EC00E94310AFE
:100D70001BC00E94AF0718C00E94B60815C08DE0C6
:100D80000E945B0A8AE00E945B0A88E692E004C047
:100D9000813051F48DE492E00E94630A8DE00E945C
:100DA0005B0A8AE00E945B0A8DE00E945B0A8AE08F
:100DB0000E945B0A81E492E00E94630A8DE00E9437
:100DC0005B0A8AE00E945B0A7BCE80910D0190E075
:100DD0008770907064E0880F991F6A95E1F7209101
:100DE0000E012F70282B2093000180910A0190E0C2
:100DF0008770907054E0880F991F5A95E1F7209101
:100E00000B012F70282B209301018091070190E0A6
:100E10008370907044E0880F991F4A95E1F7209104
:100E200008012F70282B2093020180911C018093D0
:100E300003018091120190E08370907034E0880F7C
:100E4000991F3A95E1F7209113012F70282B2093D9
:100E500004018091150190E08170907024E0880F6A
:100E6000991F2A95E1F7209116012F70282B2093C6
:100E7000050190911A019295907F80911B018F70CE
:100E8000982B9093060108958AE496E00E94630AE5
:100E9000809103018330B9F0843028F4813069F007
:100EA000823070F407C08530A1F0853078F086304C
:100EB000B1F412C083E496E014C08CE396E011C054
:100EC00084E396E00EC08AE296E00BC081E296E0F1
:100ED00008C08AE196E005C081E196E002C089E0A1
:100EE00096E00E94630A08950E947D0A813019F4F9
:100EF0008AE995E02AC080ED0E949D0A813019F4AC
:100F000080E895E022C083E00E94B80A813019F49D
:100F10008BE695E01AC0809103010E94B80A8130E7
:100F200091F0809104010E94B80A813061F08091B3
:100F300005010E94B80A813031F0809106010E94BB
:100F4000B80A813041F483E595E00E94630A0E946B
:100F5000EC0A81E008950E94EC0A80E008951F9356
:100F60008DE00E945B0A8AE00E945B0A8DEE94E0AD
:100F70000E94630A0E94520A182F0E945B0A812F66
:100F80008053843008F0B1C0109312010E94520ABD
:100F9000182F0E945B0A812F80538A3008F0A5C069
:100FA000109313018091100190E0837090709C0168
:100FB000A3E0220F331FAA95E1F7880F991F280F8E
:100FC000391F80910F018F70280F311D203231059C
:100FD0000CF08BC00E94520A182F0E945B0A1F322D
:100FE00029F01D3219F0103209F07FC0109314015E
:100FF0000E94520A182F0E945B0A812F8053823070
:1010000008F073C0109315010E94520A182F0E9415
:101010005B0A812F80538A3008F067C01093160155
:101020001F708091150190E0837090709C01E3E047
:10103000220F331FEA95E1F7880F991F280F391FF8
:10104000210F311D2D3031050CF04FC00E94520A86
:10105000182F0E945B0A1F3229F01D3219F010323E
:1010600009F043C01093170182E38093180180E3D5
:10107000809319010E94520A182F0E945B0A812F47
:1010800080538A3090F510931A010E94520A182F4B
:101090000E945B0A812F80538A3038F510931B0120
:1010A0008DE00E945B0A8AE00E945B0A84EC94E077
:1010B0000E94630A0E94520A182F0E945B0A812F25
:1010C0008053873090F41F7010931C010E94E50636
:1010D0000E947407882399F48DE00E945B0A8AE0DD
:1010E0000E945B0A89EA94E008C08DE00E945B0AD6
:1010F0008AE00E945B0A89E994E00E94630A1F91DA
:1011000008950E947D0A813019F485EF95E024C08E
:1011100080ED0E949D0A813019F48BED95E01CC092
:1011200080E00E94B80A813019F486EC95E014C082
:10113000809100010E94B80A813061F08091010124
:101140000E94B80A813031F0809102010E94B80AF1
:10115000813041F48EEA95E00E94630A0E94EC0A15
:1011600081E008950E94EC0A80E008951F938DE0CD
:101170000E945B0A8AE00E945B0A8FE295E00E946F
:10118000630A0E94520A182F0E945B0A812F805323
:10119000833008F066C0109307010E94520A182F8E
:1011A0000E945B0A812F80538A3008F05AC0109346
:1011B00008018AE30E945B0A8091070190E0837036
:1011C00090709C0113E0220F331F1A95E1F7880FEE
:1011D000991F280F391F809108018F70280F311D2A
:1011E00028313105F4F50E94520A182F0E945B0A3B
:1011F000812F80538630A8F510930A010E94520A6D
:10120000182F0E945B0A812F80538A3050F510936B
:101210000B018AE30E945B0A0E94520A182F0E9467
:101220005B0A812F80538630E0F410930D010E94F9
:10123000520A182F0E945B0A812F80538A3088F44B
:1012400010930E010E94E5060E948108882399F4FC
:101250008DE00E945B0A8AE00E945B0A84E195E0CF
:1012600008C08DE00E945B0A8AE00E945B0A84E06D
:1012700095E00E94630A1F9108950E947D0A8130C3
:1012800019F48BE197E00FC080ED0E949D0A813038
:1012900019F481E097E007C080E00E94B80A81302D
:1012A00021F48CEE96E00E94630A0E94EC0A0895F5
:1012B0001F93CF93DF930E947D0A813019F488ED4C
:1012C00096E02DC080ED0E949D0A813019F48EEBCE
:1012D00096E025C080E00E94B80A813019F489EABE
:1012E00096E01DC00E948D0A813019F48FE896E0C7
:1012F00016C081ED0E949D0A813019F485E796E0C1
:101300000EC0C0E0D1E010E0163019F40E94DB0AF4
:1013100002C00E94CA0A8E3729F480E696E00E9435
:10132000630A04C089931F5F173071F70E94EC0AAB
:10133000DF91CF911F9108950E94580910921D01CD
:1013400010921C0190910601892F8F708063809309
:101350001B0192959F70906390931A0180E3809394
:10136000190182E3809318013FE2309317018091C5
:101370000501282F2F7020632093160190E08071C3
:10138000907044E0959587954A95E1F78063809346
:1013900015013093140180910401282F2F702063D0
:1013A0002093130190E08073907024E095958795C9
:1013B0002A95E1F780638093120108950E949C09A9
:1013C0008DE00E945B0A8AE00E945B0A84E596E059
:1013D0000E94630A82E191E00E94700A0E94440721
:1013E00008950E94580910920F0180910001282F42
:1013F0002F70206320930E0190E08077907074E04E
:10140000959587957A95E1F7806380930D013AE38E
:1014100030930C0180910101282F2F7020632093BD
:101420000B0190E08077907064E0959587956A95C0
:10143000E1F7806380930A013093090180910201F2
:10144000282F2F7020632093080190E08073907004
:1014500054E0959587955A95E1F78063809307014D
:1014600008950E94F1098DE00E945B0A8AE00E94C3
:101470005B0A8AE596E00E94630A87E091E00E9499
:10148000700A0895E9ECF0E010821092C80086E03E
:101490008093CA0083E38093CC001092CD0088E94A
:1014A000808308958091C80087FFFCCF8091C80099
:1014B0008091CE000895982F8091C80085FFFCCFC1
:1014C0009093CE000895FC0107C08091C80085FF6D
:1014D000FCCF31969093CE0094919923B1F7089563
:1014E000FC0107C08091C80085FFFCCF3196909326
:1014F000CE0090819923B1F7089584EA8093BC00CF
:101500008091BC0087FFFCCF8091B90090E0887F7C
:10151000883009F091E0892F089584EA8093BC0017
:101520008091BC0087FFFCCF8091B90090E0887F5C
:10153000803109F091E0892F089580FD02C028E1F3
:1015400001C020E48093BB0084E88093BC008091BC
:10155000BC0087FFFCCF8091B90040E090E0887F1D
:10156000907030E08217930709F041E0842F0895CE
:101570008093BB0084E88093BC008091BC0087FF0F
:10158000FCCF8091B90090E0887F883209F091E02B
:10159000892F089584EC8093BC008091BC0087FF64
:1015A000FCCF8091B900887F803511F08EE70895D7
:1015B0008091BB00089584E88093BC008091BC00BA
:1015C00087FFFCCF8091B900887F883511F08EE7C6
:1015D00008958091BB00089584E98093BC0008952C
:0415E000F894FFCFAD
:00000001FF
