:100000000C9409010C9428010C9428010C942801EB
:100010000C9428010C9428010C9428010C942801BC
:100020000C9428010C9428010C9428010C942801AC
:100030000C949C410C9428010C9428010C942801E8
:100040000C9428010C9428010C94CD340C942801B4
:100050000C9428010C94D43D0C9428010C94280194
:100060000C9428010C9428010C9428010C9428016C
:100070000C9428010C9428010C9428010C9428015C
:100080000C9485300C9428010C9428010C942801C0
:100090000C942801FC3209332E3338335D337C3322
:1000A0009833C834B433B833DD33023427344C3496
:1000B0005634AF34C734BF34C3343032C734C73496
:1000C000C734C734C734C734C734C734C734C73458
:1000D000C734C7344132663279329E32A832CD32CB
:1000E000E932D136F2360E373437D637A138C73831
:1000F0000D3A253A773B8F3BA73BBE3BCB3BD83BEA
:10010000CD36CF366F70656E696E6720726F6F7413
:10011000206469726563746F7279206661696C65C9
:10012000640A004765742070617468206661696CB8
:1001300065640A00464154204572726F720A00439A
:1001400072656174696E672046696C65204F7065E1
:100150006E65640A0046696C65204372656174656A
:10016000640A0043616E6E6F74204F70656E2046A6
:10017000696C650A004F70656E696E67204E657721
:10018000206C6F670A0046696C6573797374656DDE
:10019000204F70656E65640A004F70656E696E670A
:1001A0002066696C6573797374656D204661696C4E
:1001B00065640A00506172746974696F6E204F70D3
:1001C000656E65640A0046697273742070617274AA
:1001D0006974696F6E204F70656E206661696C6529
:1001E000642C20747279696E6720736F6D65746812
:1001F000696E6720656C73650A005261772053440D
:1002000020496E6974207375636365656465640A6B
:10021000000011241FBECFEFD0E1DEBFCDBF11E043
:10022000A0E0B1E0E8E5F0E900E00BBF02C0079014
:100230000D92A433B107D9F718E0A4E3B1E001C0EF
:100240001D92A737B107E1F70E94093C0C942A4898
:100250000C940000FC01009711F0118210820895A7
:100260002F923F924F925F926F927F928F929F92C6
:10027000AF92BF92CF92DF92EF92FF920F931F93B4
:10028000DF93CF93CDB7DEB728970FB6F894DEBFD4
:100290000FBECDBFFC01009709F440C142305105AB
:1002A0006105710508F43AC180809180D4011896E7
:1002B0008C915A016B016284538444843584268472
:1002C000B785BF839089988771888B3009F093C078
:1002D0009A01A60160E070E080E090E002E00E94F8
:1002E0008743E32FF42FA52FB62F172F082FE92EC2
:1002F000F22EF60C31E0F21608F030E02E2F250D2C
:1003000041E02E1708F040E0320FE1E0321708F02C
:10031000E0E04E2B2F2F240D51E02F1708F050E076
:10032000420FE1E0421708F0E0E05E2B2A2F230D98
:1003300061E02A1708F060E0520FE1E0521708F080
:10034000E0E06E2B2B2F220D71E02B1708F070E0F0
:10035000620FE1E0621708F0E0E07E2B2F81210FB1
:1003600081E0211708F080E0720FE1E0721708F0D9
:10037000E0E08E2B2885200F91E0201708F090E018
:10038000820FE1E0821708F0E0E09E2B7E0CD401A2
:10039000ED91FC912F2D970D8E010D5F1F4FB4E055
:1003A000EB2EF12C0995882309F4B8C02B813C81F0
:1003B0004D815E81211531054105510509F4B2C019
:1003C000273FBFEF3B07BFEF4B07BFE05B0709F4D9
:1003D000A5C0DA01C901805F9F4FAF4FBF400797AB
:1003E000A105B10508F49AC0DA01C901885F9F4FE1
:1003F000AF4FBF408FC09A01A60160E070E080E07F
:1004000090E001E00E948743E32FF42FA52FB62F41
:10041000172F082FE92EF22EF60C31E0F21608F015
:1004200030E02E2F250D41E02E1708F040E0320F6E
:10043000E1E0321708F0E0E04E2B2F2F240D51E0C1
:100440002F1708F050E0420FE1E0421708F0E0E01B
:100450005E2B2A2F230D61E02A1708F060E0520F6F
:10046000E1E0521708F0E0E06E2B2B2F220D71E037
:100470002B1708F070E0620FE1E0621708F0E0E08F
:100480007E2B2F81210F81E0211708F080E0720F71
:10049000E1E0721708F0E0E08E2B2885200F91E054
:1004A000201708F090E0820FE1E0821708F0E0E00A
:1004B0009E2B7E0CD401ED91FC912F2D970D8E017A
:1004C0000F5F1F4FA2E0EA2EF12C0995882331F12E
:1004D00089819A819C0140E050E021153105410558
:1004E000510501F1273FBFEF3B07B0E04B07B0E0FC
:1004F0005B07A1F0DA01C901805F9F4FA040B040C7
:100500000797A105B10550F0DA01C901885F9F4F37
:10051000A040B0400897A105B10520F420E030E0EC
:1005200040E050E0B901CA0128960FB6F894DEBF4A
:100530000FBECDBFCF91DF911F910F91FF90EF9034
:10054000DF90CF90BF90AF909F908F907F906F90F3
:100550005F904F903F902F9008952F923F924F922F
:100560005F926F927F928F929F92AF92BF92CF9243
:10057000DF92EF92FF920F931F93DF93CF93CDB74C
:10058000DEB764970FB6F894DEBF0FBECDBF2C0167
:100590003A014B01009709F4A9C1423051056105A8
:1005A000710508F4A3C1D2011A96BC91BC87F2016F
:1005B000F385FD87D2011C96BC91BE87F201F585BB
:1005C000FF87D2011E96BC91B88BF201F785F98B9B
:1005D000D2015096BC91BA8BF201F189FB8BD2010A
:1005E000ED91FC9180858B3009F0D6C064015301F8
:1005F0009301A60160E070E080E090E002E00E94DC
:100600008743E32FF42FB52F162F072FF82EA92F8E
:100610008C85820F8C8B31E0821708F030E02D85BD
:100620002E0F41E02E1708F040E0320F3F8331E0FB
:100630009F81921708F030E0432B2E852F0F51E059
:100640002F1708F050E0420F488731E0421708F0BA
:1006500030E0532B2F852B0F61E02B1708F060E063
:10066000520F598731E0521708F030E0632B288988
:10067000210F71E0211708F070E0620F6A8731E006
:10068000621708F030E0732B2989200F81E02017D2
:1006900008F080E0720F7B8731E0721708F030E0DD
:1006A000832B2A892F0D31E02F1508F030E0282EFA
:1006B000220E91E0221608F090E0332E392ABB89F1
:1006C000AB0F3A0ED201ED91FC910190F081E02D3B
:1006D0002C893F81488559856A857B85C1018E01BA
:1006E0000D5F1F4FB4E0EB2EF12C0995882309F420
:1006F000FDC0AB80BC80CD80DE80A114B104C104FC
:10070000D10409F4F5C0D601C501805F9F4FAF4FFA
:10071000BF400897A105B10508F4E8C0D601C5019E
:10072000885F9F4FAF4FBF400897A105B10518F4F0
:10073000AA24BB246501F20186A597A5A0A9B1A9A9
:100740000097A105B10539F4D2019E966D927D9274
:100750008D929C92D1971B821C821D821E82D20197
:10076000ED91FC910480F581E02D2C893F81488535
:1007700059856A857B85C1018E010D5F1F4FA4E0FD
:10078000EA2EF12C099535014601A114B104C104EA
:10079000D10409F02BCFACC0640153019301A60131
:1007A00060E070E080E090E001E00E948743E32F8A
:1007B000F42FB52F162F072FF82EA92F2C84220ED9
:1007C00031E0221608F030E02D852E0F41E02E1783
:1007D00008F040E0332E320E31E0321608F030E0FF
:1007E000432B2E852F0F51E02F1708F050E0642E79
:1007F000620E31E0621608F030E0532B2F852B0F8C
:1008000061E02B1708F060E0752E720E31E0721671
:1008100008F030E0632B2889210F71E0211708F0E0
:1008200070E0862E820E31E0821608F030E0732BE5
:100830002989200F81E0201708F080E0972E920E82
:1008400031E0921608F030E0832B2A892F0D31E039
:100850002F1508F030E0A82EA20E91E0A21608F0A5
:1008600090E0B32EB92ABB89AB0FBA0ED201ED913D
:10087000FC910190F081E02D9101A301B401C5012B
:100880008E010F5F1F4FB2E0EB2EF12C09958823EC
:1008900069F1C980DA80C114D10451F1C6014096D2
:1008A000089720F1B8EFCB16BFEFDB0610F0CC2491
:1008B000DD241A821982D201ED91FC910480F58128
:1008C000E02D9101A301B401C5018E010F5F1F4FFF
:1008D000A2E0EA2EF12C09953601882499246114AE
:1008E00071048104910409F057CF02C080E001C077
:1008F00081E064960FB6F894DEBF0FBECDBFCF91F6
:10090000DF911F910F91FF90EF90DF90CF90BF90FC
:10091000AF909F908F907F906F905F904F903F909F
:100920002F9008952F923F924F925F926F927F92F5
:100930008F929F92AF92BF92CF92DF92EF92FF92EF
:100940000F931F93DF93CF93CDB7DEB7AD970FB65D
:10095000F894DEBF0FBECDBF998F888F4A8F5B8F13
:100960006C8F7D8FB901009709F41BC3DC01ED91F9
:10097000FC911197208131813F8B2E8B44815581D1
:100980005D8B4C8B1A965C911A975CA31B968C918D
:100990001B978DA31C969C911C979EA31D96AC91B2
:1009A000AFA3A88DB98D1E96BC91B8A7A88DB98D9F
:1009B0001F96BC91B9A7A88DB98D5096BC91BAA7C6
:1009C000A88DB98D5196BC91BBA7A88DB98D9E9667
:1009D0002D903D904D905C90D1971B8680858B30FB
:1009E00011F4B1E0BB87E88DF98D82899389A489E0
:1009F000B589FB85FF2351F09C01AD0182E056953E
:100A00004795379527958A95D1F706C09C01AD018A
:100A100056954795379527952C873D874E875F8755
:100A2000A88DB98D9E961D921D921D921C92D197F4
:100A3000C801DB01888B998BAA8BBB8B2C853D85EC
:100A40004E855F852F83388749875A8766247724A8
:100A500043019DC132E0231631044104510448F0A2
:100A60008C859D85AE85BF85281639064A065B06AE
:100A700028F0A2E02A2E312C412C512C6201510188
:100A80009B85992309F47FC09101A60160E070E085
:100A900080E090E002E00E948743E32FF42FB52F1F
:100AA000162F072FF82EA92F3CA1320F3CA731E0BB
:100AB0004CA5421708F030E02DA12E0F41E02E1773
:100AC00008F040E0320F3E8F31E05E8D521708F0A3
:100AD00030E0432B2EA12F0F51E02F1708F050E0EC
:100AE000420F4F8F31E0421708F030E0532B2FA117
:100AF0002B0F61E02B1708F060E0520F58A331E094
:100B0000521708F030E0632B28A5210F71E0211760
:100B100008F070E0A62EA20E31E0A21608F030E038
:100B2000732B29A5200F81E0201708F080E0B72E55
:100B3000B20E31E0B21608F030E0832B2AA52F0D5B
:100B400031E02F1508F030E0C82EC20E91E0C21639
:100B500008F090E0D32ED92A8BA5A80FDA0E2CA589
:100B60003E8D4F8D58A1B501C6018E010D5F1F4FFF
:100B7000F4E0EF2EF12CAE89BF89FD0109958823A1
:100B800009F085C00EC29101A60160E070E080E02E
:100B900090E001E00E948743E32FF42FB52F162F3A
:100BA000072FF82EA92F3CA1320F3DA731E04DA50C
:100BB000421708F030E02DA12E0F41E02E1708F06B
:100BC00040E0320F39A331E059A1521708F030E06C
:100BD000432B2EA12F0F51E02F1708F050E0420FAA
:100BE0004AA331E0421708F030E0532B2FA12B0F1E
:100BF00061E02B1708F060E0520F5BA331E0521761
:100C000008F030E0632B28A5210F71E0211708F0D0
:100C100070E0A62EA20E31E0A21608F030E0732B91
:100C200029A5200F81E0201708F080E0B72EB20E32
:100C300031E0B21608F030E0832B2AA52F0D31E009
:100C40002F1508F030E0C82EC20E91E0C21608F051
:100C500090E0D32ED92A8BA5A80FDA0E2DA539A1A5
:100C60004AA15BA1B501C6018E010F5F1F4FE2E0F3
:100C7000EE2EF12CAE89BF89FD010995882309F478
:100C800090C189819A81892B09F071C031C08B8113
:100C90009C81AD81BE810097A105B10509F067C0B7
:100CA000288939894A895B89211531054105510512
:100CB00041F1611471048104910449F42FEF3FEF75
:100CC0004FEF5FE02B833C834D835E8304C06B82D8
:100CD0007C828D829E822CA53E8D4F8D58A1B501C0
:100CE000C6018E010D5F1F4FB4E0EB2EF12C2AC020
:100CF000288939894A895B892115310541055105C2
:100D000049F4A88DB98D9E962D923D924D925C929C
:100D1000D19750C0611471048104910429F4EFEF5C
:100D2000FFEFFA83E98302C07A8269822DA539A197
:100D30004AA15BA1B501C6018E010F5F1F4FA2E062
:100D4000EA2EF12CAC89BD89FD010995882309F4AF
:100D500022C1288939894A895B8921503040404025
:100D60005040288B398B4A8B5B8B420131018F813C
:100D70009885A985BA850197A109B1098F839887BC
:100D8000A987BA870894211C311C411C511C2F8152
:100D9000388549855A85211531054105510509F0E8
:100DA00059CE88899989AA89BB890097A105B1057F
:100DB00009F0F1C02A8D3B8D4C8D5D8D22303105BF
:100DC0004105510508F4F0C059016A013B85332300
:100DD00009F470C06B827C828D829E829501A6018F
:100DE00060E070E080E090E002E00E948743E32F43
:100DF000F42FA52FB62F172F082FE92EFCA0F20EE7
:100E000031E0F21608F030E02DA12E0F41E02E1750
:100E100008F040E0320FE1E0321708F0E0E04E2B3E
:100E20002EA12F0F51E02F1708F050E0420FE1E004
:100E3000421708F0E0E05E2B2FA12A0F61E02A178D
:100E400008F060E0520FE1E0521708F0E0E06E2B8E
:100E500028A52B0F71E02B1708F070E0620FE1E07E
:100E6000621708F0E0E07E2B29A5210F81E0211711
:100E700008F080E0720FE1E0721708F0E0E08E2BDE
:100E80002AA5200F91E0201708F090E0820FE1E002
:100E9000821708F0E0E09E2BABA5AE0D2F2D9A0F28
:100EA0008E010D5F1F4FF4E0EF2EF12CEC89FD89D0
:100EB00009956FC0C30169829A839501A60160E01C
:100EC00070E080E090E001E00E948743E32FF42F80
:100ED000A52FB62F172F082FE92EFCA0F20E31E018
:100EE000F21608F030E02DA12E0F41E02E1708F089
:100EF00040E0320FE1E0321708F0E0E04E2B2EA187
:100F00002F0F51E02F1708F050E0420FE1E0421799
:100F100008F0E0E05E2B2FA12A0F61E02A1708F00D
:100F200060E0520FE1E0521708F0E0E06E2B28A5D8
:100F30002B0F71E02B1708F070E0620FE1E06217F1
:100F400008F0E0E07E2B29A5210F81E0211708F0B1
:100F500080E0720FE1E0721708F0E0E08E2B2AA526
:100F6000200F91E0201708F090E0820FE1E0821757
:100F700008F0E0E09E2BFBA5FE0D2F2D9F0F8E01AC
:100F80000F5F1F4FE2E0EE2EF12CAC89BD89FD0111
:100F90000995882349F4888D998DB401A3010E9495
:100FA000AD02662477244301B301C401AD960FB6A8
:100FB000F894DEBF0FBECDBFCF91DF911F910F918F
:100FC000FF90EF90DF90CF90BF90AF909F908F9069
:100FD0007F906F905F904F903F902F90089580E1A9
:100FE00090E00895FC01009711F01182108208959D
:100FF0002F923F924F925F926F927F928F929F9229
:10100000AF92BF92CF92DF92EF92FF920F931F9316
:10101000DF93CF93CDB7DEB768970FB6F894DEBFF6
:101020000FBECDBF988F8F8B7E876D87588B4F8774
:10103000009709F41EC3672B09F41BC34115510522
:1010400009F417C3DC01D396AC90D397D496BC9027
:10105000D497D596CC90D597D696DC90D697D79640
:10106000EC90D797D896FC90D897D9960C91D997B1
:10107000DA961C91DA9797962D903D904D905C9062
:101080009A979A0140E050E060E070E080E090E0E4
:10109000B22FBA0DBA8BF1E0B21708F0F0E0E32FEF
:1010A000EB0D99249394E31708F09924FE0FF98B24
:1010B000F1E0A989AE1708F0F0E09F2AE42FEC0DCB
:1010C000B1E0E41708F0B0E0692C6E0EF1E06E16A6
:1010D00008F0F0E0BF2BE52FED0DA1E0E51708F0DB
:1010E000A0E07B2E7E0EF1E07E1608F0F0E0AF2B44
:1010F000E62FEE0DB1E0E61708F0B0E08A2E8E0E76
:10110000F1E08E1608F0F0E0BF2BE72FEF0DA1E025
:10111000E71708F0A0E09B2E9E0EF1E09E1608F067
:10112000F0E0AF2BE82FE00FB1E0E81708F0B0E0F7
:10113000AE0FF1E0AE1708F0F0E0EB2FEF2B892FA8
:10114000810FE80FA201910160E070E080E090E083
:101150009E17F0F0E91721F58A17D0F0A81701F5CE
:101160007915B0F09716E1F4681590F08616C1F481
:10117000571570F07516A1F4461550F0641681F4F9
:10118000B9893B1728F0B31759F4EA892E1640F4B1
:1011900091012A193B09388B2F87232B09F46CC244
:1011A000AF89B88DED91FC911197208D318D3C87E1
:1011B0002B87DB968D919D910D90BC91A02D8F83F7
:1011C0009887A987BA870097A105B10509F059C08A
:1011D000AF89B88D93962D913D914D915C919697E5
:1011E0002F83388749875A872115310541055105D5
:1011F00059F48A2D8B298C298D298E298F29802BB2
:10120000812B09F439C235C28A2D8B298C298D296D
:101210008E298F29802B812BA1F135014601EB8589
:10122000FC851F014424552422273327A9012219B4
:101230003309440955092B8B3C8B4D8B5E8B1CC0AD
:10124000AF89B88D8D919C914F81588569857A853C
:101250000E9430016F83788789879A8761157105AD
:101260008105910509F405C22B893C894D895E8968
:10127000620E731E841E951E62147304840495040A
:10128000F8F64B855C85415050405C874B874A217E
:101290005B215C834B838B859C8501969C878B8728
:1012A000AF85B889BE83AD83EF89F88D0190F08159
:1012B000E02DFA83E983309709F48EC02F813885B9
:1012C00049855A85223031054105510508F484C00D
:1012D000225030404040504059016A012E5F3F4F3C
:1012E0004F4F5F4F2F83388749875A87208C318C27
:1012F0009501A60160E070E080E090E05101CC240F
:10130000DD24EE24FF2400E010E00E940D42E9817C
:10131000FA81A28DF38CB48D058DE68CD78CC0A09C
:1013200011A1A20FF1E0A21708F0F0E0232F2F0D7A
:10133000E1E0231708F0E0E0FF2EF20E31E0F216B4
:1013400008F030E0E32B242F2B0FF1E0241708F0F6
:10135000F0E0BE2FB20F31E0B21708F030E0F32B0F
:10136000252F200F41E0251708F040E0F20F31E073
:10137000F21708F030E0432B262F2E0D51E02617F0
:1013800008F050E0E42FE20F31E0E21708F030E01F
:10139000532B272F2D0D41E0271708F040E0520F67
:1013A00031E0521708F030E0432B282F2C0D31E0AC
:1013B000281708F030E0420F81E0421708F080E083
:1013C000732E782A190F2A2F9F2D6B2F7F2FAE2F68
:1013D000B52F342E710E08C020E090E060E070E080
:1013E000A0E0B0E0332477248B849C844B815C8123
:1013F000841A950AED81FE81E815F90508F44F017C
:10140000E981FA81408051804B815C815A01CC2472
:10141000DD24EE24FF248701622E640E31E0621683
:1014200008F030E0892F8B0D41E0891708F040E08B
:10143000380F91E0381708F090E0492B862F8C0D7B
:1014400051E0861708F050E0480F91E0481708F087
:1014500090E0592B872F8D0D61E0871708F060E031
:10146000580F91E0581708F090E0692B8A2F8E0DE5
:1014700071E08A1708F070E0680F91E0681708F0D3
:1014800090E0792B9B2F9F0D81E09B1708F080E067
:10149000790FA1E0791708F0A0E08A2BA32DA00F07
:1014A00091E0A31508F090E08A0FB1E08A1708F0E8
:1014B000B0E09B2B710ED201ED91FC91262D970D82
:1014C0000D851E8574010995882309F4AFC02D810F
:1014D0003E81281939093E832D83940140E050E074
:1014E00060E070E080E090E0AF89B88DD3961C9109
:1014F000D397D496DC90D497D596BC91EF89F88D8C
:1015000006A9E7A8A0AC71ACF2AC180DF1E0181573
:1015100008F0F0E0ED2DE30FA1E0E31708F0A0E004
:10152000BF2EBE0EF1E0BE1608F0F0E0AF2BE42FA8
:10153000EB0FB1E0E41708F0B0E0CA2ECE0EF1E0F8
:10154000CE1608F0F0E0BF2BE52FE00FA1E0E51785
:1015500008F0A0E0DB2EDE0EF1E0DE1608F0F0E091
:10156000AF2BE62FEE0DB1E0E61708F0B0E0EA2E63
:10157000EE0EF1E0EE1608F0F0E0BF2BE72FEA0DDB
:10158000A1E0E71708F0A0E00B2F0E0FF1E00E1717
:1015900008F0F0E0AF2BE82FE70DF1E0E81708F0D6
:1015A000F0E0AA2EAE0EA1E0AE1608F0A0E0FA2BF5
:1015B000F90EFF0DAF89B88DD3961C93D397D496AF
:1015C000BC92D497D596CC92D597D696DC92D697E6
:1015D000D796EC92D797D8960C93D897D996AC9289
:1015E000D997DA96FC93DA978B819C81880D991DA7
:1015F000EB85FC858E179F0710F18D919C914F8193
:10160000588569857A850E9430016F83788789873C
:101610009A87611571058105910579F4AF89B88DB7
:10162000DB961D921D921D921C92DE974F85588964
:10163000ED81FE814E1B5F0B21C01C821B822F811E
:10164000388549855A85AF89B88DDB962D933D93B2
:101650004D935C93DE97ED81FE81EF2B39F02D8564
:101660003E85280D391D3E872D871ECE4F85588912
:1016700005C04FEF5FEF02C040E050E0CA0168963E
:101680000FB6F894DEBF0FBECDBFCF91DF911F9193
:101690000F91FF90EF90DF90CF90BF90AF909F9011
:1016A0008F907F906F905F904F903F902F90089514
:1016B000FC01009711F0118210820895FC0100973F
:1016C00011F480E0089583A194A1A5A1B6A183ABF4
:1016D00094ABA5ABB6AB10AE17AA81E008952F92DC
:1016E0003F924F925F926F927F928F929F92AF92B2
:1016F000BF92CF92DF92EF92FF920F931F93DF93EF
:10170000CF93CDB7DEB72C970FB6F894DEBF0FBEE0
:10171000CDBF3C016B01009709F49CC061157105B8
:1017200009F498C0DB019996BC9099979A96AC9071
:101730009A979B969C909B979C968C909C979D9635
:101740005C909D979E964C909E979F963C909F97FD
:10175000D0962C908B2D8A2989298829852984293E
:101760008329822909F476C0D301ED91FC9101907F
:10177000F081E02D2B2D3A2D492D582D652D742DFE
:10178000832D922D8E010F5F1F4FACE0EA2EF12CBE
:101790000995882309F45EC0B5EEB983D301ED91B4
:1017A000FC910480F581E02D2B2D3A2D492D582DEB
:1017B000652D742D832D922D8E010F5F1F4F09957E
:1017C000882309F447C08C858F3079F57B2D705EB6
:1017D00081E07B1508F080E0682F6A0D81E06A15D2
:1017E00008F080E0582F590D81E0591508F080E08D
:1017F000482F480D81E0481508F080E0382F350D5E
:1018000081E0351508F080E0282F240D81E02415B3
:1018100008F080E0830D91E0831508F090E05B0113
:101820004A012901382E290E9FCFF60141A152A16C
:1018300063A174A1411551056105710539F0C3011A
:101840000E94AD0220E030E0882311F021E030E07A
:10185000822F01C080E02C960FB6F894DEBF0FBE39
:10186000CDBFCF91DF911F910F91FF90EF90DF904F
:10187000CF90BF90AF909F908F907F906F905F9030
:101880004F903F902F9008952F923F924F925F92EA
:101890006F927F928F929F92AF92BF92CF92DF9280
:1018A000EF92FF920F931F93DC01009749F420E021
:1018B00030E040E050E060E070E080E090E030C078
:1018C000ED91FC911197808552962D913D914D910E
:1018D0005C9155975896ED91FC9159978B3041F456
:1018E00012E056954795379527951A95D1F704C07C
:1018F00056954795379527952250304040405040A7
:1019000059016A01A60160E070E080E090E05F01AB
:10191000CC24DD24EE24FF2400E010E00E940D42E0
:101920001F910F91FF90EF90DF90CF90BF90AF90FD
:101930009F908F907F906F905F904F903F902F90EF
:1019400008952F923F924F925F926F927F928F9263
:101950009F92AF92BF92CF92DF92EF92FF920F933E
:101960001F93DF93CF93CDB7DEB7E0970FB6F89410
:10197000DEBF0FBECDBF3C01009709F4F8C019824D
:101980001A821B821C8280E290E09E838D83D301A9
:101990001A96BC91B9A7F301F385FAA7D3011C9657
:1019A000BC91BBA7F301F585FCA7D3011E96BC91A2
:1019B000BDA7F301F785FEA7D3015096BC91BFA741
:1019C000F301F189F8ABD30152962D903D904D90E3
:1019D0005C905597ADC0BEEF2B16BFEF3B06B0E055
:1019E0004B06B0E05B0628F0EEEFFFEFF8A7EFA3A1
:1019F00002C038A62FA2D301ED91FC91A281B38140
:101A00008085863019F0EEEFFDE002C0E8EDFDE0E4
:101A100029A53AA54BA55CA56DA57EA58FA598A97E
:101A20008E01095F1F4FEE24FF246894E5F8CFA0D4
:101A3000D8A45F014E010894811C911CFD010995F9
:101A4000882309F494C0CFA0D8A45601CC24DD2467
:101A5000EE24FF248701F9A5FA0D91E0B9A5FB1743
:101A600008F090E08AA58B0D21E0EAA58E1708F01A
:101A700020E0392F380F91E0381708F090E0292B3B
:101A80008BA58C0D51E09BA5891708F050E0422FE3
:101A9000480F91E0481708F090E0592B8CA58D0D68
:101AA00021E0ACA58A1708F020E0580F91E0581704
:101AB00008F090E0292B8DA58E0D71E0BDA58B1748
:101AC00008F070E0622F680F91E0681708F090E06E
:101AD000792B8EA58F0D21E0EEA58E1708F020E062
:101AE000780F91E0781708F090E0292B9FA5900FD0
:101AF000E1E08FA5981708F0E0E0822F890F21E040
:101B0000891708F020E0E22B98A9910FF9A73AA7CE
:101B10004BA75CA76DA77EA78FA79E0F98ABEFA1E1
:101B2000F8A5CF01A0E0B0E0281A390A4A0A5B0AFA
:101B3000211431044104510409F04DCFD3015896CA
:101B40004D915C91599729803A804B805C809A0135
:101B500040E050E060E070E080E090E05101620120
:101B6000EE24FF2400E010E00E940D4208C020E0B7
:101B700030E040E050E060E070E080E090E0E0962F
:101B80000FB6F894DEBF0FBECDBFCF91DF911F918E
:101B90000F91FF90EF90DF90CF90BF90AF909F900C
:101BA0008F907F906F905F904F903F902F9008950F
:101BB000EF92FF92CF93DF93EC01F70144815581BF
:101BC00020E030E012C088819981892B59F480810E
:101BD0009181A281B3810196A11DB11D8083918362
:101BE000A283B3832E5F3F4F22962417350758F305
:101BF00081E0DF91CF91FF90EF900895EF92FF92F7
:101C0000CF93DF93EC01F7014481558120E030E070
:101C100016C088819981AA81BB810097A105B10571
:101C200059F480819181A281B3810196A11DB11DDA
:101C300080839183A283B3832C5F3F4F2496241724
:101C4000350738F381E0DF91CF91FF90EF90089551
:101C50002F923F924F925F926F927F928F929F92BC
:101C6000AF92BF92CF92DF92EF92FF920F931F93AA
:101C7000DF93CF93CDB7DEB762970FB6F894DEBF90
:101C80000FBECDBF9A8B898B42305105610571051E
:101C900010F480E0A2C089899A89892B49F420E058
:101CA00030E040E050E060E070E010E090E07BC0A9
:101CB00042505040604070405A016B01E989FA89F6
:101CC000208C318C9A01A60160E070E080E090E009
:101CD0005101CC24DD24EE24FF2400E010E00E941A
:101CE0000D42C92EE989FA89B28DB38CA48D158D68
:101CF000F68CE78CD0A001A1B20FE1E0B21708F09A
:101D0000E0E0232F2B0DF1E0231708F0F0E03E2F49
:101D1000320FE1E0321708F0E0E0FE2B242F2A0F0B
:101D2000A1E0241708F0A0E04F2F420FE1E0421796
:101D300008F0E0E0AE2B252F210FF1E0251708F089
:101D4000F0E05A2F520FE1E0521708F0E0E0FE2BCE
:101D5000262F2F0DA1E0261708F0A0E06F2F620FAD
:101D6000E1E0621708F0E0E0AE2B272F2E0DF1E046
:101D7000271708F0F0E07A2F720FE1E0721708F0F1
:101D8000E0E0FE2B282F2D0DE1E0281708F0E0E021
:101D90008F2F820F91E0821708F090E09E2B0C0DA0
:101DA0002B2F182F900FDE01119680E1FD0111926B
:101DB0008A95E9F7E989FA89C080D180E08CF18CB5
:101DC000F60186809780812F8D01EFEECE2EE7E021
:101DD000DE2EAA24BB24F401099562960FB6F8946E
:101DE000DEBF0FBECDBFCF91DF911F910F91FF904E
:101DF000EF90DF90CF90BF90AF909F908F907F90AB
:101E00006F905F904F903F902F9008952F923F9248
:101E10004F925F926F927F928F929F92AF92BF92FA
:101E2000CF92DF92EF92FF920F931F93DF93CF93A6
:101E3000CDB7DEB7C254D0400FB6F894DEBF0FBEA8
:101E4000CDBF9AAF89AFDB01009709F463C261157A
:101E5000710509F45FC2FC010190F081E02DF8AF3B
:101E6000EFAB208D318D3EAB2DABFC0143A954A9C6
:101E700065A976A949AB5AAB6BAB7CAB27A930AD52
:101E80004DA95EA92417350708F0F2C1AE014F5FD6
:101E90005F4F86E0FA0111928A95E9F781E3FD012F
:101EA00011928A95E9F749A95AA96BA97CA941150C
:101EB00051056105710509F0E6C1EFA9F8AD808112
:101EC0009181FC0180858B3059F4EFA9F8AD42A5D2
:101ED00053A564A575A549AB5AAB6BAB7CABD3C11D
:101EE000EFA9F8AD028CF38DE02DFEABEDABEFA9C1
:101EF000F8AD82A193A14DA95EA9481B590B5EAB19
:101F00004DABC1C14FA558A99A0140E050E060E037
:101F100070E080E090E02FA338A749A75AA76BA7ED
:101F20007CA78DA79EA769A97AA98BA99CA96115F1
:101F300071058105910509F072C0AFA9B8AD9296FF
:101F40002C91929793968C91939794965C919497F9
:101F500095966C91959796967C91969797961C91ED
:101F600097979896AC91EFA9F8ADB1A5FFA12F0F67
:101F700091E02F1708F090E048A5840F41E0E8A514
:101F80008E1708F040E0392F380F91E0381708F02D
:101F900090E0492B89A5850F51E0F9A58F1708F02E
:101FA00050E0480F91E0481708F090E0592B8AA5BF
:101FB000860F61E09AA5891708F060E0580F91E05C
:101FC000581708F090E0692B8BA5870F71E0EBA5FF
:101FD0008E1708F070E0680F91E0681708F090E045
:101FE000792B8CA5810FF1E09CA5891708F0F0E012
:101FF000780F91E0781708F090E0F92BEDA5EA0F43
:10200000A1E08DA5E81708F0A0E08F2F8E0F91E0DA
:102010008E1708F090E09A2BAEA5BA0FE0C0EFA99A
:10202000F8AD309709F481C029A93AA94BA95CA958
:10203000223031054105510508F477C0208C318CE0
:102040002BAD3CAD4DAD5EAD60E070E080E090E06A
:102050005101CC24DD24EE24FF2400E010E00E9496
:102060000D42EFA9F8ADA28DF38CB48D158DD68CF1
:10207000C78CB0A001A1A20FF1E0A21708F0F0E018
:10208000232F2F0DE1E0231708F0E0E0EF2EE20E02
:1020900031E0E21608F030E0E32B242F2B0FF1E0C3
:1020A000241708F0F0E0FE2EF20E31E0F21608F0F0
:1020B00030E0F32B252F210F41E0251708F040E0F9
:1020C000F20F31E0F21708F030E0432B262F2D0DF0
:1020D00051E0261708F050E0E42FE20F31E0E2175C
:1020E00008F030E0532B272F2C0D41E0271708F084
:1020F00040E0520F31E0521708F030E0432B282F18
:102100002B0D31E0281708F030E0420F81E0421734
:1021100008F080E0B32FB82B090F2A2F9E2D6F2DCA
:102120007F2FA52F142FB00F08C020E090E060E0B3
:1021300070E0E0E0A0E010E0B0E00FA1020F31E0BD
:10214000021708F030E088A5890F41E0891708F0F0
:1021500040E0380F91E0381708F090E0492B89A54E
:10216000860F51E0861708F050E0480F91E04817BD
:1021700008F090E0592B8AA5870F61E0871708F0D7
:1021800060E0580F91E0581708F090E0692B8BA59C
:102190008E0F71E08E1708F070E0680F91E06817FD
:1021A00008F090E0792B8CA58A0FF1E08A1708F0EF
:1021B000F0E0780F91E0781708F090E0F92BEDA5AA
:1021C000E10FA1E0E11708F0A0E08F2F8E0F91E062
:1021D0008E1708F090E09A2BFEA5BF0F202F9B0FC3
:1021E0001C821B82AFA9B8ADED91FC91CDA8DEA8F1
:1021F000AFA5B8A9CA1ADB0A0280F381E02D8E01CF
:10220000095F1F4FB0E2EB2EF12CA5EAAA2EA1E147
:10221000BA2E4E010894811C911C0995882309F45B
:1022200079C08B819C81EFA5F8A9E80FF91FF8AB65
:10223000EFA72DA93EA9E217F30708F453C08FA911
:1022400098AD49A95AA96BA97CA90E94300169AB34
:102250007AAB8BAB9CAB20E030E06115710581055A
:10226000910599F48E81882309F040C0E9ADFAAD5B
:1022700083A194A1A5A1B6A183AB94ABA5ABB6AB4A
:1022800010AE17AA47C0BA83A98338AB2FA729A9D4
:102290003AA94BA95CA9225030404040504029AB9C
:1022A0003AAB4BAB5CABBA01A90180E090E0A0E097
:1022B000B0E04BAF5CAF6DAF7EAF8FAF21969FAFFD
:1022C00021972296AFAF22972396BFAF239789A974
:1022D0009AA9ABA9BCA90296A11DB11D89AB9AAB65
:1022E000ABABBCAB8E81882309F40CCE29A93AA9EB
:1022F0004BA95CA9A9ADBAADD3962D933D934D934F
:102300005C93D697EFA5F8A9D896FC93EE93D79750
:102310008E8101C080E0CE5BDF4F0FB6F894DEBF48
:102320000FBECDBFCF91DF911F910F91FF90EF9026
:10233000DF90CF90BF90AF909F908F907F906F90E5
:102340005F904F903F902F900895AF92BF92CF92A1
:10235000DF92EF92FF920F931F93CF93DF936C0165
:10236000B62EA72EB701D701CD91DC911197129609
:102370008D919C911397809613969C938E931297B0
:10238000F6019081953E11F0992321F4DB0114961A
:102390001C92D9C0F60183858F3009F040C0D70167
:1023A00014969C91992319F08585981791F081E3F3
:1023B000FE0111928A95E9F7D6011D968C91FB01D9
:1023C000848309A71AA72BA73CA74DA75EA7BFA682
:1023D000A8AAD6018C9190E08F7390702DE030E028
:1023E000829FA001839F500D929F500D11244D504C
:1023F0005040A0E0B1E0C40FD51F0DC08D91F60193
:10240000E80FF11D808189934F5F5F4FE1E0AD30B0
:10241000BE0709F498C04F31510580F394C08881FC
:10242000882399F0F701B481F601A1E0892F869500
:10243000979599279795982B8181980FAF5F319643
:10244000AB30A1F7B91709F45AC081E3DE011D9240
:102450008A95E9F709A71AA72BA73CA74DA75EA75E
:10246000BFA6A8AAA601DE01860120E0F80190819E
:10247000903299F09C93F601848583FF08C0F8019F
:102480008081813420F08B3510F4905E9C932F5F17
:102490000F5F1F4F1196283049F78881853011F45E
:1024A00085EE8883D60118968C91803221F1FE0149
:1024B000E20FF11D8EE28083322F3F5F2C5FFA0125
:1024C00090859032B9F0FE01E30FF11D9083D601A3
:1024D0001C968C9184FF09C0DA0118968C91813486
:1024E00020F08B3510F4905E90833F5F4F5F5F4F1D
:1024F000321729F7232FFE01E20FF11D1082F6019A
:10250000838588A3228D338D40E050E084899589AE
:10251000A0E0B0E0DC0199278827822B932BA42B25
:10252000B52B89A39AA3ABA3BCA3848D958DA68D4F
:10253000B78D8DA39EA3AFA3B8A781E0DB0115964D
:102540008C9380E001C081E0DF91CF911F910F91CA
:10255000FF90EF90DF90CF90BF90AF9008952F92B3
:102560003F924F925F926F927F928F929F92AF9223
:10257000BF92CF92DF92EF92FF920F931F93DF9360
:10258000CF93CDB7DEB7CD54D0400FB6F894DEBFB1
:102590000FBECDBF2C01009709F4D9C3DC011496FE
:1025A0008D919C911597892B09F4D1C316968D9125
:1025B0009C911797892B09F4CAC3E6C3E4E3F1E0C1
:1025C00082E3DF011D928A95E9F75092350140922E
:1025D0003401F201A184B284C384D4849501A6019C
:1025E00060E070E080E090E009E00E9487432EAF59
:1025F0003FAF21964FAF219722965FAF2297239648
:102600006FAF239724967FAF249725968FAF25979A
:1026100026969FAF2697255F31E0FEAD2F1708F075
:1026200030E0EFAC3E0D41E03E1508F040E0219671
:10263000FFAC21974F0D51E04F1508F050E0229666
:102640000FAD2297500F61E0501708F060E023961D
:102650001FAD2397610F71E0611708F070E02496B9
:102660008FAD2497780F81E024969FAD249779173A
:1026700008F080E02596AFAD25978A0F91E08A1784
:1026800008F090E0D201ED91FC912696BFAD26971F
:102690009B0F8E010F5F1F4FA5E2EA2EF12C0995CB
:1026A000882309F478C329803A80EC81FD81FFA753
:1026B000EEA7FB81F8ABEE80E9AA0F8118851BAB72
:1026C0000AAB89859A852C853D853DAB2CABAE88C0
:1026D000BF88C88CD98C4A8D5B8D6C8D7D8D4EAB3F
:1026E0005FAB68AF79AFEAA0FBA00CA11DA1EAAE79
:1026F000FBAE0CAF1DAFA114B104C104D10431F481
:10270000009709F448C35C01CC24DD240CA91DA961
:102710000115110541F0980140E050E02EAB3FABB0
:1027200048AF59AF0AC06EA97FA988AD99AD6115B0
:1027300071058105910509F42EC3EEA5FFA5CF0112
:10274000A0E0B0E086017501E81AF90A0A0B1B0B3C
:10275000F9A92F2F30E040E050E06EA97FA988ADA5
:1027600099AD0E940644E61AF70A080B190BC1013D
:1027700001972AA93BA945E0220F331F4A95E1F7AB
:10278000820F931FB1010E94254480E090E0E61A79
:10279000F70A080B190B68A9262F30E040E050E03B
:1027A000C801B7010E944C4439014A0175EF671610
:1027B0007FE0770670E0870670E0970608F4EBC2CA
:1027C00085EF68168FEF780680E0880680E098062F
:1027D00028F486E0D20118968C9303C08BE0F201B6
:1027E00080878CE2E6E3F1E0DF011D928A95E9F74C
:1027F000710100E010E020E030E040E050E02EA267
:10280000FFA208A719A72AA73BA74CA75DA7950178
:10281000A60160E070E080E090E0AEA0BFA0CC2414
:10282000DD24EE24FF2400E010E00E940D422093FE
:10283000360130933701409338015093390160934A
:102840003A0170933B0180933C0190933D010EA5AA
:102850001FA5980140E050E060E070E080E090E06B
:1028600000E010E00E940D42A32FB42F152F062F79
:10287000F72ED82ECEACC20EF1E0C21608F0F0E072
:102880003FAD3A0FE1E03A1708F0E0E0EF2EE30E3B
:1028900021E0E31608F020E0E22B21964FAD2197CE
:1028A0004B0F31E04B1708F030E0AE2FA40F21E0C2
:1028B000A41708F020E0322B22965FAD2297510F2B
:1028C00041E0511708F040E0F32FF50F21E0F51734
:1028D00008F020E0422B23966FAD2397600F31E084
:1028E000601708F030E0E42FE60F21E0E61708F06B
:1028F00020E0322B24967FAD24977F0D41E07F1599
:1029000008F040E0532F570F21E0571708F020E060
:10291000422B25968FAD25978D0D21E08D1508F062
:1029200020E0480F31E0481708F030E0232B2696CE
:102930001FAD2697910F290FC0923E01E0923F01F3
:10294000A0934001F0934101E09342015093430171
:102950004093440120934501D20118968C91863012
:1029600029F064E070E080E090E004C062E070E094
:1029700080E090E022E0E22EF12C012D112D6E0C72
:102980007F1C801E911EA40193010E940644609347
:10299000460170934701809348019093490130921A
:1029A0004B0120924A01F8A88F2D90E08C01029DE6
:1029B000C001039D900D129D900D112490934D0127
:1029C00080934C01D20118968C91F9A8EF2CFF242A
:1029D00000E010E020E030E040E050E02796EFAE6D
:1029E00027972896FFAE289729960FAF29972A9602
:1029F0001FAF2A972B962FAF2B972C963FAF2C9774
:102A00002D964FAF2D972E965FAF2E97863009F0FB
:102A1000FAC00CA91DA92EA13FA140E050E060E042
:102A200070E080E090E05801CC24DD24EE24FF2407
:102A300000E010E00E940D422796AFAC2797BB2420
:102A40000E940D42F0903E01E0913F01B0914001A3
:102A50001091410100914201A090430190904401E6
:102A6000A0914501F20EF1E0F21608F0F0E0232FFC
:102A70002E0FE1E0231708F0E0E0EF2EE20E31E048
:102A8000E21608F030E0E32B242F2B0FF1E024179F
:102A900008F0F0E0DE2ED20E31E0D21608F030E081
:102AA000F32B252F210F41E0251708F040E0CF2E12
:102AB000C20E31E0C21608F030E0432B262F200F63
:102AC00051E0261708F050E0B42EB20E31E0B216F5
:102AD00008F030E0532B272F2A0D41E0271708F08C
:102AE00040E0A52EA20E31E0A21608F030E0432B04
:102AF000282F290D31E0281708F030E0942E920E8F
:102B000081E0921608F080E0132F182BA90F1A0FFE
:102B1000F0925601E0925701D0925801C0925901AB
:102B2000B0925A01A0925B0190925C0110935D01FA
:102B30002AA93BA940E050E060E070E080E090E02E
:102B400005E00E9487432F0DE1E02F1508F0E0E03B
:102B50003E0DF1E03E1508F0F0E0BE2FB30FE1E0CE
:102B6000B31708F0E0E0FE2B4D0DE1E04D1508F045
:102B7000E0E0AF2FA40F31E0A41708F030E0E32B22
:102B80005C0D41E05C1508F040E0FE2FF50F31E0F0
:102B9000F51708F030E0432B6B0D51E06B1508F092
:102BA00050E0E42FE60F31E0E61708F030E0532B59
:102BB0007A0D41E07A1508F040E0652F670F31E0AB
:102BC000671708F030E0432B890D31E0891508F0D4
:102BD00030E0542F580F41E0581708F040E0342BF4
:102BE000190F310F20934E01B0934F01A093500164
:102BF000F0935101E09352016093530150935401BB
:102C000030935501A1C02796AFAC27972EA13FA1C5
:102C100040E050E060E070E080E090E0BB24CC2435
:102C2000DD24EE24FF2400E010E00E940D42EEA817
:102C3000FFA808AD19AD1701280157016201EE2464
:102C4000FF2400E010E00E940D42A0913E01E091BF
:102C50003F011091400100914101F0904201D0905C
:102C60004301C0904401B0914501A20FF1E0A217C9
:102C700008F0F0E0232F2E0FE1E0231708F0E0E04A
:102C8000EF2EE20E31E0E21608F030E0E32B242FC5
:102C9000210FF1E0241708F0F0E01E2F120F31E0B1
:102CA000121708F030E0F32B252F200F41E02517F5
:102CB00008F040E0EF2FE20F31E0E21708F030E0DB
:102CC000432B262F2F0D51E0261708F050E0642FDC
:102CD000620F31E0621708F030E0532B272F2D0DE3
:102CE00041E0271708F040E0520F31E0521708F09A
:102CF00030E0432B282F2C0D31E0281708F030E06E
:102D0000420F81E0421708F080E0382BB90F3B0FEB
:102D1000A0934E01E0924F0110935001E0935101B6
:102D200060935201509353014093540130935501E5
:102D30000AAD1BAD2CAD3DAD00935E0110935F015C
:102D4000209360013093610124E331E002C020E070
:102D500030E0C901C35BDF4F0FB6F894DEBF0FBE92
:102D6000CDBFCF91DF911F910F91FF90EF90DF903A
:102D7000CF90BF90AF909F908F907F906F905F901B
:102D80004F903F902F90089580913401909135019C
:102D9000892BE9F613CC1092350110923401D7CF6C
:102DA0002F923F924F925F926F927F928F929F925B
:102DB000AF92BF92CF92DF92EF92FF920F931F9349
:102DC000DF93CF93CDB7DEB769970FB6F894DEBF28
:102DD0000FBECDBF9D878C879B01892B09F4E2C272
:102DE0004115510509F4DEC2DA010D900020E9F722
:102DF000A41BB50BCD010B966DE070E00E9425443D
:102E0000462F4F5F4B87D90193968D919D910D90E1
:102E1000BC91A02D8E839F83A887B987AC85BD8583
:102E2000ED91FC9180852E813F8148855985211542
:102E300031054105510571F48B3029F5AC85BD850F
:102E40009A968D919D910D90BC91A02D8E839F831C
:102E5000A887B9871E8A1F8A188E198E33244424A6
:102E600055246624DD24CC24BB24AA2422249924BE
:102E7000882477241E861F86188A198A1A8A1B8A34
:102E80001C8A1D8A34C0EC85FD85D2A0C3A0B4A0E5
:102E9000A5A026A097A080A471A4F28DFE87AC8582
:102EA000BD855B96BC91BF87EC85FD85F48DF88B65
:102EB000AC85BD855D96BC91B98BEC85FD85F68DA5
:102EC000FA8BAC85BD855F96BC91BB8BEC85FD858F
:102ED000F0A1FC8BAC85BD859196BC91BD8BDE8A43
:102EE000CF8AB88EA98E322C492C582C672C1A8682
:102EF000EE85DE1609F0D1C1FF85CF1609F0CDC1F0
:102F00002889B21609F0C9C13989A31609F0C5C1CB
:102F10004A89241609F0C1C15B89951609F0BDC123
:102F20008C89881609F0B9C19D89791609F0B5C157
:102F30002E813F814885598521153105410551056F
:102F400009F430C28D2D8C298B298A29822989295F
:102F50008829872909F4BAC08C859D85BA01A90101
:102F60000E943001611571058105910509F0AAC023
:102F70008C859D854E815F816885798501E010E0B3
:102F800020E030E00E9492046A837B838C839D83DF
:102F9000611571058105910509F404C2DC01CB01BD
:102FA0000297A109B1095C016D010296A11DB11D35
:102FB0008A839B83AC83BD83AC85BD8558962D9059
:102FC0003C9059979501A60160E070E080E090E0A8
:102FD0005101CC24DD24EE24FF2400E010E00E9407
:102FE0000D42C92EEC85FD85B28DB38CA48D058D67
:102FF000F68CE78CD0A011A1B20FE1E0B21708F077
:10300000E0E0232F2B0DF1E0231708F0F0E03E2F36
:10301000320FE1E0321708F0E0E0FE2B242F2A0FF8
:10302000A1E0241708F0A0E04F2F420FE1E0421783
:1030300008F0E0E0AE2B252F200FF1E0251708F077
:10304000F0E05A2F520FE1E0521708F0E0E0FE2BBB
:10305000262F2F0DA1E0261708F0A0E06F2F620F9A
:10306000E1E0621708F0E0E0AE2B272F2E0DF1E033
:10307000271708F0F0E07A2F720FE1E0721708F0DE
:10308000E0E0FE2B282F2D0DE1E0281708F0E0E00E
:103090008F2F820F91E0821708F090E06E2E692A40
:1030A0001C0DBE8B3F8B488F598F362E472E582EC6
:1030B000610E8C859D854A815B816C817D810E943A
:1030C000280E78C16E837F83888799872E813F8100
:1030D00048855985223031054105510548F4DD24E4
:1030E000CC24BB24AA2422249924882477248DC0AC
:1030F0008E819F81A885B9850297A109B1095C01DC
:103100006D010296A11DB11D8E839F83A887B9878B
:10311000AC85BD8558962D903C9059979501A60198
:1031200060E070E080E090E05101CC24DD24EE24EA
:10313000FF2400E010E00E940D42C92EEC85FD85C1
:10314000B28DB38CA48D058DF68CE78CD0A011A127
:10315000B20FE1E0B21708F0E0E0232F2B0DF1E011
:10316000231708F0F0E03E2F320FE1E0321708F0AD
:10317000E0E0FE2B242F2A0FA1E0241708F0A0E0A6
:103180004F2F420FE1E0421708F0E0E0AE2B252F71
:10319000200FF1E0251708F0F0E05A2F520FE1E080
:1031A000521708F0E0E0FE2B262F2F0DA1E0261786
:1031B00008F0A0E06F2F620FE1E0621708F0E0E096
:1031C000AE2B272F2E0DF1E0271708F0F0E07A2F15
:1031D000720FE1E0721708F0E0E0FE2B282F2D0DB2
:1031E000E1E0281708F0E0E08F2F820F91E08217CE
:1031F00008F090E07E2E792A1C0DDB2EC32EB42E13
:10320000A52E262E972E882E710EAC85BD8558963C
:103210008D919C9159979C01FD2DF80FE1E0FD15D2
:1032200008F0E0E08C2D830F21E08C1508F020E001
:103230006E2F680F91E0681708F090E0922B9B0DBD
:1032400081E09B1508F080E0582F5A0D81E05A1557
:1032500008F080E0482F420D81E0421508F080E040
:10326000382F390D81E0391508F080E0880D21E014
:10327000881508F020E0FE876F87988B598B4A8B62
:103280003B8B8C8B270D2D8BDE8ACF8AB88EA98E37
:10329000322C492C582C672C1A86AC85BD85ED91B3
:1032A000FC910190F081E02D2D2D3C2D4B2D5A2DC0
:1032B000622D792D882D972D8E010F5F1F4FB1E064
:1032C000EB2EF12C0995882309F46CC08981853E89
:1032D00011F08823B9F5BA85BF5FBA87EB85BE17B1
:1032E00008F068C07D2D705E81E07D1508F080E0FB
:1032F000682F6C0D81E06C1508F080E0582F5B0D95
:1033000081E05B1508F080E0482F4A0D81E04A1506
:1033100008F080E0382F320D81E0321508F080E0AF
:10332000282F290D81E0291508F080E0880D91E013
:10333000881508F090E06B015A01232E922E882EFA
:10334000790ED6CD7D2D705E81E07D1508F080E090
:10335000682F6C0D81E06C1508F080E0582F5B0D34
:1033600081E05B1508F080E0482F4A0D81E04A15A6
:1033700008F080E0382F320D81E0321508F080E04F
:10338000282F290D81E0291508F080E0880D91E0B3
:10339000881508F090E06B015A01232E922E882E9A
:1033A000790E9DCD1E8A1F8A188E198E33244424CF
:1033B000552466242E893F89488D598D632D742D9F
:1033C000852D962D69960FB6F894DEBF0FBECDBF42
:1033D000CF91DF911F910F91FF90EF90DF90CF90F1
:1033E000BF90AF909F908F907F906F905F904F9025
:1033F0003F902F9008952F923F924F925F926F923D
:103400007F928F929F92AF92BF92CF92DF92EF9274
:10341000FF920F931F93DF93CF93CDB7DEB7A5979E
:103420000FB6F894DEBF0FBECDBFFC016B01009755
:1034300009F4B3C16115710509F4AFC10190F081C0
:10344000E02D848195819BA38AA3DB0199962C9022
:1034500099979A96BC91BCA3FB0173A464A455A44C
:1034600046A437A4F0A9FDA3062FFD2CFB01019073
:103470000020E9F731971E2F161B812F90E00C9644
:103480006DE070E00E94394469A3CE01019660E2CC
:1034900070E04BE050E00E94F344C6016EE270E041
:1034A0000E942B45FC010097E1F09C012F5F3F4FEC
:1034B00081818823B1F0D9010D900020E9F711979F
:1034C000A21BB30B8A2F8095180FBE01675F7F4F39
:1034D0004A2FA43008F043E0CB01B90150E00E942C
:1034E000EA44CE0101961930A0F4602F7F2D412FC0
:1034F00050E00E94EA44D6018C918E3241F511963B
:103500008C9111978E3211F412968C918823F1F0E0
:103510001EC0DC01802F9F2D9C01F90188E00190E5
:103520000D928150E1F7F60181A1982F92959F703D
:10353000803A10F4905D01C09F598F708A3010F46A
:10354000805D01C08F599F83888701C019A289813E
:10355000853E11F485E0898385E1FE013C96DF011B
:103560001D928A95E9F7F60180A18C8721A132A1ED
:1035700043A154A1CA01AA27BB279E8B8D8B3C8FE8
:103580002B8F85A196A1A7A1B0A58D8F9E8FAF8F00
:10359000B8A3F9A18F2F90E0A5E0880F991FAA95F5
:1035A000E1F79C0140E050E060E070E080E090E0F6
:1035B000B22EB20CA1E0B21608F0A0E0ECA1E30F2D
:1035C000F1E0E31708F0F0E0EA2EEE0EA1E0EE16CF
:1035D00008F0A0E0FA2BE1E0741608F0E0E0FF2E1E
:1035E000F70CF1E0F71408F0F0E0EF2BF1E06516CE
:1035F00008F0F0E00E2F060DE1E0061508F0E0E01F
:10360000FE2BE1E0561608F0E0E01F2F150DF1E06B
:10361000151508F0F0E0EF2BF1E0471608F0F0E0A8
:10362000BE2FB40DE1E0B41508F0E0E0FE2BA1E000
:10363000381608F0A0E08F2F830DE1E0831508F025
:10364000E0E0AE2B2B2D3E2D4F2D502F612F7B2FE9
:103650009DA19A0F8E010F5F1F4FF0E2EF2EF12C0C
:10366000AAA1BBA1FD010995882309F496C0B980E0
:10367000FE0132969E01245F3F4F8B2D8695B794B5
:10368000BB24B794B82A8191B80EE217F307A9F7C3
:10369000A9A04E010894811C911C7AC0C4016FEF4F
:1036A00070E040E250E00E94F344EDE0AE9ED001B5
:1036B00011241D97AC0DBD1D91E0F401E90FF11D22
:1036C0008C918083892F8F5FF401E80FF11D1082A8
:1036D0009E5F9B3019F09A3121F402C09EE001C038
:1036E0009CE18C91882321F09F3110F41196E5CF55
:1036F000A982F9A1AF1619F48A2D806489832FE07D
:103700002C87BE861D861B8E1C8E222D3CA1472D2C
:10371000562D652D742D832D9DA18401E0E2EE2EA2
:10372000F12CAAA1BBA1FD010995722D705E81E06B
:10373000721508F080E06CA1680F81E0BCA16B17E6
:1037400008F080E0582F570D81E0571508F080E011
:10375000482F460D81E0461508F080E0382F350DE2
:1037600081E0351508F080E0282F240D81E0241534
:1037700008F080E0830D91E0831508F090E0272E9B
:103780006CA33A012901382EEDA1E90FEDA3AA940B
:10379000AA2009F083CF81E001C080E0A5960FB692
:1037A000F894DEBF0FBECDBFCF91DF911F910F9177
:1037B000FF90EF90DF90CF90BF90AF909F908F9051
:1037C0007F906F905F904F903F902F9008952F9231
:1037D0003F924F925F926F927F928F929F92AF92A1
:1037E000BF92CF92DF92EF92FF920F931F93DF93DE
:1037F000CF93CDB7DEB72E970FB6F894DEBF0FBECE
:10380000CDBF98878F837A8769875E874D87892B9D
:1038100009F4ACC16115710509F4A8C1DB018C91F3
:10382000882309F4A3C1452BB1F4A0C189859A85E9
:103830006B857C850E940545009789F4EF81F885AA
:1038400083A194A1A5A1B6A183AB94ABA5ABB6AB64
:1038500010AE17AA8BC1FD85FB878E858C878F8163
:1038600098856D857E850E94060F8823F9F6AF81C5
:10387000B8850D90BC91A02DBE83AD83CD0140E0F5
:1038800050E060E070E001E010E020E030E00E94F5
:10389000920469837A838B839C836115710581050A
:1038A000910509F463C18D819E8149815A816B81A3
:1038B0007C810E94280E81E3ED85FE8511928A9518
:1038C000E9F780E1AD85BE8590968C9389819A81D8
:1038D000AB81BC810297A109B1095C016D0102961F
:1038E000A11DB11D89839A83AB83BC83AD81BE8149
:1038F00058962D903C9059979501A60160E070E094
:1039000080E090E05101CC24DD24EE24FF2400E08F
:1039100010E00E940D42ED81FE81A28DE38C148D9A
:10392000058DF68CD78CC0A0B1A1A20FF1E0A21733
:1039300008F0F0E0232F2E0DE1E0231708F0E0E07F
:10394000EF2EE20E31E0E21608F030E0E32B242FF8
:10395000210FF1E0241708F0F0E01E2F120F31E0E4
:10396000121708F030E0F32B252F200F41E0251728
:1039700008F040E00F2F020F31E0021708F030E0AE
:10398000432B262F2F0D51E0261708F050E0642F0F
:10399000620F31E0621708F030E0532B272F2D0D16
:1039A00041E0271708F040E0520F31E0521708F0CD
:1039B00030E0432B282F2C0D31E0281708F030E0A1
:1039C000420F81E0421708F080E0382BB90F3B0F1F
:1039D000ED85FE85A1A7E2A613A704A765A756A7B4
:1039E00047A730AB8EE2808389819A81AB81BC810D
:1039F000ED85FE8581A392A3A3A3B4A38D819E81AF
:103A0000BF010E94FB19882309F4A8C0AD85BE85BB
:103A100099968C9199979A962C919A979B963C910E
:103A20009B979C964C919C979D966C919D979E968A
:103A3000FC909E979F96AC91ED85FE8510A9B82FBE
:103A4000B05E91E0B81708F090E0092F020F81E016
:103A5000021708F080E0782F730F81E0731708F0E9
:103A600080E0582F540F81E0541708F080E0382F81
:103A7000360F81E0361708F080E0282F2F0D81E007
:103A80002F1508F080E0982F9A0F81E09A1708F020
:103A900080E0810FED85FE85B1A702A773A754A72B
:103AA00035A726A797A780AB8EE28183EF81F885A3
:103AB00083A194A1A5A1B6A1ED85FE8581A392A3C2
:103AC000A3A3B4A38D819E81BF010E94FB1988230B
:103AD00009F444C08B859C8569857A854FE150E067
:103AE0000E941C4589819A81AB81BC81ED85FE8550
:103AF00081A392A3A3A3B4A38D819E816F817885B6
:103B0000AF010E94D016AD85BE8599962C939997EA
:103B10009A963C939A979B964C939B979C965C9312
:103B20009C979D966C939D979E967C939E979F964F
:103B30008C939F97D0969C93232B242B252B262B5D
:103B4000272B282B292B51F08D819E816D857E8519
:103B50000E94FB19882311F081E009C08D819E81AC
:103B600049815A816B817C810E94AD0280E02E9652
:103B70000FB6F894DEBF0FBECDBFCF91DF911F917E
:103B80000F91FF90EF90DF90CF90BF90AF909F90FC
:103B90008F907F906F905F904F903F902F900895FF
:103BA000AF92BF92CF92DF92EF92FF920F931F934B
:103BB000CF93DF938C017B01EA01009709F455C094
:103BC0006115710509F451C0FB018081882309F456
:103BD0004CC04115510509F448C0B42EAD2EC801A2
:103BE000BE010E94060F8823A1F0C7016B2D7A2D1C
:103BF0000E940545009799F7F80183A194A1A5A11A
:103C0000B6A183AB94ABA5ABB6AB10AE17AA82E05E
:103C10002DC0F801C080D18081E3FE0111928A9508
:103C2000E9F78B2D9A2DB7014FE150E00E941C451A
:103C3000C601B801AE010E94D01629A73AA74BA72A
:103C40005CA76DA77EA78FA798AB232B242B252BD2
:103C5000262B272B282B292B41F0C601BE010E94C1
:103C6000FB19882319F081E001C080E0DF91CF913A
:103C70001F910F91FF90EF90DF90CF90BF90AF908A
:103C80000895CF92DF92EF92FF920F931F93DF93ED
:103C9000CF93CDB7DEB7E1970FB6F894DEBF0FBE76
:103CA000CDBF6C018B01DA01F901009709F456C010
:103CB0006115710509F452C04115510509F44EC052
:103CC0002115310521F08081882309F447C0ED904A
:103CD000FC901197CE14DF0409F040C0309709F42E
:103CE000F801CD01BF016E010894C11CD11CA601D1
:103CF0000E94D01D882391F1F80180A189A381A1A0
:103D000092A1A3A1B4A18AA39BA3ACA3BDA385A1A7
:103D100096A1A7A1B0A58EA39FA3A8A7B9A7C701E5
:103D2000B6010E94FB19882329F4C701B6010E943D
:103D30006F0B14C0F80111A212A213A214A2C701A2
:103D4000B8010E946F0B882349F0D801F60181E386
:103D500001900D928150E1F781E001C080E0E19691
:103D60000FB6F894DEBF0FBECDBFCF91DF911F918C
:103D70000F91FF90EF90DF90CF9008952F923F9298
:103D80004F925F926F927F928F929F92AF92BF926B
:103D9000CF92DF92EF92FF920F931F93DF93CF9317
:103DA000CDB7DEB762970FB6F894DEBF0FBECDBFBA
:103DB0001C014B875C876D877E87009709F41BC2C7
:103DC000DC019396CD90DD90ED90FC909697ED916F
:103DD000FC91208D318DC114D104E104F10499F0DE
:103DE0004B845C846D847E844901AA24BB242227F1
:103DF0003327A901281939094A095B092F87388B0C
:103E0000498B5A8B20C08B859C85AD85BE850097DC
:103E1000A105B10509F49DC1E3CFD1018D919C911C
:103E2000B701A6010E943001611571058105910558
:103E300081F02F85388949895A89420E531E641EA4
:103E4000751E6B017C0184149504A604B70428F345
:103E5000ECC1C301B201680D791D8A1D9B1D615023
:103E6000704080409040A50194010E944C4489011B
:103E70009A01D1018D919C91B701A6010E949204F3
:103E8000611571058105910509F4B5C1C114D1040D
:103E9000E104F10439F4F10163A374A385A396A3AB
:103EA0006B017C012B853C854D855E85D101979604
:103EB0002D933D934D935C939A97211531054105C0
:103EC000510529F4F10113A214A215A216A2F101C1
:103ED00081919191BF010E94FB19882309F48BC144
:103EE0002B853C854D855E852115310541055105A4
:103EF00031F4D1018D919C91B701A60128C18414A0
:103F00009504A604B70408F424C1F10180809180CF
:103F10008114910409F41DC1F2E0CF16D104E1042B
:103F2000F10408F416C1C401B701A6010E943001D2
:103F30006F83788789879A87D4016D907C90F3018D
:103F40008085560167018B3009F07BC08FEF9FEFB2
:103F5000AFEFBFE08B839C83AD83BE839501A60149
:103F600060E070E080E090E002E00E948743432E32
:103F7000142FF52ED62EC72EB82E592EF401A28559
:103F800093850485E58476858785A088B189A20F0D
:103F900031E0A21708F030E0242D290F41E024156C
:103FA00008F040E0320FE1E0321708F0E0E04E2B7D
:103FB000212F200F51E0211708F050E0420FE1E0DF
:103FC000421708F0E0E05E2B2F2D2E0D61E02F153B
:103FD00008F060E0520FE1E0521708F0E0E06E2BCD
:103FE0002D2D270F71E02D1508F070E0620FE1E034
:103FF000621708F0E0E07E2B2C2D280F81E02C15B5
:1040000008F080E0720FE1E0721708F0E0E08E2B1C
:104010002B2D2A0D91E02B1508F090E0820FE1E0A6
:10402000821708F0E0E09E2BB50DF301C480D58027
:104030002A2F9B0F8E010D5F1F4FF4E0EF2EF12C06
:1040400076C08FEF9FEF9A8389839501A60160E088
:1040500070E080E090E001E00E948743432E142F3F
:10406000F52ED62EC72EB82E592EF401A285938593
:104070000485E58476858785A088B189A20F31E023
:10408000A21708F030E0242D290F41E0241508F094
:1040900040E0320FE1E0321708F0E0E04E2B212F34
:1040A000200F51E0211708F050E0420FE1E04217E5
:1040B00008F0E0E05E2B2F2D2E0D61E02F1508F0AB
:1040C00060E0520FE1E0521708F0E0E06E2B2D2D7A
:1040D000270F71E02D1508F070E0620FE1E0621724
:1040E00008F0E0E07E2B2C2D280F81E02C1508F045
:1040F00080E0720FE1E0721708F0E0E08E2B2B2DCC
:104100002A0D91E02B1508F090E0820FE1E0821774
:1041100008F0E0E09E2BB50DF301C480D5802A2F76
:104120009B0F8E010F5F1F4FE2E0EE2EF12CF60188
:104130000995882371F02F81388549855A85211585
:1041400031054105510529F0C401BA01A9010E94B8
:10415000AD028B859C85AD85BE858C019D0140E0BF
:1041600050E060E070E0D101DA968C91DA97781730
:1041700080F18717F1F5D9968C91D997681748F196
:104180008617B9F5D8968C91D897581710F18517DE
:1041900081F5D7968C91D7974817D8F0841749F5B1
:1041A000D6968C91D6973817A0F0831711F5D5962F
:1041B0008C91D597281768F08217D9F4D4968C91F2
:1041C000D497181730F08117A1F4D3968C91081763
:1041D00080F4F10103AB14AB25AB36AB17AA10AEDC
:1041E00011AE12AED101DB961D921D921D921C9252
:1041F000DE9781E001C080E062960FB6F894DEBFE2
:104200000FBECDBFCF91DF911F910F91FF90EF9027
:10421000DF90CF90BF90AF909F908F907F906F90E6
:104220005F904F903F902F900895C114D104E10406
:10423000F10409F40ECE36CECF92DF92EF92FF92C8
:104240000F931F93CF93DF93EC016B01009709F459
:1042500051C06115710509F44DC02BA93CA95DA998
:104260006EA9413061F0413020F0423009F042C087
:104270000FC0F601E080F1800281138116C0C901F0
:10428000A52FB62FF601E080F1800281138109C0CD
:10429000F601E080F180028113818FA198A5A9A584
:1042A000BAA5E80EF91E0A1F1B1F8FA198A5A9A584
:1042B000BAA58E159F05A007B10738F4CE01B80145
:1042C000A7010E94BE1E8823A9F0A8019701EBAAAE
:1042D0003CAB4DAB5EAB1FAA18AE19AE1AAE1BAE0F
:1042E0001CAE1DAE1EAEF601E082F1820283138386
:1042F00081E001C080E0DF91CF911F910F91FF908D
:10430000EF90DF90CF9008952F923F924F925F925F
:104310006F927F928F929F92AF92BF92CF92DF92D5
:10432000EF92FF920F931F93DF93CF93CDB7DEB73A
:1043300066970FB6F894DEBF0FBECDBF9E8B8D8BF8
:104340007E876D87588B4F87009709F48EC3672B44
:1043500009F48BC3452B09F488C3DC01D3968C90F8
:10436000D397D4969C90D497D596AC90D597D69663
:10437000BC90D697D796CC90D797D896DC90D89704
:10438000D996EC90D997DA96FC90FC0187A190A57C
:10439000A1A5B2A59C01AD0160E070E080E090E0D5
:1043A0009F1508F462C3F91609F58E1508F45DC36C
:1043B000E816E1F47D1508F458C3D716B9F46C1566
:1043C00008F453C3C61691F45B1508F44EC3B51632
:1043D00069F44A1508F449C3A41641F4391508F4E0
:1043E00044C3931619F4281508F43FC3AD89BE8958
:1043F0002D913C911197F901008CF18DE02DFC87F6
:10440000EB87DB968D919D910D90BC91A02D8F83B4
:104410009887A987BA870097A105B10509F0AEC0B2
:10442000AD89BE8993968D919D910D90BC91A02DE3
:104430008F839887A987BA870097A105B10529F5C9
:10444000882D89298A298B298C298D298E298F29C4
:1044500009F00BC3C90140E050E060E070E001E00A
:1044600010E020E030E00E9492046F837887898713
:104470009A87ED89FE8963A374A385A396A361152A
:1044800071058105910509F4F3C2AD89BE89D39602
:104490006C91D397D4967C91D497D596EC91D5977F
:1044A000D696FC91D697D7969C91D797D8962C9173
:1044B000D897D9963C91D997DA964C91862F872B2D
:1044C0008E2B8F2B892B822B832B842B09F456C0A8
:1044D0009B01AF01C901DA012C013D014B855C85CF
:1044E0009A0140E050E0298B3A8B4B8B5C8B3CC0AF
:1044F00089899A89AB89BC89481A590A6A0A7B0A50
:10450000AD89BE898D919C914F81588569857A8549
:104510000E943001611571058105910529F06F83B5
:10452000788789879A8720C04114510461047104F7
:1045300009F09BC2ED89FE89808191814F81588568
:1045400069857A8501E010E020E030E00E94920465
:10455000AB01BC01411551056105710509F488C223
:104560004F83588769877A8729893A894B895C897B
:10457000421653066406750608F0BACF4B855C8573
:10458000415050405C874B87482159215C834B83C5
:104590008B859C8501969C878B87AF85B889BE8368
:1045A000AD83ED89FE890190F081E02DFA83E983E6
:1045B000309709F48EC02F81388549855A8522307D
:1045C00031054105510508F484C022503040404077
:1045D000504059016A012E5F3F4F4F4F5F4F2F836D
:1045E000388749875A87208C318C9501A60160E075
:1045F00070E080E090E05101CC24DD24EE24FF2423
:1046000000E010E00E940D42E981FA81B28DF38C46
:10461000A48D058DD68CC78CB0A011A1B20FF1E08E
:10462000B21708F0F0E0232F2F0DE1E0231708F078
:10463000E0E0EF2EE20E31E0E21608F030E0E32B8E
:10464000242F2A0FF1E0241708F0F0E0FE2EF20EDE
:1046500031E0F21608F030E0F32B252F200F41E077
:10466000251708F040E0F20F31E0F21708F030E0D3
:10467000432B262F2D0D51E0261708F050E0E42F94
:10468000E20F31E0E21708F030E0532B272F2C0D1A
:1046900041E0271708F040E0520F31E0521708F0D0
:1046A00030E0432B282F2B0D31E0281708F030E0A5
:1046B000420F81E0421708F080E0A32FA82B190FCA
:1046C0002B2F9E2D6F2D7F2F4E2E252EB42FA10F19
:1046D00008C020E090E060E070E044242224B0E0D4
:1046E000A0E08B849C844B815C81841A950AED81C7
:1046F000FE81E815F90508F44F01E981FA8160802F
:1047000071804B815C815A01CC24DD24EE24FF248E
:104710008701522E540E31E0521608F030E0892FF6
:104720008B0D41E0891708F040E0380F91E0381711
:1047300008F090E0492B862F8C0D51E0861708F089
:1047400050E0480F91E0481708F090E0592B872F70
:104750008D0D61E0871708F060E0580F91E0581761
:1047600008F090E0692B842D8E0D71E0841508F01F
:1047700070E0680F91E0681708F090E0792B922DB7
:104780009F0D81E0921508F080E0790FE1E0791744
:1047900008F0E0E08E2BEB2FE00F91E0EB1708F034
:1047A00090E08E0FF1E08E1708F0F0E09F2BA10F44
:1047B000F301C480D580252D9A0F0D851E857401C7
:1047C000F6010995882309F4E5C02D813E81281959
:1047D00039093E832D83940140E050E060E070E0B1
:1047E00080E090E0AD89BE89D3961C91D397D49692
:1047F000DC90D497D596BC91ED89FE8906A9E7A8EF
:10480000A0AC71ACF2AC180DF1E0181508F0F0E0B6
:10481000ED2DE30FA1E0E31708F0A0E0BF2EBE0EE0
:10482000F1E0BE1608F0F0E0AF2BE42FEB0FB1E0A3
:10483000E41708F0B0E0CA2ECE0EF1E0CE1608F074
:10484000F0E0BF2BE52FE00FA1E0E51708F0A0E0B6
:10485000DB2EDE0EF1E0DE1608F0F0E0AF2BE62FE7
:10486000EE0DB1E0E61708F0B0E0EA2EEE0EF1E052
:10487000EE1608F0F0E0BF2BE72FEA0DA1E0E717F6
:1048800008F0A0E00B2F0E0FF1E00E1708F0F0E09B
:10489000AF2BE82FE70DF1E0E81708F0F0E0AA2EC3
:1048A000AE0EA1E0AE1608F0A0E0FA2BF90EFF0D57
:1048B000AD89BE89D3961C93D397D496BC92D497D6
:1048C000D596CC92D597D696DC92D697D796EC9281
:1048D000D797D8960C93D897D996AC92D997DA9661
:1048E000FC93DA978B819C81880D991DEB85FC8563
:1048F0008E179F07C0F18D919C914F8158856985D6
:104900007A850E943001611571058105910529F0B4
:104910006F83788789879A8724C02D813E81232BD6
:10492000A9F0AD89BE898D919C914F81588569858B
:104930007A8501E010E020E030E00E949204AB01B3
:10494000BC01411551056105710539F4ED89FE89F8
:1049500013AE14AE15AE16AE1DC04F8358876987CF
:104960007A871C821B822F81388549855A85AD89BB
:10497000BE89DB962D933D934D935C93DE97ED813D
:10498000FE81EF2B39F02D853E85280D391D3E87A0
:104990002D8707CEAD89BE89D3967C91D397D496C7
:1049A0004C91D497D5965C91D597D6966C91D69725
:1049B000D7963C91D797D8962C91D897D9969C9119
:1049C000D997DA968C91DA9797966D907D908D9025
:1049D0009C909A9764015301EE24FF2487011817D5
:1049E000E0F08117D9F50917C0F09017B9F5F21664
:1049F000A0F02F1599F5E31680F03E1579F5D6163F
:104A000060F06D1559F5C51640F05C1539F5B41612
:104A100020F04B1519F5671608F5ED89FE8977A387
:104A200040A751A762A781919191BF010E94FB19F4
:104A30008823A1F4AD89BE89D3960D90BC91A02D99
:104A4000A619B709BE83AD83ED89FE89A3AAB4AACE
:104A5000C5AAD6AA17AA10AE11AE12AE4F855889B4
:104A60002D813E81421B530B05C04FEF5FEF02C00B
:104A700040E050E0CA0166960FB6F894DEBF0FBE64
:104A8000CDBFCF91DF911F910F91FF90EF90DF90FD
:104A9000CF90BF90AF909F908F907F906F905F90DE
:104AA0004F903F902F900895CF93DF93AC01DB019F
:104AB0000097A9F16115710591F190968C919097ED
:104AC00084FF2DC08091A5019091A601892B19F436
:104AD000E5EAF1E008C08091DE019091DF01892BC9
:104AE000F1F4EEEDF1E09F012E5F3F4FBD0181E358
:104AF000EB010990BE01E90109929E018150C1F7C5
:104B00005183408391968D919D910D90BC91A02DE4
:104B100083AB94ABA5ABB6AB10AE17AA02C0E0E076
:104B2000F0E0CF01DF91CF910895CF93DF939C0107
:104B3000DB01009741F06115710529F090968C9189
:104B4000909784FF33C020E030E0C901DF91CF911E
:104B50000895C8E6D1E0FD0181E3019009928150FA
:104B6000E1F730936701209366011092990110924A
:104B70009A0110929B0110929C0110929D0110923B
:104B80009E0110929F011092A00191968D919D918E
:104B90000D90BC91A02D8093A1019093A201A093B0
:104BA000A301B093A40126E631E0CFCF8091660146
:104BB00090916701892B39F6CCCF6F927F928F92BB
:104BC0009F92AF92BF92CF92DF92EF92FF920F939C
:104BD0001F93CF93DF934C01EB017A01009709F407
:104BE00067C06115710509F463C08881882309F4E1
:104BF0005FC04115510509F45BC08F3209F421965D
:104C000081E3F70111928A95E9F780E1F70180A32A
:104C1000370101C0E5018881882309F44BC0C40134
:104C2000B7010E9454256C01009709F441C0CE01E0
:104C30006FE270E00E94FA44009739F0482F4C1B55
:104C40005C010894A11CB11C2AC0FE010190002047
:104C5000E9F731974E2F4C1B5E01A40EB11C1FC00B
:104C6000F30101900020E9F73197E619F709E01701
:104C7000F107B9F4CE01B301A8010E940E450097D7
:104C800081F4F601118210820C0F1D1FF801808142
:104C9000882381F0F70180A184FDBCCF09C0042FD7
:104CA00010E0C601B7010E94060F8823C9F612C0A2
:104CB00080E001C081E0DF91CF911F910F91FF90C3
:104CC000EF90DF90CF90BF90AF909F908F907F90AC
:104CD0006F900895F601118210829DCFFC0100971C
:104CE00011F480E00895108681E008954F925F925C
:104CF0006F927F928F929F92BF92CF92DF92EF92AC
:104D0000FF920F931F93DF93CF93CDB7DEB76097DA
:104D10000FB6F894DEBF0FBECDBF6C014B013A0158
:104D20002901B02E009709F453C06115710509F4EB
:104D30004FC083E080170CF44BC007FD23C0802FC9
:104D4000992787FD9095B4E0880F991FBA95E1F7F0
:104D500082549E4FFC01FF0FEE0BFE2F9C014E2F45
:104D60005E2F6E2F7E2F8E2F9E2F8E010F5F1F4F77
:104D7000E0E1EE2EF12CF6010995882349F18D81B1
:104D8000882331F180911F02882311F53AC08D816B
:104D900080931F0289859A85AB85BC85809320020C
:104DA00090932102A0932202B09323028D859E85C9
:104DB000AF85B8898093240290932502A0932602A0
:104DC000B093270203C08FEF80931F029F0102C0A0
:104DD00020E030E0C90160960FB6F894DEBF0FBE48
:104DE000CDBFCF91DF911F910F91FF90EF90DF909A
:104DF000CF90BF909F908F907F906F905F904F90DB
:104E00000895E7E1F2E081E1DF011D928A95E9F77B
:104E1000D0921802C092170290921A028092190240
:104E200070921C0260921B0250921E0240921D0260
:104E3000B7FEADCFC8CF81E0089580E00895282F58
:104E40008FEF8EBD0DB407FEFDCF8DB58F778DBD75
:104E50008EB5822F80648EBD0DB407FEFDCF8DB55B
:104E60008F778DBD872F9927AA27BB278EBD0DB4BD
:104E700007FEFDCF8DB58F778DBDCB01AA27BB2750
:104E80008EBD0DB407FEFDCF8DB58F778DBDBB27D1
:104E9000A72F962F852F8EBD0DB407FEFDCF8DB5A4
:104EA0008F778DBD4EBD0DB407FEFDCF8DB58F77CD
:104EB0008DBD222319F0283069F406C085E98EBD26
:104EC0000DB407FEFDCF0BC087E88EBD0DB407FE05
:104ED000FDCF05C08FEF8EBD0DB407FEFDCF8DB5A4
:104EE0008F778DBD90E02FEF2EBD0DB407FEFDCF67
:104EF0008DB58F778DBD8EB58F3F19F49F5F9A303A
:104F000099F708958F929F92AF92BF92CF92DF92BE
:104F1000EF92FF920F931F93CF93DF93EC010097D3
:104F200081F08DE1FE0111928A95E9F728988AE0D7
:104F300040E050E060E070E00E941F27882319F0F5
:104F4000289A80E021C19FEF9EBD0DB407FEFDCFE2
:104F50008DB58F778DBD8EB58E3FB1F71C2FCE01ED
:104F6000FC0160E670E00FEF9E2F911B0EBD0DB4AB
:104F700007FEFDCF8DB58F778DBD2EB5983028F407
:104F8000933088F4992359F00CC09D3018F499306F
:104F900070F40BC09D3019F19E3069F524C0288350
:104FA0002AC0208328C0218326C02A8724C030E05D
:104FB00040E050E0062E04C0220F331F441F551F4F
:104FC0000A94D2F78B859C85AD85BE85822B932B69
:104FD000A42BB52B8B879C87AD87BE870CC02295F1
:104FE000207F2F8708C0922F92959F708F85892BE5
:104FF0008F872F70288B3196685070408FEF603DFF
:10500000780709F0B1CF89E040E050E060E070E05F
:105010000E941F27882309F093CF9FEF9EBD0DB4F8
:1050200007FEFDCF8DB58F778DBD8EB58E3FB1F765
:1050300080913104C82EDD24E2E0CE22DD249924C3
:10504000BB24EE24FF2410E088248A94AA24A3948D
:105050008EBC0DB407FEFDCF8DB58F778DBD2EB5FF
:105060001E3081F4822F90E026FDA98E85FDAA8E48
:1050700084FDAB8E8C7090709595879595958795EE
:105080008C8F7CC0C114D10439F1173029F017304E
:1050900050F01A3040F401C02F739E2D8827E22E65
:1050A000FF24E82AF92A193009F068C00894E11CA5
:1050B000F11C970140E050E060E070E080E090E09B
:1050C00003E10E948743298B3A8B4B8B5C8B6D8B62
:1050D0007E8B8F8B988F52C01730D9F0183030F4F8
:1050E000153061F0163009F049C00CC0193031F1AB
:1050F0001930C0F01A3009F041C025C07FE0972E6A
:1051000092223CC0822F90E083709070F82EEE24A3
:1051100035C0822F90E0E82AF92AEE0CFF1CEE0C35
:10512000FF1C2CC02295269526952370822F90E097
:10513000E82AF92A0894E11CF11C20C043E0B42EAF
:10514000B222BB0C1BC0221F2227221FB22A9701AA
:1051500040E050E0E92DF0E03296EB0DF11D04C087
:10516000220F331F441F551FEA95D2F7298B3A8B24
:105170004B8B5C8B1D8A1E8A1F8A188E1F5F123113
:1051800009F066CF289A81E0DF91CF911F910F91AE
:10519000FF90EF90DF90CF90BF90AF909F908F9057
:1051A00008952F923F924F925F926F927F928F92CB
:1051B0009F92AF92BF92CF92DF92EF92FF920F93A6
:1051C0001F93DF93CF93CDB7DEB72C970FB6F8942C
:1051D000DEBF0FBECDBF39014A015B016C011A83EE
:1051E0000983FC82EB8290C1BFEF4B2EB1E05B2EB6
:1051F000462057209201A62DA419AA87E1E06A163D
:1052000008F0E0E0872D831B21E0781608F020E00D
:10521000B82FBE1BBD8391E08B1708F090E0292BBF
:10522000E82DE21BEE8331E08E1608F030E0F92D18
:10523000F31BFF8361E09F1608F060E02A2D261B18
:10524000288771E0A21608F070E02B2C271A91E055
:10525000B21408F090E03C2C391A91E0C31408F025
:1052600090E03D2D391B398780E092E08419950943
:105270009C878B87AB81BC81A817B90710F4BC87CA
:10528000AB8780912804BA858B1709F58091290492
:10529000ED818E17E1F480912A04FE818F17B9F415
:1052A00080912B042F81821791F480912C043885F2
:1052B000831769F480912D04821549F480912E049E
:1052C000831529F480912F0499858917A9F10E94EB
:1052D000A52A882309F41FC14114510429F4AB8580
:1052E000BC85A050B24090F42A853D814E815F81FB
:1052F0006885722D832D998508E212E0E12CA2E0E9
:10530000FA2E0E94D02A882309F405C1FA85F09369
:1053100028042D81209329043E8130932A048F8113
:1053200080932B04988590932C0420922D04309226
:105330002E04A985A0932F04E981FA81E852F24056
:10534000A1F09201285D3D4FC90169817A814B85A9
:105350005C850E94EA44109230048B819C81AB856D
:10536000BC858A179B0709F4D4C028988091310422
:1053700082FF0FC02A853D814E815F816885722D35
:10538000832D998509E00E940843BA01A9019B0178
:1053900005C08A859D812E813F81AC0188E1B901DC
:1053A0000E941F27882311F0289AB5C0BEEFBEBD0A
:1053B0000DB407FEFDCF8DB58F778DBDE8E2F2E02D
:1053C00081918EBD0DB407FEFDCF8DB58F778DBD5C
:1053D00024E0E832F207A1F73FEF3EBD0DB407FE2F
:1053E000FDCF8DB58F778DBD8FEF8EBD0DB407FED0
:1053F000FDCF8DB58F778DBD9FEF9EBD0DB407FEA0
:10540000FDCF8DB58F778DBD8EB58F3FA9F78EBD42
:105410000DB407FEFDCF8DB58F778DBD8EB5289A63
:10542000A981BA81EB85FC85AE0FBF1FBA83A98322
:105430009F0140E050E060E070E080E090E0462CAA
:105440004E0EF1E0461408F0F0E0E72DE30FA1E086
:10545000E71508F0A0E05F2E5E0EF1E05E1608F0A2
:10546000F0E0AF2BE82DE40FB1E0E81508F0B0E074
:10547000EA2EEE0EF1E0EE1608F0F0E0BF2BE92D7B
:10548000E50FA1E0E91508F0A0E0FB2EFE0EF1E02B
:10549000FE1608F0F0E0AF2BEA2DE60FB1E0EA15BA
:1054A00008F0B0E00A2F0E0FF1E00E1708F0F0E060
:1054B000BF2BEB2DE70FA1E0EB1508F0A0E01B2FB1
:1054C0001E0FF1E01E1708F0F0E0AF2BEC2DE80FF7
:1054D000B1E0EC1508F0B0E0AE0FF1E0AE1708F067
:1054E000F0E0BF2B8D2D890F3201470158016D016E
:1054F000D80E2B813C818B859C85281B390B3C83E6
:105500002B8391E090933004AB81BC81AB2B09F0ED
:105510006BCE81E001C080E02C960FB6F894DEBF20
:105520000FBECDBFCF91DF911F910F91FF90EF90F4
:10553000DF90CF90BF90AF909F908F907F906F90B3
:105540005F904F903F902F900895EF92FF920F93AE
:105550001F9380913004882311F081E01CC02091BA
:1055600028043091290440912A0450912B04609121
:105570002C0470912D0480912E0490912F0408E248
:1055800012E0E12CE2E0FE2E0E94D128882319F0DF
:1055900081E0809330041F910F91FF90EF90089568
:1055A0002F923F924F925F926F927F928F929F9233
:1055B000AF92BF92CF92DF92EF92FF920F931F9321
:1055C000DF93CF93CDB7DEB729970FB6F894DEBF40
:1055D0000FBECDBF39014A015B016C012801FA827F
:1055E000E9826BC1FFEFEF2EF1E0FF2EE620F720FE
:1055F0009701A62DAE19AF83E1E06A1608F0E0E04E
:10560000872D831B21E0781608F020E0B82FBE1B01
:10561000BB8391E08B1708F090E0292B382C321ACD
:1056200031E0831408F030E0192D131B61E091166E
:1056300008F060E0EA2DE61BEC8371E0AE1608F09E
:1056400070E0FB2DF71BFD8391E0BF1608F090E0A2
:105650002C2C291A91E0C21408F090E02D2D291B62
:105660002E8380E092E08E199F0999878887A9810F
:10567000BA81A817B90710F4B987A88780912804C0
:10568000BF818B1709F580912904EB818E17E1F416
:1056900080912A048315C1F480912B048117A1F411
:1056A00080912C04FC818F1779F480912D042D8139
:1056B000821751F480912E04821531F480912F04C9
:1056C0003E81831709F483C00E94A52A882309F428
:1056D000FAC028988091310482FF0FC02F813B814E
:1056E000432D512F6C817D81822D9E8109E00E9486
:1056F0000843BA01A9019B0105C08F819B81232D1D
:10570000312FAC0181E1B9010E941F27882319F0D4
:10571000289A80E0D8C08FEF8EBD0DB407FEFDCF74
:105720008DB58F778DBD8EB58E3FA9F7E8E2F2E09B
:105730009FEF9EBD0DB407FEFDCF8DB58F778DBD5C
:105740008EB58083A4E0E732FA0711F03196F0CFEE
:10575000BF81B0932804EB81E093290430922A049E
:1057600010932B04FC81F0932C042D8120932D04A5
:1057700020922E043E8130932F049701285D3D4FE7
:10578000C201B901488559850E94EA448FEF8EBD58
:105790000DB407FEFDCF8DB58F778DBD8EB59FEF14
:1057A0009EBD0DB407FEFDCF8DB58F778DBD8EB537
:1057B000289AAFEFAEBD0DB407FEFDCFE885F985A1
:1057C0004E0E5F1E8DB58F778DBD8EB50DC09701C6
:1057D000285D3D4FC201B901488559850E94EA44C0
:1057E00028853985420E531E89819A81A885B985FD
:1057F0008A1B9B0B9A838983AD0160E070E080E097
:1058000090E0A0E0B0E0262C240E31E0261408F051
:1058100030E0272D250FE1E0271508F0E0E0332EDA
:10582000320E31E0321608F030E0E32B282D260F3F
:10583000F1E0281508F0F0E0EE2EE20E31E0E2167D
:1058400008F030E0F32B292D270FE1E0291508F0AF
:10585000E0E0FF2EF20E31E0F21608F030E0E32B2C
:105860002A2D280FF1E02A1508F0F0E00E2F020F84
:1058700031E0021708F030E0F32B2B2D290FE1E087
:105880002B1508F0E0E01F2F120F31E0121708F07F
:1058900030E0E32B2C2D2A0FF1E02C1508F0F0E07E
:1058A000E20F31E0E21708F030E0F32B8D2D8B0F83
:1058B0003101470158016F01D80EE981FA81EF2BC0
:1058C00009F090CE81E029960FB6F894DEBF0FBEA6
:1058D000CDBFCF91DF911F910F91FF90EF90DF909F
:1058E000CF90BF90AF909F908F907F906F905F9080
:1058F0004F903F902F9008952F923F924F925F923A
:105900006F927F928F929F92AF92BF92CF92DF92CF
:10591000EF92FF920F931F93DF93CF93CDB7DEB734
:1059200060970FB6F894DEBF0FBECDBF522E432E48
:105930004B835C836D837E838F8398871801370147
:105940009A8289820115110509F488C0E114F104D5
:1059500009F484C0CE14DF0408F480C0A114B1049B
:1059600009F47CC0882499248E189F08CE18DF087B
:10597000970140E050E060E070E080E090E0E98670
:105980003A874B875C876D877E878F87988B252D1D
:10599000342D4B815C816D817E818F819885810161
:1059A00073010E94D02A882309F458C0C101052D33
:1059B000142D2B813C814D815E816F817885E9803A
:1059C000FA80F5010995882309F44AC0C80CD91C4E
:1059D000C601860D971D8615970508F441C03985C7
:1059E000350D91E0351508F090E08A85840D21E0B1
:1059F000841508F020E0192F180F91E0181708F00F
:105A000090E0922B4B81940F81E0941708F080E096
:105A10006C81680F81E05C81651708F080E05D8132
:105A2000580F81E07D81571708F080E04E81480FC4
:105A300081E02E81421708F080E07F81870F21E00E
:105A4000871708F020E0532E412E9B836C835D83E3
:105A50004E838F838885820F888799CF80E001C02D
:105A600081E060960FB6F894DEBF0FBECDBFCF9138
:105A7000DF911F910F91FF90EF90DF90CF90BF903B
:105A8000AF909F908F907F906F905F904F903F90DE
:105A90002F9008958F929F92BF92CF92DF92EF92B4
:105AA000FF920F931F93CF93DF933C983D98229AD8
:105AB000219A209A2398289A83E58CBD8DB58E7FF4
:105AC0008DBD1092310490E02FEF2EBD0DB407FE76
:105AD000FDCF8DB58F778DBD8EB59F5F9A30A9F7BD
