:100000000C944A000C9467000C9467000C946700F1
:100010000C9467000C9467000C9467000C946700C4
:100020000C9467000C9467000C9467000C946700B4
:100030000C9467000C9467000C9467000C946700A4
:100040000C9467000C9467000C94A10A0C94670050
:100050000C9467000C9467000C9467000C94670084
:100060000C9467000C9467000C9467000C94670074
:100070000C9467000C9467000C9467000C94670064
:100080000C9467000C9467000C9467000C94670054
:100090000C94670011241FBECFEFD0E1DEBFCDBFAF
:1000A00011E0A0E0B1E0EEE8FFE100E00BBF02C02C
:1000B00007900D92A030B107D9F711E0A0E0B1E0B0
:1000C00001C01D92A232B107E1F70C9469000C94B3
:1000D0000000CF93DF93CDB7DEB7EF970FB6F8945C
:1000E000DEBF0FBECDBF88E0FE01B896DF01982FBE
:1000F0001D929A95E9F788E0FE01F096DF01982FAE
:100100001D929A95E9F788E0FE01F896DF01982F95
:100110001D929A95E9F780E00E940A01CE01889627
:100120009A878987CE01C0969F8B8E8BCE01C89609
:100130009CA38BA384E090E09B838A83CE010196ED
:100140000E944C018823D1F784E090E0988B8F8740
:10015000CE010E960E944C018823D1F784E090E0F6
:100160009D8F8C8FCE014B960E944C018823D1F736
:100170008B858036E9F38B85803219F08B85803A48
:1001800079F48C819D8101969D838C8381E090E040
:100190009B838A83CE0101960E944C018823D1F76C
:1001A000888D8036E9F3888D803219F0888D803A09
:1001B00079F489899A8901969A8B898B81E090E0FC
:1001C000988B8F87CE010E960E944C018823D1F721
:1001D0008DA18036E9F38DA1803219F08DA1803A8E
:1001E00079F48E8D9F8D01969F8F8E8F81E090E0A8
:1001F0009D8F8C8FCE014B960E944C018823D1F7A6
:100200008B858036E9F3888D8036E9F38DA18036C1
:10021000E9F390CFCF93DF93CDB7DEB723970FB637
:10022000F894DEBF0FBECDBF898389810E94660F1F
:10023000882319F41B821A8224C00E942D0CABED76
:10024000B0E0EBEDF0E08081886B8C93EFEDF0E0B7
:100250008FEF8083EEEDF0E08FEF8083ABEDB0E0C9
:10026000EBEDF0E08081826C8C93A8EDB0E0E8EDDE
:10027000F0E0808182608C93789481E090E09B83B1
:100280008A838A819B8123960FB6F894DEBF0FBEC6
:10029000CDBFDF91CF910895CF93DF93CDB7DEB778
:1002A0002E970FB6F894DEBF0FBECDBF9A87898711
:1002B000E985FA85818192818C30910501F5E98586
:1002C000FA8582858036B1F4ADEEB0E0E985FA8535
:1002D00080818295807F8C93AFEEB0E0EFEEF0E00E
:1002E00090818FE389238C93EEEEF0E01082E98514
:1002F000FA851082E985FA8512860C94940A0E9488
:100300006B0C8C838C818F3F11F40C948B0A8C8145
:100310009927880F991FFC01EA5FFE4F89859A850E
:1003200091838083E985FA8580E68287E985FA856D
:100330008C818083EDEEF0E08C818295807F8083DC
:100340008EEE90E09A83898308C0E981FA81108259
:1003500089819A8101969A83898389819A81883FCC
:10036000910598F3E985FA850180F281E02DFE87F9
:10037000ED878D859E858630910509F476C38D8540
:100380009E858730910530F58D859E85833091055A
:1003900009F4D3C18D859E858430910568F48D85DF
:1003A0009E8581309105E9F18D859E85823091058C
:1003B00009F402C10C94870A8D859E8584309105CD
:1003C00009F465C28D859E858530910509F4D1C2F9
:1003D0000C94870A8D859E858930910509F4C9C5DD
:1003E0008D859E858A30910570F48D859E85873038
:1003F000910509F4BEC38D859E858830910509F469
:10040000B3C40C94870A8D859E858A30910509F4C2
:10041000BDC68D859E858B30910509F453C70C941C
:10042000870AE985FA858485882309F457C0A3EFF4
:10043000B0E089859A850396FC0133968081282F48
:10044000220F220F220F89859A850396FC0132968E
:100450008081829586958770820F8C93A2EFB0E0A1
:1004600089859A850396FC0132968081282F220F78
:10047000220F220F89859A850396FC01319680818F
:10048000829586958770820F8C93A1EFB0E0898565
:100490009A850396FC0131968081282F220F220F26
:1004A000220F89859A850396FC0180818295869525
:1004B0008770820F8C93A0EFB0E089859A850396B0
:1004C000FC018081880F880F880F8C93AFEEB0E01D
:1004D000EFEEF0E0808180618C9328C0A3EFB0E064
:1004E00089859A850396FC0131968081282F229573
:1004F000220F207E89859A850396FC01808186954E
:1005000086958695820F8C93A2EFB0E089859A85B7
:100510000396FC0180818295880F807E8C93AFEEDC
:10052000B0E0EFEEF0E080818F7E8C931B8210C0F4
:10053000AAEFB0E0E985FA85208531858B8199277E
:10054000F901E80FF91F80818C938B818F5F8B837A
:10055000E985FA8597818B81891750F3E985FA85BA
:100560008385882341F0A0EFB0E0E0EFF0E08081E8
:1005700084608C9307C0A0EFB0E0E0EFF0E08081F2
:100580008B7F8C93AFEEB0E0EFEEF0E09081E985E9
:10059000FA858781892B8C93AFEEB0E0EFEEF0E027
:1005A00090818FE389238C93AFEEB0E0EFEEF0E023
:1005B000808180648C93B8C7E985FA858485882317
:1005C00009F457C0A3EFB0E089859A850396FC0132
:1005D00033968081282F220F220F220F89859A853A
:1005E0000396FC0132968081829586958770820FF2
:1005F0008C93A2EFB0E089859A850396FC01329630
:100600008081282F220F220F220F89859A85039639
:10061000FC0131968081829586958770820F8C933C
:10062000A1EFB0E089859A850396FC01319680811F
:10063000282F220F220F220F89859A850396FC010D
:100640008081829586958770820F8C93A0EFB0E0B1
:1006500089859A850396FC018081880F880F880F11
:100660008C93AFEEB0E0EFEEF0E0808180618C9390
:1006700028C0A3EFB0E089859A850396FC013196E6
:100680008081282F2295220F207E89859A850396C6
:10069000FC018081869586958695820F8C93A2EFCA
:1006A000B0E089859A850396FC0180818295880F48
:1006B000807E8C93AFEEB0E0EFEEF0E080818F7E35
:1006C0008C931B8210C0AAEFB0E0E985FA852085E3
:1006D00031858B819927F901E80FF91F80818C936F
:1006E0008B818F5F8B83E985FA8597818B81891751
:1006F00050F3E985FA851386A0EFB0E0E0EFF0E073
:1007000080818B7F8C93AFEEB0E0EFEEF0E09081D4
:10071000E985FA858781892B8C93AFEEB0E0EFEE07
:10072000F0E090818FE389238C93AFEEB0E0EFEEA1
:10073000F0E0808180648C93F7C6E985FA85848532
:10074000882309F457C0A3EFB0E089859A85039602
:10075000FC0133968081282F220F220F220F8985DA
:100760009A850396FC0132968081829586958770E2
:10077000820F8C93A2EFB0E089859A850396FC01E5
:1007800032968081282F220F220F220F89859A8589
:100790000396FC0131968081829586958770820F41
:1007A0008C93A1EFB0E089859A850396FC01319680
:1007B0008081282F220F220F220F89859A85039688
:1007C000FC018081829586958770820F8C93A0EFC3
:1007D000B0E089859A850396FC018081880F880F97
:1007E000880F8C93AFEEB0E0EFEEF0E08081806197
:1007F0008C9328C0A3EFB0E089859A850396FC010D
:1008000031968081282F2295220F207E89859A8516
:100810000396FC018081869586958695820F8C9340
:10082000A2EFB0E089859A850396FC0180818295CC
:10083000880F807E8C93AFEEB0E0EFEEF0E0808129
:100840008F7E8C93E985FA8581E08387A0EFB0E005
:10085000E0EFF0E0808184608C93AFEEB0E0EFEEEB
:10086000F0E09081E985FA858781892B8C93AFEE42
:10087000B0E0EFEEF0E090818FE389238C93AFEE50
:10088000B0E0EFEEF0E0808180648C934DC61D8275
:100890001E821F821886A7EFB0E0CE010596FC01EC
:1008A00033968081282F220F220F220FCE0105962A
:1008B000FC0132968081829586958770820F8C9399
:1008C000A6EFB0E0CE010596FC0132968081282F7C
:1008D000220F220F220FCE010596FC013196808156
:1008E000829586958770820F8C93A5EFB0E0CE013C
:1008F0000596FC0131968081982F990F990F990FD9
:10090000FE0135968081829586958770890F8C933C
:10091000A4EFB0E0FE0135968081880F880F880F24
:100920008C93AFEEB0E0EFEEF0E09081E985FA85D0
:100930008781892B8C93A4EFB0E0E4EFF0E0808115
:100940008B7F8C93A4EFB0E0E4EFF0E080818E7FAA
:100950008C93AFEEB0E0EFEEF0E090818FE389236F
:100960008C93AFEEB0E0EFEEF0E0808180688C9386
:10097000DBC51D821E821F821886A7EFB0E0CE0164
:100980000596FC0133968081282F220F220F220F1B
:10099000CE010596FC0132968081829586958770FE
:1009A000820F8C93A6EFB0E0CE010596FC01329643
:1009B0008081282F220F220F220FCE010596FC01E5
:1009C00031968081829586958770820F8C93A5EFF2
:1009D000B0E0CE010596FC0131968081982F990FE9
:1009E000990F990FFE0135968081829586958770C3
:1009F000890F8C93A4EFB0E0FE0135968081880FBB
:100A0000880F880F8C93AFEEB0E0EFEEF0E09081AE
:100A1000E985FA858781892B8C93E985FA85138688
:100A2000A4EFB0E0E4EFF0E0808184608C93A0EF6D
:100A3000B0E0E0EFF0E080818B7F8C93A4EFB0E03A
:100A4000E4EFF0E080818E7F8C93AFEEB0E0EFEECC
:100A5000F0E090818FE389238C93AFEEB0E0EFEE6E
:100A6000F0E0808180688C935FC51D821E821F82AA
:100A70001886A7EFB0E0CE010596FC013396808181
:100A8000282F220F220F220FCE010596FC0132964D
:100A90008081829586958770820F8C93A6EFB0E057
:100AA000CE010596FC0132968081282F220F220F5D
:100AB000220FCE010596FC013196808182958695A4
:100AC0008770820F8C93A5EFB0E0CE010596FC01F4
:100AD00031968081982F990F990F990FFE013596C5
:100AE0008081829586958770890F8C93A4EFB0E002
:100AF000FE0135968081880F880F880F8C93AFEEAA
:100B0000B0E0EFEEF0E09081E985FA858781892BEE
:100B10008C93E985FA8581E08387A4EFB0E0E4EF68
:100B2000F0E0808184608C93A0EFB0E0E0EFF0E033
:100B3000808184608C93AFEEB0E0EFEEF0E08081D6
:100B40008F7D8C93A4EFB0E0E4EFF0E080818E7FA6
:100B50008C93AFEEB0E0EFEEF0E090818FE389236D
:100B60008C93AFEEB0E0EFEEF0E0808180688C9384
:100B7000DBC4E985FA858485882309F457C0A3EF8F
:100B8000B0E089859A850396FC0133968081282FF1
:100B9000220F220F220F89859A850396FC01329637
:100BA0008081829586958770820F8C93A2EFB0E04A
:100BB00089859A850396FC0132968081282F220F21
:100BC000220F220F89859A850396FC013196808138
:100BD000829586958770820F8C93A1EFB0E089850E
:100BE0009A850396FC0131968081282F220F220FCF
:100BF000220F89859A850396FC01808182958695CE
:100C00008770820F8C93A0EFB0E089859A85039658
:100C1000FC018081880F880F880F8C93AFEEB0E0C5
:100C2000EFEEF0E0808180618C9328C0A3EFB0E00C
:100C300089859A850396FC0131968081282F22951B
:100C4000220F207E89859A850396FC0180818695F6
:100C500086958695820F8C93A2EFB0E089859A8560
:100C60000396FC0180818295880F807E8C93AFEE85
:100C7000B0E0EFEEF0E080818F7E8C938FEF9FEFFE
:100C8000AFEFBFEF8D839E83AF83B887A7EFB0E050
:100C9000CE010596FC0133968081282F220F220F6A
:100CA000220FCE010596FC013296808182958695B1
:100CB0008770820F8C93A6EFB0E0CE010596FC0101
:100CC00032968081282F220F220F220FCE01059607
:100CD000FC0131968081829586958770820F8C9376
:100CE000A5EFB0E0CE010596FC0131968081982FEA
:100CF000990F990F990FFE013596808182958695FF
:100D00008770890F8C93A4EFB0E0FE013596808147
:100D1000880F880F880F8C93AFEEB0E0EFEEF0E015
:100D20009081E985FA858781892B8C93A4EFB0E0C7
:100D3000E4EFF0E080818B7F8C93A4EFB0E0E4EFF0
:100D4000F0E0808181608C93AFEEB0E0EFEEF0E0F8
:100D500090818FE389238C93AFEEB0E0EFEEF0E06B
:100D6000808180688C93E0C3E985FA858485882337
:100D700009F457C0A3EFB0E089859A850396FC017A
:100D800033968081282F220F220F220F89859A8582
:100D90000396FC0132968081829586958770820F3A
:100DA0008C93A2EFB0E089859A850396FC01329678
:100DB0008081282F220F220F220F89859A85039682
:100DC000FC0131968081829586958770820F8C9385
:100DD000A1EFB0E089859A850396FC013196808168
:100DE000282F220F220F220F89859A850396FC0156
:100DF0008081829586958770820F8C93A0EFB0E0FA
:100E000089859A850396FC018081880F880F880F59
:100E10008C93AFEEB0E0EFEEF0E0808180618C93D8
:100E200028C0A3EFB0E089859A850396FC0131962E
:100E30008081282F2295220F207E89859A8503960E
:100E4000FC018081869586958695820F8C93A2EF12
:100E5000B0E089859A850396FC0180818295880F90
:100E6000807E8C93AFEEB0E0EFEEF0E080818F7E7D
:100E70008C938FEF9FEFAFEFBFEF8D839E83AF8398
:100E8000B887A7EFB0E0CE010596FC0133968081CC
:100E9000282F220F220F220FCE010596FC01329639
:100EA0008081829586958770820F8C93A6EFB0E043
:100EB000CE010596FC0132968081282F220F220F49
:100EC000220FCE010596FC01319680818295869590
:100ED0008770820F8C93A5EFB0E0CE010596FC01E0
:100EE00031968081982F990F990F990FFE013596B1
:100EF0008081829586958770890F8C93A4EFB0E0EE
:100F0000FE0135968081880F880F880F8C93AFEE95
:100F1000B0E0EFEEF0E09081E985FA858781892BDA
:100F20008C93E985FA851386A4EFB0E0E4EFF0E056
:100F3000808184608C93A0EFB0E0E0EFF0E08081EE
:100F40008B7F8C93A4EFB0E0E4EFF0E080818160D0
:100F50008C93AFEEB0E0EFEEF0E090818FE3892369
:100F60008C93AFEEB0E0EFEEF0E0808180688C9380
:100F7000DBC2E985FA858485882309F457C0A3EF8D
:100F8000B0E089859A850396FC0133968081282FED
:100F9000220F220F220F89859A850396FC01329633
:100FA0008081829586958770820F8C93A2EFB0E046
:100FB00089859A850396FC0132968081282F220F1D
:100FC000220F220F89859A850396FC013196808134
:100FD000829586958770820F8C93A1EFB0E089850A
:100FE0009A850396FC0131968081282F220F220FCB
:100FF000220F89859A850396FC01808182958695CA
:101000008770820F8C93A0EFB0E089859A85039654
:10101000FC018081880F880F880F8C93AFEEB0E0C1
:10102000EFEEF0E0808180618C9328C0A3EFB0E008
:1010300089859A850396FC0131968081282F229517
:10104000220F207E89859A850396FC0180818695F2
:1010500086958695820F8C93A2EFB0E089859A855C
:101060000396FC0180818295880F807E8C93AFEE81
:10107000B0E0EFEEF0E080818F7E8C938FEF9FEFFA
:10108000AFEFBFEF8D839E83AF83B887A7EFB0E04C
:10109000CE010596FC0133968081282F220F220F66
:1010A000220FCE010596FC013296808182958695AD
:1010B0008770820F8C93A6EFB0E0CE010596FC01FD
:1010C00032968081282F220F220F220FCE01059603
:1010D000FC0131968081829586958770820F8C9372
:1010E000A5EFB0E0CE010596FC0131968081982FE6
:1010F000990F990F990FFE013596808182958695FB
:101100008770890F8C93A4EFB0E0FE013596808143
:10111000880F880F880F8C93AFEEB0E0EFEEF0E011
:101120009081E985FA858781892B8C93E985FA85F9
:1011300081E08387A4EFB0E0E4EFF0E08081846099
:101140008C93A0EFB0E0E0EFF0E0808184608C93BE
:10115000AFEEB0E0EFEEF0E080818F7D8C93A4EFF6
:10116000B0E0E4EFF0E0808181608C93AFEEB0E01E
:10117000EFEEF0E090818FE389238C93AFEEB0E047
:10118000EFEEF0E0808180688C93CEC11B8210C0AE
:10119000AAEFB0E0E985FA85208531858B81992712
:1011A000F901E80FF91F80818C938B818F5F8B830E
:1011B000E985FA8597818B81891750F31D821E82FC
:1011C0001F821886A7EFB0E0CE010596FC0133968A
:1011D0008081282F220F220F220FCE010596FC01BD
:1011E00032968081829586958770820F8C93A6EFC8
:1011F000B0E0CE010596FC0132968081282F220FA7
:10120000220F220FCE010596FC0131968081829536
:1012100086958770820F8C93A5EFB0E0CE0105967E
:10122000FC0131968081982F990F990F990FFE013B
:1012300035968081829586958770890F8C93A4EF6F
:10124000B0E0FE0135968081880F880F880F8C935F
:10125000AFEEB0E0EFEEF0E09081E985FA858781AE
:10126000892B8C93E985FA8581E08387A4EFB0E030
:10127000E4EFF0E0808184608C93A0EFB0E0E0EFD9
:10128000F0E0808184608C93AFEEB0E0EFEEF0E0B0
:10129000808180628C93A4EFB0E0E4EFF0E0808185
:1012A0008E7F8C93AFEEB0E0EFEEF0E090818FE3B5
:1012B00089238C93AFEEB0E0EFEEF0E080818068A0
:1012C0008C9332C1E985FA858485882309F457C057
:1012D000A3EFB0E089859A850396FC01339680815F
:1012E000282F220F220F220F89859A850396FC0151
:1012F00032968081829586958770820F8C93A2EFBB
:10130000B0E089859A850396FC0132968081282F6A
:10131000220F220F220F89859A850396FC013196B0
:101320008081829586958770820F8C93A1EFB0E0C3
:1013300089859A850396FC0131968081282F220F9A
:10134000220F220F89859A850396FC018081829560
:1013500086958770820F8C93A0EFB0E089859A857F
:101360000396FC018081880F880F880F8C93AFEE65
:10137000B0E0EFEEF0E0808180618C9328C0A3EFB5
:10138000B0E089859A850396FC0131968081282FEB
:101390002295220F207E89859A850396FC01808103
:1013A000869586958695820F8C93A2EFB0E089850D
:1013B0009A850396FC0180818295880F807E8C93AC
:1013C000AFEEB0E0EFEEF0E080818F7E8C931B8279
:1013D00010C0AAEFB0E0E985FA85208531858B81C0
:1013E0009927F901E80FF91F80818C938B818F5F1A
:1013F0008B83E985FA8597818B81891750F38FEF6D
:101400009FEFAFEFBFEF8D839E83AF83B887A7EFCA
:10141000B0E0CE010596FC0133968081282F220F83
:10142000220F220FCE010596FC0132968081829513
:1014300086958770820F8C93A6EFB0E0CE0105965B
:10144000FC0132968081282F220F220F220FCE011D
:101450000596FC0131968081829586958770820F72
:101460008C93A5EFB0E0CE010596FC01319680810A
:10147000982F990F990F990FFE01359680818295CB
:1014800086958770890F8C93A4EFB0E0FE013596A6
:101490008081880F880F880F8C93AFEEB0E0EFEE5D
:1014A000F0E09081E985FA858781892B8C93E98525
:1014B000FA8581E08387A4EFB0E0E4EFF0E080817B
:1014C00084608C93A0EFB0E0E0EFF0E08081846076
:1014D0008C93AFEEB0E0EFEEF0E0808180628C9311
:1014E000A4EFB0E0E4EFF0E0808181608C93AFEE98
:1014F000B0E0EFEEF0E090818FE389238C93AFEEC4
:10150000B0E0EFEEF0E0808180688C930DC0E9855B
:10151000FA85128609C0E985FA858FE182878FEF07
:1015200090E09C878B8702C01C861B868B859C85E0
:101530002E960FB6F894DEBF0FBECDBFDF91CF91D0
:1015400008951F920F920FB60F9211242F933F937D
:101550004F935F936F937F938F939F93AF93BF93BB
:10156000EF93FF93CF93DF93CDB7DEB72597DEBF21
:10157000CDBF0E948C0F8B838B81992780749070D4
:10158000009749F08091000190910101019690939C
:101590000101809300018B8199278F7090700097D3
:1015A00049F080910201909103010196909303010B
:1015B000809302010E948C0F803809F037C1ECEE55
:1015C000F0E0808182958F709927880F991FFC0128
:1015D000EA5FFE4F808191819A838983E981FA8154
:1015E0009081ECEEF0E0808182958F70981751F039
:1015F00080910401909105010196909305018093DB
:10160000040114C1E981FA8182858B838B8188234F
:1016100031F08B818F3119F08B818F3F51F48091A4
:1016200004019091050101969093050180930401B6
:10163000FDC0ADEEB0E0E981FA8180818295807FC6
:101640008C930E94AC0C8B838B81282F33273D8396
:101650002C838C819D818032910501F12C813D810B
:10166000213231052CF48C819D81009769F0CFC027
:101670002C813D812034310509F4B9C08C819D81D4
:10168000803A910559F0C3C0809104019091050101
:1016900001969093050180930401C8C0EFEEF0E03D
:1016A00080818F70E981FA818783E981FA81808561
:1016B00091850E94F30CE0EFF0E08081992784701F
:1016C00090709595879595958795E981FA8183879F
:1016D000EFEEF0E080819927807190709595879565
:1016E000959587959595879595958795009709F494
:1016F0004CC0E981FA8181E0848789819A810396CF
:10170000DC011396E3EFF0E080818695869586955F
:101710008C9389819A810396DC011296E2EFF0E0C6
:101720008081982F969596959695E3EFF0E08081CD
:101730008295880F807E890F8C9389819A81039688
:10174000DC011196E1EFF0E08081982F9695969557
:101750009695E2EFF0E080818295880F807E890F78
:101760008C9389819A810396DC01E0EFF0E080811F
:10177000982F969596959695E1EFF0E08081829569
:10178000880F807E890F8C9322C0E981FA811486AC
:1017900089819A810396DC011196E3EFF0E0808164
:1017A0008295869587708C9389819A810396DC0156
:1017B000E2EFF0E08081982F929596959770E3EF95
:1017C000F0E08081880F880F880F890F8C93E98162
:1017D000FA818B818287AFEEB0E0EFEEF0E090818E
:1017E0008FE389238C93EEEEF0E010821FC0E98135
:1017F000FA818B818287AFEEB0E0EFEEF0E090816E
:101800008FE389238C93EEEEF0E010820FC0E98124
:10181000FA818B818287AFEEB0E0EFEEF0E090814D
:101820008FE389238C93EEEEF0E010822596F894F6
:10183000DEBFCDBFDF91CF91FF91EF91BF91AF910F
:101840009F918F917F916F915F914F913F912F91D8
:101850000F900FBE0F901F901895CF93DF93CDB7C9
:10186000DEB724970FB6F894DEBF0FBECDBF1C8243
:1018700026C0EDEEF0E08C818295807F80838EEE35
:1018800090E09A83898308C0E981FA811082898176
:101890009A8101969A83898389819A81883F9105EB
:1018A00098F31B8206C0EAEFF0E010828B818F5F15
:1018B0008B838B818830B8F38C818F5F8C838C8194
:1018C0008F30B8F224960FB6F894DEBF0FBECDBFAE
:1018D000DF91CF910895CF93DF93CDB7DEB72497F3
:1018E0000FB6F894DEBF0FBECDBFEDEEF0E0808105
:1018F00089831A821BC0EDEEF0E08A818295807F99
:101900008083EFEEF0E080819927807C90700097D3
:1019100051F4EDEEF0E0898180838A81282F33270E
:101920003C832B830EC08A818F5F8A838A818F30AC
:1019300010F3EDEEF0E0898180838FEF90E09C83DF
:101940008B838B819C8124960FB6F894DEBF0FBEEB
:10195000CDBFDF91CF910895CF93DF93CDB7DEB7A1
:1019600024970FB6F894DEBF0FBECDBFEFEEF0E0C8
:1019700080819927807C9070009729F42FEF30E0C8
:101980003C832B8325C0EEEEF0E08081898390EECE
:10199000898189238A838A81803231F08A818034E7
:1019A00019F08A81803A31F48A81282F33273C83C9
:1019B0002B830EC089818F718A838A81882331F0BD
:1019C0008A81282F33273C832B8302C01C821B82F1
:1019D0008B819C8124960FB6F894DEBF0FBECDBFDD
:1019E000DF91CF910895CF93DF93CDB7DEB72397E3
:1019F0000FB6F894DEBF0FBECDBF9B838A831982DA
:101A00000FC0898199279C018A819B81D901A80FE8
:101A1000B91FEAEFF0E080818C9389818F5F898321
:101A20008981282F3327EFEEF0E0808199278F708E
:101A30009070281739072CF323960FB6F894DEBF61
:101A40000FBECDBFDF91CF910895CF93DF93CDB778
:101A5000DEB767970FB6F894DEBF0FBECDBF8A8B97
:101A60001E82188688858B871B821D821C8281E0DE
:101A70008A878A898823A1F481E0888B88E08E8711
:101A800082E08D8782E08C879D858C85980F8E857E
:101A9000891B81508F8781E08F8381E0898799C07E
:101AA000E2EEF0E0808199278E779070959587958A
:101AB0001816190664F4E2EEF0E0808199278E771B
:101AC000907095958795982F9F5F9F8B02C081E0BE
:101AD0008F8B9F89988BE3EEF0E0808199278E7041
:101AE0009070959587951816190664F4E3EEF0E06A
:101AF000808199278E70907095958795982F9F5F1C
:101B00009E8B02C081E08E8B9E899F87E4EEF0E081
:101B1000808199278E709070959587958230910578
:101B200064F0E4EEF0E0808199278E7090709595D6
:101B30008795982F9F5F9D8B02C082E08D8B9D893A
:101B40009D87E4EEF0E080819927807790709595ED
:101B500087959595879595958795959587958230E5
:101B6000910594F0E4EEF0E0808199278077907001
:101B7000959587959595879595958795959587954D
:101B8000982F9F5F9C8B02C082E08C8B9C899C87E6
:101B90008F85282F33278D859927280F391F8C850E
:101BA0009927820F931F883091054CF09F858D8572
:101BB000980F8C85890F982F9F5F9B8B02C088E0C0
:101BC0008B8B9B899E8781E0888788858B871F8286
:101BD0001986198A1BC0EDEEF0E089898295807F15
:101BE00080838EEE90E09A83898308C0E981FA8130
:101BF000108289819A8101969A83898389819A8149
:101C0000883F910598F389898F5F898B89898F3007
:101C100010F34DC18F81813009F0B9C0E8EDF0E0DB
:101C200081E080838C819D8101969D838C831E82BF
:101C3000E2EEF0E088898150880F8083E3EEF0E0E7
:101C40008C85869599270197880F991F8295929583
:101C5000907F9827807F9827282F8F859927019735
:101C6000880F991F822B8083E4EEF0E08C85992702
:101C7000019782959295907F9827807F9827282FAB
:101C80008D8599270197880F991F822B816080830A
:101C9000E5EEF0E08C819D819695879596958795E8
:101CA000969587958083EDEEF0E01082EEEEF0E001
:101CB0001082EFEEF0E080E88083E8EDF0E08AE06B
:101CC0008083E9EDF0E0808199278470907000971F
:101CD000C1F3EAEDF0E08FEF808359C0EEEEF0E063
:101CE0008081898B89899927807290700097C9F0CB
:101CF000198618861A8681E08B83AFEEB0E0EFEE8E
:101D0000F0E090818FE389238C93E8EDF0E010827E
:101D1000E9EDF0E080819927847090700097C1F719
:101D200036C0898999278F719070009719F081E0EA
:101D300088871986EAEDF0E08081898B8989992767
:101D4000807290700097C1F08E81882359F4AAEDBB
:101D5000B0E0EAEDF0E0808180628C938E818F5F4D
:101D60008E830AC0AAEDB0E0EAEDF0E080818062E7
:101D70008C9381E088871986898999278F70907064
:101D8000009729F081E08887198681E08F83898513
:101D9000813009F4A3CF87C08B85882319F08D8506
:101DA0008F5F8D8781E08B878D85893078F18C8579
:101DB000883060F182E08D8782E08C871B868E857B
:101DC000893121F08E858F5F8E876DC088E08E8788
:101DD0008889803421F088898F5F888B64C0188659
:101DE0001B821A86AFEEB0E0EFEEF0E090818FE359
:101DF00089238C93E8EDF0E01082E9EDF0E080813A
:101E00009927847090700097C1F74DC08D858630FA
:101E100078F08D85282F33278C8599270196821796
:101E2000930744F48C858F5F8C878C858D8702C0E7
:101E30008D858C879D858C85980F8E85891B81501B
:101E40008F878F85893078F58F85882361F18C8520
:101E50009927AC01440F551F440F551F8F85282F1C
:101E600033278D859927820F931F019648175907AD
:101E7000D4F08C85282F33278C859927280F391F7C
:101E80008C859927A901480F591F8F85282F332743
:101E90008D859927820F931F0196841795071CF053
:101EA000188681E089878885813009F475CF8A8515
:101EB000813009F4AFCE8B81992767960FB6F894DD
:101EC000DEBF0FBECDBFDF91CF910895CF93DF93DB
:101ED000CDB7DEB721970FB6F894DEBF0FBECDBFEA
:101EE0008983E8EDF0E081E08083E2EEF0E082E0DB
:101EF0008083E3EEF0E08CE08083E4EEF0E087E3C3
:101F0000808381E090E021960FB6F894DEBF0FBE8B
:101F1000CDBFDF91CF910895CF93DF93CDB7DEB7DB
:101F200021970FB6F894DEBF0FBECDBF1982EBED3F
:101F3000F0E08081992782709070009731F0EAED8F
:101F4000F0E090818FE889238983EBEDF0E08081D8
:101F5000992780749070009749F0EAEDF0E0808155
:101F6000982F80EC98238981892B8983EAEDF0E012
:101F70009FE78981892380838981992721960FB6DC
:0E1F8000F894DEBF0FBECDBFDF91CF91089564
:00000001FF
