:100000000C944A000C9467000C9467000C946700F1
:100010000C9467000C9467000C9467000C946700C4
:100020000C9467000C9467000C9467000C946700B4
:100030000C9467000C9467000C9467000C946700A4
:100040000C9467000C9467000C9467000C94670094
:100050000C9467000C9467000C9467000C94670084
:100060000C9467000C9467000C9467000C94670074
:100070000C9467000C9467000C9467000C94670064
:100080000C9467000C9467000C9467000C94670054
:100090000C94670011241FBECFEFD0E1DEBFCDBFAF
:1000A00014E0A0E0B1E0ECE8FEE000E00BBF02C02D
:1000B00007900D92AC34B107D9F714E0ACE4B4E08A
:1000C00001C01D92AC34B107E1F70C9469000C94A7
:1000D0000000CF93DF93CDB7DEB76C970FB6F894DF
:1000E000DEBF0FBECDBFCE010296998F888FECE5A3
:1000F000F2E0FB8FEA8FF6E1FC8FEA8DFB8D00804A
:100100008A8D9B8D01969B8F8A8FE88DF98D008259
:10011000888D998D0196998F888F9C8D91509C8F99
:10012000EC8DEE2351F740E056E960E070E083E0AB
:100130000E94590180E091E09F938F930E945D029D
:100140000F900F9085E58983898199279F938F93DD
:1001500084E291E09F938F930E945D020F900F9035
:100160000F900F9089818F5F8983898199279F9351
:100170008F938FE591E09F938F930E945D020F9084
:100180000F900F900F9089818F5F898389819927C4
:100190009F938F9389E991E09F938F930E945D02D3
:1001A0000F900F900F900F9089818F5F89838981C5
:1001B00099279F938F9385ED91E09F938F930E9452
:1001C0005D020F900F900F900F9089818F5F898350
:1001D000898199279F938F9382E192E09F938F93D8
:1001E0000E945D020F900F900F900F9089818F5F9A
:1001F0008983CE01029605966DE00E94FD05CE0131
:10020000029605969F938F938DE492E09F938F9330
:100210000E945D020F900F900F900F90CE010296FA
:100220000E94370289E592E09F938F930E945D02BE
:100230000F900F90DECFCF93DF93CDB7DEB721972E
:100240000FB6F894DEBF0FBECDBF1982ECE2F0E02E
:100250009081ECE2F0E080819823ECE2F0E0808194
:100260008923817089838981992721960FB6F89413
:10027000DEBF0FBECDBFDF91CF910895CF93DF9347
:10028000CDB7DEB721970FB6F894DEBF0FBECDBF56
:100290001982ECE2F0E0808181708983898199275D
:1002A00021960FB6F894DEBF0FBECDBFDF91CF9180
:1002B0000895CF93DF93CDB7DEB727970FB6F894A5
:1002C000DEBF0FBECDBF89834A835B836C837D8392
:1002D000E1ECF0E01082A2ECB0E0E6ECF0E080812E
:1002E0008C93E0ECF0E080E48083E2ECF0E086E0E8
:1002F0008083E5ECF0E01082E4ECF0E01082E5ECC5
:10030000F0E01082E4ECF0E089E18083A0ECB0E062
:10031000E0ECF0E0808182608C938C91882319F46A
:100320001F821E8236C0A0ECB0E0E0ECF0E08081DD
:1003300080628C93A1ECB0E0E1ECF0E080818B7FF7
:100340008C93A1ECB0E0E1ECF0E08081982F898102
:100350008470892B8C93E2ECF0E089818873808330
:10036000A2ECB0E0E2ECF0E08081282F89819927AF
:1003700083709070880F991F822B8C93A1ECB0E052
:10038000E1ECF0E0808188618C9381E090E09F83D4
:100390008E838E819F8127960FB6F894DEBF0FBEA5
:1003A000CDBFDF91CF910895CF93DF93CDB7DEB767
:1003B000E0ECF0E08081992780789070880F892F99
:1003C000881F990B9927DF91CF910895CF93DF93E1
:1003D000CDB7DEB721970FB6F894DEBF0FBECDBF05
:1003E0008983E0ECF0E08081992780729070959588
:1003F00087959595879595958795959587959595E5
:100400008795009771F3E6ECF0E08981808389811C
:10041000992721960FB6F894DEBF0FBECDBFDF91AE
:10042000CF910895CF93DF93CDB7DEB721970FB665
:10043000F894DEBF0FBECDBFE0ECF0E080819927DD
:1004400080789070880F892F881F990B0097A1F3EF
:10045000E6ECF0E0808189838981992721960FB6A7
:10046000F894DEBF0FBECDBFDF91CF910895CF933B
:10047000DF93CDB7DEB722970FB6F894DEBF0FBE7D
:10048000CDBF9A8389830BC0E981FA81208189815C
:100490009A8101969A838983822F0E94E601E981DD
:1004A000FA818081882381F722960FB6F894DEBF07
:1004B0000FBECDBFDF91CF9108950F931F93CF93C0
:1004C000DF93CDB7DEB7AF970FB6F894DEBF0FBEA0
:1004D000CDBF1F861E868BE0888BCE01C896998F74
:1004E000888F8EA99FA99F8B8E8B74C3EE89FF89FD
:1004F0008081853221F08E85813009F047C08E8958
:100500009F8901969F8B8E8BEE89FF898081282F92
:1005100033273FA72EA78EA59FA58436910509F402
:1005200096C02EA53FA52536310594F48EA59FA52E
:100530008835910509F4FEC12EA53FA52336310566
:1005400069F18EA59FA58033910509F4BDC22EC324
:100550002EA53FA523373105E9F18EA59FA5843748
:1005600091053CF42EA53FA52C36310509F45CC05D
:100570001DC38EA59FA58537910509F437C12EA50A
:100580003FA52837310509F4D5C110C3EE89FF898D
:1005900080810E94E6011E861F8617C38F858130E9
:1005A00039F48CE60E94E60183E60E94E6010DC064
:1005B000288D398DC9010296998F888FF901808124
:1005C00091818D878D850E94E6018BE0888B1E8648
:1005D0001F86FBC28F85813039F48CE60E94E601CC
:1005E00083E70E94E6011BC0288D398DC901029660
:1005F000998F888FF901808191819D8B8C8B0AC0A6
:10060000EC89FD8980810E94E6018C899D89019693
:100610009D8B8C8BEC89FD898081882389F78BE009
:10062000888B1E861F86D1C28F85813031F48CE67F
:100630000E94E6011E861F8604C081E08E8781E04D
:100640008F878E899F8901979F8B8E8BBEC21A8A56
:10065000198A0DC08989282F3327CE014A96FC01BB
:10066000E20FF31F80E3808389898F5F898B8989FB
:100670008B3080F31DA28AE0898B8F85882309F453
:100680005DC0288D398DC9010496998F888FF90135
:1006900080819181A281B3818F839887A987BA874E
:1006A0008F819885A985BA85BB238CF481E08A8BDC
:1006B0008F819885A985BA85B095A09590958195EB
:1006C0009F4FAF4FBF4F8F839887A987BA8789897C
:1006D000082F11278F819885A985BA852AE030E0F7
:1006E00040E050E0BC01CD010E942B07DC01CB01B2
:1006F000282F205DCE014A96FC01E00FF11F2083D8
:100700008F819885A985BA852AE030E040E050E0E5
:10071000BC01CD010E942B07DA01C9018F839887A4
:10072000A987BA8789898150898B8F819885A98506
:10073000BA850097A105B105E1F1C9CF288D398DA2
:10074000C9010296998F888FF901808191819C87D8
:100750008B878B859C8599234CF481E08A8B8B85D4
:100760009C85909581959F4F9C878B878989E82FE1
:10077000FF278B859C852AE030E0B9010E94F606B0
:10078000282F205DCE014A96E80FF91F20838B8524
:100790009C852AE030E0B9010E94F606CB019C87D7
:1007A0008B8789898150898B8B859C85009709F07F
:1007B000DDCF8A89882319F08DE20E94E6018989BC
:1007C0008F5F898B98898989981710F48889898B1C
:1007D000898999279C01CE014A96820F931F0E9416
:1007E00037028BE0888B1E861F86EFC1198A0DC0E9
:1007F0008989282F3327CE014A96FC01E20FF31F87
:1008000080E3808389898F5F898B89898B3080F32E
:100810001DA28AE0898B8F85882309F446C0288D24
:10082000398DC9010496998F888FF9018081918152
:10083000A281B38189839A83AB83BC838989082F82
:10084000112789819A81AB81BC812AE030E040E0A8
:1008500050E0BC01CD010E940907DC01CB01282F2B
:10086000205DCE014A96FC01E00FF11F20838981B3
:100870009A81AB81BC812AE030E040E050E0BC01CD
:10088000CD010E940907DA01C90189839A83AB83EC
:10089000BC8389898150898B89819A81AB81BC8194
:1008A0000097A105B10579F1C9CF288D398DC9010E
:1008B0000296998F888FF901808191819E838D8323
:1008C0008989E82FFF278D819E812AE030E0B901D8
:1008D0000E94E206282F205DCE014A96E80FF91FFC
:1008E000208389898150898B8D819E812AE030E027
:1008F000B9010E94E206CB019E838D838D819E818A
:10090000009709F0DDCF89898F5F898B9889898964
:10091000981710F48889898B898999279C01CE01C1
:100920004A96820F931F0E9437028BE0888B1E86A7
:100930001F864BC1198A0DC08989282F3327CE0104
:100940004A96FC01E20FF31F80E3808389898F5F61
:10095000898B89898B3080F31DA28AE0898B8F85F2
:10096000882309F455C0288D398DC9010496998FC3
:10097000888FF90180819181A281B38189839A83D3
:10098000AB83BC833BC089818F708B8B8989282F77
:1009900033273DA72CA78B898A3028F48B89382FE1
:1009A000305D3BA710C0EE89FF898081883719F43C
:1009B00081E68AA702C091E49AA78B892AA5820FB3
:1009C000382F3A503BA7CE014A96ECA5FDA5E80F7B
:1009D000F91F8BA5808389819A81AB81BC81689442
:1009E00013F8B695A795979587951694D1F78983AF
:1009F0009A83AB83BC8389898150898B89819A8151
:100A0000AB81BC810097A105B10509F0BCCF45C001
:100A1000288D398DC9010296998F888FF9018081BF
:100A200091819E838D8335C08D818F708B8B898959
:100A3000282F332739A728A78B898A3028F48B8958
:100A4000382F305D3FA310C0EE89FF898081883741
:100A500019F481E68EA302C091E49EA38B892EA196
:100A6000820F382F3A503FA3CE014A96E8A5F9A548
:100A7000E80FF91F8FA180838D819E8192958295C9
:100A80008F7089279F7089279E838D8389898150E4
:100A9000898B8D819E81009739F689898F5F898B3B
:100AA00098898989981710F48889898B8989992769
:100AB0009C01CE014A96820F931F0E9437028BE061
:100AC000888B1E861F8681C08BE0888B8F85813046
:100AD00049F48CE60E94E60180E30E94E6011E864E
:100AE0001F8673C08E899F8901969F8B8E8BEE899E
:100AF000FF8980818B8B8B89803308F44CC08B8974
:100B00008A3308F048C08B898F70888B8E899F89C3
:100B100001969F8B8E8BEE89FF8980818B8B8B89D1
:100B2000803390F08B898A3378F488898295807F2E
:100B3000888B8B89982F9F708889892B888B8E89C9
:100B40009F8901969F8B8E8B8889482F4F7088894B
:100B500082958F7099279C01220F331FC901880F3E
:100B6000991F880F991F820F931F840F888B888984
:100B70008C3010F08BE0888B9BE08889292F281B14
:100B8000822F888B8E899F8902979F8B8E8B81E025
:100B90008E871F861AC080E30E94E601EE89FF89D6
:100BA00080810E94E6011E861F860FC08F858130DE
:100BB00019F48CE60E94E601EE89FF8980810E948B
:100BC000E6018BE0888B1E861F868E899F890196A1
:100BD0009F8B8E8BEE89FF898081882309F086CCDC
:100BE00080E090E0AF960FB6F894DEBF0FBECDBFA9
:100BF000DF91CF911F910F910895CF93DF93CDB7E0
:100C0000DEB729970FB6F894DEBF0FBECDBF9E8327
:100C10008D836F831A8281E089838F81882309F411
:100C20001982ED81FE811082C0C08A81282F33276E
:100C30008F81992701972817390769F48A819927A5
:100C40009C018D819E81F901E80FF91F10828A8134
:100C50008F5F8A83AEC00E9412028B838B81282F04
:100C6000332739872887888599858A30910509F146
:100C7000288539852B3031055CF488859985883045
:100C80009105B9F1288539852930310509F17DC0F3
:100C9000888599858A31910509F45CC02885398554
:100CA0002F37310531F1888599858D30910509F00F
:100CB0006CC08A8199279C018D819E81F901E80F82
:100CC000F91F1082808189838A818F5F8A836DC03A
:100CD00080E20E94E6018A8199279C018D819E8194
:100CE000F901E80FF91F80E280838A818F5F8A8390
:100CF0005CC08A81882321F487E00E94E60155C008
:100D00008DE00E94E6011C8206C080E20E94E6019E
:100D10008C818F5F8C839C818A819817B0F38DE0E2
:100D20000E94E6018A8181508A831C820EC08C81D8
:100D300099279C018D819E81F901E80FF91F80811F
:100D40000E94E6018C818F5F8C839C818A81981739
:100D500070F32BC08A81882321F487E00E94E6018A
:100D600024C08DE00E94E6011C8206C080E20E9441
:100D7000E6018C818F5F8C839C818A819817B0F308
:100D80008DE00E94E6011A8210C08B810E94E6016C
:100D90008A8199279C018D819E81F901E80FF91FB5
:100DA0008B8180838A818F5F8A838981882309F080
:100DB0003CCF29960FB6F894DEBF0FBECDBFDF91B2
:100DC000CF910895AA1BBB1B51E107C0AA1FBB1FEF
:100DD000A617B70710F0A61BB70B881F991F5A95C7
:100DE000A9F780959095BC01CD01089597FB092E38
:100DF00007260AD077FD04D0E5DF06D000201AF4DC
:100E0000709561957F4F0895F6F7909581959F4F66
:100E10000895A1E21A2EAA1BBB1BFD010DC0AA1F3B
:100E2000BB1FEE1FFF1FA217B307E407F50720F053
:100E3000A21BB30BE40BF50B661F771F881F991FCE
:100E40001A9469F760957095809590959B01AC0117
:100E5000BD01CF01089597FB092E05260ED057FD41
:100E600004D0D7DF0AD0001C38F450954095309557
:100E700021953F4F4F4F5F4F0895F6F7909580951E
:0C0E8000709561957F4F8F4F9F4F089534
:100E8C000D0A0A2E2E2E207072696E74665F6765CD
:100E9C00746C696E655F6578616D706C65202E2E63
:100EAC002E0D0A0048656C6C6F20776F726C642C89
:100EBC0020746865206D61676963206E756D62656D
:100ECC0072206973203D2030782558202E2E2E203C
:100EDC0066696674792D6669766520210D0A00486D
:100EEC00656C6C6F20776F726C642C207468652055
:100EFC006D61676963206E756D6265722069732020
:100F0C003D2030782558202E2E2E20666966747967
:100F1C002D73697820210D0A0048656C6C6F207761
:100F2C006F726C642C20746865206D616769632036
:100F3C006E756D626572206973203D20307825587E
:100F4C00202E2E2E2066696674792D736576656E5B
:100F5C0020210D0A0048656C6C6F20776F726C64F1
:100F6C002C20746865206D61676963206E756D62F5
:100F7C006572206973203D2030782558202E2E2E46
:100F8C002066696674792D68656967687420210D1F
:100F9C000A0048656C6C6F20776F726C642C20743F
:100FAC006865206D61676963206E756D626572207E
:100FBC006973203D2030782558202E2E2E2066690E
:100FCC006674792D6E696E6520210D0A000D0A4735
:100FDC006F743A2025730D0A000D0A002E2E2E2E4A
:100FEC002E202020202020202020202020202020E7
:100FFC0020000D0A20202020202020205F5F5F5F32
:10100C005F5F5F5F5F5F5F5F5F5F5F5F5F5F5F5FE4
:10101C005F5F5F5F5F5F5F5F5F0D0A2020202020B6
:10102C00202F5F5F5F2020205F5F5F5F5F5F5F5FF0
:10103C005F5F5F5F5F5F5F5F5F5F5F5F5F5F5F5FB4
:10104C007C0D0A20202020205F5F5F20207C207CEC
:10105C0020205F5F5F5F5F5F5F5F202020205F5F0E
:10106C005F5F2020205F0D0A202020202F202020D1
:10107C007C207C207C207C20205F2020205F205C3A
:10108C0020207C20205F5F7C207C207C0D0A20208F
:10109C00202F202F7C207C207C207C207C207C20FE
:1010AC007C207C207C207C207C207C5F5F20207C32
:1010BC00207C0D0A20202F202F207C207C207C20BF
:1010CC007C207C207C207C207C207C207C207C2034
:1010DC00205F5F7C207C207C0D0A202F202F5F203E
:1010EC007C207C207C207C207C207C207C207C2014
:1010FC007C207C207C207C5F5F20207C207C5F5FC0
:10110C000D0A2F5F5F5F5F7C7C5F7C207C5F7C20A7
:10111C007C5F7C207C5F7C207C5F7C207C5F5F5FC5
:10112C005F7C207C5F5F5F2F0D0A2C2D2D2D2D2DCC
:10113C002D2D2D2D2D2D2D2D2D2D2D2D2D2D2D2DD3
:10114C002D2D2D2D2D2D2D2D2D2D2D2D2D2D2C0DE4
:10115C000A7C204154393043414E7878204C6962E6
:10116C00726172792056657273696F6E20332E32FC
:10117C00302020202F202852290D0A272D2D2D2DEF
:10118C002D2D2D2D2D2D2D2D2D2D2D2D2D2D2D2D83
:10119C002D2D2D2D2D2D2D2D2D2D2D2D2D270D0ABC
:1011AC000A002D2D2D204154393043414E787820A2
:1011BC004C6962726172792056657273696F6E2028
:0C11CC00332E3230202D2D2D0D0A000096
:00000001FF
