:020000021000EC
:10E000000C944AF00C9467F00C9467F00C9467F051
:10E010000C9467F00C9467F00C9467F00C9467F024
:10E020000C9467F00C9467F00C9467F00C9467F014
:10E030000C9467F00C9467F00C9467F00C9467F004
:10E040000C9467F00C9467F00C9467F00C9467F0F4
:10E050000C9467F00C9467F00C9467F00C9467F0E4
:10E060000C9467F00C9467F00C9467F00C9467F0D4
:10E070000C9467F00C9467F00C9467F00C9467F0C4
:10E080000C9467F00C9467F00C9467F00C9467F0B4
:10E090000C9467F011241FBECFEFD0E1DEBFCDBFDF
:10E0A00011E0A0E0B1E0ECEDFFEF01E00BBF02C03A
:10E0B00007900D92AA30B107D9F712E0AAE0B1E0BB
:10E0C00001C01D92AE35B107E1F70C9469F00C94D4
:10E0D00000F00F931F93F89484B7882311F114BEB6
:10E0E0005098589A09B10095017080EF9FEF0E94F7
:10E0F00021FD8F3F19F0002319F013C0002389F090
:10E1000088EF9FEF0E9421FD082F89EF9FEF0E946B
:10E1100021FD1127102F00279927802B912B0E947A
:10E12000F2FC1092120155985D9A56985E9A699881
:10E13000719A6898709A53985B9A52985A9A8EEF8F
:10E140008093340100E04E9934C081E08093D80080
:10E1500082EF9FEF0E9421FD8F3F99F083EF9FEFA9
:10E160000E9421FD8093E20084EF9FEF0E9421FD39
:10E170008093E30085EF9FEF0E9421FD8093E400F0
:10E1800005C0802F0E94F2F28823D9F30E9491F2F9
:10E190008091D80082608093D800809112018823FA
:10E1A00011F40E94A4F40E94EEF48823E1F7009594
:10E1B00001708CB19CB12CB18923822380FD02C0F7
:10E1C0001092340189B199B129B18923822382FD4A
:10E1D00004C081E08093340105C0809134018E3FFA
:10E1E00009F4B1CF40E050E060E070E083E00E94CD
:10E1F0006BFC8823B9F385E50E942FFC0E94D1F9BE
:10E200000E9464FA882309F49ECFFACF0F930B0182
:10E21000FC0101E007BFE895112407B600FCFDCF23
:10E220000F9108950F9307B600FCFDCFFC0105E0A8
:10E2300007BFE89507B600FCFDCF0F9108950F9337
:10E2400007B600FCFDCFFC0103E007BFE89507B669
:10E2500000FCFDCF0F9108952BB733274427552796
:10E26000A90133272227AA27BB27282B392B4A2B82
:10E270005B2B4BBFF32FE22FD895202D822F9927B0
:10E2800008952BB7332744275527A9013327222781
:10E29000AA27BB27282B392B4A2B5B2B4BBFF32FED
:10E2A000E22FD895802D0BB63196011C0BBED89568
:10E2B000902D0895CF93DF93BC016070C0E0D0E053
:10E2C0008BB79927AA27BB27DC01992788279B01B1
:10E2D00044275527822B932BA42BB52BABBFF92FAB
:10E2E000E82FD895802D0BB63196011C0BBED89522
:10E2F000902D8F5F9F4F19F080E090E108C06E5F16
:10E300007F4F2196C038D105D9F680E090E070703B
:10E31000862B972BDF91CF910895DF92EF92FF929A
:10E320000F931F93DBB6EE24FF248701C801AA27B1
:10E33000BB278BBFC7010E941FF180E091E0A0E0E6
:10E34000B0E0E80EF91E0A1F1B1F90E0E91690EEE0
:10E35000F90691E0090790E0190741F7DBBE1F912C
:10E360000F91FF90EF90DF9008953F924F925F9250
:10E370006F927F928F929F92AF92BF92CF92DF92D5
:10E38000EF92FF920F931F93CF93DF934C012B01DA
:10E39000EA013FB6F8948B01007082C082E090E001
:10E3A000E80EF91E209709F446C0E414F50440F085
:10E3B000F40181914F01C82EDD242197C9F422C0B8
:10E3C0008BB79927AA27BB27DC01992788279701B4
:10E3D00044275527822B932BA42BB52BABBFF92FAA
:10E3E000E82FD895802DC82EDD24A414B50451F44F
:10E3F000F40181914F019927782F66276C297D2997
:10E40000219732C08BB79927AA27BB27DC01992710
:10E410008827950144275527822B932BA42BB52BB6
:10E42000ABBFF92FE82FD895802D9927782F662735
:10E430006C297D2919C08BB79927AA27BB27DC0136
:10E4400099278827970144275527822B932BA42BA4
:10E45000B52BABBFF92FE82FD895602D0BB63196B1
:10E46000011C0BBED895702DC7010E9406F10894BF
:10E47000611C711C82E090E0A80EB91E90E869163C
:10E48000710409F08BCFC8010E945AF1892B19F051
:10E49000C8010E941FF1C8010E9412F100501F4FD5
:10E4A000209741F058010894A11CB11C7801662402
:10E4B000772478CF002401E107BFE89507B600FC78
:10E4C000FDCF37FE01C07894DF91CF911F910F915E
:10E4D000FF90EF90DF90CF90BF90AF909F908F9084
:10E4E0007F906F905F904F903F900895CF93DF9310
:10E4F000CDB7DEB721970FB6F894DEBF0FBECDBF04
:10E50000698341E050E0BC01CE0101960E94B5F163
:10E5100021960FB6F894DEBF0FBECDBFDF91CF912D
:10E52000089520E030E0822F8295807F8093ED0077
:10E53000EEEEF0E01192E83FF105E1F72F5F3F4F7B
:10E540002F30310581F708954091ED0020E030E053
:10E55000822F8295807F8093ED008091EF00807CF8
:10E5600029F44093ED00822F992708952F5F3F4FA4
:10E570002F30310569F74093ED008FEF90E008955B
:10E580008091EF00807C19F48FEF90E008959091D6
:10E59000EE00892F807E803221F0803411F0803AA5
:10E5A00011F499270895892F8F7119F480E090E074
:10E5B000089599270895BC0140E050E005C0E60F9A
:10E5C000F71F8091FA008083242F8091EF004F5F26
:10E5D0005F4FE22FFF2799278F709070E817F90798
:10E5E00074F30895AF92BF92CF92DF92EF92FF92B1
:10E5F0000F931F93CF93DF93CDB7DEB721970FB65D
:10E60000F894DEBF0FBECDBF882359F471E0E72E2A
:10E6100063E018E0A2E0B2E070E051E040E001E029
:10E6200056C08091E2008E7719F461E0E62E09C0B1
:10E630008091E20099278E77907095958795E82EC6
:10E64000E3948091E3008E7011F461E009C0809141
:10E65000E30099278E70907095958795682F6F5F6E
:10E660008091E4008E70833010F4A2E009C08091A4
:10E67000E40099278E70907095958795A82FAF5FCD
:10E680008091E4008077813110F4B2E00CC0809179
:10E69000E40099278077907024E0959587952A95D6
:10E6A000E1F7B82FBF5F2B2F2A0F312D311DC90184
:10E6B000860F911D089714F418E005C01B2F1A0F40
:10E6C0006F5F160F615071E050E041E000E020E024
:10E6D00030E0822F8295807F8093ED00EEEEF0E0B7
:10E6E0001192E83FF105E1F72F5F3F4F2F303105E1
:10E6F00081F7FF24AA24BB24DD24CE2CCC0C3EEFD2
:10E70000C30E013019F081E0898381C00093D800E5
:10E710000894A11CB11CC092E2002B2F2695332730
:10E720002150304085E0220F331F8A95E1F7862F74
:10E7300099270197880F991F282B2093E3002A2FF0
:10E74000332721503040220F331F8B2F99270197F9
:10E7500034E0880F991F3A95E1F78160822B80930E
:10E76000E400C50123E0969587952A95E1F780930B
:10E77000E5001092ED001092EE0080E88093EF002B
:10E780008AE08093D8008091D90082FFFCCF8FEF80
:10E790008093DA00FF24B7CF8091EE00992785FFA0
:10E7A00011C08091EF008F738093EF001092D8001A
:10E7B0008091D90082FDFCCF198250E040E081E0D9
:10E7C000D82E7EC08F719070892B11F050E041E0FF
:10E7D0008091DA00282F332725FF11C0FF2041F454
:10E7E0008091DA0080628093DA00F1E0FF2E07C0AA
:10E7F0008091DA0080628093DA0050E041E02F706F
:10E800003070232B21F050E041E001E059C051303D
:10E8100019F256C07111AF5FA930F0F0B830F0F0C6
:10E82000193111F01F5F07C0E0E4EE1641F0E394E8
:10E83000F2E0CF0E18E0A2E0B2E070E0EBCF809102
:10E84000EF008F738093EF001092D8008091D90071
:10E8500082FDFCCFDD243BC0A63050F02A2F3327A9
:10E860008B2F99270196821793071CF4AB2FAF5F6C
:10E87000BA2F8A2F8B0F612F681B6150862F815012
:10E880008830E0F44B2F55272A2F33272F5F3F4F37
:10E89000260F311DCA01880F991F880F991F8217F3
:10E8A000930764F0CA01880F991F480F591F241756
:10E8B000350724F071E051E040E005C071E0AACFD7
:10E8C000413009F4A7CF2981213009F41ACF8D2DC9
:10E8D000992721960FB6F894DEBF0FBECDBFDF910A
:10E8E000CF911F910F91FF90EF90DF90CF90BF904D
:10E8F000AF90089581E08093D8001092E2001092CA
:10E90000E3001092E40081E090E0089580E291E05D
:10E910000E941FF78823D1F780E291E00E94CBF795
:10E920008130D1F3089580911E0190911F010696C8
:10E93000909324018093230110922C0181E0809315
:10E9400027010E9486F40895CF93DF931092560218
:10E95000109259021092530210925202C1E0D0E07C
:10E96000D0935502C093540210922B0187EF9FEF72
:10E970000E9421FD992724E0880F991F2A95E1F72D
:10E9800090931F0180931E01815F974020F01092A9
:10E990001F0110921E018AE091E090931C01809368
:10E9A0001B01109258021092570280EF97E090934B
:10E9B00019018093180182E090E0909315018093F3
:10E9C00014018CE291E09093290180932801D09367
:10E9D0002201C0932101DF91CF9108951F9388E018
:10E9E00080931A0180911E0190911F01909317014D
:10E9F0008093160183E191E00E941FF78823D1F7ED
:10EA000083E191E00E94CBF7482F8130C9F3823037
:10EA100019F480E090E011C220911E0130911F0195
:10EA20008091160190911701821B930B8230910502
:10EA300009F4B6C08330910530F4009781F0019756
:10EA400009F0F9C140C08430910509F483C18430D4
:10EA5000910508F409C1069709F0EDC1BDC11091F7
:10EA60000A0186EF9FEF0E9421FD181729F080917F
:10EA70000A018F3F09F0DFC190911A01913009F02E
:10EA8000DAC180911201882339F490931201109217
:10EA900056021092590204C01092120110922B01DA
:10EAA00080911E0190911F01909324018093230176
:10EAB00082E08093270184E080932C0180911201F1
:10EAC00080932D01B6C180911201882309F4B3C14E
:10EAD00080910A01803881F480910B018F3F09F009
:10EAE00097C180910C018F3F09F092C10E949FFF56
:10EAF000882309F03FC08CC1882309F089C1609147
:10EB00000D017727762F662780910E019927682BB4
:10EB1000792B80910B019927982F882720910C0140
:10EB20003327822B932B0E9402FD109258021092E1
:10EB3000570221E020932B018091520290915302C1
:10EB400090935D0280935C028091540290915502F3
:10EB500090935B0280935A0280911E0190911F0155
:10EB60000196909324018093230110922C0120930D
:10EB7000270113C080911E0190911F01019690936F
:10EB800024018093230110922C0181E080932701BE
:10EB900080912B01813009F04CC11092270149C1AD
:10EBA00080911201882309F446C180912B018130A4
:10EBB00009F02EC120911A016091570270915802FC
:10EBC000DB01AE5ABE4F90E008C0E92FFF27E65F99
:10EBD000FE4F80818D939F5F40E09217B1F7620FE7
:10EBE000711D7093580260935702693F710538F4A4
:10EBF00080915402909155026817790749F482E593
:10EC000091E00E942BFD482F10925802109257025B
:10EC100080911E0190911F01029690932401809390
:10EC2000230181E080932701442321F482E0809333
:10EC30002C01FFC04130A9F410922C0110922B013D
:10EC400080915C0290915D029093530280935202F6
:10EC500080915A0290915B029093550280935402E6
:10EC6000E8C010922B01D4C080911201882309F4CE
:10EC7000E2C02D5F3F4F3093240120932301109277
:10EC8000270160910D017727762F662780910E016D
:10EC90009927682B792B80910B019927982F88272A
:10ECA00020910C013327822B932B0E9402FD80912F
:10ECB00052029091530290935D0280935C02809186
:10ECC00054029091550290935B0280935A02809176
:10ECD0000A018823C1F488E08093270168E070E08E
:10ECE0008CE291E00E9418FE882319F40E9486F4B9
:10ECF000F5CF813029F4809154028093270117C009
:10ED00000E9493F416C0803809F082C00E94A7FDCB
:10ED1000882369F482E08093270120915202309188
:10ED20005302832F992780932C0120932D010E9459
:10ED300086F480915C0290915D02909353028093DF
:10ED4000520280915A0290915B02909355028093F7
:10ED5000540271C080911201882309F46CC0809123
:10ED60000A01833009F054C080911A018230A9F45D
:10ED700080910B01882309F04BC060E088EF9FEF82
:10ED80000E9418FD60E089EF9FEF0E9418FD8091BE
:10ED90006000886080936000FFCF8430C9F5809167
:10EDA0000B018130A9F560910C0188EF9FEF0E9463
:10EDB00018FD60910D0189EF9FEF0E9418FD809171
:10EDC0000C019927982F882720910D013327822B3A
:10EDD000932B0E94F2FC2FC080911201882359F1DD
:10EDE00080910A018823B9F0813029F480910B01C8
:10EDF0000E94FCFC10C0823031F0833049F48091D5
:10EE00000B010E94FCFC80910C010E94FFFC03C0DE
:10EE10000E9493F410C080911E0190911F010696EC
:10EE2000909324018093230181E080932701109225
:10EE30002C010E9486F481E090E01F910895CF9309
:10EE4000DF93DC0180E6ED018A8789819A81813038
:10EE5000910509F048C08EE08C9380EE8093ED0020
:10EE6000EEEEF0E01192E83FF105E1F78091EF005E
:10EE70008F7E8093EF00FD01948183819295990F9D
:10EE8000907E869586958695980F9093F300838162
:10EE90008295880F807E8093F2008091EF008F7EB4
:10EEA0008093EF00278190E009C0ED01E885F985A6
:10EEB000E90FF11D80818093FA009F5F9217A9F7F7
:10EEC0008091F0008B7F8093F0008091EF00822B87
:10EED0008093EF008091EF008F738093EF0080911B
:10EEE000EF00806451C0029711F08FEF50C01C9268
:10EEF0001092ED00EEEEF0E01192E83FF105E1F73F
:10EF00008091EF008F7E8093EF00FD0194818381DB
:10EF10009295990F907E869586958695980F9093F9
:10EF2000F30083818295880F807E8093F200809128
:10EF3000EF008F7E8093EF00968185819295990FE7
:10EF4000907E869586958695980F9093F70085819B
:10EF50008295880F807E8093F6008091F400846013
:10EF60008093F4008091F0008B7F8093F00080917B
:10EF7000F40081608093F4008091EF008F738093A0
:10EF8000EF008091EF0080688093EF0080E0992788
:10EF9000DF91CF9108951F93CF93DF93EC018A8582
:10EFA000882309F44BC08F3109F448C08F3F09F41E
:10EFB00045C088818295807F8093ED000E94C0F2D9
:10EFC000182F803261F0813218F4882331F02BC081
:10EFD0008034F9F0803A39F502C081E02DC080918B
:10EFE000EF008F708F83888599850E94DBF2809176
:10EFF000F3008295869587708C839091F2008091C2
:10F00000F300929596959770880F880F880F980F48
:10F010009B831A878091EF008F738093EF0010928B
:10F02000EE0080E009C01A878091EF008F73809313
:10F03000EF001092EE0082E0992702C082E090E09B
:10F04000DF91CF911F910895F999FECFFC01E1BDA9
:10F05000F2BDF89A80B599270895F999FECFFC0181
:10F06000E1BDF2BD60BDFA9AF99A0895DC010EC0C7
:10F070008C91F999FECFFB01E1BDF2BD80BDFA9AFA
:10F08000F99A11966F5F7F4F4150504041155105DD
:10F0900079F7089520E030E09FEFF999FECFF9016C
:10F0A000E1BDF2BDF89A80B58F3F41F0F999FECFEE
:10F0B000F901E1BDF2BD90BDFA9AF99A2F5F3F4F79
:10F0C00080E12030380748F308959C01DB010CC033
:10F0D000F999FECFF901E1BDF2BDF89A80B58D93A3
:10F0E0002F5F3F4F415050404115510589F708951A
:10F0F00080913401882339F48CB19CB12CB18923DF
:10F100008170282311C0813011F020E00DC089B139
:10F1100029B139B182238323992784709070959502
:10F12000879595958795282F822F99270895809107
:10F130003401882319F48CB181700CC0813011F036
:10F1400080E008C089B19927847090709595879563
:10F150009595879599270895CF92DF92EF92FF9228
:10F160000F931F93CF93DF939B01AC016115710542
:10F1700081059105B1F073E0220F331F441F551F25
:10F180007A95D1F760E074E284EF90E00E94CCFFC2
:10F190002F5F3F4F4F4F5F4F5695479537952795B8
:10F1A000D3C080913401882339F46898709A8EB165
:10F1B0006998719A8EB106C052985A9A8BB1539839
:10F1C0005B9A8BB1109281001092800010928200A5
:10F1D000109285001092840010928900109288008D
:10F1E00010928B0010928A0010928D0010928C0069
:10F1F00010928700109286000E9478F88823E1F32D
:10F200000E9497F88823E1F780918100887F8160D0
:10F21000809381000E9478F88823E1F30E9497F898
:10F220008823E1F780918400082F112780918500C1
:10F230009927982F8827082B192B0E9478F8882364
:10F24000E1F30E9497F88823E1F780918400C82EAB
:10F25000DD24809185009927F82EEE240E9478F80D
:10F260008823E1F30E9497F88823E1F780918400D6
:10F27000C82FDD27809185009927982F8827C82BD4
:10F28000D92B0E9497F88823E1F320918400909174
:10F29000850080918100887F809381008091340176
:10F2A000882339F4689870988EB1699871988EB1F6
:10F2B00006C052985A988BB153985B988BB13327FC
:10F2C000892F9927982F8827282B392B2C1B3D0B0A
:10F2D000C901880F991F3695279536952795BC014A
:10F2E000620F731F6017710708F450C0821B930BE5
:10F2F0009C010817190708F449C0C6018E299F29E7
:10F30000AC01401B510B6417750708F43FC042174E
:10F310005307E0F1C81BD90B6C177D07B8F1C21772
:10F32000D307A0F19801240F351F4C0F5D1F240F48
:10F33000351F220F331F76E0369527957A95E1F732
:10F340002F5F3F4F369527952150304080913401F3
:10F35000882361F4832F99278093C5002093C400EC
:10F360008091C00082608093C0000DC0813059F44C
:10F37000832F99278093CD002093CC008091C800E3
:10F3800082608093C80081E090E002C080E090E05D
:10F39000DF91CF911F910F91FF90EF90DF90CF9071
:10F3A0000895109256021092590210925302109230
:10F3B000520281E090E090935502809354021092A3
:10F3C0002B0108951F93182F82958F708A3008F0B3
:10F3D000895F805D0E942FFC812F8F708A3008F03A
:10F3E000895F805D0E942FFC1F910895CF93DF936A
:10F3F000833079F1843028F4813071F0823070F4F8
:10F4000009C0853089F1853030F1863079F18F3F40
:10F41000B1F52FC08EE22BC08BE429C080913F0153
:10F420000E94E2F9809140010E94E2F98DE30E947E
:10F430002FFCC0E0D0E006C0FF27E25CFE4F8381D6
:10F440000E94E2F9EC2F219680913E01E817A0F38B
:10F4500010C088E50CC080913E010E94E2F98091C5
:10F460003F010E94E2F905C08CE401C080E50E94E2
:10F470002FFC8DE00E942FFC8AE00E942FFCDF9180
:10F48000CF9108950F931F930E944AFC082F0E946A
:10F490002FFC0E944AFC182F0E942FFC0A3310F008
:10F4A0000F7407501A3310F01F741750802F829575
:10F4B000807F1F70812B90915101980F9093510183
:10F4C00099271F910F9108950F931F93CF93DF9367
:10F4D0000E944AFC8A33E1F70E942FFC10925101EE
:10F4E0000E9442FA809337010E9442FA082F1127A6
:10F4F000102F002710933601009335010E9442FA25
:10F500009927082B192B10933601009335010E947F
:10F5100042FA809338018823A9F090913701980F1F
:10F52000943009F46FC0953030F4992359F091303C
:10F5300009F07DC14FC0963009F47DC0993009F0C3
:10F5400076C19BC020913501309136013093530232
:10F55000209352028091370199279093550280930E
:10F56000540230935D0220935C0290935B0280937F
:10F570005A021092580210925702C0E0D0E010C018
:10F580000E9442FA2091570230915802F901EE5A36
:10F59000FE4F80832F5F3F4F3093580220935702D6
:10F5A0009C2F219680913701981750F30E9442FAC0
:10F5B00080915101882309F07CC0609157027091BD
:10F5C000580282E591E00E942BFD8F3F09F003C1B4
:10F5D00086E002C10E9442FA80915101882309F01D
:10F5E00068C080913501909136012FEF8F3F9207CF
:10F5F00031F480916000886080936000FFCF0E94AA
:10F60000F2FC18C1009159020E9442FA82958F7053
:10F61000809359020E9442FA882311F081E008C0C9
:10F620000E9442FA80915101882309F4FEC083E0D0
:10F630000E94F6F91FC08091350190913601892B07
:10F6400009F0F5C010915902009156020E9442FA49
:10F65000809356020E9442FA809359020E9442FA15
:10F6600080915101882309F4E0C083E00E94F6F9FB
:10F670001093560200935902DDC08091350190919C
:10F680003601892B09F0D3C0C9E3D1E00E9442FAC8
:10F69000899381E0CD33D807C9F70E9442FA082F39
:10F6A000833008F0C4C00E9442FA8091510188233F
:10F6B00011F083E0BDC0802F875F893051F0893021
:10F6C00008F4B5C08A3009F450C08B3009F0AFC0DF
:10F6D00096C08FEF0E94F6F960913B017727762F55
:10F6E000662780913C019927682B792B80913901FD
:10F6F0009927982F882720913A013327822B932B23
:10F700000E9402FD809152029091530290935D02FB
:10F7100080935C02809154029091550290935B0219
:10F7200080935A0280E180933E01209152023091F1
:10F730005302832F992780933F012093400160E17A
:10F7400070E081E491E00E9418FE882321F482E0B9
:10F750000E94F6F9E7CF813031F480915402809312
:10F760003E0182E039C085E037C060913B017727D8
:10F77000762F662780913C019927682B792B809101
:10F7800039019927982F882720913A013327822B16
:10F79000932B0E9402FD809152029091530290930C
:10F7A0005D0280935C028091540290915502909387
:10F7B0005B0280935A020E94A7FD882361F4209186
:10F7C000520230915302832F992780933E01209358
:10F7D0003F0184E001C080E00E94F6F980915C0264
:10F7E00090915D02909353028093520280915A024D
:10F7F00090915B0290935502809354021BC08091BC
:10F8000039018823A1F480913A018F3F81F48091DE
:10F810003B01882361F480913C01882341F40E94DC
:10F820009FFF882311F486E003C080E001C081E0DF
:10F830000E94F6F981E090E0DF91CF911F910F9146
:10F84000089580913401882319F48091C00002C08A
:10F850008091C800881F8827881F99270895982FAE
:10F8600020913401222329F48091C00085FD06C037
:10F87000F9CF8091C80085FFF5CF05C09093C600F1
:10F880008091C60004C09093CE008091CE00892F55
:10F890009927089520913401222359F48091C000C2
:10F8A0009927880F892F881F990B9195892B61F4CF
:10F8B000F3CF8091C8009927880F892F881F990B53
:10F8C0009195892B49F303C08091C60002C08091B5
:10F8D000CE00992708951F93182F80913401882313
:10F8E00089F41092C1008091C6008093C20080E428
:10F8F0008093C00086E08093C2001092C5001092F1
:10F90000C40010C01092C9008091CE008093CA003C
:10F9100080E48093C80086E08093CA001092CD00F6
:10F920001092CC0060E070E080E090E00E94ACF8C3
:10F93000882319F480E090E053C080913401912F26
:10F940009470412F4873212F3327882321F580910C
:10F95000C00080628093C0008091C1008B7F809343
:10F96000C1008091C100892B8093C1004093C200E7
:10F970008091C20023703070220F331F822B80933E
:10F98000C2008091C2008091C10088618093C10053
:10F990008091C10023C08091C80080628093C8001C
:10F9A0008091C9008B7F8093C9008091C900892B09
:10F9B0008093C9004093CA008091CA0023703070C0
:10F9C000220F331F822B8093CA008091CA0080913E
:10F9D000C90088618093C9008091C90081E090E0EE
:10F9E0001F91089520E78030920718F4FC010994D4
:10F9F00008950C9400000895809356020895809312
:10FA0000590208959093530280935202681B790B18
:10FA10006F5F7F4F709355026093540208951F9358
:10FA20001BB721E02BBF0E94B5F11BBF1F910895AA
:10FA30001F931BB721E02BBF0E9476F21BBF1F91C3
:10FA400008951F931BB721E02BBF0E942CF11BBF11
:10FA500099271F9108950F931F93CF93DF938C01E4
:10FA6000EB01809156028130C9F0813020F0843062
:10FA700009F065C03AC081EF9FEF0E9421FD8F3FE2
:10FA800009F05DC0809159028BBF60915202709164
:10FA90005302AE01C8010E94B5F10FC081EF9FEF84
:10FAA0000E9421FD8F3F09F04AC06091520270917F
:10FAB0005302AE01C8010E9436F880915202909123
:10FAC00053028C0F9D1F909353028093520280919A
:10FAD0005402909155028C1B9D0B9093550280937C
:10FAE000540220E0892B61F528C081EF9FEF0E942E
:10FAF00021FD8F3F59F46091520270915302605181
:10FB00007040AE01C8010E940FFDD7CF81EF9FEF7B
:10FB10000E9421FD8E3F99F48091520290915302F0
:10FB2000019769F4219759F4F80180818C3F39F4E9
:10FB30006CEF81EF9FEF0E9418FD21E001C02FEFD5
:10FB4000822F9927DF91CF911F910F910895809176
:10FB50005602813041F1813020F0843009F063C0D9
:10FB60003FC0809159028BBF809152029091530205
:10FB70000E942CF18F3F09F058C080915202909161
:10FB80005302019690935302809352028091540243
:10FB90009091550201979093550280935402892BBE
:10FBA00009F441C0E1CF80915202909153020E942A
:10FBB00024F88F3FD1F58091520290915302019623
:10FBC0009093530280935202809154029091550277
:10FBD00001979093550280935402892B21F1E3CF32
:10FBE0008091520290915302805190400E9421FDD9
:10FBF0002091520230915302F901E050FF4F908161
:10FC0000891799F42F5F3F4F30935302209352028C
:10FC100080915402909155020197909355028093E0
:10FC20005402892BE9F681E001C080E0992708950C
:10FC3000EF92FF920F931F93CF93DF937C01EB0121
:10FC400080915602823009F49FC0833030F48823BB
:10FC500071F0813009F068C153C0843009F403C1E8
:10FC6000843008F4CBC0853009F05EC129C181EF32
:10FC70009FEF0E9421FD8F3F39F081EF9FEF0E949F
:10FC800021FD8E3F09F050C1809159028BBF209712
:10FC900041F080915402909155028C179D0708F411
:10FCA000EC0100E010E01DC08091520290915302DF
:10FCB0000E942CF1F70181937F0180915202909173
:10FCC0005302019690935302809352028091540202
:10FCD00090915502019790935502809354020F5FC3
:10FCE0001F4F0C171D0701F7809154029091550288
:10FCF000892B09F01BC1D0935502C093540242C016
:10FD000081EF9FEF0E9421FD8F3F39F081EF9FEF40
:10FD10000E9421FD8E3F09F007C10091540210910D
:10FD20005502C017D10708F48E01C0E0D0E01CC016
:10FD300080915202909153020E9424F8F70181931E
:10FD40007F01809152029091530201969093530249
:10FD500080935202809154029091550201979093A2
:10FD60005502809354022196C017D10709F780915C
:10FD7000540290915502892B09F0D8C01093550276
:10FD80000093540281E0D3C0209154023091550277
:10FD90006217730708F49B01F70140E050E0AEE101
:10FDA00071E867E927C08091520290915302009751
:10FDB00011F4A0830AC08130910511F4708305C04D
:10FDC000029711F4608301C01082809152029091D9
:10FDD00053020196909353028093520280915402F1
:10FDE00090915502019790935502809354024F5F72
:10FDF0005F4F319642175307B1F68BC020915402E2
:10FE0000309155026217730708F49B01F70140E037
:10FE100050E0A4E071ED62ED22C080915202909119
:10FE20005302009711F4A08305C0019711F4708369
:10FE300001C0608380915202909153020196909389
:10FE4000530280935202809154029091550201977F
:10FE500090935502809354024F5F5F4F3196421743
:10FE60005307D9F656C000915402109155026017FD
:10FE7000710708F48B01C0E0D0E01EC080915202EF
:10FE800090915302805190400E9421FDF70181938F
:10FE90007F018091520290915302019690935302F8
:10FEA0008093520280915402909155020197909351
:10FEB0005502809354022196C017D107F9F657CF07
:10FEC00020915402309155026217730708F49B0188
:10FED00040E050E0D7011AC0E0915202F091530285
:10FEE00080818D938091520290915302019690935C
:10FEF00053028093520280915402909155020197CF
:10FF000090935502809354024F5F5F4F42175307FF
:10FF100019F78091540290915502892B39F430934E
:10FF20005502209354022ECF8FEF01C080E0992715
:10FF3000DF91CF911F910F91FF90EF9008958091E5
:10FF40005602813069F0813018F0843011F512C00A
:10FF50000E948DF16FEF81EF9FEF0E9418FD08C0A6
:10FF600081EF9FEF0E9421FD8F3F99F40E944AF894
:10FF700081E010C081EF9FEF0E9421FD8F3F49F487
:10FF80004AE050E060EF7FEF80E091E00E940FFDDB
:10FF9000EFCF80E099270895A1E21A2EAA1BBB1B80
:10FFA000FD010DC0AA1FBB1FEE1FFF1FA217B30745
:10FFB000E407F50720F0A21BB30BE40BF50B661F5B
:10FFC000771F881F991F1A9469F76095709580951F
:0CFFD00090959B01AC01BD01CF0108958C
:0AFFDC00FFFFFFFFFFFFFF00000022
:0AFFF000FFFFFFFFFFFFFF0000000E
:06FFFA000E94B5F108951C
:040000031000E00009
:00000001FF
