:100000000C944A000C9465000C9465000C946500F7
:100010000C9465000C9465000C9465000C946500CC
:100020000C9465000C9465000C9465000C946500BC
:100030000C9465000C9465000C9465000C946500AC
:100040000C9465000C9465000C9465000C9465009C
:100050000C9465000C9465000C9465000C9465008C
:100060000C9465000C9465000C9465000C9465007C
:100070000C9465000C9465000C9465000C9465006C
:100080000C9465000C9465000C9465000C9465005C
:100090000C94650011241FBECFEFD0E1DEBFCDBFB1
:1000A00011E0A0E0B1E0E8EBFFE102C005900D92A5
:1000B000A030B107D9F711E0A0E0B1E001C01D9276
:1000C000A030B107E1F70C9467000C940000CF93C7
:1000D000DF93CDB7DEB7CF54D0400FB6F894DEBF74
:1000E0000FBECDBFFE01E05CFF4F10821182128275
:1000F0001382FE01EC5BFF4F80E28083FE01EC5B2C
:10010000FF4F81E28183FE01EC5BFF4F82E282833D
:10011000FE01EC5BFF4F83E28383FE01E85BFF4F50
:1001200080EF8083FE01E85BFF4F81EF8183FE015A
:10013000E85BFF4F82EF8283FE01E85BFF4F83EFB6
:100140008383FE01E45BFF4F1082118212821382CF
:100150001A8618861F821E821D8219821A821B82AD
:100160001C82A4E2B0E0E4E2F0E0808181608C9344
:10017000A5E2B0E0E5E2F0E080818E7F8C93A4E21E
:10018000B0E0E4E2F0E0808182608C93A5E2B0E030
:10019000E5E2F0E080818D7F8C93A4E2B0E0E4E2C0
:1001A000F0E0808184608C93A5E2B0E0E5E2F0E0CD
:1001B00080818B7F8C9380E00E943F05198614C05C
:1001C000EDEEF0E089858295807F80831B8606C0F6
:1001D000EAEFF0E010828B858F5F8B878B8588300C
:1001E000B8F389858F5F898789858F3048F381E0EF
:1001F00090E0988B8F87188ECE01805C9F4F9D8BEF
:100200008C8B84E08B8B80E290E09D8F8C8F1DA285
:10021000CE018C5B9F4F9AA389A384E088A380EFD3
:1002200090E09AA789A71AAACE01885B9F4F9FA743
:100230008EA784E08DA780E093E09FAB8EAB1FAECE
:10024000CE01845B9F4F9CAF8BAF84E08AAF88E088
:1002500090E09E878D8782E090E09B8F8A8F82E07E
:1002600090E098A78FA388E090E09DAB8CABCE0187
:100270000C960E946A058823D1F781E08A87CE0117
:10028000C3960E946A058823D1F781E08E8300C05F
:10029000ECEDF0E08081882341F0A5E2B0E0E5E2FA
:1002A000F0E0808184608C9307C0A5E2B0E0E5E2D5
:1002B000F0E080818B7F8C93E9EDF0E080819927DD
:1002C00088719070009751F0A5E2B0E0E5E2F0E0AF
:1002D000808181608C9381E08D8307C0A5E2B0E0CE
:1002E000E5E2F0E080818E7F8C938D81882391F010
:1002F00089819A81AB81BC810196A11DB11D898341
:100300009A83AB83BC83A3E2B0E0E3E2F0E08081B8
:1003100082608C93CE010C960E94B40E882311F457
:1003200082E08A87CE0149960E94B40E882311F498
:1003300082E08887CE0186960E94B40E882311F44D
:1003400082E08F83CE01C3960E94B40E882311F4FD
:1003500082E08E8389819A81AB81BC818230910554
:10036000A105B105D1F4A8EDB0E0E8EDF0E08081A1
:1003700080688C93A8EDB0E0E8EDF0E090818FE725
:1003800089238C9389819A81AB81BC810196A11DBF
:10039000B11D89839A83AB83BC8389819A81AB81A8
:1003A000BC8180319105A105B10509F071CF89812A
:1003B0009A81AB81BC810196A11DB11D89839A836D
:1003C000AB83BC83CE0149960E946A058823D1F78E
:1003D00081E088875DCFCF93DF93CDB7DEB72397DA
:1003E0000FB6F894DEBF0FBECDBF1B821BC0EDEE73
:1003F000F0E08B818295807F80838EEE90E09A83FF
:10040000898308C0E981FA81108289819A810196E5
:100410009A83898389819A81883F910598F38B819A
:100420008F5F8B838B818F3010F323960FB6F894F8
:10043000DEBF0FBECDBFDF91CF910895CF93DF9385
:10044000CDB7DEB724970FB6F894DEBF0FBECDBF91
:10045000EDEEF0E0808189831A821BC0EDEEF0E0C2
:100460008A818295807F8083EFEEF0E080819927FA
:10047000807C9070009751F4EDEEF0E089818083EC
:100480008A81282F33273C832B830EC08A818F5F7C
:100490008A838A818F3010F3EDEEF0E089818083CA
:1004A0008FEF90E09C838B838B819C8124960FB689
:1004B000F894DEBF0FBECDBFDF91CF910895CF93EB
:1004C000DF93CDB7DEB724970FB6F894DEBF0FBE2B
:1004D000CDBFEFEEF0E080819927807C907000978F
:1004E00029F42FEF30E03C832B8325C0EEEEF0E0C3
:1004F0008081898390EE898189238A838A818032F1
:1005000031F08A81803419F08A81803A31F48A810D
:10051000282F33273C832B830EC089818F718A83D8
:100520008A81882331F08A81282F33273C832B83CB
:1005300002C01C821B828B819C8124960FB6F8948A
:10054000DEBF0FBECDBFDF91CF910895CF93DF9374
:10055000CDB7DEB723970FB6F894DEBF0FBECDBF81
:100560009B838A8319820FC0898199279C018A8184
:100570009B81D901A80FB91FEAEFF0E080818C932D
:1005800089818F5F89838981282F3327EFEEF0E0FF
:10059000808199278F709070281739072CF3239644
:1005A0000FB6F894DEBF0FBECDBFDF91CF91089597
:1005B000CF93DF93CDB7DEB767970FB6F894DEBF62
:1005C0000FBECDBF8A8B1E82188688858B871B82C3
:1005D0001D821C8281E08A878A898823A1F481E0B8
:1005E000888B88E08E8782E08D8782E08C879D856E
:1005F0008C85980F8E85891B81508F8781E08F8332
:1006000081E0898799C0E2EEF0E0808199278E77BA
:100610009070959587951816190664F4E2EEF0E04F
:10062000808199278E77907095958795982F9F5FF9
:100630009F8B02C081E08F8B9F89988BE3EEF0E067
:10064000808199278E709070959587951816190658
:1006500064F4E3EEF0E0808199278E7090709595B8
:100660008795982F9F5F9E8B02C081E08E8B9E891D
:100670009F87E4EEF0E0808199278E7090709595C9
:1006800087958230910564F0E4EEF0E0808199274F
:100690008E70907095958795982F9F5F9D8B02C067
:1006A00082E08D8B9D899D87E4EEF0E08081992723
:1006B0008077907095958795959587959595879571
:1006C000959587958230910594F0E4EEF0E0808175
:1006D00099278077907095958795959587959595AD
:1006E000879595958795982F9F5F9C8B02C082E098
:1006F0008C8B9C899C878F85282F33278D85992704
:10070000280F391F8C859927820F931F88309105F8
:100710004CF09F858D85980F8C85890F982F9F5F52
:100720009B8B02C088E08B8B9B899E8781E08887AA
:1007300088858B871F821986198A1BC0EDEEF0E031
:1007400089898295807F80838EEE90E09A83898369
:1007500008C0E981FA81108289819A8101969A8381
:10076000898389819A81883F910598F389898F5F70
:10077000898B89898F3010F34DC18F81813009F0C9
:10078000B9C0E8EDF0E081E080838C819D81019625
:100790009D838C831E82E2EEF0E088898150880F71
:1007A0008083E3EEF0E08C85869599270197880F8A
:1007B000991F82959295907F9827807F9827282F60
:1007C0008F8599270197880F991F822B8083E4EEEC
:1007D000F0E08C859927019782959295907F9827D4
:1007E000807F9827282F8D8599270197880F991F3B
:1007F000822B81608083E5EEF0E08C819D8196956F
:10080000879596958795969587958083EDEEF0E090
:100810001082EEEEF0E01082EFEEF0E080E88083F0
:10082000E8EDF0E08AE08083E9EDF0E0808199274F
:10083000847090700097C1F3EAEDF0E08FEF808351
:1008400059C0EEEEF0E08081898B8989992780720A
:1008500090700097C9F0198618861A8681E08B83FC
:10086000AFEEB0E0EFEEF0E090818FE389238C9360
:10087000E8EDF0E01082E9EDF0E0808199278470E6
:1008800090700097C1F736C0898999278F71907051
:10089000009719F081E088871986EAEDF0E0808101
:1008A000898B89899927807290700097C1F08E8119
:1008B000882359F4AAEDB0E0EAEDF0E0808180628F
:1008C0008C938E818F5F8E830AC0AAEDB0E0EAED33
:1008D000F0E0808180628C9381E088871986898925
:1008E00099278F709070009729F081E0888719868A
:1008F00081E08F838985813009F4A3CF87C08B8500
:10090000882319F08D858F5F8D8781E08B878D859A
:10091000893078F18C85883060F182E08D8782E0C3
:100920008C871B868E85893121F08E858F5F8E871F
:100930006DC088E08E878889803421F088898F5F38
:10094000888B64C018861B821A86AFEEB0E0EFEE8B
:10095000F0E090818FE389238C93E8EDF0E0108242
:10096000E9EDF0E080819927847090700097C1F7DD
:100970004DC08D85863078F08D85282F33278C8566
:10098000992701968217930744F48C858F5F8C8793
:100990008C858D8702C08D858C879D858C85980F71
:1009A0008E85891B81508F878F85893078F58F855B
:1009B000882361F18C859927AC01440F551F440FA2
:1009C000551F8F85282F33278D859927820F931FD9
:1009D000019648175907D4F08C85282F33278C852A
:1009E0009927280F391F8C859927A901480F591F6E
:1009F0008F85282F33278D859927820F931F019686
:100A0000841795071CF0188681E0898788858130D6
:100A100009F475CF8A85813009F4AFCE8B8199278F
:100A200067960FB6F894DEBF0FBECDBFDF91CF91B2
:100A30000895CF93DF93CDB7DEB721970FB6F89423
:100A4000DEBF0FBECDBF8983E8EDF0E081E080839B
:100A5000E2EEF0E088E08083E3EEF0E08CE080837B
:100A6000E4EEF0E087E3808381E090E021960FB62A
:100A7000F894DEBF0FBECDBFDF91CF910895CF9325
:100A8000DF93CDB7DEB723970FB6F894DEBF0FBE66
:100A9000CDBF898389810E941905882319F41B829F
:100AA0001A820DC00E94EB01A8EDB0E0E8EDF0E085
:100AB000808182608C9381E090E09B838A838A812D
:100AC0009B8123960FB6F894DEBF0FBECDBFDF919A
:100AD000CF910895CF93DF93CDB7DEB72E970FB6A2
:100AE000F894DEBF0FBECDBF9A878987E985FA8566
:100AF000818192818C30910501F5E985FA858285A5
:100B00008036B1F4ADEEB0E0E985FA85808182955A
:100B1000807F8C93AFEEB0E0EFEEF0E090818FE35A
:100B200089238C93EEEEF0E01082E985FA8510823D
:100B3000E985FA8512860C94A70E0E941E028C830A
:100B40008C818F3F11F40C949E0EE985FA8580E626
:100B50008287E985FA858C818083EDEEF0E08C81D7
:100B60008295807F80838EEE90E09A83898308C08F
:100B7000E981FA81108289819A8101969A83898319
:100B800089819A81883F910598F3E985FA850180EA
:100B9000F281E02DFE87ED878D859E85863091055B
:100BA00009F476C38D859E858730910530F58D8556
:100BB0009E858330910509F4D3C18D859E8584304F
:100BC000910568F48D859E8581309105E9F18D85CB
:100BD0009E858230910509F402C10C949A0E8D8590
:100BE0009E858430910509F465C28D859E8585308A
:100BF000910509F4D1C20C949A0E8D859E85893099
:100C0000910509F4C9C58D859E858A30910570F4DA
:100C10008D859E858730910509F4BEC38D859E859F
:100C20008830910509F4B3C40C949A0E8D859E8585
:100C30008A30910509F4BDC68D859E858B3091055E
:100C400009F453C70C949A0EE985FA8584858823A4
:100C500009F457C0A3EFB0E089859A850396FC019B
:100C600033968081282F220F220F220F89859A85A3
:100C70000396FC0132968081829586958770820F5B
:100C80008C93A2EFB0E089859A850396FC01329699
:100C90008081282F220F220F220F89859A850396A3
:100CA000FC0131968081829586958770820F8C93A6
:100CB000A1EFB0E089859A850396FC013196808189
:100CC000282F220F220F220F89859A850396FC0177
:100CD0008081829586958770820F8C93A0EFB0E01B
:100CE00089859A850396FC018081880F880F880F7B
:100CF0008C93AFEEB0E0EFEEF0E0808180618C93FA
:100D000028C0A3EFB0E089859A850396FC0131964F
:100D10008081282F2295220F207E89859A8503962F
:100D2000FC018081869586958695820F8C93A2EF33
:100D3000B0E089859A850396FC0180818295880FB1
:100D4000807E8C93AFEEB0E0EFEEF0E080818F7E9E
:100D50008C931B8210C0AAEFB0E0E985FA8520854C
:100D600031858B819927F901E80FF91F80818C93D8
:100D70008B818F5F8B83E985FA8597818B818917BA
:100D800050F3E985FA858385882341F0A0EFB0E030
:100D9000E0EFF0E0808184608C9307C0A0EFB0E0CA
:100DA000E0EFF0E080818B7F8C93AFEEB0E0EFEE70
:100DB000F0E09081E985FA858781892B8C93AFEEED
:100DC000B0E0EFEEF0E090818FE389238C93AFEEFB
:100DD000B0E0EFEEF0E0808180648C93B8C7E985E5
:100DE000FA858485882309F457C0A3EFB0E089858C
:100DF0009A850396FC0133968081282F220F220FBB
:100E0000220F89859A850396FC013296808182950E
:100E100086958770820F8C93A2EFB0E089859A85C2
:100E20000396FC0132968081282F220F220F220F79
:100E300089859A850396FC013196808182958695F5
:100E40008770820F8C93A1EFB0E089859A85039615
:100E5000FC0131968081282F220F220F220F8985D5
:100E60009A850396FC018081829586958770820F12
:100E70008C93A0EFB0E089859A850396FC01808170
:100E8000880F880F880F8C93AFEEB0E0EFEEF0E0A4
:100E9000808180618C9328C0A3EFB0E089859A851A
:100EA0000396FC0131968081282F2295220F207E07
:100EB00089859A850396FC0180818695869586951D
:100EC000820F8C93A2EFB0E089859A850396FC018E
:100ED00080818295880F807E8C93AFEEB0E0EFEE3C
:100EE000F0E080818F7E8C931B8210C0AAEFB0E06F
:100EF000E985FA85208531858B819927F901E80FED
:100F0000F91F80818C938B818F5F8B83E985FA85B4
:100F100097818B81891750F3E985FA851386A0EFB5
:100F2000B0E0E0EFF0E080818B7F8C93AFEEB0E03B
:100F3000EFEEF0E09081E985FA858781892B8C932B
:100F4000AFEEB0E0EFEEF0E090818FE389238C9379
:100F5000AFEEB0E0EFEEF0E0808180648C93F7C6F6
:100F6000E985FA858485882309F457C0A3EFB0E0AA
:100F700089859A850396FC0133968081282F220F5C
:100F8000220F220F89859A850396FC013296808173
:100F9000829586958770820F8C93A2EFB0E0898549
:100FA0009A850396FC0132968081282F220F220F0A
:100FB000220F89859A850396FC013196808182955E
:100FC00086958770820F8C93A1EFB0E089859A8512
:100FD0000396FC0131968081282F220F220F220FC9
:100FE00089859A850396FC01808182958695877014
:100FF000820F8C93A0EFB0E089859A850396FC015F
:101000008081880F880F880F8C93AFEEB0E0EFEEF1
:10101000F0E0808180618C9328C0A3EFB0E08985E7
:101020009A850396FC0131968081282F2295220F04
:10103000207E89859A850396FC0180818695869518
:101040008695820F8C93A2EFB0E089859A850396EE
:10105000FC0180818295880F807E8C93AFEEB0E09A
:10106000EFEEF0E080818F7E8C93E985FA8581E058
:101070008387A0EFB0E0E0EFF0E0808184608C93A4
:10108000AFEEB0E0EFEEF0E09081E985FA85878180
:10109000892B8C93AFEEB0E0EFEEF0E090818FE320
:1010A00089238C93AFEEB0E0EFEEF0E080818064B6
:1010B0008C934DC61D821E821F821886A7EFB0E05A
:1010C000CE010596FC0133968081282F220F220F36
:1010D000220FCE010596FC0132968081829586957D
:1010E0008770820F8C93A6EFB0E0CE010596FC01CD
:1010F00032968081282F220F220F220FCE010596D3
:10110000FC0131968081829586958770820F8C9341
:10111000A5EFB0E0CE010596FC0131968081982FB5
:10112000990F990F990FFE013596808182958695CA
:101130008770890F8C93A4EFB0E0FE013596808113
:10114000880F880F880F8C93AFEEB0E0EFEEF0E0E1
:101150009081E985FA858781892B8C93A4EFB0E093
:10116000E4EFF0E080818B7F8C93A4EFB0E0E4EFBC
:10117000F0E080818E7F8C93AFEEB0E0EFEEF0E098
:1011800090818FE389238C93AFEEB0E0EFEEF0E037
:10119000808180688C93DBC51D821E821F82188629
:1011A000A7EFB0E0CE010596FC0133968081282F91
:1011B000220F220F220FCE010596FC01329680816C
:1011C000829586958770820F8C93A6EFB0E0CE0152
:1011D0000596FC0132968081282F220F220F220FC4
:1011E000CE010596FC0131968081829586958770A7
:1011F000820F8C93A5EFB0E0CE010596FC013196ED
:101200008081982F990F990F990FFE013596808153
:10121000829586958770890F8C93A4EFB0E0FE01CC
:1012200035968081880F880F880F8C93AFEEB0E0E1
:10123000EFEEF0E09081E985FA858781892B8C9328
:10124000E985FA851386A4EFB0E0E4EFF0E0808151
:1012500084608C93A0EFB0E0E0EFF0E080818B7FC2
:101260008C93A4EFB0E0E4EFF0E080818E7F8C936C
:10127000AFEEB0E0EFEEF0E090818FE389238C9346
:10128000AFEEB0E0EFEEF0E0808180688C935FC558
:101290001D821E821F821886A7EFB0E0CE01059640
:1012A000FC0133968081282F220F220F220FCE01BE
:1012B0000596FC0132968081829586958770820F13
:1012C0008C93A6EFB0E0CE010596FC0132968081AA
:1012D000282F220F220F220FCE010596FC013196F6
:1012E0008081829586958770820F8C93A5EFB0E000
:1012F000CE010596FC0131968081982F990F990FA8
:10130000990FFE0135968081829586958770890FA9
:101310008C93A4EFB0E0FE0135968081880F880F92
:10132000880F8C93AFEEB0E0EFEEF0E09081E985AE
:10133000FA858781892B8C93E985FA8581E08387FB
:10134000A4EFB0E0E4EFF0E0808184608C93A0EF44
:10135000B0E0E0EFF0E0808184608C93AFEEB0E02D
:10136000EFEEF0E080818F7D8C93A4EFB0E0E4EFAE
:10137000F0E080818E7F8C93AFEEB0E0EFEEF0E096
:1013800090818FE389238C93AFEEB0E0EFEEF0E035
:10139000808180688C93DBC4E985FA858485882305
:1013A00009F457C0A3EFB0E089859A850396FC0144
:1013B00033968081282F220F220F220F89859A854C
:1013C0000396FC0132968081829586958770820F04
:1013D0008C93A2EFB0E089859A850396FC01329642
:1013E0008081282F220F220F220F89859A8503964C
:1013F000FC0131968081829586958770820F8C934F
:10140000A1EFB0E089859A850396FC013196808131
:10141000282F220F220F220F89859A850396FC011F
:101420008081829586958770820F8C93A0EFB0E0C3
:1014300089859A850396FC018081880F880F880F23
:101440008C93AFEEB0E0EFEEF0E0808180618C93A2
:1014500028C0A3EFB0E089859A850396FC013196F8
:101460008081282F2295220F207E89859A850396D8
:10147000FC018081869586958695820F8C93A2EFDC
:10148000B0E089859A850396FC0180818295880F5A
:10149000807E8C93AFEEB0E0EFEEF0E080818F7E47
:1014A0008C938FEF9FEFAFEFBFEF8D839E83AF8362
:1014B000B887A7EFB0E0CE010596FC013396808196
:1014C000282F220F220F220FCE010596FC01329603
:1014D0008081829586958770820F8C93A6EFB0E00D
:1014E000CE010596FC0132968081282F220F220F13
:1014F000220FCE010596FC0131968081829586955A
:101500008770820F8C93A5EFB0E0CE010596FC01A9
:1015100031968081982F990F990F990FFE0135967A
:101520008081829586958770890F8C93A4EFB0E0B7
:10153000FE0135968081880F880F880F8C93AFEE5F
:10154000B0E0EFEEF0E09081E985FA858781892BA4
:101550008C93A4EFB0E0E4EFF0E080818B7F8C937C
:10156000A4EFB0E0E4EFF0E0808181608C93AFEE17
:10157000B0E0EFEEF0E090818FE389238C93AFEE43
:10158000B0E0EFEEF0E0808180688C93E0C3E98505
:10159000FA858485882309F457C0A3EFB0E08985D4
:1015A0009A850396FC0133968081282F220F220F03
:1015B000220F89859A850396FC0132968081829557
:1015C00086958770820F8C93A2EFB0E089859A850B
:1015D0000396FC0132968081282F220F220F220FC2
:1015E00089859A850396FC0131968081829586953E
:1015F0008770820F8C93A1EFB0E089859A8503965E
:10160000FC0131968081282F220F220F220F89851D
:101610009A850396FC018081829586958770820F5A
:101620008C93A0EFB0E089859A850396FC018081B8
:10163000880F880F880F8C93AFEEB0E0EFEEF0E0EC
:10164000808180618C9328C0A3EFB0E089859A8562
:101650000396FC0131968081282F2295220F207E4F
:1016600089859A850396FC01808186958695869565
:10167000820F8C93A2EFB0E089859A850396FC01D6
:1016800080818295880F807E8C93AFEEB0E0EFEE84
:10169000F0E080818F7E8C938FEF9FEFAFEFBFEFF5
:1016A0008D839E83AF83B887A7EFB0E0CE01059608
:1016B000FC0133968081282F220F220F220FCE01AA
:1016C0000596FC0132968081829586958770820FFF
:1016D0008C93A6EFB0E0CE010596FC013296808196
:1016E000282F220F220F220FCE010596FC013196E2
:1016F0008081829586958770820F8C93A5EFB0E0EC
:10170000CE010596FC0131968081982F990F990F93
:10171000990FFE0135968081829586958770890F95
:101720008C93A4EFB0E0FE0135968081880F880F7E
:10173000880F8C93AFEEB0E0EFEEF0E09081E9859A
:10174000FA858781892B8C93E985FA851386A4EF26
:10175000B0E0E4EFF0E0808184608C93A0EFB0E033
:10176000E0EFF0E080818B7F8C93A4EFB0E0E4EFBA
:10177000F0E0808181608C93AFEEB0E0EFEEF0E0BE
:1017800090818FE389238C93AFEEB0E0EFEEF0E031
:10179000808180688C93DBC2E985FA858485882303
:1017A00009F457C0A3EFB0E089859A850396FC0140
:1017B00033968081282F220F220F220F89859A8548
:1017C0000396FC0132968081829586958770820F00
:1017D0008C93A2EFB0E089859A850396FC0132963E
:1017E0008081282F220F220F220F89859A85039648
:1017F000FC0131968081829586958770820F8C934B
:10180000A1EFB0E089859A850396FC01319680812D
:10181000282F220F220F220F89859A850396FC011B
:101820008081829586958770820F8C93A0EFB0E0BF
:1018300089859A850396FC018081880F880F880F1F
:101840008C93AFEEB0E0EFEEF0E0808180618C939E
:1018500028C0A3EFB0E089859A850396FC013196F4
:101860008081282F2295220F207E89859A850396D4
:10187000FC018081869586958695820F8C93A2EFD8
:10188000B0E089859A850396FC0180818295880F56
:10189000807E8C93AFEEB0E0EFEEF0E080818F7E43
:1018A0008C938FEF9FEFAFEFBFEF8D839E83AF835E
:1018B000B887A7EFB0E0CE010596FC013396808192
:1018C000282F220F220F220FCE010596FC013296FF
:1018D0008081829586958770820F8C93A6EFB0E009
:1018E000CE010596FC0132968081282F220F220F0F
:1018F000220FCE010596FC01319680818295869556
:101900008770820F8C93A5EFB0E0CE010596FC01A5
:1019100031968081982F990F990F990FFE01359676
:101920008081829586958770890F8C93A4EFB0E0B3
:10193000FE0135968081880F880F880F8C93AFEE5B
:10194000B0E0EFEEF0E09081E985FA858781892BA0
:101950008C93E985FA8581E08387A4EFB0E0E4EF1A
:10196000F0E0808184608C93A0EFB0E0E0EFF0E0E5
:10197000808184608C93AFEEB0E0EFEEF0E0808188
:101980008F7D8C93A4EFB0E0E4EFF0E08081816084
:101990008C93AFEEB0E0EFEEF0E090818FE389231F
:1019A0008C93AFEEB0E0EFEEF0E0808180688C9336
:1019B000CEC11B8210C0AAEFB0E0E985FA85208570
:1019C00031858B819927F901E80FF91F80818C936C
:1019D0008B818F5F8B83E985FA8597818B8189174E
:1019E00050F31D821E821F821886A7EFB0E0CE0141
:1019F0000596FC0133968081282F220F220F220F9B
:101A0000CE010596FC01329680818295869587707D
:101A1000820F8C93A6EFB0E0CE010596FC013296C2
:101A20008081282F220F220F220FCE010596FC0164
:101A300031968081829586958770820F8C93A5EF71
:101A4000B0E0CE010596FC0131968081982F990F68
:101A5000990F990FFE013596808182958695877042
:101A6000890F8C93A4EFB0E0FE0135968081880F3A
:101A7000880F880F8C93AFEEB0E0EFEEF0E090812E
:101A8000E985FA858781892B8C93E985FA8581E040
:101A90008387A4EFB0E0E4EFF0E0808184608C9372
:101AA000A0EFB0E0E0EFF0E0808184608C93AFEED7
:101AB000B0E0EFEEF0E0808180628C93A4EFB0E0C4
:101AC000E4EFF0E080818E7F8C93AFEEB0E0EFEE3C
:101AD000F0E090818FE389238C93AFEEB0E0EFEEDE
:101AE000F0E0808180688C9332C1E985FA85848535
:101AF000882309F457C0A3EFB0E089859A8503963F
:101B0000FC0133968081282F220F220F220F898516
:101B10009A850396FC01329680818295869587701E
:101B2000820F8C93A2EFB0E089859A850396FC0121
:101B300032968081282F220F220F220F89859A85C5
:101B40000396FC0131968081829586958770820F7D
:101B50008C93A1EFB0E089859A850396FC013196BC
:101B60008081282F220F220F220F89859A850396C4
:101B7000FC018081829586958770820F8C93A0EFFF
:101B8000B0E089859A850396FC018081880F880FD3
:101B9000880F8C93AFEEB0E0EFEEF0E080818061D3
:101BA0008C9328C0A3EFB0E089859A850396FC0149
:101BB00031968081282F2295220F207E89859A8553
:101BC0000396FC018081869586958695820F8C937D
:101BD000A2EFB0E089859A850396FC018081829509
:101BE000880F807E8C93AFEEB0E0EFEEF0E0808166
:101BF0008F7E8C931B8210C0AAEFB0E0E985FA8536
:101C0000208531858B819927F901E80FF91F8081A3
:101C10008C938B818F5F8B83E985FA8597818B818C
:101C2000891750F38FEF9FEFAFEFBFEF8D839E8348
:101C3000AF83B887A7EFB0E0CE010596FC013396DD
:101C40008081282F220F220F220FCE010596FC0142
:101C500032968081829586958770820F8C93A6EF4D
:101C6000B0E0CE010596FC0132968081282F220F2C
:101C7000220F220FCE010596FC01319680818295BC
:101C800086958770820F8C93A5EFB0E0CE01059604
:101C9000FC0131968081982F990F990F990FFE01C1
:101CA00035968081829586958770890F8C93A4EFF5
:101CB000B0E0FE0135968081880F880F880F8C93E5
:101CC000AFEEB0E0EFEEF0E09081E985FA85878134
:101CD000892B8C93E985FA8581E08387A4EFB0E0B6
:101CE000E4EFF0E0808184608C93A0EFB0E0E0EF5F
:101CF000F0E0808184608C93AFEEB0E0EFEEF0E036
:101D0000808180628C93A4EFB0E0E4EFF0E080810A
:101D100081608C93AFEEB0E0EFEEF0E090818FE366
:101D200089238C93AFEEB0E0EFEEF0E08081806825
:101D30008C930DC0E985FA85128609C0E985FA857C
:101D40008FE182878FEF90E09C878B8702C01C8693
:101D50001B868B859C852E960FB6F894DEBF0FBE32
:101D6000CDBFDF91CF910895CF93DF93CDB7DEB78D
:101D700028970FB6F894DEBF0FBECDBF9C838B8330
:101D8000EB81FC8182858A838A81882331F08A8174
:101D90008F3119F08A818F3F29F422E030E03887B3
:101DA0002F83FFC0ADEEB0E0EB81FC818081829596
:101DB000807F8C930E945F028A838A81282F332739
:101DC0003E832D838D819E8180329105C9F02D81C6
:101DD0003E81213231052CF48D819E81009769F07E
:101DE000CAC02D813E812034310509F4B3C08D81F4
:101DF0009E81803A910521F0BEC081E08983CCC0EC
:101E0000EFEEF0E080818F70EB81FC818783EB81C6
:101E1000FC81808591850E94A602E0EFF0E0808140
:101E20009927847090709595879595958795EB8106
:101E3000FC818387EFEEF0E08081992780719070BC
:101E4000959587959595879595958795959587957A
:101E5000009709F44CC0EB81FC8181E084878B8181
:101E60009C810396DC011396E3EFF0E08081869578
:101E7000869586958C938B819C810396DC011296C6
:101E8000E2EFF0E08081982F969596959695E3EF96
:101E9000F0E080818295880F807E890F8C938B8102
:101EA0009C810396DC011196E1EFF0E08081982F90
:101EB000969596959695E2EFF0E080818295880F51
:101EC000807E890F8C938B819C810396DC01E0EFEF
:101ED000F0E08081982F969596959695E1EFF0E049
:101EE00080818295880F807E890F8C9322C0EB8140
:101EF000FC8114868B819C810396DC011196E3EFB3
:101F0000F0E080818295869587708C938B819C818F
:101F10000396DC01E2EFF0E08081982F9295969590
:101F20009770E3EFF0E08081880F880F880F890FAA
:101F30008C93EB81FC818A818287AFEEB0E0EFEE7B
:101F4000F0E090818FE389238C93EEEEF0E0108235
:101F5000198222C0EB81FC818A818287AFEEB0E0DA
:101F6000EFEEF0E090818FE389238C93EEEEF0E0CA
:101F70001082198211C0EB81FC818A818287AFEEC9
:101F8000B0E0EFEEF0E090818FE389238C93EEEEEA
:101F9000F0E0108282E089838981282F33273887F7
:101FA0002F838F81988528960FB6F894DEBF0FBED9
:081FB000CDBFDF91CF91089530
:00000001FF
