:100000000C9450000C946F000C946F000C946F00D3
:100010000C946F000C946F000C946F000C946F00A4
:100020000C946F000C946F000C946F000C946F0094
:100030000C946F000C946F000C946F000C946F0084
:100040000C946F000C946F000C9471000C946F0072
:100050000C946F000C946F000C946F000C946F0064
:100060000C946F000C946F000C946F000C946F0054
:100070000C946F000C946F000C946F000C946F0044
:100080000C946F000C946F000C946F000C946F0034
:100090000C946F006364696E6F70737578585B00C1
:1000A00011241FBECFEFD0E1DEBFCDBF11E0A0E035
:1000B000B1E0E6EFF7E100E00BBF02C007900D9260
:1000C000A635B107D9F711E0A6E5B1E001C01D9250
:1000D000A73DB107E1F70E9410030C94F90B0C94B3
:1000E00000001F920F920FB60F9200905B000F92CC
:1000F00011242F933F934F935F936F937F938F932D
:100100009F93AF93BF93EF93FF93DF93CF9300D071
:1001100000D000D0CDB7DEB7EDEEF0E080818B836C
:10012000ECEEF0E08081882F90E09A838983EDEEF9
:10013000F0E08981807F808389819A819295829580
:100140008F7089279F7089279A838983EEEEF0E06C
:100150008081882F90E08F75009709F09895E2EFE5
:10016000F0E08081829586958770282F30E0E3EF5C
:10017000F0E08081882F90E0880F991F880F991FE9
:10018000880F991F822B932B9093570180935601D0
:10019000EFEEF0E08081982F9F709E838E81809398
:1001A00058011D821C820EC08C819D81EAEFF0E017
:1001B0002081FC01E75AFE4F20838C819D810196AE
:1001C0009D838C839E81292F30E08C819D818217B5
:1001D000930750F3EEEEF0E01082EFEEF0E080E8EF
:1001E000808389819A81880F991FFC01ED54FE4F0D
:1001F0000190F081E02D298186E591E0622F09953B
:10020000EDEEF0E08B8180832696DEBFCDBFCF91EF
:10021000DF91FF91EF91BF91AF919F918F917F916E
:100220006F915F914F913F912F910F9000925B00E2
:100230000F900FBE0F901F901895DF93CF9300D0B3
:1002400000D000D0CDB7DEB78B837D836C83EC818B
:10025000FD818081918128E08030920708F0989597
:10026000EC81FD818281893008F098958B818F30F7
:1002700008F09895EDEEF0E08B818295807F808389
:10028000EFEEF0E08081882F90E0807C9070009706
:1002900059F0EEEEF0E08081882F90E0807490704D
:1002A000009711F41E8283C0EEEEF0E01082EFEEB4
:1002B000F0E01082EC81FD8182818F3F09F446C01D
:1002C000A3EFB0E0EC81FD818081918196958795C7
:1002D00096958795969587958C93A2EFB0E0EC81E3
:1002E000FD81808191818295880F807E8C93E1EFE2
:1002F000F0E01082E0EFF0E010821A82198211C063
:10030000AAEFB0E029813A818C819D81820F931FF1
:10031000FC01339680818C9389819A8101969A831E
:100320008983EC81FD818281282F30E089819A8147
:100330008217930728F3AFEEB0E0EFEEF0E0908184
:10034000EC81FD818281892B8C9328C0A3EFB0E0E2
:10035000EC81FD8180819181969587959695879511
:10036000969587958C93A2EFB0E0EC81FD8180811A
:1003700091818295880F807E8C93E1EFF0E010826E
:10038000E0EFF0E084E08083AFEEB0E0EFEEF0E08D
:100390009081EC81FD818281892B8C93AFEEB0E05E
:1003A000EFEEF0E0808180648C9381E08E838E811B
:1003B00026960FB6F894DEBF0FBECDBFCF91DF916A
:1003C0000895DF93CF93CDB7DEB72C970FB6F8948F
:1003D000DEBF0FBECDBF8D837F836E835987488775
:1003E0003B872A878D818F3018F081E08C87A2C0EF
:1003F0008D81882F90E0880F991FFC01ED54FE4FEE
:100400008A859B8591838083EDEEF0E08D818295D6
:10041000807F80838A859B85009749F5EEEEF0E02A
:100420001082EFEEF0E010828D81282F30E081E025
:1004300090E002C0880F991F2A95E2F79A8389837A
:10044000AEEDB0E0EEEDF0E09081898180958923FA
:100450008C93AFEDB0E0EFEDF0E0208189819A81DF
:10046000892F9927809582238C931C8663C0EFEE99
:10047000F0E08081882F90E0807C9070009719F0E8
:1004800081E08C8757C0EEEEF0E01082EFEEF0E0F6
:100490001082ECEEF0E01082E3EFF0E08E819F81BD
:1004A0009695879596958795969587958083E2EFA3
:1004B000F0E08E818295880F807E8083E7EFF0E008
:1004C000888599859695879596958795969587952C
:1004D0008083E6EFF0E088858295880F807E8083B8
:1004E000E5EFF0E01082E4EFF0E01082EFEEF0E0F4
:1004F00080E880838D81282F30E081E090E002C089
:10050000880F991F2A95E2F79C838B83AEEDB0E0AC
:10051000EEEDF0E090818B81892B8C93AFEDB0E014
:10052000EFEDF0E020818B819C81892F9927822B30
:100530008C931C868C852C960FB6F894DEBF0FBE6C
:10054000CDBFCF91DF910895DF93CF9300D0CDB78A
:10055000DEB7E2EEF0E086E28083E3EEF0E084E0F6
:100560008083E4EEF0E083E180831A82198211C077
:10057000EDEEF0E089818295807F8083EEEEF0E001
:100580001082EFEEF0E0108289819A8101969A83C1
:10059000898389819A818F30910550F3A8EDB0E06D
:1005A000E8EDF0E0808182608C93EBEDF0E080EA92
:1005B00080830F900F90CF91DF910895DF93CF93B9
:1005C00000D00F92CDB7DEB79A8389836B83AEE2FA
:1005D000B0E0EEE2F0E0908180E489278C930F9008
:1005E0000F900F90CF91DF910895DF93CF9300D0BC
:1005F0000F92CDB7DEB79A8389836B83E981FA8145
:1006000082E591E09183808329813A818EE0B9016E
:100610000E941D010F900F900F90CF91DF910895D0
:10062000DF93CF93CDB7DEB72C970FB6F894DEBF2C
:100630000FBECDBF80E091E09093D2018093D101B5
:100640008091D1019091D2019093D4018093D301F4
:10065000E8ECF0E082E08083E9ECF0E088E9808378
:10066000EAECF0E086E08083ECECF0E080E190E002
:10067000918380838EE091E00E94C80580E591E03F
:100680009A8389831B82ADE2B0E0EDE2F0E08081E5
:1006900080648C93AAE2B0E0EAE2F0E080818068B6
:1006A0008C9300D0EDB7FEB731968DE191E0918348
:1006B00080830E94B6050F900F900E94A40281E3F0
:1006C00091E00E94C80500D000D0EDB7FEB731968A
:1006D00086E391E091838083CE010C96938382839D
:1006E0000E94FD050F900F900F900F90009759F307
:1006F00000D0EDB7FEB7319689E391E09183808316
:100700000E94B6050F900F9080E09E012F5F3F4F33
:10071000B9010E941D01EDEEF0E01082EEEEF0E076
:100720008081882F90E0807490700097B9F389E4FD
:1007300091E00E94C805C7CFDF93CF93CDB7DEB756
:10074000E8ECF0E01082E9ECF0E088E18083EAEC8C
:10075000F0E086E08083ECECF0E08FE290E09183C3
:100760008083CF91DF910895DF93CF930F92CDB720
:10077000DEB78983E8ECF0E08081882F90E080721A
:1007800090700097B9F3EEECF0E0898180830F90D0
:10079000CF91DF910895DF93CF9300D000D00F92D7
:1007A000CDB7DEB789837B836A838981873079F40B
:1007B0002091D5013091D6018EE491E061E070E0A6
:1007C00047E050E00E9473051D821C8218C0898199
:1007D0008A3031F42A813B818DE0B9010E94CB033C
:1007E000E8ECF0E08081882F90E0807290700097B4
:1007F000B9F3EEECF0E0898180831D821C828C814C
:100800009D810F900F900F900F900F90CF91DF91DF
:100810000895DF93CF93CDB7DEB7E8ECF0E08081A9
:100820008823DCF7EEECF0E08081CF91DF91089532
:10083000DF93CF93CDB7DEB72B970FB6F894DEBF1B
:100840000FBECDBF9F838E83809161019091620125
:10085000009709F025C183E691E09C838B83E8EC47
:10086000F0E080818823DCF7E8ECF0E08081882FDD
:1008700090E080719070009729F02EEF3FEF3B875A
:100880002A8726C1E8ECF0E08081882F90E088700C
:100890009070009729F08FEF9FEF9B878A8718C190
:1008A000EEECF0E080818D838D818D3011F48AE053
:1008B0008D838D818A3089F4EB81FC818D818083E9
:1008C0002E813F818D81B9010E94CB0383E691E0A7
:1008D0009093620180936101E3C08D81893011F4AE
:1008E00080E28D838D81803218F08D818F3718F0F2
:1008F0008D81803AE8F08B819C8121E0823B9207D8
:1009000039F42E813F8187E0B9010E94CB03A7CF44
:10091000EB81FC818D8180838B819C8101969C83FE
:100920008B832E813F818D81B9010E94CB0397CFAC
:100930008D81282F30E039872887888599858231F5
:10094000910509F447C028853985233131055CF4C8
:100950008885998583309105C1F0288539852830AF
:100960003105C1F07CCF888599858731910509F4DF
:1009700087C0288539852F37310561F088859985AD
:100980008531910509F45DC06ACF2FEF3FEF3B87BA
:100990002A879EC08B819C8131E08336930709F0C2
:1009A00008F45DCF2E813F8188E0B9010E94CB031E
:1009B0002E813F8180E2B9010E94CB032E813F81CD
:1009C00088E0B9010E94CB038B819C8101979C83B5
:1009D0008B8345CF2E813F818DE0B9010E94CB03EF
:1009E00083E691E09A8389830DC0E981FA81808151
:1009F0002E813F81B9010E94CB0389819A810196A2
:100A00009A83898329813A818B819C8128173907B0
:100A100060F325CF2E813F8188E0B9010E94CB038E
:100A20002E813F8180E2B9010E94CB032E813F815C
:100A300088E0B9010E94CB038B819C8101979C8344
:100A40008B838B819C8121E08336920709F010F71C
:100A500006CF2E813F8188E0B9010E94CB032E8111
:100A60003F8180E2B9010E94CB032E813F8188E063
:100A7000B9010E94CB038B819C8101979C838B835E
:100A80008B819C8131E08336930709F008F4E7CE2F
:100A90008B819C81FC01319780818032D1F6DFCE41
:100AA000E0916101F091620180818D83CF01019617
:100AB00090936201809361018D818A3021F41092BC
:100AC0006201109261018D81282F30E03B872A87D7
:100AD0008A859B852B960FB6F894DEBF0FBECDBFDF
:100AE000CF91DF9108958F929F92AF92BF92CF9254
:100AF000DF92EF92FF920F931F93CF93DF93FC014E
:100B00004B015A016901D90113968C9181FF1EC0D6
:100B10007F01C0E0D0E014C0D6011896ED91FC91A1
:100B20001997D7018C91B6010995892B89F40894FE
:100B3000E11CF11C0F5F1F4F0815190568F3219682
:100B4000CA15DB0528F400E010E0F6CFC0E0D0E0E5
:100B5000CE01DF91CF911F910F91FF90EF90DF9029
:100B6000CF90BF90AF909F908F900895DF93CF93D9
:100B7000CDB7DEB7FE013596619171918091D301B9
:100B80009091D401AF010E940F06CF91DF9108959B
:100B90000F931F93CF93DF938C01E091D301F091DA
:100BA000D401838181FF21C0C0E0D0E00DC0E0917D
:100BB000D301F091D40120853185BF01F901099558
:100BC000892B11F0CFEFDFEFF80181918F0188239E
:100BD00071F7E091D301F091D401208531858AE04D
:100BE000BF01F9010995892B11F0CFEFDFEFCE019D
:100BF000DF91CF911F910F910895DF93CF93CDB7E0
:100C0000DEB7FE013596619171918091D10190918D
:100C1000D201AF010E94C409CF91DF9108952F92B4
:100C20003F924F925F926F927F928F929F92AF927C
:100C3000BF92CF92DF92EF92FF920F931F93DF93B9
:100C4000CF93CDB7DEB72B970FB6F894DEBF0FBEAC
:100C5000CDBF3C012B015A01FC0117821682838112
:100C600081FD03C06FEF7FEFC6C19AE0892E1E01A0
:100C70000894211C311CF3012381F20123FD85918D
:100C800023FF81912F01882309F4B2C1853239F401
:100C900023FD859123FF81912F01853229F490E076
:100CA000B3010E94520BE7CF982FFF24EE24992422
:100CB000FFE1FF15D0F09B3269F09C3228F49032AE
:100CC00059F0933291F40EC09D3249F0903369F49B
:100CD00041E024C052E0F52A84E0F82A28C098E0D8
:100CE000F92A25C0E0E1FE2A22C0F7FC29C0892F9D
:100CF00080538A3070F4F6FE05C0989C902C112425
:100D0000980E15C0E89CE02C1124E80EF0E2FF2AB2
:100D10000EC09E3229F4F6FC6BC140E4F42A07C0F1
:100D20009C3619F450E8F52A02C0983649F4F201CD
:100D300023FD959123FF91912F01992309F0B8CFBD
:100D4000892F8554833018F08052833038F444E082
:100D500050E0A40EB51E5FE359830FC0933631F007
:100D6000933779F0933509F056C020C0F5018081A2
:100D7000898342E050E0A40EB51E610101E010E05D
:100D800012C0F501C080D180F6FC03C06FEF7FEF89
:100D900002C0692D70E042E050E0A40EB51EC6010D
:100DA0000E94050B8C015FE7F52214C0F501C0809D
:100DB000D180F6FC03C06FEF7FEF02C0692D70E0B9
:100DC00042E050E0A40EB51EC6010E94FA0A8C0152
:100DD00050E8F52AF3FE07C01AC080E290E0B301A4
:100DE0000E94520BEA948E2D90E008171907A8F381
:100DF0000EC0F601F7FC8591F7FE81916F0190E03E
:100E0000B3010E94520BE110EA9401501040011509
:100E1000110579F7EAC0943611F0993669F5F7FEB5
:100E200008C0F501208131814281538184E090E046
:100E30000AC0F501808191819C01442737FD4095CE
:100E4000542F82E090E0A80EB91E9FE6F92257FFCA
:100E500009C050954095309521953F4F4F4F5F4FBA
:100E6000E0E8FE2ACA01B901A1012AE030E00E94AF
:100E7000980BD82ED21840C0953729F41F2D1F7E0D
:100E80002AE030E01DC01F2D197F9F3661F090379A
:100E900020F4983509F0ACC00FC0903739F098377E
:100EA00009F0A6C004C028E030E00AC0106114FDBB
:100EB000146020E130E004C014FD166020E132E04F
:100EC00017FF08C0F501608171818281938144E040
:100ED00050E008C0F50180819181BC0180E090E084
:100EE00042E050E0A40EB51EA1010E94980BD82E3E
:100EF000D2188FE7F82EF122F6FE0BC05EEFF52236
:100F0000D91438F4F4FE07C0F2FC05C08FEEF822C5
:100F100002C01D2D01C0192DF4FE0DC0FE01ED0D06
:100F2000F11D8081803319F499EEF92208C01F5F0A
:100F3000F2FE05C003C08F2D867809F01F5F0F2DCC
:100F4000F3FC14C0F0FE0FC01E1510F09D2C0BC05A
:100F50009D2C9E0C911A1E2D06C080E290E0B301DC
:100F60000E94520B1F5F1E15C0F304C01E1510F423
:100F7000E11A01C0EE2404FF0FC080E390E0B3014A
:100F80000E94520B02FF1DC001FD03C088E790E0E4
:100F90000EC088E590E00BC0802F867891F001FFAD
:100FA00002C08BE201C080E2F7FC8DE290E0B30169
:100FB0000E94520B06C080E390E0B3010E94520BE6
:100FC0009A94D914C0F3DA94F101ED0DF11D8081EA
:100FD00090E0B3010E94520BDD20A9F706C080E229
:100FE00090E0B3010E94520BEA94EE20C1F743CE89
:100FF000F30166817781CB012B960FB6F894DEBFA3
:101000000FBECDBFCF91DF911F910F91FF90EF9059
:10101000DF90CF90BF90AF909F908F907F906F9018
:101020005F904F903F902F900895FC0120FD08C0E5
:1010300023FD05C022FF02C0738362835183408376
:101040000895EF92FF920F931F9344FF02C033E085
:1010500011C046FF02C034E00DC0DB01FC01AA0F45
:10106000BB1FEE1FFF1F1094D1F76A0F7B1F8E1F4F
:101070009F1F31E0660F771F881F991F3150D1F7EE
:101080007B018C01E20EF11C011D111DA8019701CD
:10109000B701CA011F910F91FF90EF9008950F9330
:1010A0001F93CF93DF938C01C8010E94100BEC01BA
:1010B00097FD08C00E94E70A892BB1F7CE01B8015D
:1010C0000E947E0BCE01DF91CF911F910F91089569
:1010D000AF92BF92CF92DF92EF92FF920F931F9346
:1010E000CF93DF93EC01C62E5A01122F0E94100BF2
:1010F000AC018B3219F08D3251F41068CA9409F4A6
:101100006DC0CE010E94100BAC0197FD67C06DEF62
:10111000D62ED1228D2D807301F54033F1F4CA947F
:1011200009F447C0CE010E94100BAC0197FD41C0ED
:1011300082E0D82A483711F0483559F480E4D82A9B
:10114000CA94B9F1CE010E94100BAC0199232CF482
:1011500030C0D6FC02C080E1D82AEE24FF248701EB
:10116000242F2053283088F0D4FC09C02A3068F09E
:10117000D6FE05C02F7D822F8151863028F0CA010E
:10118000BE010E947E0B12C02750C801B7014D2D31
:101190000E9421087B018C0182E0D82ACA9461F068
:1011A000CE010E94100BAC0197FFDACFD1FC04C036
:1011B00015C0EE24FF248701D7FE08C010950095C6
:1011C000F094E094E11CF11C011D111DC501B80152
:1011D000A7012D2D0E94150881E001C080E0DF915C
:1011E000CF911F910F91FF90EF90DF90CF90BF9024
:1011F000AF9008956F927F928F929F92AF92BF921D
:10120000CF92DF92EF92FF920F931F93DF93CF93D2
:10121000CDB7DEB7A0970FB6F894DEBF0FBECDBF37
:101220006C01A62E8A017901FE01319680E2DF0170
:101230001D928A95E9F770E030E060E040E050E010
:101240004F01A1E0B0E0F6018381F70183FD259114
:1012500083FF21917F01222309F47EC02E3519F4EA
:101260004115510569F1872F90E08417950744F4E3
:101270002D3551F12D3221F4332329F431E021C0F1
:10128000332309F4622F322F832F86958695869516
:10129000F401E80FF11D832F87703D0102C0660C39
:1012A000771C8A95E2F7208126292083361711F4CE
:1012B00030E007C0361710F43F5FE6CF3150E4CF7F
:1012C00071E04F5F5F4FBFCF332319F08E81806293
:1012D0008E83772359F0FE0131969E012F5D3F4F9B
:1012E000808180958193E217F307D1F7BB24B394F3
:1012F0004E010894811C911CC6010E94100BAC0188
:1013000097FD22C0869586958695F401E80FF11D1C
:10131000808190E09A012770307002C09595879582
:101320002A95E2F780FD05C0CA01B6010E947E0B36
:101330000BC00115110519F0D8014D938D01AA9428
:10134000BB24AA20C9F602C0BB2031F40115110547
:1013500029F0F801108202C0EE24FF24C701A096F4
:101360000FB6F894DEBF0FBECDBFCF91DF911F91B6
:101370000F91FF90EF90DF90CF90BF90AF909F9034
:101380008F907F906F9008956F927F928F929F922F
:10139000AF92BF92CF92DF92EF92FF920F931F9383
:1013A000CF93DF935C016B013A01FC011782168237
:1013B0008824EAC0812F90E00E94E70A892B21F05F
:1013C000C5010E944F08E0C0153249F4F601F3FC54
:1013D0006591F3FE61916F01653269F415E2C50113
:1013E0000E94100B97FDDCC0181709F4CDC0B501A1
:1013F0000E947E0BDAC06A3219F0162F00E006C098
:10140000F3FC1591F3FE11916F0101E099240FC0D7
:101410000260692D70E080E090E040E20E942108C7
:10142000962EF601F3FC1591F3FE11916F01212F19
:1014300020532A3068F301FD03C099249A9403C015
:10144000992009F4B2C0183621F01C3699F4F6013F
:101450000BC0F601F3FC6591F3FE6191683619F05B
:101460006F01162F07C008600460F3FC1591F3FEAE
:1014700011916F01112309F498C084E990E0612F64
:1014800070E00E94EF0A892B09F48FC0802F00FFC3
:1014900003C0EE24FF2407C0F301E080F18022E0C6
:1014A00030E0620E731E1E3651F4F50146815781FD
:1014B00060E070E0C701202F0E94150865C0133658
:1014C00091F481FD02C099249394C5010E94100BF0
:1014D00097FD66C0E114F10419F0F70181937F01D3
:1014E0009A9499F74FC01B3559F4C501692DA7018E
:1014F00096010E94FA086C01009709F043C03DC0B4
:10150000C5010E944F0897FD4BC01F3659F1103797
:1015100028F4143629F1193639F527C0133719F094
:10152000153711F51DC0C5010E94100BEC0197FD88
:1015300011C00E94E70A892B29F0CE01B5010E9453
:101540007E0B08C0E114F10419F0F701C1937F018B
:101550009A9449F7E114F104A9F0F701108212C03E
:10156000006203C0006101C00064C501692DA701CC
:10157000202F0E946808882329F4F5018381807355
:1015800079F413C000FF8394F501F380F601F3FCB6
:101590001591F3FE11916F01112309F00BCF05C0D6
:1015A000882019F42FEF3FEF02C0282D30E0C90149
:1015B000DF91CF911F910F91FF90EF90DF90CF902F
:1015C000BF90AF909F908F907F906F9008959111F2
:1015D0000DC1803219F089508550D0F70895FC0173
:1015E0000590061621F00020D9F7C0010895319723
:1015F000CF010895FC010590615070400110D8F7AB
:10160000809590958E0F9F1F0895FC01615070404A
:1016100001900110D8F7809590958E0F9F1F089527
:10162000CF93DF93EC014B8140FF1AC046FF0AC005
:101630004F7B4B838E819F8101969F838E838A810E
:10164000282F2BC042FF13C0E881F9818081282F09
:10165000332727FD30952115310529F440624B834E
:101660002FEF3FEF1BC03196F983E88311C0EA8565
:10167000FB85CE0109959C0197FF0AC09B812F5FD6
:101680003F4F11F080E201C080E1892B8B83E8CFCE
:101690008E819F8101969F838E8330E0C901DF9107
:1016A000CF9108950F931F93CF93DF938C01EB019C
:1016B0008B8181FF1BC082FF0DC02E813F818C81F9
:1016C0009D812817390764F4E881F9810193F98332
:1016D000E88306C0E885F985802F0995892B31F4C8
:1016E0008E819F8101969F838E8302C00FEF1FEF33
:1016F000C801DF91CF911F910F9108959C01FB01CB
:10170000838180FF11C086FD0FC09FEF2F3F3907F7
:1017100059F0228380648F7D83838681978101972E
:101720009783868330E002C02FEF3FEFC901089511
:10173000FA01AA27283051F1203181F1E8946F9302
:101740006E7F6E5F7F4F8F4F9F4FAF4FB1E03ED0A8
:10175000B4E03CD0670F781F891F9A1FA11D680F46
:10176000791F8A1F911DA11D6A0F711D811D911D79
:10177000A11D20D009F468943F912AE0269F1124EE
:101780003019305D3193DEF6CF010895462F477052
:10179000405D4193B3E00FD0C9F7F6CF462F4F70AD
:1017A000405D4A3318F0495D31FD4052419302D00B
:1017B000A9F7EACFB4E0A6959795879577956795B1
:1017C000BA95C9F700976105710508959B01AC01B1
:1017D0000A2E06945795479537952795BA95C9F7D8
:1017E000620F731F841F951FA01D089599278827D6
:0617F0000895F894FFCFFC
:1017F6000000000300000000CB03180400000A5399
:10180600746172740A2D2D2D2D2D2D2D00496E69B2
:101816007469616C697A696E672043616E2E2E2E3B
:1018260000444F4E45002563005472616E736D6926
:101836007474696E672E2E2E00446F6E65002A72D0
:06184600696E672A0A002A
:00000001FF
