:100000000C944A000C9469000C9469000C946900EB
:100010000C9469000C9469000C9469000C946900BC
:100020000C9469000C944D150C9469000C946900B3
:100030000C9469000C9469000C9469000C9469009C
:100040000C9469000C9469000C9469000C9469008C
:100050000C9469000C9469000C9469000C9469007C
:100060000C9469000C9469000C9469000C9469006C
:100070000C9469000C9469000C9469000C9469005C
:100080000C9469000C9469000C9469000C9469004C
:100090000C94690011241FBECFEFD0E1DEBFCDBFAD
:1000A0001CE0A0E0B1E0E6ECFEE500E00BBF02C022
:1000B00007900D92A03CB107D9F71CE0A0ECBCE082
:1000C00001C01D92AB3CB107E1F70E946B000C949C
:1000D000622F0C940000CF93DF93CDB7DEB7C759E2
:1000E000D0400FB6F894DEBF0FBECDBF9E012E5D8F
:1000F0003F4FC257DF4F39832883CE58D04082EC20
:1001000098E0C057DF4F99838883C059D04097E269
:10011000CE56DF4F9883C259D040C057DF4FE88199
:10012000F981C059D0400080C057DF4F2881398104
:10013000C059D0402F5F3F4FC057DF4F39832883CE
:10014000C059D040C257DF4FE881F981CE58D04026
:100150000082C257DF4F28813981CE58D0402F5FAF
:100160003F4FC257DF4F39832883CE58D040CE56F9
:10017000DF4F3881C259D0403150CE56DF4F3883DF
:10018000C259D040CE56DF4F8881C259D040882313
:1001900021F6CE01875B9F4FCD56DF4F9983888331
:1001A000C359D040E9EEF8E0CB56DF4FF983E8833E
:1001B000C559D040FEE2C956DF4FF883C759D04039
:1001C000CB56DF4FE881F981C559D0400080CB562E
:1001D000DF4F28813981C559D0402F5F3F4FCB5623
:1001E000DF4F39832883C559D040CD56DF4FE88192
:1001F000F981C359D0400082CD56DF4F2881398123
:10020000C359D0402F5F3F4FCD56DF4F39832883EE
:10021000C359D040C956DF4F3881C759D0403150FB
:10022000C956DF4F3883C759D040C956DF4F888140
:10023000C759D040882321F6E1E6F0E080E88083CA
:10024000E1E6F0E0108281E08D8386E090E00E949C
:100250000E20893309F01D8287E090E00E940E2075
:10026000803309F01D828EE190E00E940E208333DE
:1002700009F01D8280E290E00E940E20823309F096
:100280001D8281E290E00E940E20803309F01D82E1
:1002900088E290E00E940E20882309F01D828D8163
:1002A000882311F00C940B0E40E855E260E070E0FA
:1002B00083E00E94D7160E94C31480E091E09F93D0
:1002C0008F930E94D4170F900F9085E391E09F9336
:1002D0008F930E94D4170F900F900E94AE130E942C
:1002E000EF1388E691E09F938F930E94D4170F90AD
:1002F0000F90E0E2F0E080818F3F09F0FFCF82E2D3
:1003000090E09F938F9382E290E09F938F9384EA93
:1003100091E09F938F930E94D417EDB7FEB7369666
:100320000FB6F894FEBF0FBEEDBF81E08F8383EC64
:1003300091E09F938F930E94D4170F900F900E948B
:100340004B178B878B858823D1F30E9489178B8766
:100350008B85803249F488EF91E09F938F930E94C0
:10036000D4170F900F9001C01F828DE092E09F93F1
:100370008F930E94D4170F900F9085E292E09F9385
:100380008F930E94D4170F900F900E94AE1380E9B4
:1003900091E00E944514E0E2F0E08081882309F0BA
:1003A000FFCF0E94EF1380E991E00E944514E0E244
:1003B000F0E080818F3F09F0FFCF8AEA0E94BC13F2
:1003C00080E991E00E944514E0E2F0E080818A3A01
:1003D00009F0FFCF0E94EF1380E991E00E944514DD
:1003E000E0E2F0E08081853509F0FFCF88EF91E011
:1003F0009F938F930E94D4170F900F908AE592E0FD
:100400009F938F930E94D4170F900F9088E792E0EC
:100410009F938F930E94D4170F900F90E4E2F0E027
:100420008FE78A878A858083E5E2F0E010821D8A63
:100430001C8A0EC0E3E2F0E090818A8589238B87D5
:100440008B85882359F08C899D8901969D8B8C8B97
:100450008C899D89F3E0883E9F0764F38C899D8990
:1004600023E0873E920724F08B850E94BC13FFCFC8
:10047000E5E2F0E08FE780831D8A1C8A0EC0E3E28C
:10048000F0E090818A8589238B878B858F3759F09F
:100490008C899D8901969D8B8C8B8C899D8933E0FD
:1004A000883E930764F38C899D89E3E0873E9E072D
:1004B00024F08B850E94BC13FFCFE5E2F0E08FE0D3
:1004C00080831D8A1C8A0EC0E3E2F0E090818A8559
:1004D00089238B878B858F3059F08C899D89019674
:1004E0009D8B8C8B8C899D89F3E0883E9F0764F3FC
:1004F0008C899D8923E0873E920724F08B850E949A
:10050000BC13FFCFE5E2F0E080E780831D8A1C8A00
:100510000EC0E3E2F0E090818A8589238B878B858A
:10052000803759F08C899D8901969D8B8C8B8C89A5
:100530009D8933E0883E930764F38C899D89E3E0CD
:10054000873E9E0724F08B850E94BC13FFCFE5E217
:10055000F0E085E580831D8A1C8A0EC0E3E2F0E0AE
:1005600090818A8589238B878B85853559F08C8985
:100570009D8901969D8B8C8B8C899D89F3E0883EAB
:100580009F0764F38C899D8923E0873E920724F0BE
:100590008B850E94BC13FFCFE5E2F0E08AE2808306
:1005A0001D8A1C8A0EC0E3E2F0E090818A858923CF
:1005B0008B878B858A3259F08C899D8901969D8B1A
:1005C0008C8B8C899D8933E0883E930764F38C89FA
:1005D0009D89E3E0873E9E0724F08B850E94BC1333
:1005E000FFCFA5E2B0E0E4E2F0E0108280818C93DE
:1005F00081E892E09F938F930E94D4170F900F9001
:10060000E7E2F0E08FEF8A878A858083E8E2F0E016
:1006100010821D8A1C8A0EC0E6E2F0E090818A8575
:1006200089238B878B85882359F08C899D89019636
:100630009D8B8C8B8C899D89F3E0883E9F0764F3AA
:100640008C899D8923E0873E920724F08B850E9448
:10065000BC13FFCFE8E2F0E08FEF80831D8A1C8A95
:100660000EC0E6E2F0E090818A8589238B878B8536
:100670008F3F59F08C899D8901969D8B8C8B8C893D
:100680009D8933E0883E930764F38C899D89E3E07C
:10069000873E9E0724F08B850E94BC13FFCFE8E2C3
:1006A000F0E08FE080831D8A1C8A0EC0E6E2F0E055
:1006B00090818A8589238B878B858F3059F08C892F
:1006C0009D8901969D8B8C8B8C899D89F3E0883E5A
:1006D0009F0764F38C899D8923E0873E920724F06D
:1006E0008B850E94BC13FFCFE8E2F0E080EF8083AF
:1006F0001D8A1C8A0EC0E6E2F0E090818A8589237B
:100700008B878B85803F59F08C899D8901969D8BC5
:100710008C8B8C899D8933E0883E930764F38C89A8
:100720009D89E3E0873E9E0724F08B850E94BC13E1
:10073000FFCFE8E2F0E085E580831D8A1C8A0EC0C9
:10074000E6E2F0E090818A8589238B878B85853569
:1007500059F08C899D8901969D8B8C8B8C899D8904
:10076000F3E0883E9F0764F38C899D8923E0873EF0
:10077000920724F08B850E94BC13FFCFE8E2F0E0E3
:100780008AEA80831D8A1C8A0EC0E6E2F0E090812E
:100790008A8589238B878B858A3A59F08C899D8934
:1007A00001969D8B8C8B8C899D8933E0883E9307C5
:1007B00064F38C899D89E3E0873E9E0724F08B8556
:1007C0000E94BC13FFCFA8E2B0E0E7E2F0E01082A5
:1007D00080818C9385E892E09F938F930E94D41739
:1007E0000F900F90EAE2F0E08AE98A878A85808399
:1007F000EBE2F0E010821D8A1C8A0EC0E9E2F0E014
:1008000090818A8589238B878B85882359F08C89F1
:100810009D8901969D8B8C8B8C899D89F3E0883E08
:100820009F0764F38C899D8923E0873E920724F01B
:100830008B850E94BC13FFCFEBE2F0E08AE9808356
:100840001D8A1C8A0EC0E9E2F0E090818A85892326
:100850008B878B858A3959F08C899D8901969D8B70
:100860008C8B8C899D8933E0883E930764F38C8957
:100870009D89E3E0873E9E0724F08B850E94BC1390
:10088000FFCFEBE2F0E08AE080831D8A1C8A0EC075
:10089000E9E2F0E090818A8589238B878B858A3015
:1008A00059F08C899D8901969D8B8C8B8C899D89B3
:1008B000F3E0883E9F0764F38C899D8923E0873E9F
:1008C000920724F08B850E94BC13FFCFEBE2F0E08F
:1008D00080E980831D8A1C8A0EC0E9E2F0E09081E5
:1008E0008A8589238B878B85803959F08C899D89EE
:1008F00001969D8B8C8B8C899D8933E0883E930774
:1009000064F38C899D89E3E0873E9E0724F08B8504
:100910000E94BC13FFCFEBE2F0E088E180831D8AE8
:100920001C8A0EC0E9E2F0E090818A8589238B87DA
:100930008B85883159F08C899D8901969D8B8C8B94
:100940008C899D89F3E0883E9F0764F38C899D899B
:1009500023E0873E920724F08B850E94BC13FFCFD3
:10096000EBE2F0E08AE880831D8A1C8A0EC0E9E28F
:10097000F0E090818A8589238B878B858A3859F0AE
:100980008C899D8901969D8B8C8B8C899D8933E008
:10099000883E930764F38C899D89E3E0873E9E0738
:1009A00024F08B850E94BC13FFCFABE2B0E0EAE2FB
:1009B000F0E0108280818C9389E892E09F938F937E
:1009C0000E94D4170F900F90EDE2F0E08CEF8A8731
:1009D0008A858083EEE2F0E010821D8A1C8A0EC0B8
:1009E000ECE2F0E090818A8589238B878B858823D0
:1009F00059F08C899D8901969D8B8C8B8C899D8962
:100A0000F3E0883E9F0764F38C899D8923E0873E4D
:100A1000920724F08B850E94BC13FFCFEEE2F0E03A
:100A20008CEF80831D8A1C8A0EC0ECE2F0E090817E
:100A30008A8589238B878B858C3F59F08C899D898A
:100A400001969D8B8C8B8C899D8933E0883E930722
:100A500064F38C899D89E3E0873E9E0724F08B85B3
:100A60000E94BC13FFCFEEE2F0E08CE080831D8A91
:100A70001C8A0EC0ECE2F0E090818A8589238B8786
:100A80008B858C3059F08C899D8901969D8B8C8B40
:100A90008C899D89F3E0883E9F0764F38C899D894A
:100AA00023E0873E920724F08B850E94BC13FFCF82
:100AB000EEE2F0E080EF80831D8A1C8A0EC0ECE23B
:100AC000F0E090818A8589238B878B85803F59F060
:100AD0008C899D8901969D8B8C8B8C899D8933E0B7
:100AE000883E930764F38C899D89E3E0873E9E07E7
:100AF00024F08B850E94BC13FFCFEEE2F0E084E58A
:100B000080831D8A1C8A0EC0ECE2F0E090818A8509
:100B100089238B878B85843559F08C899D89019633
:100B20009D8B8C8B8C899D89F3E0883E9F0764F3B5
:100B30008C899D8923E0873E920724F08B850E9453
:100B4000BC13FFCFEEE2F0E088EA80831D8A1C8AA6
:100B50000EC0ECE2F0E090818A8589238B878B853B
:100B6000883A59F08C899D8901969D8B8C8B8C8954
:100B70009D8933E0883E930764F38C899D89E3E087
:100B8000873E9E0724F08B850E94BC13FFCFAEE208
:100B9000B0E0EDE2F0E0108280818C938DE892E08D
:100BA0009F938F930E94D4170F900F90E0E3F0E093
:100BB00088E08A878A858083E1E3F0E010821D8ADD
:100BC0001C8A0EC0EFE2F0E090818A8589238B8732
:100BD0008B85882359F08C899D8901969D8B8C8B00
:100BE0008C899D89F3E0883E9F0764F38C899D89F9
:100BF00023E0873E920724F08B850E94BC13FFCF31
:100C0000E1E3F0E088E080831D8A1C8A0EC0EFE2F9
:100C1000F0E090818A8589238B878B85883059F015
:100C20008C899D8901969D8B8C8B8C899D8933E065
:100C3000883E930764F38C899D89E3E0873E9E0795
:100C400024F08B850E94BC13FFCFA1E3B0E0E0E36A
:100C5000F0E0108280818C9384E992E09F938F93DF
:100C60000E94D4170F900F90E3E3F0E087E08A87AB
:100C70008A858083E4E3F0E010821D8A1C8A0EC01E
:100C8000E2E3F0E090818A8589238B878B85882336
:100C900059F08C899D8901969D8B8C8B8C899D89BF
:100CA000F3E0883E9F0764F38C899D8923E0873EAB
:100CB000920724F08B850E94BC13FFCFE4E3F0E0A1
:100CC00087E080831D8A1C8A0EC0E2E3F0E09081F9
:100CD0008A8589238B878B85873059F08C899D89FC
:100CE00001969D8B8C8B8C899D8933E0883E930780
:100CF00064F38C899D89E3E0873E9E0724F08B8511
:100D00000E94BC13FFCFE4E3F0E085E080831D8AFE
:100D10001C8A0EC0E2E3F0E090818A8589238B87EC
:100D20008B85853059F08C899D8901969D8B8C8BA4
:100D30008C899D89F3E0883E9F0764F38C899D89A7
:100D400023E0873E920724F08B850E94BC13FFCFDF
:100D5000E4E3F0E082E080831D8A1C8A0EC0E2E3B7
:100D6000F0E090818A8589238B878B85823059F0CA
:100D70008C899D8901969D8B8C8B8C899D8933E014
:100D8000883E930764F38C899D89E3E0873E9E0744
:100D900024F08B850E94BC13FFCFA4E3B0E0E3E313
:100DA000F0E0108280818C9388EF91E09F938F9385
:100DB0000E94D4170F900F908BEA92E09F938F932D
:100DC0000E94D4170F900F9083EC92E09F938F9323
:100DD0000E94D4170F900F900E94AE130E947312BE
:100DE000EAE2F0E01082EBE2F0E081E080831B8633
:100DF0001D868EEE92E09F938F930E94D4170F90E2
:100E00000F90E0C0E9E2F0E08081809581708A87F0
:100E10009B858A85892B8B878A85813001F58D8515
:100E2000992781709070009799F48D85882341F0FF
:100E300081E093E09F938F930E94D4170F900F90BF
:100E400084E093E09F938F930E94D4170F900F90AC
:100E50008D8581608D8761E080E00E94FA130E9499
:100E6000C1128A879B858A85892B8B878A858031E9
:100E700001F58D85992780719070009799F48D8583
:100E8000882341F081E093E09F938F930E94D417D1
:100E90000F900F908BE093E09F938F930E94D41755
:100EA0000F900F908D8580618D8761E084E00E94B6
:100EB000FA138A858038E9F48D8588239CF08D8526
:100EC000882341F081E093E09F938F930E94D41791
:100ED0000F900F9082E193E09F938F930E94D4171D
:100EE0000F900F908D8580688D8761E087E00E946C
:100EF000FA138A85803401F58D8599278074907066
:100F0000009799F48D85882341F081E093E09F93C9
:100F10008F930E94D4170F900F9089E193E09F93D5
:100F20008F930E94D4170F900F908D8580648D87CA
:100F300061E086E00E94FA138A85803201F58D8592
:100F4000992780729070009799F48D85882341F0DD
:100F500081E093E09F938F930E94D4170F900F909E
:100F60008FE193E09F938F930E94D4170F900F907F
:100F70008D8580628D8761E085E00E94FA138A8505
:100F8000843001F58D85992784709070009799F4CD
:100F90008D85882341F081E093E09F938F930E9499
:100FA000D4170F900F9085E293E09F938F930E9448
:100FB000D4170F900F908D8584608D8761E082E05B
:100FC0000E94FA138B85853F09F01CCF8DE293E0D8
:100FD0009F938F930E94D4170F900F9088EF91E00A
:100FE0009F938F930E94D4170F900F9084E690E008
:100FF0000E9445140E94C1128823E1F784E690E024
:101000000E94451480E393E09F938F930E94D4172E
:101010000F900F908BE493E09F938F930E94D417CF
:101020000F900F900E94AE130E9473120E94B5158C
:10103000992787FD90959B8B8A8B87E893E09F93F8
:101040008F930E94D4170F900F908A899B899923C0
:101050004CF48A899B89809590959B8B8A8B80E83C
:101060008B8701C01B868A899B890E948B10DC01BB
:10107000CB01998B888B88899989929582958F70FD
:1010800089279F708927982F907F88898F70982B48
:101090008B85892B0E94BC138A899B899F938F9390
:1010A00087E993E09F938F930E94D4170F900F903E
:1010B0000F900F908F81813041F40E944B1788234D
:1010C00021F00E9489178B8705C00E94C1128823D6
:1010D00009F4ACCF84E690E00E9445140E94C1124E
:1010E0008823E1F784E690E00E9445148DE293E0C6
:1010F0009F938F930E94D4170F900F9084EA93E0F0
:101100009F938F930E94D4170F900F900E94AE135D
:101110000E9473120E9435168C8787E893E09F9394
:101120008F930E94D4170F900F908C8599270E945F
:101130008B10DC01CB018A8F9B8FAC8FBD8F8A8D8A
:101140009B8DAC8DBD8D689413F8B695A79597953A
:1011500087951694D1F7982F907F8A8D8F70982B52
:101160008B85892B0E94BC138C8599279F938F9325
:1011700080EE93E09F938F930E94D4170F900F906F
:101180000F900F908F81813041F40E944B1788237C
:1011900021F00E9489178B8705C00E94C112882305
:1011A00009F4B8CF84E690E00E9445140E94C11271
:1011B0008823E1F784E690E00E9445148DE293E0F5
:1011C0009F938F930E94D4170F900F908FEE93E010
:1011D0009F938F930E94D4170F900F900E94AE138D
:1011E0000E9473120E9492169F878E8787E893E071
:1011F0009F938F930E94D4170F900F908E859F8599
:101200000E948B10DC01CB018E8B9F8BA88FB98F36
:101210008E899F89A88DB98D072E7CE0B695A795FC
:10122000979587957A95D1F7702D282F207F8E89F5
:101230009F89A88DB98D892F9A2FAB2FBB278F70CF
:10124000822B0E94BC138E899F89A88DB98D8B2F0C
:101250009927AA27BB270E945D178E899F89A88D91
:10126000B98DCD01AA27BB270E945D178EE20E948F
:101270005D178E899F89A88DB98D892F9A2FAB2FE5
:10128000BB270E945D178E890E945D178BE294E058
:101290009F938F930E94D4170F900F908F8181306E
:1012A00041F40E944B17882321F00E9489178B87F5
:1012B00005C00E94C112882309F494CF84E690E00F
:1012C0000E9445140E94C1128823E1F784E690E051
:1012D0000E9445148DE293E09F938F930E94D41750
:1012E0000F900F9082E290E09F938F9382E290E0C4
:1012F0009F938F9384E394E09F938F930E94D417DE
:101300002DB73EB72A5F3F4F0FB6F8943EBF0FBED2
:101310002DBF83E594E09F938F930E94D4170F9085
:101320000F908BE694E09F938F930E94D4170F90B9
:101330000F908CE894E09F938F930E94D4170F90A6
:101340000F908CEB94E09F938F930E94D4170F9093
:101350000F9087E095E09F938F930E94D4170F9092
:101360000F9082E595E09F938F930E94D4170F9082
:101370000F908DE995E09F938F930E94D4170F9063
:101380000F9088EE95E09F938F930E94D4170F9053
:101390000F9083E396E09F938F930E94D4170F9052
:1013A0000F908BE796E09F938F930E94D4170F9036
:1013B0000F9083EC96E09F938F930E94D4170F9029
:1013C0000F908BE097E09F938F930E94D4170F901C
:1013D0000F900E94AE138FE00E94BC130E94731204
:1013E0000E945C1181E08B871E8278C28E818823E7
:1013F00061F48FE00E94BC1383E597E09F938F9385
:101400000E94D4170F900F900BC08AE00E94BC136B
:1014100084E797E09F938F930E94D4170F900F90CB
:1014200019868F81813019F40E944B17898789852D
:10143000882361F40E94C1128987898582958F7003
:10144000982F89858F70892B898703C00E948917FF
:1014500089878985E82FFF27C457DF4FF983E88301
:10146000CC58D040C457DF4F28813981CC58D04068
:101470002836310509F4A4C1C457DF4F888199810A
:10148000CC58D040893691050CF097C0C457DF4F37
:10149000E881F981CC58D040E132F10509F4FCC172
:1014A000C457DF4F28813981CC58D04022323105D2
:1014B000ECF5C457DF4F88819981CC58D0408430F7
:1014C000910509F41FC1C457DF4FE881F981CC5859
:1014D000D040E530F105ACF4C457DF4F28813981A5
:1014E000CC58D0402130310509F4CDC1C457DF4F6D
:1014F00088819981CC58D0408230910509F4DBC1B4
:10150000E9C1C457DF4FE881F981CC58D040E830B9
:10151000F10509F404C1C457DF4F28813981CC5843
:10152000D0402032310509F4E9C0D4C1C457DF4F9F
:1015300088819981CC58D0408136910509F4E6C064
:10154000C457DF4FE881F981CC58D040E236F1052D
:10155000ACF4C457DF4F28813981CC58D0402432B5
:10156000310509F487C1C457DF4F88819981CC5870
:10157000D0408E35910509F46BC1ACC1C457DF4F23
:10158000E881F981CC58D040E636F10509F4FDC078
:10159000C457DF4F28813981CC58D04027363105D8
:1015A0000CF005C1C457DF4F88819981CC58D040D9
:1015B0008436910509F4D7C08DC1C457DF4FE88147
:1015C000F981CC58D040E137F10509F4B1C0C457D6
:1015D000DF4F28813981CC58D040223731050CF0BB
:1015E00047C0C457DF4F88819981CC58D0408B3693
:1015F000910509F409C1C457DF4FE881F981CC583E
:10160000D040EC36F105ACF4C457DF4F2881398166
:10161000CC58D0402936310509F4EDC0C457DF4F0E
:1016200088819981CC58D0408A36910509F4DAC076
:1016300051C1C457DF4FE881F981CC58D040ED3615
:10164000F10509F4FCC0C457DF4F28813981CC581B
:10165000D0402D3631050CF4E9C0C457DF4F8881E6
:101660009981CC58D0408F36910509F4D6C032C14B
:10167000C457DF4FE881F981CC58D040E437F105F9
:1016800009F48CC0C457DF4F28813981CC58D04031
:1016900025373105ACF4C457DF4F88819981CC5888
:1016A000D0408237910509F467C0C457DF4FE88105
:1016B000F981CC58D040E337F10509F44BC00AC199
:1016C000C457DF4F28813981CC58D0402A373105A3
:1016D000C1F1C457DF4F88819981CC58D040893FF0
:1016E000910509F4BEC0C457DF4FE881F981CC5899
:1016F000D040E537F10509F46CC0ECC01B860E94B0
:101700002912ECC01B860E942912E8C083EB94E0EA
:101710000E94BD1186E990E00E944514DFC080E779
:1017200094E00E94BD1186E990E00E944514D6C065
:1017300080E794E00E94BD1186E990E00E94451484
:10174000CDC080E394E00E94BD1186E990E00E9444
:101750004514C4C084EF93E00E94BD1186E990E077
:101760000E944514BBC08BEB93E00E94BD1186E93B
:1017700090E00E944514B2C085E893E00E94BD113C
:1017800086E990E00E944514A9C083E593E00E9499
:10179000BD1186E990E00E944514A0C083E293E069
:1017A0000E94BD1186E990E00E94451497C086EF23
:1017B00092E00E94BD1186E990E00E9445148EC01F
:1017C0008BEC92E00E94BD1186E990E00E944514E6
:1017D00085C083EA92E00E94BD1186E990E00E94F4
:1017E00045147CC08DE792E00E94BD1186E990E02F
:1017F0000E94451473C089E592E00E94BD1186E9FC
:1018000090E00E9445146AC088E392E00E94BD11F6
:1018100086E990E00E94451461C088E192E00E9450
:10182000BD1186E990E00E94451458C08AEF91E00E
:101830000E94BD1186E990E00E9445144FC08DEDD5
:1018400091E00E94BD1186E990E00E94451446C0D7
:1018500082EC91E00E94BD1186E990E00E9445145F
:101860003DC089EA91E00E94BD1186E990E00E94A6
:10187000451434C081E991E00E94BD1186E990E0F1
:101880000E9445142BC081E991E00E94BD1186E9B8
:1018900090E00E94451422C08E81882319F481E0D3
:1018A0008E8301C01E828E810E944D1284E690E0DC
:1018B0000E94451413C08E81882319F481E08E8321
:1018C00001C01E828E810E944D1288EC90E00E9421
:1018D000451404C081E090E00E94BD118B858823EF
:1018E00009F084CD84E690E00E9445140E94C11264
:1018F0008823E1F784E690E00E94451482E290E0BC
:101900009F938F9382E290E09F938F9385E997E076
:101910009F938F930E94D4172DB73EB72A5F3F4FF6
:101920000FB6F8943EBF0FBE2DBF86EB97E09F9396
:101930008F930E94D4170F900F908CEC97E09F9399
:101940008F930E94D4170F900F900E94AE130E94A5
:10195000731281E08B87198A188A888999890E9475
:101960008B10DC01CB018E8F9F8FA8A3B9A3888930
:1019700099899F938F9385EE97E09F938F930E9411
:10198000D4170F900F900F900F9088898F5F0E944F
:10199000BC131A861B8619C084E690E00E94451489
:1019A0008F81813049F40E944B17882329F00E94CF
:1019B0008917898781E08A870E94C112882311F0E4
:1019C00081E08A878B858F5F8B878B858A3020F3B8
:1019D0008A85813031F0888999890196998B888B25
:1019E000BCCF84E690E00E9445140E94C112882377
:1019F000E1F784E690E00E94451482E290E09F9334
:101A00008F9382E290E09F938F9385E997E09F9375
:101A10008F930E94D4178DB79EB706960FB6F89491
:101A20009EBF0FBE8DBF84E098E09F938F930E946E
:101A3000D4170F900F908AE198E09F938F930E94A4
:101A4000D4170F900F900E94AE130E947312E8ED0E
:101A5000F0E081E08083E2EEF0E01082E3EEF0E07F
:101A600084E08083E4EEF0E082E18083188632C077
:101A7000EDEEF0E088858295807F8083EFEEF0E0E8
:101A80001082EEEEF0E01082E3EFF0E01082E2EF81
:101A9000F0E01082E1EFF0E01082E0EFF0E0108281
:101AA000E7EFF0E01082E6EFF0E01082E5EFF0E023
:101AB0001082E4EFF0E010821B8606C0EAEFF0E04F
:101AC00010828B858F5F8B878B858830B8F38885F4
:101AD0008F5F888788858F3058F283E08887EDEEA6
:101AE000F0E088858295807F8083EFEEF0E081E4EE
:101AF0008083E3EFF0E082E28083E2EFF0E080E2D7
:101B00008083E8EDF0E082E08083ECEDF0E0888512
:101B100080830EC088E10E94BC1384E690E00E949E
:101B2000451484E20E94BC1384E690E00E944514B0
:101B3000EEEEF0E08081813069F7E8EDF0E081E0E1
:101B4000808388EF91E09F938F930E94D4170F902A
:101B50000F908F81813061F48DEE0E94BC138FE273
:101B600098E09F938F930E94D4170F900F90FFCF10
:101B700087E99CE049E250E060E070E00E9490203C
:101B80000E94AE131A860FC061E08A850E94FA1384
:101B900088E290E00E94451460E08A850E94FA1372
:101BA0008A858F5F8A878A85883070F388E290E023
:101BB0000E94451461E086E00E94FA1388E290E0FA
:101BC0000E94451460E086E00E94FA1361E084E020
:101BD0000E94FA1388E290E00E94451460E084E0DD
:101BE0000E94FA1361E082E00E94FA1388E290E01A
:101BF0000E94451460E082E00E94FA1361E080E0F8
:101C00000E94FA1388E290E00E94451460E080E0B0
:101C10000E94FA13B7CFE1E6F0E080E88083E1E6C6
:101C2000F0E01082E1E2F0E08FEF8083AAE2B0E022
:101C3000EAE2F0E080818F7B8C93AAE2B0E0EAE2F6
:101C4000F0E080818F7D8C93ABE2B0E0EBE2F0E0DE
:101C5000808180648C93ABE2B0E0EBE2F0E08081C5
:101C600080628C930E9473120E94C1128C8319822D
:101C70000E94AE1389810E94BC1340E056E960E0E7
:101C800070E083E00E94D7168CE698E09F938F93D4
:101C90000E94D4170F900F9087EE9AE09F938F9336
:101CA00086E998E09F938F930E94D4170F900F902E
:101CB0000F900F908C81882381F4CE01875B9F4F1A
:101CC0009F938F9389E998E09F938F930E94D417F5
:101CD0000F900F900F900F900EC0CE0182969F93A1
:101CE0008F9389E998E09F938F930E94D4170F9068
:101CF0000F900F900F908FE998E09F938F930E9421
:101D0000D4170F900F90E9E2F0E08081992780745A
:101D100090700097C1F7E8EDF0E081E0808380E00B
:101D20000E94F120A5EEB0E0E2EEF0E080818C931D
:101D300000C0FE01E158FF4FCE0189589F4F9187A7
:101D400080871B820DC08B81282F3327CE018958B5
:101D50009F4FFC01E20FF31F10828B818F5F8B83FB
:101D60008B81883080F3FE01E158FF4F84E090E0E2
:101D700092838183CE0181589F4F0E941C2188232A
:101D8000C9F7CE0181589F4F0E94662A8A838A81B3
:101D9000813009F4F6CF8A81823009F46CC08981E0
:101DA0000E94BC1389818F5F8983CE0181589F4F28
:101DB000BC0182E50E94490FFE01E158FF4F83817B
:101DC0009481A581B6810097A105B10509F453C09E
:101DD000FE01E158FF4F83819481009709F44BC0C5
:101DE0008C81882309F0A5CFE9EFF0E08081FE0126
:101DF000E958FF4F8683E8EFF0E08081FE01E95863
:101E0000FF4F8783FE01E158FF4F83819481A581B5
:101E1000B6810196A11DB11DFE01E158FF4F8383DC
:101E20009483A583B683FE01E158FF4F88E0878342
:101E3000FE01E158FF4F82E090E092838183CE0162
:101E400081589F4F0E941C218823C9F7CE018158D9
:101E50009F4F0E94662A8A838A81813009F4F6CFD7
:101E6000CE0181589F4FBC0184E50E94490F8A81B1
:101E7000823009F05ECF0E94211080E090E0C956C8
:101E8000DF4F0FB6F894DEBF0FBECDBFDF91CF910D
:101E900008950F931F93CF93DF93CDB7DEB72497A9
:101EA0000FB6F894DEBF0FBECDBF8A837C836B83F1
:101EB000EB81FC818485882391F1EB81FC81878112
:101EC000082F1127EB81FC812381348145815681C4
:101ED000E8EFF0E08081A82FBB27E9EFF0E08081F8
:101EE000682F77278A8199271F930F935F934F93CA
:101EF0003F932F93BF93AF937F936F939F938F9352
:101F000087E199E09F938F930E94D4178DB79EB776
:101F10000E960FB6F8949EBF0FBE8DBF2DC0EB81FD
:101F2000FC818781A82FBB27EB81FC8143815481F1
:101F3000E8EFF0E08081682F7727E9EFF0E080811B
:101F4000282F33278A819927BF93AF935F934F93AD
:101F50007F936F933F932F939F938F9380E499E0A8
:101F60009F938F930E94D4178DB79EB70C960FB690
:101F7000F8949EBF0FBE8DBFEB81FC8183858823C3
:101F800049F08DE699E09F938F930E94D4170F90AC
:101F90000F904CC0EB81FC818781882349F486E750
:101FA00099E09F938F930E94D4170F900F903EC09B
:101FB00019821AC0EB81FC8120853185898199279E
:101FC000F901E80FF91F808199279F938F9380E88B
:101FD00099E09F938F930E94D4170F900F900F90CA
:101FE0000F9089818F5F89838981282F3327EB8127
:101FF000FC8187819927019728173907DCF2EB814B
:10200000FC812085318589819927F901E80FF91F25
:10201000808199279F938F9386E899E09F938F9370
:102020000E94D4170F900F900F900F9024960FB628
:10203000F894DEBF0FBECDBFDF91CF911F910F91FE
:102040000895CF93DF93CDB7DEB7A8970FB6F89476
:10205000DEBF0FBECDBFCE0102969DA38CA3EDECDB
:10206000F9E0FFA3EEA3F2E2F8A7EEA1FFA1008042
:102070008EA19FA101969FA38EA3ECA1FDA100823A
:102080008CA19DA101969DA38CA398A5915098A782
:10209000E8A5EE2351F78DE899E09F938F930E9476
:1020A000D4170F900F9019820FC088EE93E00E9412
:1020B000451487EA99E09F938F930E94D4170F905D
:1020C0000F9089818F5F89838981863070F388EED4
:1020D00093E00E94451489EA99E09F938F930E94B0
:1020E000D4170F900F90CE0102969F938F9388EC98
:1020F00099E09F938F930E94D4170F900F900F90A9
:102100000F9000C00E944B178823E1F30E948917AB
:102110000E945D17F7CFCF93DF93CDB7DEB76297FD
:102120000FB6F894DEBF0FBECDBF9A8B898B80E3CC
:1021300090E3A0E3B0E38D879E87AF87B88B1986C5
:102140001A861B861C861D821E821F821886198293
:102150001A821B821C8210C089859A85AB85BC853A
:102160000196A11DB11D89879A87AB87BC87898994
:102170009A890A979A8B898B89899A898A309105DD
:1021800058F716C08D819E81AF81B8850196A11D3B
:10219000B11D8D839E83AF83B88789859A85AB8572
:1021A000BC850A97A109B10989879A87AB87BC8743
:1021B00089859A85AB85BC858A309105A105B105D5
:1021C00008F716C089819A81AB81BC810196A11D57
:1021D000B11D89839A83AB83BC838D819E81AF813E
:1021E000B8850A97A109B1098D839E83AF83B8870B
:1021F0008D819E81AF81B8858A309105A105B10599
:1022000008F789819A81AB81BC81582F44273327F5
:1022100022278D859E85AF85B889822B932BA42B91
:10222000B52B8D879E87AF87B88B8D819E81AF81BF
:10223000B885AC01332722278D859E85AF85B88967
:10224000822B932BA42BB52B8D879E87AF87B88BC2
:1022500089859A85AB85BC852227382F492F5A2F2F
:102260008D859E85AF85B889822B932BA42BB52BAA
:102270008D879E87AF87B88B89899A899C0144276F
:1022800055278D859E85AF85B889822B932BA42BEE
:10229000B52B8D879E87AF87B88B8D859E85AF8543
:1022A000B889BC01CD0162960FB6F894DEBF0FBEAF
:1022B000CDBFDF91CF910895CF93DF93CDB7DEB738
:1022C000E4E4F0E01082E7E4F0E081E08083A4E45D
:1022D000B0E0E4E4F0E080818F7C8C93A4E4B0E093
:1022E000E4E4F0E0808188608C93A4E4B0E0E4E46E
:1022F000F0E0808181608C93A5E2B0E0E5E2F0E05F
:10230000808180688C93E1E8F0E01082E0E8F0E002
:102310001082E2E8F0E01082A8E8B0E0E9E8F0E03E
:10232000108280818C93A6E8B0E0E7E8F0E01082AC
:1023300080818C93A0E8B0E0E0E8F0E080818460E8
:102340008C93A0E8B0E0E0E8F0E080818D7F8C9392
:10235000E1E8F0E088E18083A1E8B0E0E1E8F0E0C6
:10236000808182608C93A4E2B0E0E4E2F0E08081BE
:1023700080688C93DF91CF910895CF93DF93CDB791
:10238000DEB722970FB6F894DEBF0FBECDBF9A839B
:102390008983E7E8F0E089819A81892F99278083F2
:1023A000E6E8F0E08981808322960FB6F894DEBFDC
:1023B0000FBECDBFDF91CF910895CF93DF93CDB7FF
:1023C000DEB725970FB6F894DEBF0FBECDBF9C8356
:1023D0008B830E945C118B819C8102969C838B83F2
:1023E00018C0EB81FC81208131818B819C81029618
:1023F0009C838B83C9010E94BD1189819A810E94AF
:10240000451480E090E00E94BD1182E090E00E94BF
:102410004514EB81FC81808191819A8389831D829F
:1024200089819A81009711F081E08D838B819C8155
:1024300002969C838B838D81882399F60E942912B2
:1024400025960FB6F894DEBF0FBECDBFDF91CF91BA
:102450000895CF93DF93CDB7DEB7E0E8F0E01082C8
:10246000A6E8B0E0E7E8F0E0108280818C93E4E435
:10247000F0E01082A4E2B0E0E4E2F0E090818FE7C7
:1024800089238C93A5E2B0E0E5E2F0E090818FE74C
:1024900089238C93DF91CF910895CF93DF93CDB7AC
:1024A000DEB721970FB6F894DEBF0FBECDBF89838C
:1024B0008981813041F4A4E4B0E0E4E4F0E080817B
:1024C00080618C9307C0A4E4B0E0E4E4F0E0808194
:1024D0008F7C8C9321960FB6F894DEBF0FBECDBFD4
:1024E000DF91CF910895CF93DF93CDB7DEB7ADE203
:1024F000B0E0EDE2F0E080818F7E8C93ADE2B0E061
:10250000EDE2F0E090818FE789238C93ADE2B0E0BB
:10251000EDE2F0E080818F7B8C93ADE2B0E0EDE204
:10252000F0E080818F7D8C93ADE2B0E0EDE2F0E0F1
:1025300080818B7F8C93AEE2B0E0EEE2F0E08081B0
:1025400080618C93AEE2B0E0EEE2F0E080818068E2
:102550008C93AEE2B0E0EEE2F0E0808180648C9398
:10256000AEE2B0E0EEE2F0E0808180628C93AEE219
:10257000B0E0EEE2F0E0808184608C93DF91CF9157
:102580000895CF93DF93CDB7DEB722970FB6F894B7
:10259000DEBF0FBECDBFECE2F0E09081ECE2F0E0F8
:1025A0008081892B982FECE2F0E08081892B809547
:1025B000982F84EF89238A8319829A818981892BB4
:1025C0008A838A81992722960FB6F894DEBF0FBEC0
:1025D000CDBFDF91CF910895CF93DF93CDB7DEB715
:1025E00024970FB6F894DEBF0FBECDBFECE2F0E04B
:1025F0009081ECE2F0E08081892B982FECE2F0E012
:102600008081892B8095982F84EF89238A83198272
:102610009A818981892B8A838A81282F33273C8359
:102620002B838B819C818434910509F487C02B8195
:102630003C812534310584F58B819C818032910564
:1026400009F45EC02B813C81213231059CF48B81E1
:102650009C818031910509F44AC02B813C81243151
:10266000310509F465C08B819C818430910509F4A2
:102670004AC069C02B813C812033310509F44CC02C
:102680008B819C8180349105C1F12B813C81243266
:10269000310509F456C057C08B819C81843891055F
:1026A00009F449C02B813C812538310584F48B81A4
:1026B0009C8180369105C9F12B813C812038310500
:1026C000C9F08B819C818035910501F13CC02B8143
:1026D0003C81203A310519F18B819C81803C910528
:1026E000C1F02B813C8120393105E1F02CC081E023
:1026F0008A8329C082E08A8326C083E08A8323C03C
:1027000084E08A8320C085E08A831DC086E08A83B6
:102710001AC087E08A8317C088E08A8314C089E0E2
:102720008A8311C08AE08A830EC08BE08A830BC043
:102730008CE08A8308C08DE08A8305C08EE08A839E
:1027400002C08FE08A838A81992724960FB6F89475
:10275000DEBF0FBECDBFDF91CF910895CF93DF9342
:10276000CDB7DEB7E1E2F0E08FEF8083E2E2F0E0A8
:102770001082DF91CF910895CF93DF93CDB7DEB76D
:1027800021970FB6F894DEBF0FBECDBF8983E2E27A
:10279000F0E08981808321960FB6F894DEBF0FBEEA
:1027A000CDBFDF91CF910895CF93DF93CDB7DEB743
:1027B000A2E2B0E0E0E2F0E0808199278295929574
:1027C000907F9827807F9827982FE0E2F0E0808123
:1027D00082958F70892B8C93DF91CF910895CF9341
:1027E000DF93CDB7DEB7E0E2F0E08FEF8083DF91DB
:1027F000CF910895CF93DF93CDB7DEB723970FB670
:10280000F894DEBF0FBECDBF8A836B8319828A81A5
:10281000883080F58B818823B1F481E08983A2E23E
:10282000B0E0E2E2F0E08081482F8A81282F332750
:1028300081E090E0022E02C0880F991F0A94E2F70F
:10284000809584238C938B818130A1F481E08983EE
:10285000A2E2B0E0E2E2F0E08081482F8A81282FF6
:10286000332781E090E002C0880F991F2A95E2F794
:10287000842B8C938981992723960FB6F894DEBF19
:102880000FBECDBFDF91CF910895CF93DF93CDB72A
:10289000DEB72A970FB6F894DEBF0FBECDBF9A877A
:1028A00089878091C00C813009F045C0F8948091EF
:1028B000C50C9091C60CA091C70CB091C80C8D832B
:1028C0009E83AF83B887789489859A859C01442735
:1028D00055278D819E81AF81B885820F931FA41FDC
:1028E000B51F8D839E83AF83B887F8942091C50C64
:1028F0003091C60C4091C70C5091C80C8D819E81BF
:10290000AF81B885281739074A075B0799F1898590
:102910009A859C01442755278091C50C9091C60C3F
:10292000A091C70CB091C80C281739074A075B075C
:1029300009F17894DACF1C821B8215C01A820BC071
:10294000198203C089818F5F898389818A35D0F399
:102950008A818F5F8A838A81883090F38B819C8102
:1029600001969C838B832B813C8189859A852817CE
:10297000390720F32A960FB6F894DEBF0FBECDBFFD
:10298000DF91CF910895CF93DF93CDB7DEB7229734
:102990000FB6F894DEBF0FBECDBFF894E0EBF0E0C9
:1029A0001082E2EBF0E01082E3EBF0E010821A829A
:1029B000198205C089819A8101969A8389838981C8
:1029C0009A812FEF8F3F9207A9F7A0E7B0E0E0E7E9
:1029D000F0E080818E7F8C93A0E7B0E0E0E7F0E04C
:1029E00080818D7F8C93A0EBB0E0E0EBF0E0808104
:1029F0008F7C8C93A0EBB0E0E0EBF0E08081877BF4
:102A000088608C93A6EBB0E0E6EBF0E080818F7EEF
:102A100088608C93E3EBF0E080E28083A0EBB0E091
:102A2000E0EBF0E08081887F81608C93E6EBF0E062
:102A300080819927877090700097C1F7A7E3B0E075
:102A4000E7E3F0E0808182608C93A0E7B0E0E0E70C
:102A5000F0E0808182608C931092C50C1092C60CBD
:102A60001092C70C1092C80C1092C40C1092C30C98
:102A70001092CA0C1092C10C1092C90C1092C20C88
:102A800081E08093C00C789422960FB6F894DEBF54
:102A90000FBECDBFDF91CF9108951F920F920FB659
:102AA0000F9211242F938F939F93AF93BF93CF9344
:102AB000DF93CDB7DEB78091C50C9091C60CA09185
:102AC000C70CB091C80C0196A11DB11D8093C50C17
:102AD0009093C60CA093C70CB093C80C8091C30C04
:102AE0009091C40C01969093C40C8093C30C809178
:102AF000C30C9091C40C23E0883E920751F51092CC
:102B0000C40C1092C30C8091CA0C8F5F8093CA0CC6
:102B10008091CA0C8C33E9F41092CA0C8091C10CDC
:102B20008F5F8093C10C8091C10C8C3391F4109213
:102B3000C10C8091C90C8F5F8093C90C8091C90C26
:102B4000883139F41092C90C8091C20C8F5F809348
:102B5000C20CDF91CF91BF91AF919F918F912F9137
:102B60000F900FBE0F901F901895CF93DF93CDB7A6
:102B7000DEB727970FB6F894DEBF0FBECDBF40E09B
:102B800060E081E00E94941E80E00E943B1F9D83D4
:102B90008C832C813D8184E690E0289FA001299FB1
:102BA000500D389F500D11242FEF33E08C819D8103
:102BB000281B390BCA01B9010E94FE2ECB019F834D
:102BC0008E8387E290E09A83898313C089819A81FA
:102BD000880F991FFC01E151F64F208131818E81D0
:102BE0009F818217930750F489819A8101969A8375
:102BF000898389819A818C34910544F389819A81F2
:102C000001979A83898389819A8186329105E9F4B3
:102C100087E290E09A83898313C089819A81880F23
:102C2000991FFC01E151F64F208131818E819F81F6
:102C30008217930750F089819A8101979A8389833B
:102C400089819A811816190644F389818F508B83E4
:102C50008B81992787FD909527960FB6F894DEBF54
:102C60000FBECDBFDF91CF910895CF93DF93CDB746
:102C7000DEB726970FB6F894DEBF0FBECDBF41E09A
:102C800060E081E00E94941E81E00E943B1F9C83D3
:102C90008B832B813C8181E290E0289FA001299FBA
:102CA000500D389F500D11242FEF33E08B819C8104
:102CB000281B390BCA01B9010E94FE2ECB019E834D
:102CC0008D8381E0898313C08981992787FD909541
:102CD000880F991FFC01E957F54F208131818D81C3
:102CE0009E818217930730F489818E5F8983898161
:102CF000803354F38981992787FD90950197880F38
:102D0000991FFC01E957F54F808191818A838A815F
:102D1000992726960FB6F894DEBF0FBECDBFDF9180
:102D2000CF910895CF93DF93CDB7DEB72A970FB633
:102D3000F894DEBF0FBECDBF42E060E083E00E94AA
:102D4000941E82E00E943B1FAA27BB278B839C8393
:102D5000AD83BE838B819C81AD81BE812DE730E048
:102D600040E050E0BC01CD010E94DF2EDC01CB0130
:102D70008F839887A987BA878F819885A985BA8517
:102D800024E630E040E050E0BC01CD010E94252F58
:102D9000DA01C9019A83898389819A812A960FB6BB
:102DA000F894DEBF0FBECDBFDF91CF910895CF93D2
:102DB000DF93CDB7DEB727970FB6F894DEBF0FBE0F
:102DC000CDBF89834A835B836C837D83E1ECF0E034
:102DD0001082A2ECB0E0E6ECF0E080818C93E0ECB5
:102DE000F0E080E48083E2ECF0E086E08083E5ECD4
:102DF000F0E01082E4ECF0E010828A819B81AC81EB
:102E0000BD81BC01CD010E94591C882319F41F8289
:102E10001E8236C0A0ECB0E0E0ECF0E08081806281
:102E20008C93A1ECB0E0E1ECF0E080818B7F8C939F
:102E3000A1ECB0E0E1ECF0E08081982F8981847012
:102E4000892B8C93E2ECF0E0898188738083A2EC7B
:102E5000B0E0E2ECF0E08081282F8981992783702F
:102E60009070880F991F822B8C93A1ECB0E0E1EC5D
:102E7000F0E0808188618C9381E090E09F838E8375
:102E80008E819F8127960FB6F894DEBF0FBECDBF0F
:102E9000DF91CF910895CF93DF93CDB7DEB7E0EC0C
:102EA000F0E08081992780789070880F892F881FA3
:102EB000990B9927DF91CF910895CF93DF93CDB7E9
:102EC000DEB721970FB6F894DEBF0FBECDBF898362
:102ED000E0ECF0E08081992780729070959587955D
:102EE00095958795959587959595879595958795CA
:102EF000009771F3E6ECF0E089818083898199275E
:102F000021960FB6F894DEBF0FBECDBFDF91CF91F3
:102F10000895CF93DF93CDB7DEB721970FB6F8941E
:102F2000DEBF0FBECDBFE0ECF0E080819927807856
:102F30009070880F892F881F990B0097A1F3E6ECFA
:102F4000F0E0808189838981992721960FB6F894D2
:102F5000DEBF0FBECDBFDF91CF910895CF93DF933A
:102F6000CDB7DEB722970FB6F894DEBF0FBECDBF48
:102F70009A8389830BC0E981FA81208189819A81B2
:102F800001969A838983822F0E945D17E981FA81D5
:102F90008081882381F722960FB6F894DEBF0FBE9A
:102FA000CDBFDF91CF9108950F931F93CF93DF9300
:102FB000CDB7DEB7AF970FB6F894DEBF0FBECDBF6B
:102FC0001F861E868BE0888BCE01C896998F888FCE
:102FD0008EA99FA99F8B8E8B74C3EE89FF898081F8
:102FE000853221F08E85813009F047C08E899F8916
:102FF00001969F8B8E8BEE89FF898081282F332746
:103000003FA72EA78EA59FA58436910509F496C0EB
:103010002EA53FA52536310594F48EA59FA58835AC
:10302000910509F4FEC12EA53FA52336310569F1AE
:103030008EA59FA58033910509F4BDC22EC32EA590
:103040003FA523373105E9F18EA59FA5843791056A
:103050003CF42EA53FA52C36310509F45CC01DC3F8
:103060008EA59FA58537910509F437C12EA53FA5EB
:103070002837310509F4D5C110C3EE89FF89808155
:103080000E945D171E861F8617C38F85813039F415
:103090008CE60E945D1783E60E945D170DC0288DA7
:1030A000398DC9010296998F888FF90180819181AC
:1030B0008D878D850E945D178BE0888B1E861F860D
:1030C000FBC28F85813039F48CE60E945D1783E75F
:1030D0000E945D171BC0288D398DC9010296998FFA
:1030E000888FF901808191819D8B8C8B0AC0EC893E
:1030F000FD8980810E945D178C899D8901969D8B39
:103100008C8BEC89FD898081882389F78BE0888B03
:103110001E861F86D1C28F85813031F48CE60E94D5
:103120005D171E861F8604C081E08E8781E08F8731
:103130008E899F8901979F8B8E8BBEC21A8A198AAE
:103140000DC08989282F3327CE014A96FC01E20F52
:10315000F31F80E3808389898F5F898B89898B3016
:1031600080F31DA28AE0898B8F85882309F45DC0D6
:10317000288D398DC9010496998F888FF901808136
:103180009181A281B3818F839887A987BA878F8124
:103190009885A985BA85BB238CF481E08A8B8F81C1
:1031A0009885A985BA85B095A095909581959F4FF2
:1031B000AF4FBF4F8F839887A987BA878989082F18
:1031C00011278F819885A985BA852AE030E040E0F3
:1031D00050E0BC01CD010E94472FDC01CB01282F1C
:1031E000205DCE014A96FC01E00FF11F20838F8104
:1031F0009885A985BA852AE030E040E050E0BC011E
:10320000CD010E94472FDA01C9018F839887A987D2
:10321000BA8789898150898B8F819885A985BA85DC
:103220000097A105B105E1F1C9CF288D398DC901FC
:103230000296998F888FF901808191819C878B8775
:103240008B859C8599234CF481E08A8B8B859C85AA
:10325000909581959F4F9C878B878989E82FFF27C1
:103260008B859C852AE030E0B9010E94122F282F1F
:10327000205DCE014A96E80FF91F20838B859C853F
:103280002AE030E0B9010E94122FCB019C878B8786
:1032900089898150898B8B859C85009709F0DDCFCA
:1032A0008A89882319F08DE20E945D1789898F5FD2
:1032B000898B98898989981710F48889898B8989DD
:1032C00099279C01CE014A96820F931F0E94AE1748
:1032D0008BE0888B1E861F86EFC1198A0DC08989F5
:1032E000282F3327CE014A96FC01E20FF31F80E31B
:1032F000808389898F5F898B89898B3080F31DA2B8
:103300008AE0898B8F85882309F446C0288D398D02
:10331000C9010496998F888FF90180819181A281DA
:10332000B38189839A83AB83BC838989082F112752
:1033300089819A81AB81BC812AE030E040E050E095
:10334000BC01CD010E94252FDC01CB01282F205D7F
:10335000CE014A96FC01E00FF11F208389819A81FA
:10336000AB81BC812AE030E040E050E0BC01CD01FF
:103370000E94252FDA01C90189839A83AB83BC831C
:1033800089898150898B89819A81AB81BC81009721
:10339000A105B10579F1C9CF288D398DC9010296F2
:1033A000998F888FF901808191819E838D8389898E
:1033B000E82FFF278D819E812AE030E0B9010E942D
:1033C000FE2E282F205DCE014A96E80FF91F20839C
:1033D00089898150898B8D819E812AE030E0B901F5
:1033E0000E94FE2ECB019E838D838D819E8100974E
:1033F00009F0DDCF89898F5F898B98898989981732
:1034000010F48889898B898999279C01CE014A9675
:10341000820F931F0E94AE178BE0888B1E861F863B
:103420004BC1198A0DC08989282F3327CE014A96AE
:10343000FC01E20FF31F80E3808389898F5F898B12
:1034400089898B3080F31DA28AE0898B8F85882340
:1034500009F455C0288D398DC9010496998F888F3C
:10346000F90180819181A281B38189839A83AB83A1
:10347000BC833BC089818F708B8B8989282F332730
:103480003DA72CA78B898A3028F48B89382F305D93
:103490003BA710C0EE89FF898081883719F481E647
:1034A0008AA702C091E49AA78B892AA5820F382F98
:1034B0003A503BA7CE014A96ECA5FDA5E80FF91FAF
:1034C0008BA5808389819A81AB81BC81689413F834
:1034D000B695A795979587951694D1F789839A8382
:1034E000AB83BC8389898150898B89819A81AB8127
:1034F000BC810097A105B10509F0BCCF45C0288D5E
:10350000398DC9010296998F888FF9018081918147
:103510009E838D8335C08D818F708B8B8989282FF9
:10352000332739A728A78B898A3028F48B89382F2D
:10353000305D3FA310C0EE89FF898081883719F480
:1035400081E68EA302C091E49EA38B892EA1820FF7
:10355000382F3A503FA3CE014A96E8A5F9A5E80FC7
:10356000F91F8FA180838D819E81929582958F70A6
:1035700089279F7089279E838D8389898150898BB4
:103580008D819E81009739F689898F5F898B988913
:103590008989981710F48889898B898999279C01D2
:1035A000CE014A96820F931F0E94AE178BE0888B44
:1035B0001E861F8681C08BE0888B8F85813049F401
:1035C0008CE60E945D1780E30E945D171E861F86B1
:1035D00073C08E899F8901969F8B8E8BEE89FF89A0
:1035E00080818B8B8B89803308F44CC08B898A3324
:1035F00008F048C08B898F70888B8E899F890196CF
:103600009F8B8E8BEE89FF8980818B8B8B8980339A
:1036100090F08B898A3378F488898295807F888BB3
:103620008B89982F9F708889892B888B8E899F8999
:1036300001969F8B8E8B8889482F4F708889829541
:103640008F7099279C01220F331FC901880F991F82
:10365000880F991F820F931F840F888B88898C3065
:1036600010F08BE0888B9BE08889292F281B822F04
:10367000888B8E899F8902979F8B8E8B81E08E87A6
:103680001F861AC080E30E945D17EE89FF89808142
:103690000E945D171E861F860FC08F85813019F42A
:1036A0008CE60E945D17EE89FF8980810E945D177C
:1036B0008BE0888B1E861F868E899F8901969F8B43
:1036C0008E8BEE89FF898081882309F086CC80E08B
:1036D00090E0AF960FB6F894DEBF0FBECDBFDF917E
:1036E000CF911F910F910895CF93DF93CDB7DEB7A0
:1036F00029970FB6F894DEBF0FBECDBF9E838D8392
:103700006F831A8281E089838F81882309F419826B
:10371000ED81FE811082C0C08A81282F33278F81DE
:10372000992701972817390769F48A8199279C01FD
:103730008D819E81F901E80FF91F10828A818F5FC8
:103740008A83AEC00E9489178B838B81282F3327F1
:1037500039872887888599858A30910509F12885D8
:1037600039852B3031055CF4888599858830910541
:10377000B9F1288539852930310509F17DC0888561
:1037800099858A31910509F45CC0288539852F37E0
:10379000310531F1888599858D30910509F06CC02E
:1037A0008A8199279C018D819E81F901E80FF91F7B
:1037B0001082808189838A818F5F8A836DC080E2D5
:1037C0000E945D178A8199279C018D819E81F90154
:1037D000E80FF91F80E280838A818F5F8A835CC053
:1037E0008A81882321F487E00E945D1755C08DE00F
:1037F0000E945D171C8206C080E20E945D178C81CA
:103800008F5F8C839C818A819817B0F38DE00E9432
:103810005D178A8181508A831C820EC08C81992712
:103820009C018D819E81F901E80FF91F80810E9422
:103830005D178C818F5F8C839C818A81981770F3D0
:103840002BC08A81882321F487E00E945D1724C061
:103850008DE00E945D171C8206C080E20E945D1709
:103860008C818F5F8C839C818A819817B0F38DE067
:103870000E945D171A8210C08B810E945D178A8199
:1038800099279C018D819E81F901E80FF91F8B8199
:1038900080838A818F5F8A838981882309F03CCF66
:1038A00029960FB6F894DEBF0FBECDBFDF91CF9142
:1038B0000895CF93DF93CDB7DEB764970FB6F89432
:1038C000DEBF0FBECDBF6F87788B898B9A8B8F85BC
:1038D0009889A989BA890097A105B10539F18F8521
:1038E0009889A989BA89880F991FAA1FBB1F880FB9
:1038F000991FAA1FBB1F880F991FAA1FBB1F9C01DE
:10390000AD0180E094E2A4EFB0E0BC01CD010E94E3
:10391000252FDA01C9010196A11DB11DB695A79504
:103920009795879501979E838D839FC1ADE2B0E007
:10393000EDE2F0E080818E7F8C93AEE2B0E0EEE2CB
:10394000F0E0808181608C93ADE2B0E0EDE2F0E0E8
:1039500080818D7F8C93AEE2B0E0EEE2F0E080817A
:1039600082608C93E1E8F0E01082E0E8F0E0108201
:10397000E2E8F0E01082E5E8F0E01082E4E8F0E050
:103980001082E9E8F0E01082E8E8F0E01082EBE86D
:10399000F0E01082EAE8F0E01082EDE8F0E010825A
:1039A000ECE8F0E01082E7E8F0E01082E6E8F0E012
:1039B00010820E94561E8823E1F30E94791E8823FC
:1039C000E1F7A1E8B0E0E1E8F0E08081887F816084
:1039D0008C930E94561E8823E1F30E94791E88234F
:1039E000E1F7E4E8F0E0808199279E878D87E5E89C
:1039F000F0E080819927382F22278D859E85822BA4
:103A0000932B9E878D870E94561E8823E1F30E9488
:103A1000791E8823E1F7E4E8F0E0808199279C870C
:103A20008B87E5E8F0E080819927382F22278B8566
:103A30009C85822B932B9C878B870E94561E882304
:103A4000E1F30E94791E8823E1F7E4E8F0E0808149
:103A500099279A878987E5E8F0E080819927382FB0
:103A6000222789859A85822B932B9A8789870E94A2
:103A7000561E8823E1F30E94791E8823E1F7E4E8CB
:103A8000F0E08081992798878F83E5E8F0E08081D6
:103A90009927382F22278F819885822B932B9887FF
:103AA0008F830E94791E8823E1F3E4E8F0E08081AF
:103AB00099279E838D83E5E8F0E080819927382F50
:103AC00022278D819E81822B932B9E838D83A1E85B
:103AD000B0E0E1E8F0E08081887F8C93ADE2B0E077
:103AE000EDE2F0E080818E7F8C93AEE2B0E0EEE21A
:103AF000F0E080818E7F8C93ADE2B0E0EDE2F0E00B
:103B000080818D7F8C93AEE2B0E0EEE2F0E08081C8
:103B10008D7F8C932D813E818F819885A901481BD3
:103B2000590BCA019E838D832F81388589859A859B
:103B3000A901481B590BCA0198878F8329853A85AB
:103B40008B859C85A901481B590BCA019A878987D7
:103B50002B853C858D859E85A901481B590BCA0183
:103B60009C878B878D819E819C01220F331F8D81C5
:103B70009E819695879596958795A901481B590B27
:103B8000CA019C838B838D819E819C01220F331FF0
:103B90008D819E819695879596958795820F931F27
:103BA0009A8389832D853E8589819A81821793071F
:103BB00038F02D853E858B819C812817390718F4B4
:103BC0001C8A1B8A68C02B853C8589819A81821753
:103BD000930738F02B853C858B819C81281739070A
:103BE00018F41C8A1B8A57C029853A8589819A81D5
:103BF0008217930738F029853A858B819C81281795
:103C0000390718F41C8A1B8A46C02F8138858981A0
:103C10009A818217930738F02F8138858B819C8198
:103C20002817390718F41C8A1B8A35C02D853E8554
:103C30008B859C85280F391F89859A85280F391F08
:103C40008F819885820F931F880F991F0024880FFA
:103C5000991F001C880F991F001C892F902D019619
:103C60009695879501979E838D83E5ECF0E08D8195
:103C70009E81892F99278083E4ECF0E08D818083F9
:103C8000A0ECB0E0E0ECF0E0808182608C9381E019
:103C900090E09C8B8B8B8B899C8964960FB6F894F3
:103CA000DEBF0FBECDBFDF91CF910895CF93DF93DD
:103CB000CDB7DEB721970FB6F894DEBF0FBECDBFEC
:103CC0001982ECE2F0E09081ECE2F0E08081982350
:103CD000ECE2F0E0808189238170898389819927D2
:103CE00021960FB6F894DEBF0FBECDBFDF91CF9106
:103CF0000895CF93DF93CDB7DEB721970FB6F89431
:103D0000DEBF0FBECDBF1982ECE2F0E08081817092
:103D100089838981992721960FB6F894DEBF0FBE5B
:103D2000CDBFDF91CF910895CF93DF93CDB7DEB7AD
:103D300029970FB6F894DEBF0FBECDBF8B836C837F
:103D40004D8381E08A8381E08983AAE7B0E0EAE7D6
:103D5000F0E090818FE789238C93AAE7B0E0EAE74F
:103D6000F0E08081877F8C93AAE7B0E0EAE7F0E09B
:103D7000808180618C938B81282F33273987288716
:103D8000888599858130910599F02885398523307A
:103D90003105F1F088859985009709F021C0ACE7DD
:103DA000B0E0ECE7F0E090818FE389238C9319C0B9
:103DB000ACE7B0E0ECE7F0E090818FE789238C93EB
:103DC000ACE7B0E0ECE7F0E0808180648C9309C060
:103DD000ACE7B0E0ECE7F0E08081806C8C9301C050
:103DE0001A828C81282F33273F832E838E819F81D7
:103DF000009771F02E813F812130310509F010C00C
:103E0000ACE7B0E0ECE7F0E0808180628C9309C021
:103E1000ACE7B0E0ECE7F0E080818F7D8C9301C0EF
:103E20001982ACE7B0E0ECE7F0E08081807E8C9313
:103E3000ACE7B0E0ECE7F0E090818D81892B8C93CA
:103E4000AAE7B0E0EAE7F0E08081887F8C93AAE7F8
:103E5000B0E0EAE7F0E0808186608C939A81898106
:103E6000892B992729960FB6F894DEBF0FBECDBFD8
:103E7000DF91CF910895CF93DF93CDB7DEB7289729
:103E80000FB6F894DEBF0FBECDBF88871A821982A5
:103E9000A1E3B0E0E1E3F0E08081482F8885282F9E
:103EA000332781E090E002C0880F991F2A95E2F73E
:103EB000809584238C93A0E3B0E0E0E3F0E0808180
:103EC000482F8885282F332781E090E002C0880F93
:103ED000991F2A95E2F7809584238C93AEE7B0E092
:103EE000EEE7F0E08081482F8885282F332781E096
:103EF00090E0022E02C0880F991F0A94E2F7842BEB
:103F00008C93AAE7B0E0EAE7F0E0808180688C93C8
:103F1000ECE7F0E080819927807C9070803C9105EF
:103F200081F41E821D8207C0000000008D819E81E9
:103F300001969E838D838D819E812FE7803E92071F
:103F400098F3AAE7B0E0EAE7F0E080818F7D8C93F8
:103F5000AAE7B0E0EAE7F0E0808180648C93EAE7CA
:103F6000F0E080819927807190700097C1F3AAE7F3
:103F7000B0E0EAE7F0E0808180618C931F822EC080
:103F8000AAE7B0E0EAE7F0E080818F7D8C93AAE7B2
:103F9000B0E0EAE7F0E0808180648C93EAE7F0E04B
:103FA00080819927807190700097C1F3E8E7F0E075
:103FB000808191819C838B8329813A818B819C8133
:103FC000820F931F9A838983AAE7B0E0EAE7F0E0C3
:103FD000808180618C938F818F5F8F838F8180310F
:103FE00078F289819A81929582958F7089279F7046
:103FF00089279C838B83AAE7B0E0EAE7F0E0908111
:104000008FE789238C938B819C8128960FB6F89437
:10401000DEBF0FBECDBFDF91CF910895CF93DF9369
:10402000CDB7DEB723970FB6F894DEBF0FBECDBF76
:104030009B838A83EFE3F0E0808199278270907000
:104040000097C1F78A819B81FC01E1BDF2BDF89A1E
:1040500080B589838981992723960FB6F894DEBFAE
:104060000FBECDBFDF91CF910895CF93DF93CDB732
:10407000DEB723970FB6F894DEBF0FBECDBF9A838D
:1040800089836B83EFE3F0E08081992782709070E1
:104090000097C1F789819A812B81FC01E1BDF2BDB6
:1040A00020BDFA9AF99A23960FB6F894DEBF0FBE98
:1040B000CDBFDF91CF910895CF93DF93CDB7DEB71A
:1040C00026970FB6F894DEBF0FBECDBF9A838983C3
:1040D0007C836B835E834D8316C089819A810E94A5
:1040E0000E20EB81FC81808389819A8101969A83DD
:1040F00089838B819C8101969C838B838D819E819A
:1041000001979E838D838D819E81009731F726963E
:104110000FB6F894DEBF0FBECDBFDF91CF910895EB
:10412000CF93DF93CDB7DEB726970FB6F894DEBFF7
:104130000FBECDBF9A8389837C836B835E834D835F
:1041400017C0E981FA8120818B819C81622F0E94B6
:10415000352089819A8101969A8389838B819C81FC
:1041600001969C838B838D819E8101979E838D8395
:104170008D819E81009729F726960FB6F894DEBFB1
:104180000FBECDBFDF91CF910895CF93DF93CDB711
:10419000DEB722970FB6F894DEBF0FBECDBF1A82EE
:1041A000198210C089819A810E940E208F3F29F0C8
:1041B00089819A816FEF0E94352089819A810196C9
:1041C0009A83898389819A8120E18030920750F314
:1041D00022960FB6F894DEBF0FBECDBFDF91CF9110
:1041E0000895CF93DF93CDB7DEB723970FB6F8943A
:1041F000DEBF0FBECDBF898389810E947B2C8823BF
:1042000019F41B821A820DC00E948E2BA8EDB0E01B
:10421000E8EDF0E0808182608C9381E090E09B8308
:104220008A838A819B8123960FB6F894DEBF0FBEE6
:10423000CDBFDF91CF910895CF93DF93CDB7DEB798
:104240002E970FB6F894DEBF0FBECDBF9A87898731
:10425000E985FA85818192818C30910501F5E985A6
:10426000FA8582858036B1F4ADEEB0E0E985FA8555
:1042700080818295807F8C93AFEEB0E0EFEEF0E02E
:1042800090818FE389238C93EEEEF0E01082E98534
:10429000FA851082E985FA8512860C94592A0E94C3
:1042A000C12B8C838C818F3F11F40C94502AE985AB
:1042B000FA8580E68287E985FA858C818083EDEE38
:1042C000F0E08C818295807F80838EEE90E09A83EF
:1042D000898308C0E981FA81108289819A810196D7
:1042E0009A83898389819A81883F910598F3E9852A
:1042F000FA850180F281E02DFE87ED878D859E8510
:104300008630910509F476C38D859E8587309105A9
:1043100030F58D859E858330910509F4D3C18D8557
:104320009E858430910568F48D859E858130910548
:10433000E9F18D859E858230910509F402C10C94C6
:104340004C2A8D859E858430910509F465C28D8542
:104350009E858530910509F4D1C20C944C2A8D8537
:104360009E858930910509F4C9C58D859E858A3061
:10437000910570F48D859E858730910509F4BEC343
:104380008D859E858830910509F4B3C40C944C2A20
:104390008D859E858A30910509F4BDC68D859E85E3
:1043A0008B30910509F453C70C944C2AE985FA85A2
:1043B0008485882309F457C0A3EFB0E089859A85E6
:1043C0000396FC0133968081282F220F220F220FA3
:1043D00089859A850396FC0132968081829586951F
:1043E0008770820F8C93A2EFB0E089859A8503963F
:1043F000FC0132968081282F220F220F220F8985FF
:104400009A850396FC013196808182958695877006
:10441000820F8C93A1EFB0E089859A850396FC0109
:1044200031968081282F220F220F220F89859A85AD
:104430000396FC018081829586958770820F8C930C
:10444000A0EFB0E089859A850396FC018081880FF2
:10445000880F880F8C93AFEEB0E0EFEEF0E0808134
:1044600080618C9328C0A3EFB0E089859A8503967C
:10447000FC0131968081282F2295220F207E89858C
:104480009A850396FC018081869586958695820F94
:104490008C93A2EFB0E089859A850396FC01808118
:1044A0008295880F807E8C93AFEEB0E0EFEEF0E067
:1044B00080818F7E8C931B8210C0AAEFB0E0E985CB
:1044C000FA85208531858B819927F901E80FF91F3D
:1044D00080818C938B818F5F8B83E985FA859781AF
:1044E0008B81891750F3E985FA858385882341F00C
:1044F000A0EFB0E0E0EFF0E0808184608C9307C033
:10450000A0EFB0E0E0EFF0E080818B7F8C93AFEE26
:10451000B0E0EFEEF0E09081E985FA858781892BA4
:104520008C93AFEEB0E0EFEEF0E090818FE3892363
:104530008C93AFEEB0E0EFEEF0E0808180648C937E
:10454000B8C7E985FA858485882309F457C0A3EFA5
:10455000B0E089859A850396FC0133968081282FE7
:10456000220F220F220F89859A850396FC0132962D
:104570008081829586958770820F8C93A2EFB0E040
:1045800089859A850396FC0132968081282F220F17
:10459000220F220F89859A850396FC01319680812E
:1045A000829586958770820F8C93A1EFB0E0898504
:1045B0009A850396FC0131968081282F220F220FC5
:1045C000220F89859A850396FC01808182958695C4
:1045D0008770820F8C93A0EFB0E089859A8503964F
:1045E000FC018081880F880F880F8C93AFEEB0E0BC
:1045F000EFEEF0E0808180618C9328C0A3EFB0E003
:1046000089859A850396FC0131968081282F229511
:10461000220F207E89859A850396FC0180818695EC
:1046200086958695820F8C93A2EFB0E089859A8556
:104630000396FC0180818295880F807E8C93AFEE7B
:10464000B0E0EFEEF0E080818F7E8C931B8210C093
:10465000AAEFB0E0E985FA85208531858B8199271D
:10466000F901E80FF91F80818C938B818F5F8B8319
:10467000E985FA8597818B81891750F3E985FA8559
:104680001386A0EFB0E0E0EFF0E080818B7F8C93A9
:10469000AFEEB0E0EFEEF0E09081E985FA8587813A
:1046A000892B8C93AFEEB0E0EFEEF0E090818FE3DA
:1046B00089238C93AFEEB0E0EFEEF0E08081806470
:1046C0008C93F7C6E985FA858485882309F457C059
:1046D000A3EFB0E089859A850396FC01339680812B
:1046E000282F220F220F220F89859A850396FC011D
:1046F00032968081829586958770820F8C93A2EF87
:10470000B0E089859A850396FC0132968081282F36
:10471000220F220F220F89859A850396FC0131967C
:104720008081829586958770820F8C93A1EFB0E08F
:1047300089859A850396FC0131968081282F220F66
:10474000220F220F89859A850396FC01808182952C
:1047500086958770820F8C93A0EFB0E089859A854B
:104760000396FC018081880F880F880F8C93AFEE31
:10477000B0E0EFEEF0E0808180618C9328C0A3EF81
:10478000B0E089859A850396FC0131968081282FB7
:104790002295220F207E89859A850396FC018081CF
:1047A000869586958695820F8C93A2EFB0E08985D9
:1047B0009A850396FC0180818295880F807E8C9378
:1047C000AFEEB0E0EFEEF0E080818F7E8C93E98574
:1047D000FA8581E08387A0EFB0E0E0EFF0E0808130
:1047E00084608C93AFEEB0E0EFEEF0E09081E9856D
:1047F000FA858781892B8C93AFEEB0E0EFEEF0E085
:1048000090818FE389238C93AFEEB0E0EFEEF0E080
:10481000808180648C934DC61D821E821F82188603
:10482000A7EFB0E0CE010596FC0133968081282FDA
:10483000220F220F220FCE010596FC0132968081B5
:10484000829586958770820F8C93A6EFB0E0CE019B
:104850000596FC0132968081282F220F220F220F0D
:10486000CE010596FC0131968081829586958770F0
:10487000820F8C93A5EFB0E0CE010596FC01319636
:104880008081982F990F990F990FFE01359680819D
:10489000829586958770890F8C93A4EFB0E0FE0116
:1048A00035968081880F880F880F8C93AFEEB0E02B
:1048B000EFEEF0E09081E985FA858781892B8C9372
:1048C000A4EFB0E0E4EFF0E080818B7F8C93A4EF65
:1048D000B0E0E4EFF0E080818E7F8C93AFEEB0E04B
:1048E000EFEEF0E090818FE389238C93AFEEB0E0A0
:1048F000EFEEF0E0808180688C93DBC51D821E8224
:104900001F821886A7EFB0E0CE010596FC01339612
:104910008081282F220F220F220FCE010596FC0145
:1049200032968081829586958770820F8C93A6EF50
:10493000B0E0CE010596FC0132968081282F220F2F
:10494000220F220FCE010596FC01319680818295BF
:1049500086958770820F8C93A5EFB0E0CE01059607
:10496000FC0131968081982F990F990F990FFE01C4
:1049700035968081829586958770890F8C93A4EFF8
:10498000B0E0FE0135968081880F880F880F8C93E8
:10499000AFEEB0E0EFEEF0E09081E985FA85878137
:1049A000892B8C93E985FA851386A4EFB0E0E4EFB8
:1049B000F0E0808184608C93A0EFB0E0E0EFF0E065
:1049C00080818B7F8C93A4EFB0E0E4EFF0E08081F6
:1049D0008E7F8C93AFEEB0E0EFEEF0E090818FE34E
:1049E00089238C93AFEEB0E0EFEEF0E08081806839
:1049F0008C935FC51D821E821F821886A7EFB0E0D0
:104A0000CE010596FC0133968081282F220F220FBC
:104A1000220FCE010596FC01329680818295869503
:104A20008770820F8C93A6EFB0E0CE010596FC0153
:104A300032968081282F220F220F220FCE01059659
:104A4000FC0131968081829586958770820F8C93C8
:104A5000A5EFB0E0CE010596FC0131968081982F3C
:104A6000990F990F990FFE01359680818295869551
:104A70008770890F8C93A4EFB0E0FE01359680819A
:104A8000880F880F880F8C93AFEEB0E0EFEEF0E068
:104A90009081E985FA858781892B8C93E985FA8550
:104AA00081E08387A4EFB0E0E4EFF0E080818460F0
:104AB0008C93A0EFB0E0E0EFF0E0808184608C9315
:104AC000AFEEB0E0EFEEF0E080818F7D8C93A4EF4D
:104AD000B0E0E4EFF0E080818E7F8C93AFEEB0E049
:104AE000EFEEF0E090818FE389238C93AFEEB0E09E
:104AF000EFEEF0E0808180688C93DBC4E985FA8575
:104B00008485882309F457C0A3EFB0E089859A858E
:104B10000396FC0133968081282F220F220F220F4B
:104B200089859A850396FC013296808182958695C7
:104B30008770820F8C93A2EFB0E089859A850396E7
:104B4000FC0132968081282F220F220F220F8985A7
:104B50009A850396FC0131968081829586958770AF
:104B6000820F8C93A1EFB0E089859A850396FC01B2
:104B700031968081282F220F220F220F89859A8556
:104B80000396FC018081829586958770820F8C93B5
:104B9000A0EFB0E089859A850396FC018081880F9B
:104BA000880F880F8C93AFEEB0E0EFEEF0E08081DD
:104BB00080618C9328C0A3EFB0E089859A85039625
:104BC000FC0131968081282F2295220F207E898535
:104BD0009A850396FC018081869586958695820F3D
:104BE0008C93A2EFB0E089859A850396FC018081C1
:104BF0008295880F807E8C93AFEEB0E0EFEEF0E010
:104C000080818F7E8C938FEF9FEFAFEFBFEF8D830F
:104C10009E83AF83B887A7EFB0E0CE010596FC0175
:104C200033968081282F220F220F220FCE01059666
:104C3000FC0132968081829586958770820F8C93D5
:104C4000A6EFB0E0CE010596FC0132968081282FB8
:104C5000220F220F220FCE010596FC013196808192
:104C6000829586958770820F8C93A5EFB0E0CE0178
:104C70000596FC0131968081982F990F990F990F15
:104C8000FE0135968081829586958770890F8C9379
:104C9000A4EFB0E0FE0135968081880F880F880F61
:104CA0008C93AFEEB0E0EFEEF0E09081E985FA850D
:104CB0008781892B8C93A4EFB0E0E4EFF0E0808152
:104CC0008B7F8C93A4EFB0E0E4EFF0E08081816013
:104CD0008C93AFEEB0E0EFEEF0E090818FE38923AC
:104CE0008C93AFEEB0E0EFEEF0E0808180688C93C3
:104CF000E0C3E985FA858485882309F457C0A3EFCA
:104D0000B0E089859A850396FC0133968081282F2F
:104D1000220F220F220F89859A850396FC01329675
:104D20008081829586958770820F8C93A2EFB0E088
:104D300089859A850396FC0132968081282F220F5F
:104D4000220F220F89859A850396FC013196808176
:104D5000829586958770820F8C93A1EFB0E089854C
:104D60009A850396FC0131968081282F220F220F0D
:104D7000220F89859A850396FC018081829586950C
:104D80008770820F8C93A0EFB0E089859A85039697
:104D9000FC018081880F880F880F8C93AFEEB0E004
:104DA000EFEEF0E0808180618C9328C0A3EFB0E04B
:104DB00089859A850396FC0131968081282F22955A
:104DC000220F207E89859A850396FC018081869535
:104DD00086958695820F8C93A2EFB0E089859A859F
:104DE0000396FC0180818295880F807E8C93AFEEC4
:104DF000B0E0EFEEF0E080818F7E8C938FEF9FEF3D
:104E0000AFEFBFEF8D839E83AF83B887A7EFB0E08E
:104E1000CE010596FC0133968081282F220F220FA8
:104E2000220FCE010596FC013296808182958695EF
:104E30008770820F8C93A6EFB0E0CE010596FC013F
:104E400032968081282F220F220F220FCE01059645
:104E5000FC0131968081829586958770820F8C93B4
:104E6000A5EFB0E0CE010596FC0131968081982F28
:104E7000990F990F990FFE0135968081829586953D
:104E80008770890F8C93A4EFB0E0FE013596808186
:104E9000880F880F880F8C93AFEEB0E0EFEEF0E054
:104EA0009081E985FA858781892B8C93E985FA853C
:104EB0001386A4EFB0E0E4EFF0E0808184608C938F
:104EC000A0EFB0E0E0EFF0E080818B7F8C93A4EF67
:104ED000B0E0E4EFF0E0808181608C93AFEEB0E071
:104EE000EFEEF0E090818FE389238C93AFEEB0E09A
:104EF000EFEEF0E0808180688C93DBC2E985FA8573
:104F00008485882309F457C0A3EFB0E089859A858A
:104F10000396FC0133968081282F220F220F220F47
:104F200089859A850396FC013296808182958695C3
:104F30008770820F8C93A2EFB0E089859A850396E3
:104F4000FC0132968081282F220F220F220F8985A3
:104F50009A850396FC0131968081829586958770AB
:104F6000820F8C93A1EFB0E089859A850396FC01AE
:104F700031968081282F220F220F220F89859A8552
:104F80000396FC018081829586958770820F8C93B1
:104F9000A0EFB0E089859A850396FC018081880F97
:104FA000880F880F8C93AFEEB0E0EFEEF0E08081D9
:104FB00080618C9328C0A3EFB0E089859A85039621
:104FC000FC0131968081282F2295220F207E898531
:104FD0009A850396FC018081869586958695820F39
:104FE0008C93A2EFB0E089859A850396FC018081BD
:104FF0008295880F807E8C93AFEEB0E0EFEEF0E00C
:1050000080818F7E8C938FEF9FEFAFEFBFEF8D830B
:105010009E83AF83B887A7EFB0E0CE010596FC0171
:1050200033968081282F220F220F220FCE01059662
:10503000FC0132968081829586958770820F8C93D1
:10504000A6EFB0E0CE010596FC0132968081282FB4
:10505000220F220F220FCE010596FC01319680818E
:10506000829586958770820F8C93A5EFB0E0CE0174
:105070000596FC0131968081982F990F990F990F11
:10508000FE0135968081829586958770890F8C9375
:10509000A4EFB0E0FE0135968081880F880F880F5D
:1050A0008C93AFEEB0E0EFEEF0E09081E985FA8509
:1050B0008781892B8C93E985FA8581E08387A4EF2A
:1050C000B0E0E4EFF0E0808184608C93A0EFB0E08A
:1050D000E0EFF0E0808184608C93AFEEB0E0EFEE23
:1050E000F0E080818F7D8C93A4EFB0E0E4EFF0E0FE
:1050F000808181608C93AFEEB0E0EFEEF0E09081C4
:105100008FE389238C93AFEEB0E0EFEEF0E0808187
:1051100080688C93CEC11B8210C0AAEFB0E0E985F5
:10512000FA85208531858B819927F901E80FF91FD0
:1051300080818C938B818F5F8B83E985FA85978142
:105140008B81891750F31D821E821F821886A7EF5C
:10515000B0E0CE010596FC0133968081282F220F06
:10516000220F220FCE010596FC0132968081829596
:1051700086958770820F8C93A6EFB0E0CE010596DE
:10518000FC0132968081282F220F220F220FCE01A0
:105190000596FC0131968081829586958770820FF5
:1051A0008C93A5EFB0E0CE010596FC01319680818D
:1051B000982F990F990F990FFE013596808182954E
:1051C00086958770890F8C93A4EFB0E0FE01359629
:1051D0008081880F880F880F8C93AFEEB0E0EFEEE0
:1051E000F0E09081E985FA858781892B8C93E985A8
:1051F000FA8581E08387A4EFB0E0E4EFF0E08081FE
:1052000084608C93A0EFB0E0E0EFF0E080818460F8
:105210008C93AFEEB0E0EFEEF0E0808180628C9393
:10522000A4EFB0E0E4EFF0E080818E7F8C93AFEEEE
:10523000B0E0EFEEF0E090818FE389238C93AFEE46
:10524000B0E0EFEEF0E0808180688C9332C1E985B8
:10525000FA858485882309F457C0A3EFB0E08985D7
:105260009A850396FC0133968081282F220F220F06
:10527000220F89859A850396FC013296808182955A
:1052800086958770820F8C93A2EFB0E089859A850E
:105290000396FC0132968081282F220F220F220FC5
:1052A00089859A850396FC01319680818295869541
:1052B0008770820F8C93A1EFB0E089859A85039661
:1052C000FC0131968081282F220F220F220F898521
:1052D0009A850396FC018081829586958770820F5E
:1052E0008C93A0EFB0E089859A850396FC018081BC
:1052F000880F880F880F8C93AFEEB0E0EFEEF0E0F0
:10530000808180618C9328C0A3EFB0E089859A8565
:105310000396FC0131968081282F2295220F207E52
:1053200089859A850396FC01808186958695869568
:10533000820F8C93A2EFB0E089859A850396FC01D9
:1053400080818295880F807E8C93AFEEB0E0EFEE87
:10535000F0E080818F7E8C931B8210C0AAEFB0E0BA
:10536000E985FA85208531858B819927F901E80F38
:10537000F91F80818C938B818F5F8B83E985FA8500
:1053800097818B81891750F38FEF9FEFAFEFBFEFBE
:105390008D839E83AF83B887A7EFB0E0CE010596DB
:1053A000FC0133968081282F220F220F220FCE017D
:1053B0000596FC0132968081829586958770820FD2
:1053C0008C93A6EFB0E0CE010596FC013296808169
:1053D000282F220F220F220FCE010596FC013196B5
:1053E0008081829586958770820F8C93A5EFB0E0BF
:1053F000CE010596FC0131968081982F990F990F67
:10540000990FFE0135968081829586958770890F68
:105410008C93A4EFB0E0FE0135968081880F880F51
:10542000880F8C93AFEEB0E0EFEEF0E09081E9856D
:10543000FA858781892B8C93E985FA8581E08387BA
:10544000A4EFB0E0E4EFF0E0808184608C93A0EF03
:10545000B0E0E0EFF0E0808184608C93AFEEB0E0EC
:10546000EFEEF0E0808180628C93A4EFB0E0E4EF97
:10547000F0E0808181608C93AFEEB0E0EFEEF0E081
:1054800090818FE389238C93AFEEB0E0EFEEF0E0F4
:10549000808180688C930DC0E985FA85128609C0E9
:1054A000E985FA858FE182878FEF90E09C878B8773
:1054B00002C01C861B868B859C852E960FB6F894A1
:1054C000DEBF0FBECDBFDF91CF910895CF93DF93A5
:1054D000CDB7DEB728970FB6F894DEBF0FBECDBFAD
:1054E0009C838B83EB81FC8182858A838A818823DC
:1054F00031F08A818F3119F08A818F3F29F422E0BF
:1055000030E038872F83FFC0ADEEB0E0EB81FC8147
:1055100080818295807F8C930E94022C8A838A816D
:10552000282F33273E832D838D819E8180329105E4
:10553000C9F02D813E81213231052CF48D819E816F
:10554000009769F0CAC02D813E812034310509F4ED
:10555000B3C08D819E81803A910521F0BEC081E06B
:105560008983CCC0EFEEF0E080818F70EB81FC810D
:105570008783EB81FC81808591850E94492CE0EF37
:10558000F0E0808199278470907095958795959526
:105590008795EB81FC818387EFEEF0E0808199278E
:1055A0008071907095958795959587959595879538
:1055B00095958795009709F44CC0EB81FC8181E0BB
:1055C00084878B819C810396DC011396E3EFF0E0E6
:1055D00080818695869586958C938B819C81039698
:1055E000DC011296E2EFF0E08081982F9695969577
:1055F0009695E3EFF0E080818295880F807E890F99
:105600008C938B819C810396DC011196E1EFF0E095
:105610008081982F969596959695E2EFF0E080819F
:105620008295880F807E890F8C938B819C81039655
:10563000DC01E0EFF0E08081982F969596959695A5
:10564000E1EFF0E080818295880F807E890F8C9356
:1056500022C0EB81FC8114868B819C810396DC0146
:105660001196E3EFF0E080818295869587708C93A8
:105670008B819C810396DC01E2EFF0E08081982F22
:10568000929596959770E3EFF0E08081880F880FF0
:10569000880F890F8C93EB81FC818A818287AFEE22
:1056A000B0E0EFEEF0E090818FE389238C93EEEE93
:1056B000F0E01082198222C0EB81FC818A8182870E
:1056C000AFEEB0E0EFEEF0E090818FE389238C93B2
:1056D000EEEEF0E01082198211C0EB81FC818A812C
:1056E0008287AFEEB0E0EFEEF0E090818FE38923A8
:1056F0008C93EEEEF0E0108282E089838981282F7E
:10570000332738872F838F81988528960FB6F89492
:10571000DEBF0FBECDBFDF91CF910895CF93DF9352
:10572000CDB7DEB723970FB6F894DEBF0FBECDBF5F
:105730001B821BC0EDEEF0E08B818295807F808321
:105740008EEE90E09A83898308C0E981FA81108205
:1057500089819A8101969A83898389819A81883F78
:10576000910598F38B818F5F8B838B818F3010F342
:1057700023960FB6F894DEBF0FBECDBFDF91CF9159
:105780000895CF93DF93CDB7DEB724970FB6F89483
:10579000DEBF0FBECDBFEDEEF0E0808189831A82BF
:1057A0001BC0EDEEF0E08A818295807F8083EFEE72
:1057B000F0E080819927807C9070009751F4EDEEA5
:1057C000F0E0898180838A81282F33273C832B83D3
:1057D0000EC08A818F5F8A838A818F3010F3EDEE4D
:1057E000F0E0898180838FEF90E09C838B838B81B5
:1057F0009C8124960FB6F894DEBF0FBECDBFDF911B
:10580000CF910895CF93DF93CDB7DEB724970FB62E
:10581000F894DEBF0FBECDBFEFEEF0E08081992798
:10582000807C9070009729F42FEF30E03C832B832D
:1058300025C0EEEEF0E08081898390EE8981892396
:105840008A838A81803231F08A81803419F08A819A
:10585000803A31F48A81282F33273C832B830EC072
:1058600089818F718A838A81882331F08A81282FE8
:1058700033273C832B8302C01C821B828B819C813B
:1058800024960FB6F894DEBF0FBECDBFDF91CF9147
:105890000895CF93DF93CDB7DEB723970FB6F89473
:1058A000DEBF0FBECDBF9B838A8319820FC0898163
:1058B00099279C018A819B81D901A80FB91FEAEF22
:1058C000F0E080818C9389818F5F89838981282F83
:1058D0003327EFEEF0E0808199278F7090702817C2
:1058E00039072CF323960FB6F894DEBF0FBECDBF59
:1058F000DF91CF910895CF93DF93CDB7DEB7679750
:105900000FB6F894DEBF0FBECDBF8A8B1E821886FD
:1059100088858B871B821D821C8281E08A878A8909
:105920008823A1F481E0888B88E08E8782E08D87D0
:1059300082E08C879D858C85980F8E85891B815090
:105940008F8781E08F8381E0898799C0E2EEF0E064
:10595000808199278E7790709595879518161906EE
:1059600064F4E2EEF0E0808199278E77907095954F
:105970008795982F9F5F9F8B02C081E08F8B9F89B7
:10598000988BE3EEF0E0808199278E70907095956A
:1059900087951816190664F4E3EEF0E080819927E4
:1059A0008E70907095958795982F9F5F9E8B02C003
:1059B00081E08E8B9E899F87E4EEF0E080819927BD
:1059C0008E709070959587958230910564F0E4EE25
:1059D000F0E0808199278E70907095958795982F2B
:1059E0009F5F9D8B02C082E08D8B9D899D87E4EE39
:1059F000F0E08081992780779070959587959595AF
:105A0000879595958795959587958230910594F022
:105A1000E4EEF0E0808199278077907095958795E6
:105A2000959587959595879595958795982F9F5FDF
:105A30009C8B02C082E08C8B9C899C878F85282F51
:105A400033278D859927280F391F8C859927820F39
:105A5000931F883091054CF09F858D85980F8C851C
:105A6000890F982F9F5F9B8B02C088E08B8B9B894F
:105A70009E8781E0888788858B871F821986198A8F
:105A80001BC0EDEEF0E089898295807F80838EEEE9
:105A900090E09A83898308C0E981FA811082898124
:105AA0009A8101969A83898389819A81883F910599
:105AB00098F389898F5F898B89898F3010F34DC165
:105AC0008F81813009F0B9C0E8EDF0E081E080839A
:105AD0008C819D8101969D838C831E82E2EEF0E095
