:100000000C944A000C9467000C9467000C946700F1
:100010000C9467000C9467000C9467000C946700C4
:100020000C9467000C9467000C9467000C946700B4
:100030000C9467000C9467000C9467000C946700A4
:100040000C9467000C9467000C9467000C94670094
:100050000C9467000C9467000C9467000C94670084
:100060000C9467000C9467000C9467000C94670074
:100070000C9467000C9467000C9467000C94670064
:100080000C9467000C9467000C9467000C94670054
:100090000C94670011241FBECFEFD0E1DEBFCDBFAF
:1000A00011E0A0E0B1E0E8EFFBE000E00BBF02C030
:1000B00007900D92A034B107D9F711E0A0E4B1E0A8
:1000C00001C01D92AA34B107E1F70C9469000C94A9
:1000D0000000CF93DF93CDB7DEB721970FB6F8942A
:1000E000DEBF0FBECDBF85E589830E9491008EEAF9
:1000F00090E02EEC30E0BC01C9010E943A018981F8
:1001000099279F938F9380E091E09F938F930E9414
:100110008A010F900F900F900F9089818F5F8983D4
:10012000FFCFCF93DF93CDB7DEB7E1ECF0E01082E5
:10013000E5ECF0E01082E4ECF0E08CE08083E0ECB1
:10014000F0E080E28083E2ECF0E08EE08083E1EC9E
:10015000F0E088E18083DF91CF910895CF93DF9322
:10016000CDB7DEB721970FB6F894DEBF0FBECDBF77
:10017000E0ECF0E08081882314F0198204C0E6EC02
:10018000F0E0808189838981992721960FB6F894C0
:10019000DEBF0FBECDBFDF91CF910895CF93DF9328
:1001A000CDB7DEB721970FB6F894DEBF0FBECDBF37
:1001B0008983E0ECF0E0808199278072907000974D
:1001C000C1F3E6ECF0E08981808321960FB6F894C4
:1001D000DEBF0FBECDBFDF91CF910895CF93DF93E8
:1001E000CDB7DEB722970FB6F894DEBF0FBECDBFF6
:1001F0009A8389830BC0E981FA81208189819A8160
:1002000001969A838983822F0E94CE00E981FA8128
:100210008081882381F722960FB6F894DEBF0FBE47
:10022000CDBFDF91CF910895CF93DF93CDB7DEB7E8
:1002300022970FB6F894DEBF0FBECDBF9A83898395
:100240000BC0E981FA81208189819A8101969A8384
:100250008983822F0E94CE00E981FA8180818823E0
:1002600081F722960FB6F894DEBF0FBECDBFDF91A7
:10027000CF910895EF92FF920F931F93CF93DF9347
:100280008C017B01892B11F4672BD1F16EE070E0BA
:1002900081E090E00E947204FC01009789F1DC018A
:1002A00080E88383E114F10471F0F386E28681E84B
:1002B00083838091400190914101892B21F4F09337
:1002C0004101E093400101151105E1F0118700871C
:1002D0008381826083838091420190914301892BC5
:1002E00089F4F0934301E09342018091440190919D
:1002F0004501892B39F4F0934501E093440102C094
:10030000A0E0B0E0CD01DF91CF911F910F91FF9060
:10031000EF900895CF93DF93CDB7DEB722970FB656
:10032000F894DEBF0FBECDBFFE013796619171918B
:10033000FA83E983AF0180914201909143010E94C9
:10034000AA0122960FB6F894DEBF0FBECDBFDF9193
:10035000CF9108952F923F924F925F926F927F922A
:100360008F929F92AF92BF92CF92DF92EF92FF92C5
:100370000F931F93CF93DF93CDB7DEB764970FB67C
:10038000F894DEBF0FBECDBFCC24DD2476011C0166
:100390007C8B6B8B2A01FC0117821682838181FD85
:1003A00003C08FEF9FEF85C2AA24BB246FC2A0FEBB
:1003B00054C28A8980538A30E8F4FA89F03341F4D0
:1003C0002D85222329F4A3FC03C080E091E06FC0B7
:1003D0008AE0ED85E802C0011124FA89F80FF05394
:1003E000FD87F7FF02C02FE72D87A3FC49C23D859B
:1003F0003E8746C2C50188709070A3FE05C0ED859A
:10040000EE2311F4F1E0FD872A89283624F52536FC
:100410000CF05BC0233509F480C024358CF42B32FA
:10042000C1F12C3234F42032C1F1233209F00AC276
:100430003CC03A893D32B1F13E3209F003C23AC0C4
:100440008A89833609F449C084360CF081C0883526
:1004500009F0F8C11BC0EA89E03709F4A3C0E1370D
:1004600044F4EC3669F1EF3671F0E93609F0EAC18F
:100470006FC0FA89F53709F49DC0F83739F0F337C2
:1004800009F0E0C134C028E0298B94C030E1398BF9
:1004900091C080E190E0A82AB92AE0E2F0E0AE2A1B
:1004A000BF2AEEC120E830E00DC080E490E0A82A29
:1004B000B92AE6C1E8E0F0E0AE2ABF2A1D86E0C115
:1004C00024E030E0A22AB32ADBC13FE3C32E3E85FD
:1004D00031503E8783E68A8B41C1F201C080FE85A0
:1004E000F150FE8722E030E0420E531E37C1F20188
:1004F000C080D180892B49F0FD856F2F772767FD5C
:100500007095C6010E94A20519C0F6010190002055
:10051000E9F73197EC19E98B12C0F201C080D18064
:10052000892B49F0FD856F2F772767FD7095C601F0
:100530000E94900503C0C6010E948705898B22E0B6
:1005400030E0420E531E3E858989381B3E8706C126
:10055000A2FE08C0F20180819181A281B38124E0D2
:1005600030E009C0F20180819181AA2797FDA09512
:10057000BA2F22E030E0420E531E6C017D01B7FF1E
:100580000CC082E090E0A82AB92AF094E094D094BC
:10059000C094C11CD11CE11CF11CEFEBFFEFAE229B
:1005A000BF2221C020E430E0A22AB32A38E73A8BE8
:1005B00080E1898BA2FE08C0F20180819181A28135
:1005C000B38124E030E007C0F20180819181AA2745
:1005D000BB2722E030E0420E531E6C017D018FEC00
:1005E0009FEFA822B92287017601FE013196F88B90
:1005F000EF87F9896F2E772488249924C801B701E1
:10060000A40193010E94DA056A3024F02A89620F5E
:10061000615201C0605DEF85F8896193F88BEF87C7
:10062000C801B701A40193010E94DA0579018A018A
:10063000211531054105510509F7CC24DD2476014A
:10064000CE010196CF84C81AC50182739070892BA0
:1006500019F0FE85F150FE87A6FE09C029892031D8
:1006600011F482E001C081E03E85381B3E8728E01E
:10067000822E912C8A209B20A3FE18C08D85282FC6
:10068000332727FD30958C2D9927821793073CF04F
:10069000E7EFFFEFAE22BF228824992407C0FD8533
:1006A000FC19FD872E852F1B2E8703C03E853C1924
:1006B0003E87C50180789170892B69F48E8506C0CC
:1006C000B10180E290E00E94AD05812F182F1150FA
:1006D0001816B4F31E87A1FE04C0B1018DE290E0AC
:1006E0000BC0A4FE04C0B1018BE290E005C0A5FEE2
:1006F00005C0B10180E290E00E94AD05A6FE10C0E9
:10070000B10180E390E00E94AD058989803141F418
:10071000B101EA898E2F992787FD90950E94AD053A
:10072000B0FE0DC08E8506C0B10180E390E00E944E
:10073000AD05812F182F11501816B4F31E87892884
:1007400069F02D8506C0B10180E390E00E94AD05FF
:10075000212F122F11501216B4F31D8790E8692E25
:10076000712C6A207B20A7FC0DC08E8506C0B101CC
:1007700080E290E00E94AD05812F182F11501816CD
:10078000B4F31E87FA89F33641F4B1018C2D992711
:1007900087FD90950E94AD0545C02A892337B1F4A5
:1007A00046015601198909C0F50181915F01B10126
:1007B000992787FD90950E94AD051150A8F7640117
:1007C000F989CF0ED11C2FEF298B2CC03A893335F4
:1007D00019F00F8518891FC046018601B98808C025
:1007E000F8018491B10199270E94AD050F5F1F4F59
:1007F000BA94FFEFBF16A1F764012989C20ED11C7C
:10080000F98B10C0F80182918F01B101992787FD02
:1008100090950E94AD05CE0101960817190791F732
:10082000188B0F876728B1F08E8506C0B10180E272
:1008300090E00E94AD05812F182F11501816B4F3C7
:100840001E8708C0B101FA898F2F992787FD9095DF
:100850000E94AD05AA24BB2413C02A89253241F485
:100860003AE0398B1E861D8681E0A82EB12C08C087
:10087000B101EA898E2F992787FD90950E94AD05D9
:100880002B893C892F5F3F4F3C8B2B8BF101838160
:1008900083FF04C0EB89FC89F49103C0EB89FC89D8
:1008A000F081FA8B2A89222309F081CDF10186811A
:1008B000978164960FB6F894DEBF0FBECDBFDF916F
:1008C000CF911F910F91FF90EF90DF90CF90BF904D
:1008D000AF909F908F907F906F905F904F903F90E0
:1008E0002F9008950F931F93CF93DF93869F8001DE
:1008F000879F100D969F100D1124C8010E948E0431
:10090000EC01009729F0A80160E070E00E949B05CF
:10091000CE01DF91CF911F910F910895CF93DF9377
:10092000AC01029710F442E050E0A0914801B09170
:100930004901FD01C0E0D0E020E030E020C080812E
:1009400091818417950769F482819381209719F02A
:100950009B838A8304C09093490180934801CF010F
:1009600032C04817590738F42115310519F082179C
:10097000930708F49C01EF010280F381E02D30978A
:10098000F1F62115310589F1C901841B950B0497F6
:1009900008F4A901E0E0F0E026C08D919C91119748
:1009A00082179307E9F44817590779F4ED018A8112
:1009B0009B81309719F09383828304C090934901FF
:1009C00080934801CD01029649C0841B950BFD011F
:1009D000E80FF91F4193519302978D939C933AC06E
:1009E000FD01A281B3811097C1F6809146019091DB
:1009F0004701892B41F480913C0190913D019093F6
:100A000047018093460120913E0130913F0121151D
:100A1000310541F42DB73EB780913A0190913B01E9
:100A2000281B390BE0914601F09147012E1B3F0B2B
:100A30002417350788F0CA0102962817390760F095
:100A4000CF01840F951F0296909347018093460132
:100A500041935193CF0102C080E090E0DF91CF91AC
:100A60000895CF93DF93009709F44EC0EC012297CD
:100A70001B821A82A0914801B0914901109711F18F
:100A800040E050E001C0DC01AC17BD0700F1BB83C2
:100A9000AA83FE0121913191E20FF31FEA17FB07B0
:100AA00071F42E5F3F4F8D919C911197820F931F90
:100AB00099838883FD01828193819B838A83411579
:100AC000510559F4D0934901C09348011DC0FD015F
:100AD00082819381AD010097B1F6FA01D383C2837D
:100AE00021913191E20FF31FEC17FD0769F42E5F9E
:100AF0003F4F88819981820F931FFA0191838083F0
:100B00008A819B8193838283DF91CF910895FC0139
:100B100005900020E9F7809590958E0F9F1F08950E
:100B2000FC010590615070400110D8F780959095B8
:100B30008E0F9F1F0895DC0101C06D9341505040FE
:100B4000E0F70895FC016150704001900110D8F762
:100B5000809590958E0F9F1F08950F931F93CF93AD
:100B6000DF938C01EB018B81992781FF1BC082FFF2
:100B70000DC02E813F818C819D812817390764F437
:100B8000E881F9810193F983E88306C0E885F98556
:100B9000802F0995892B31F48E819F8101969F8347
:100BA0008E8302C00FEF1FEFC801DF91CF911F911D
:100BB0000F910895A1E21A2EAA1BBB1BFD010DC0C7
:100BC000AA1FBB1FEE1FFF1FA217B307E407F507FD
:100BD00020F0A21BB30BE40BF50B661F771F881FD9
:100BE000991F1A9469F760957095809590959B016F
:080BF000AC01BD01CF01089525
:100BF80048656C6C6F20776F726C642C2074686524
:100C0800206D616769632076616C75652069732062
:100C18003D2030782558202E2E2E2066696674795E
:100C28002D6669766520210D0A0020004A01000022
:00000001FF
